:020000040800F2
:10000000A804002045010008951700089B0A000875
:100010000D1300081B090008A11E000800000000C5
:100020000000000000000000000000007D19000832
:10003000390900080000000045180008691A000886
:100040005F0100085F0100085F0100085F01000810
:100050005F0100085F0100085F0100085F01000800
:100060005F0100085F0100085F0100085F010008F0
:100070005F0100085F0100085F0100085F010008E0
:100080005F0100085F0100085F0100085F010008D0
:100090005F0100085F0100085F0100085F010008C0
:1000A0005F0100085F0100085F0100085F010008B0
:1000B0005F0100085F0100085F0100085F010008A0
:1000C0005F0100085F0100085F0100085F01000890
:1000D0005F010008511B00085F0100085F01000874
:1000E0005F0100085F0100085F0100085F01000870
:1000F0005F0100085F0100085F0100085F01000860
:100100005F0100085F0100085F0100085F0100084F
:100110005F0100085F0100085F0100085F0100083F
:100120005F0100085F0100085F0100085F0100082F
:10013000DFF80CD000F0B8FB00480047292C00087D
:10014000A80400200648804706480047FEE7FEE76F
:10015000FEE7FEE7FEE7FEE7FEE7FEE7FEE7FEE777
:10016000711A000831010008F0B480EA0102D40FCE
:100170004200B2EB410F02D20246084611464A0045
:1001800042D0C30DDDB2C1F3C752AD1A202D35DA0E
:10019000C1F3160141F4000204B15242C5F1200638
:1001A00002FA06F12A411044B3EBD05F23D0C4B168
:1001B000012DA0EBC35009DCF0BC4FF0004202EA75
:1001C000C352DBB200F5000000F0B3BA400000F10A
:1001D000807000EBC350A0F1807040EAD1704900FC
:1001E00009E0490841EAC071A0EBC35000F50000E6
:1001F000400800EBC350F0BC00F092BA614201220B
:1002000002EB4101001BF6E7F0BC704781F00041B2
:10021000AAE780F00040A7E780EA010210B502F0EB
:100220000043400022D04A001FD0010E01EB1261B2
:10023000C0F35600C2F3560240F4000042F400023C
:10024000A0FB022000047F39140400D0401C50EAB7
:10025000124001D44000491EC2B20C0604EBD0107B
:10026000401C4008802A02D003E0002010BD20F08E
:100270000100002900DA0020184310BD2DE9FE4FCF
:10028000804681EA0300C00F0C46009021F0004137
:1002900023F00045B8EB0200A94105D240462146B3
:1002A00090461C460B46024623F00040104347D0C0
:1002B000270DC7F30A00C3F30A510290401A0190B8
:1002C00040286BDAC3F3130040F4801B0098924679
:1002D00020B10023D2EB030A63EB0B0B01985946C4
:1002E000C0F14002504600F0FAF906460D4650466D
:1002F0005946019A00F002FA10EB0800614100240F
:1003000087EA115284EAE7731A4340D0009A62B335
:10031000019A012A4FEA075215DC001B61EB02012A
:100320004FF0004202EA0752CDE90042001C41F5BD
:10033000801132462B4600F039FA03B0BDE8F08F49
:1003400040462146F9E7001B61EB0201001C41F524
:10035000801300185B412018A2F5001747EB03013A
:1003600040EAD570B6196D4111E06D084FEA3606C6
:1003700045EAC0754FEA0752001B61EB0201001C01
:1003800041F5801149084FEA3000001951413246C9
:100390002B4603B0BDE8F04F00F0F9B900980122F8
:1003A00040000023D0EB020263EBE073009821468B
:1003B0004FEAE074B8EB000061EB0401E9E783F079
:1003C00000435BE781F0004158E72DE9FE4F81EAE9
:1003D000030404F0004421F0004100944FF0000BAE
:1003E00023F0004350EA01045ED052EA03045BD0DC
:1003F000C3F30A54C1F30A552C44A4F2F334019414
:10040000A0FB0254C1F3130141F48011C3F31303A1
:1004100043F4801301FB024400FB034E840A970A55
:1004200044EA815447EA8357A4FB076802958D0A82
:1004300005FB07854FEA932C04FB0C542705029D0E
:100440004FEA065847EA1637B5EB08056EEB070C7E
:10045000870E920E47EA811742EA8312A7FB020138
:10046000B6EB0B0164EB00042B0D43EA0C335E1872
:1004700044EB1C50DA465146E7FB0201C5F3130476
:100480004FEA0B3343EA14534FEA0432019C43EA28
:100490000603A4F10C040294009CCDE900B400F022
:1004A00085F903B0BDE8F08F00200146F9E72DE99A
:1004B000F04D81EA030404F0004B21F0004514469E
:1004C0004FF0000A23F0004150EA050220D054EA20
:1004D00001021DD0C5F30A570246C5F31303C1F349
:1004E0001300C1F30A5640F4801543F48013A7EBC0
:1004F0000608101BD64608F2FD3873EB050002D340
:1005000008F1010801E092185B41B8F1000F03DA2D
:1005100000200146BDE8F08D00204FF48011064612
:1005200084460EE0171B73EB050705D3121B63EB24
:10053000050306434CEA010C49084FEA30009218C3
:100540005B4150EA0107EDD152EA030012D082EA82
:10055000040083EA0501084305D0101BAB4106D215
:100560000122002306E000224FF0004302E06FF07A
:10057000010253101AEB06004CEB085110EB0A0075
:1005800041EB0B01BDE8F04D00F001B9C10F80EA6D
:10059000E0700844CA079623002100F0CAB80EB5DF
:1005A000C10F80EAE0700844CA07002140F23343DB
:1005B0008DE80E000A460B4600F0F8F803B000BDC7
:1005C00000F0004220F00040C10DC0F3160040F4DE
:1005D00000007F2901DA00207047962903DCC1F171
:1005E0009601C84001E096398840002AF4D0404284
:1005F000704700F0004230F000400AD0C10D01F514
:100600006071C0F3160042EA0151C208400711436D
:10061000704700200146704701F0004330B421F0DC
:10062000004150EA010206D00A0DA2F56072C1F342
:100630001301002A02DC30BC00207047440F44EA5A
:10064000C104C100E01830BC00EBC25000F068B833
:1006500030B50B46014600202022012409E021FA92
:1006600002F59D4205D303FA02F5491B04FA02F58F
:100670002844151EA2F10102F1DC30BD2DE9F05F26
:100680000546002092469B46884606468146402401
:100690001BE0284641464746224600F017F95346DC
:1006A0005A46C01A914110D311461846224600F00E
:1006B00016F82D1A67EB01084F462246012000214B
:1006C00000F00DF817EB00094E41201EA4F10104C3
:1006D000DFDC484631462A464346BDE8F09F202AE3
:1006E00004DB203A00FA02F1002070479140C2F189
:1006F000200320FA03F3194390407047202A06DBB9
:10070000CB17203A41FA02F043EAE07306E041FADF
:1007100002F3D040C2F120029140084319467047CD
:100720000029A8BF7047401C490008BF20F0010005
:10073000704710B4B0FA80FC00FA0CF050EA0104E3
:1007400004BF10BC704749B1CCF1200421FA04F475
:1007500011FA0CF118BF012121430843A3EB0C014E
:10076000CB1D4FEA00614FEA102042BF002010BCB1
:10077000704700EBC35010440029A4BF10BC704761
:10078000401C490008BF20F0010010BC704710B5A4
:10079000141E73F1000408DA401C41F100019218A4
:1007A0005B411A4301D120F0010010BD2DE9F04D4D
:1007B00092469B4611B1B1FA81F202E0B0FA80F2A2
:1007C00020329046FFF78BFF04460F4640EA0A00AE
:1007D00041EA0B0153465A46084313D0114653EAE7
:1007E000010019D0C8F14002504600F06FF80546EC
:1007F0000E46504659464246FFF771FF084305D062
:10080000012004E020463946BDE8F08D0020054374
:1008100046EAE0762C4337430A986305E40AA0EBE6
:1008200008000022FD0A44EA47540A3002D500209D
:100830000146E9E7010510196941DDE9084500199C
:100840006941BDE8F04DA2E7C1F30A52C1F31301BB
:1008500040F2FF3341F480119A4202DA002001464F
:10086000704740F233439A42A2F2334202DC5242D2
:1008700000F02CB8FFF733BF30B5041E71F100044F
:1008800004DB4FF00044404264EB0101141E73F19D
:10089000000405DB1C464FF00043524263EB0403A7
:1008A000994208BF904230BD064C074D06E0E06813
:1008B00040F0010394E8070098471034AC42F6D3A7
:1008C000FFF73AFC002E0008202E0008202A04DB47
:1008D000203A21FA02F00021704721FA02F3D040B9
:1008E000C2F12002914008431946704770B521F0CB
:1008F000004303430CD0C1F30A550024D5EB040593
:1009000064EB0403D617AD1AB34102DB00200146A5
:1009100070BD201841EB025170BD00BFFEE7000022
:100920000448006820B103480068401E014908607F
:100930007047000028000020704700000749086049
:100940004FF0E021096941F001014FF0E02211610F
:1009500000BF024909680029FBD170472800002028
:100960002DE9F04102460025002600200023002446
:10097000002791F803C00CF00F0591F803C00CF0AC
:10098000100CBCF1000F03D091F802C04CEA050531
:1009900091F800C0BCF1000F31D0146800202BE0AA
:1009A0004FF0010C0CFA00F3B1F800C00CEA03069A
:1009B0009E4220D183004FF00F0C0CFA03F7BC438A
:1009C00005FA03FC4CEA040491F803C0BCF1280FBB
:1009D00006D14FF0010C0CFA00FCC2F814C00AE07A
:1009E00091F803C0BCF1480F05D14FF0010C0CFA8F
:1009F00000FCC2F810C0401C0828D1D31460B1F824
:100A000000C0BCF1FF0F34DD546800202EE000F17F
:100A1000080C4FF0010808FA0CF3B1F800C00CEA1A
:100A200003069E4221D183004FF00F0C0CFA03F70E
:100A3000BC4305FA03FC4CEA040491F803C0BCF182
:100A4000280F05D100F1080C08FA0CF8C2F8148040
:100A500091F803C0BCF1480F07D100F1080C4FF02A
:100A6000010808FA0CF8C2F81080401C0828CED300
:100A70005460BDE8F0810246002093680B400BB142
:100A8000012000E00020704741617047016170471C
:100A90000AB1016100E04161704700BFFEE700005C
:100AA0002DE9F04F85B02948B0F90000FFF76EFD41
:100AB00082462748B0F90000FFF768FD83462548C5
:100AC000B0F90000FFF762FD04902348B0F9000080
:100AD000FFF75CFD0446514620480068FFF79CFB89
:100AE00005462146FFF740FB82461D48B0F900004D
:100AF000FFF74CFD044659461A480068FFF78CFB87
:100B000005462146FFF730FB83465046FFF771FD4F
:100B100004460D465846FFF76CFD064622462B4616
:100B200001F0B0FF0022104BCDE90001FFF74DFCB2
:100B30000E4A0F4BCDE90201FFF7B9FC8046FFF7E3
:100B40006BFD0C49086005B0BDE8F08F780000200F
:100B50007A0000207C0000207E000020840000201D
:100B6000800000208800002000806640A7E8482E12
:100B7000FF210940A00000202DE9F34F8BB08246F1
:100B8000002006460546814604460AEB4A00C0EBB3
:100B9000CA104FF6FF7101EA800BA3E000F01EF9C6
:100BA0007C48B0F90000A0421FDD4FF07E500C9948
:100BB000FFF72CFB08902046FFF7E8FC0790089908
:100BC000FFF72AFB07467348B0F90000FFF7DEFC89
:100BD00008900C99FFF720FB80463946FFF7C4FACE
:100BE0000990FFF7EDFC04B224E06A48B0F9000078
:100BF00048451FDA4FF07E500C99FFF707FB08902D
:100C00004846FFF7C3FC07900899FFF705FB8046AD
:100C10006048B0F90000FFF7B9FC08900C99FFF7A5
:100C2000FBFA41460990FFF79FFA0746FFF7C8FC19
:100C30000FFA80F95848B0F90000A8421FDD4FF0C4
:100C40007E500C99FFF7E2FA08902846FFF79EFCC9
:100C500007900899FFF7E0FA09904F48B0F90000B3
:100C6000FFF794FC08900C99FFF7D6FA8046099993
:100C7000FFF77AFA0746FFF7A3FC05B223E04648E0
:100C8000B0F90000B0421EDA4FF07E500C99FFF729
:100C9000BDFA08903046FFF779FC07900899FFF7F6
:100CA000BBFA80463C48B0F90000FFF76FFC0890A3
:100CB0000C99FFF7B1FA41460990FFF755FA07463C
:100CC000FFF77EFC06B22B464A46214633A000962B
:100CD00001F0E8F84FF4FA60FFF730FEABF10100E5
:100CE0001FFA80FBBBF1000F3FF758AF4FF07E506B
:100CF0002E490860A81BFFF752FCCDE90601A4EBC2
:100D00000900FFF74CFC07460022294BFFF75DFB6B
:100D1000CDE90401DDE90623FFF7C9FBCDE90801B0
:100D2000FFF77AFC23490860A4EB090000EBD071BF
:100D3000C4EB610109B2204A1180A81B00EBD071FD
:100D4000C5EB610109B21D4A11801A480068FFF71E
:100D500050FCCDE9080115480068FFF74AFC07463A
:100D600088461648B0F900001349B1F90010CDE9E2
:100D70000610DDE908012B464A46CDE902780096C7
:100D8000CDE9040121460EA001F08CF80DB0BDE8BC
:100D9000F08F0000780000207A00002025642025D4
:100DA00064202564202564200D0A000084000020B2
:100DB0000000F03F880000207E000020800000201E
:100DC00025642025642025642025642025662025AF
:100DD00066202564202564200D0A00002DE9FC41D1
:100DE00006236A4603211E2000F0DCF810B1032020
:100DF000BDE8FC819DF801009DF8001040EA01204B
:100E000000B2214908809DF803009DF8021040EAD5
:100E1000012000B21D4908809DF805009DF80410CE
:100E200040EA012000B21A4908801748B0F90000D2
:100E3000FFF7B5FB06460022164BFFF738FB0446CA
:100E4000FFF7EAFB144908601148B0F90000FFF70A
:100E5000A6FB064600220F4BFFF729FB0446FFF7CF
:100E6000DBFB0E4908600948B0F90000FFF797FB6B
:100E700006460022074BFFF71AFB0446FFF7CCFBA0
:100E8000074908600020B3E7780000207C000020BC
:100E90007A0000200068954094000020980000200F
:100EA0009C00002010B501230D4A0A211E2000F0ED
:100EB00079F808B1012010BD01230A4A0B211E2038
:100EC00000F070F808B10220F5E70123064A0C2172
:100ED0001E2000F067F808B10320ECE70020EAE7E5
:100EE00090000020910000209200002008B542F2FE
:100EF0001070FFF723FDFFF7D5FF08B1012008BDF3
:100F000018480078482807D117480078342803D1BA
:100F100016480078332801D00220F0E778200090AE
:100F200001236A4600211E2000F09EF908B103202B
:100F3000E5E70020009001236A4619461E2000F0D4
:100F400093F908B10420DAE70020009001236A46F3
:100F500002211E2000F088F908B10520CFE700200B
:100F6000CDE70000900000209100002092000020BA
:100F700010B504460121082000F076FCC020074986
:100F800008801420C870032088700548FFF7E8FC2B
:100F9000C0210348FFF77AFD10BD0000300000209B
:100FA000000C01402DE9F04105460F4690461E46D3
:100FB00000F0DCF8002141EA4501C8B200F0A8F8D1
:100FC00000F010F9012804D100F0EEF80120BDE88E
:100FD000F081384600F09CF800F004F9012803D1B4
:100FE00000F0E2F80120F2E700F0C0F8012101EB87
:100FF0004501C8B200F08CF800F0F4F8012803D1E4
:1010000000F0D2F80120E2E700240FE000F014F82D
:1010100008F80400701EA04203D1012000F056F829
:1010200002E0002000F052F8601CC4B2B442EDDBD4
:1010300000F0BAF80020CAE770B5002480212148EA
:10104000FFF724FD0220FFF779FC80201E4908806D
:101050000420C8701B48FFF783FC0220FFF76EFCDA
:10106000002518E06006040E40211648FFF70CFD2D
:101070000220FFF763FC40211248FFF707FD022022
:10108000FFF75CFC80210F48FFF7F5FC00F0010042
:101090000443681CC5B2082DE4DB40210948FFF772
:1010A000F3FC0220FFF74AFC802007490880142047
:1010B000C8700448FFF754FC0220FFF73FFC2046AD
:1010C00070BD0000000C01403000002010B5044647
:1010D00040210E48FFF7D8FC0220FFF72FFC2246E4
:1010E00080210A48FFF7D4FC0220FFF727FC4021AB
:1010F0000648FFF7CBFC0220FFF720FC4021034805
:10110000FFF7C2FC0220FFF719FC10BD000C0140E4
:1011100070B5054600241CE040211348FFF7B4FCDD
:101120000220FFF70BFCC4F1070045FA00F000F0C5
:10113000010280210C48FFF7ABFC0220FFF7FEFB09
:1011400040210948FFF7A2FC0220FFF7F7FB601CD3
:10115000C4B2082CE0DB40210348FFF795FC0220D5
:10116000FFF7ECFB70BD0000000C014010B58021C2
:101170000C48FFF78BFC40210A48FFF787FC022050
:10118000FFF7DCFB80210748FFF77EFC0220FFF71A
:10119000D5FB40210348FFF777FC0220FFF7CEFB89
:1011A00010BD0000000C014010B540210C48FFF7B5
:1011B0006BFC80210A48FFF767FC0220FFF7BEFBAB
:1011C00040210748FFF762FC0220FFF7B7FB8021B0
:1011D0000348FFF75BFC0220FFF7B0FB10BD0000E7
:1011E000000C014010B540211D48FFF74DFC0220C6
:1011F000FFF7A4FB80211A48FFF748FC0220FFF705
:101200009DFB40211648FFF741FC0220FFF796FBAB
:101210008020144908800420C8701148FFF7A0FB03
:101220000220FFF78BFB80210D48FFF724FC00F024
:1012300001040220FFF782FB80200A490880142065
:10124000C8700748FFF78CFB0220FFF777FB4021AF
:101250000348FFF719FC0220FFF770FB204610BD82
:10126000000C0140300000202DE9F04105460E46FB
:1012700017469846FFF77AFF002141EA4501C8B2B8
:10128000FFF746FFFFF7AEFF012804D1FFF78CFF01
:101290000120BDE8F0813046FFF73AFFFFF7A2FFDB
:1012A000012803D1FFF780FF0120F2E700240CE0C2
:1012B000385DFFF72DFFFFF795FF012803D1FFF7FA
:1012C00073FF0120E5E7601CC4B24445F0DBFFF783
:1012D0006BFF0020DDE7000008B50121082000F0C9
:1012E000C3FA2320ADF8000010208DF8030003207E
:1012F0008DF8020069460448FFF732FB23210248BB
:10130000FFF7C4FB08BD0000000C014000BFFEE772
:101310002DE9F34F8BB000F0AFF800F01BF94C480B
:101320000C990068FEF778FF83464A4801685846E2
:10133000FEF71AFF81464FF07E510B98FEF769FFCA
:1013400082464946FEF768FF8046FFF752F9044699
:101350000D4641480068FFF74CF9CDE900013F48D0
:101360000068FFF746F98246DDE9002301F08AFBB9
:10137000CDE904010B98FFF73CF9CDE90201DDE965
:101380000423FFF722F80022354BCDE90601FFF7D1
:101390001CF88046334A344BFFF789F8064622464C
:1013A0002B46FEF76BFFCDE90801FFF735F9294918
:1013B00008602E480C990068FEF72EFF07462C485F
:1013C00001683846FEF7D0FE05464FF07E510B9877
:1013D000FEF71FFF06462946FEF71EFF0446FFF7ED
:1013E00008F982468B461C480068FFF702F904465C
:1013F0000D4620480068FFF7FCF8064622462B46BB
:1014000001F040FBCDE902010B98FFF7F2F8CDE9BE
:101410000001DDE90223FEF7D8FF0022104BCDE9E1
:101420000401FEF7D2FF80460E4A0F4BFFF73FF84C
:1014300052465B46CDE90601FEF720FFCDE90801E3
:10144000FFF7EAF80A4908600DB0BDE8F08F000028
:101450005C00002068000020540000204C000020A8
:1014600000806640A7E8482EFF2109406000002068
:101470006C000020500000202DE9FC4106236A4644
:101480003B216820FFF78EFD10B10120BDE8FC81F3
:101490009DF801009DF8001040EA012000B22149AA
:1014A00008809DF803009DF8021040EA012000B278
:1014B0001C4948809DF805009DF8041040EA012071
:1014C00000B218498880B1F90000FFF768F80646B5
:1014D0000022154BFEF7EBFF0446FFF79DF813497A
:1014E00008601049B1F90200FFF759F806460022DA
:1014F0000D4BFEF7DCFF0446FFF78EF80C49086041
:101500000849B1F90400FFF74AF806460022064BE5
:10151000FEF7CDFF0446FFF77FF80649086000207C
:10152000B4E700003C0000200000D0404C00002048
:10153000500000205400002010B50123044A7521FA
:101540006820FFF72FFD08B1012010BD0020FCE747
:101550004A0000202DE9FC4106236A464321682009
:10156000FFF720FD10B10120BDE8FC819DF80100CE
:101570009DF8001040EA012000B2214908809DF842
:1015800003009DF8021040EA012000B21C49488087
:101590009DF805009DF8041040EA012000B21849AA
:1015A0008880B1F90000FEF7FAFF0646154A164B8F
:1015B000FEF77DFF0446FFF72FF814490860104935
:1015C000B1F90200FEF7EBFF06460E4A0E4BFEF79E
:1015D0006EFF0446FFF720F80D4908600849B1F98D
:1015E0000400FEF7DCFF0646064A074BFEF75FFFE6
:1015F0000446FFF711F8074908600020B4E700002F
:1016000044000020FCA9F1D24D6230405C00002073
:101610006000002064000020F8B504460D4642F248
:101620001070FFF78BF9FFF787FF08B10120F8BDB5
:1016300029480078682801D00220F8E7802000902F
:1016400001236A466B216820FFF70EFE08B10320D4
:10165000EDE742F21070FFF771F9002000900123CE
:101660006A466B216820FFF7FFFD08B10420DEE722
:101670000120009001236A466B216820FFF7F4FDEA
:1016800008B10A20D3E71820009001236A461B21E5
:101690006820FFF7E9FD08B10B20C8E700200090A3
:1016A00001236A461C216820FFF7DEFD08B10C20EB
:1016B000BDE72946204600F03EF808B10D20B6E708
:1016C00004EBD471C1F34F00294600F007F808B1CC
:1016D0000E20ACE70020AAE74A00002038B50446F7
:1016E0000D46DDB1BC2C02DD0120009018E0622C1B
:1016F00002DD0220009013E02A2C02DD032000907E
:101700000EE0142C02DD0420009009E00A2C02DD1A
:101710000520009004E00620009001E000200090E9
:1017200001236A461A216820FFF79EFD08B10120B7
:1017300038BD0020FCE7F8B504460E466EB14FF404
:101740007A75B4F57A7F01DD284604E0042C01DACD
:10175000042000E0204604460CE04FF4FA55B4F5AE
:10176000FA5F01DD284604E0202C01DA202000E0A9
:101770002046044695FBF4F0401EC0B200900123C1
:101780006A4619216820FFF76FFD08B10120F8BDF6
:101790000020FCE77047000070B5002100230F22F5
:1017A000C47804B3154C246804F4E064C4F5E06420
:1017B000210AC1F10403CA40447804FA03F1847891
:1017C0001440214309010E4C0678A155047804F019
:1017D0001F050124AC4005786D11AD0005F1E02531
:1017E000C5F8004109E0047804F01F050124AC406D
:1017F000044D0678761145F8264070BD0CED00E0EA
:1018000000E400E080E100E002490143024A116087
:10181000704700000000FA050CED00E010B500284C
:1018200007DA0A07140E054A00F00F031B1FD454F1
:1018300003E00A07130E024A135410BD18ED00E02E
:1018400000E400E07047000029B1064A1269024333
:10185000044B1A6104E0034A12698243014B1A6186
:10186000704700000010024029B1064A9269024305
:10187000044B9A6104E0034A92698243014B9A61E6
:10188000704700000010024029B1064AD2680243A6
:10189000044BDA6004E0034AD2688243014BDA6009
:1018A000704700000010024030B5002100220024E3
:1018B00000232D4D6D6805F00C0121B1042905D0E0
:1018C000082923D105E0294D056022E0274D056058
:1018D0001FE0254D6D6805F47012234D6D6805F409
:1018E0008034022505EB92421CB9214D5543056019
:1018F0000BE01D4D6D6805F400351DB11C4D5543C1
:10190000056002E0194D5543056002E0174D056082
:1019100000BF00BF144D6D6805F0F0010909154DB9
:101920006B5C0568DD4045600F4D6D6805F4E06156
:10193000090A104D6B5C4568DD4085600A4D6D6895
:1019400005F46051C90A0B4D6B5C4568DD40C5600C
:10195000054D6D6805F44041890B074D6B5CC5680A
:10196000B5FBF3F5056130BD0010024000127A00AE
:1019700000093D001400002024000020704710B52D
:1019800000F002F810BD00000CB50020019000909E
:101990003348006840F480303149086000BF304867
:1019A000006800F4003000900198401C01900098FD
:1019B00018B90198B0F5A06FF1D12948006800F47A
:1019C000003010B10120009001E00020009000984C
:1019D000012843D12348006840F0100021490860E5
:1019E0000846006820F0030008600846006840F0E0
:1019F000020008601A484068194948600846406873
:101A000048600846406840F4806048600846406886
:101A100020F47C1048600846406840F4E8104860B4
:101A20000846006840F08070086000BF0C480068FD
:101A300000F000700028F9D00948406820F0030049
:101A4000074948600846406840F00200486000BF0F
:101A50000348406800F00C000828F9D10CBD0000D4
:101A6000001002400020024010B5FEF759FF10BDE3
:101A700010B51348006840F001001149086008469D
:101A80004068104908400E494860084600680E4901
:101A900008400B4908600846006820F48020086070
:101AA0000846406820F4FE0048604FF41F0088603C
:101AB000FFF765FF4FF000600449086010BD0000AB
:101AC000001002400000FFF8FFFFF6FE08ED00E006
:101AD00010B5174800681749B0FBF1F4B4F1807FE6
:101AE00001D3012011E024F07F40401E4FF0E0219F
:101AF00048610F214FF0FF30FFF790FE00204FF0BC
:101B0000E021886107200861002020B10AA000F0D0
:101B1000C9F900BFFEE74FF0E020006920F00100A6
:101B20004FF0E02108610021481EFFF777FE10BD4D
:101B30000000002040420F004572726F723A5379E4
:101B4000737469636B5F496E697428290D0A00001C
:101B500010B540F22551064800F08BF810B105A0F1
:101B600000F0A0F940F22551014800F00BF810BD3B
:101B70000038014075617274312069742072786E8A
:101B8000650D0A0010B50022002340F66A14A14238
:101B900000D100BF0A1201249440A3B2DC430480A8
:101BA00010BD21B1828942F40052828104E0828911
:101BB0004DF6FF731A4082817047000010B504464D
:101BC0002048844209D101218803FFF75DFE0021EE
:101BD0004FF48040FFF758FE32E01B48844209D1A1
:101BE00001214804FFF730FE00214FF40030FFF7D9
:101BF0002BFE25E01548844209D101218804FFF716
:101C000023FE00214FF48020FFF71EFE18E010484D
:101C1000844209D10121C804FFF716FE00214FF4C8
:101C20000020FFF711FE0BE00A48844208D1012191
:101C30000805FFF709FE00214FF48010FFF704FEAE
:101C400010BD000000380140004400400048004042
:101C5000004C00400050004002460020B1F5007FDB
:101C600000D100BF13880B400BB1012000E0002021
:101C7000704770B50246002400230025002040F67E
:101C80006A16B14200D100BFC1F3421501F01F0333
:101C9000012606FA03F3012D02D19689334006E0AE
:101CA000022D02D1168A334001E0968A33400C128D
:101CB000012606FA04F41688344013B10CB1012051
:101CC00000E0002070BDF0B503460024002600258A
:101CD000002040F66A17B94200D100BF1846C1F390
:101CE000421401F01F06012707FA06F5012C01D165
:101CF0000C3004E0022C01D1103000E014301AB195
:101D000007682F43076002E00768AF430760F0BD34
:101D10002DE9F04786B005460E460024A24600BFD6
:101D2000A1460027B08900B100BF2F462C8A4CF68F
:101D3000FF700440F08804432C82AC894EF6F31007
:101D40000440B08831890843718908430443AC8159
:101D5000AC8A4FF6FF400440B0890443AC8201A82E
:101D6000FFF7A2FD1F48874202D1DDF810A001E075
:101D7000DDF80CA0A88900F4004040B10AEBCA00CD
:101D800000EB0A1031684900B0FBF1F807E00AEBFC
:101D9000CA0000EB0A1031688900B0FBF1F864203A
:101DA000B8FBF0F004012009642101FB1089A88927
:101DB00000F4004040B1322000EBC900B0FBF1F06C
:101DC00000F00700044308E0322000EB0910642112
:101DD000B0FBF1F000F00F0004432C8106B0BDE829
:101DE000F087000000380140C1F30802828070478C
:101DF00010B586B00446012144F20500FFF734FD1A
:101E00004FF40070ADF8140018208DF8170003206F
:101E10008DF8160005A92048FEF7A2FD4FF480605A
:101E2000ADF8140004208DF8170005A91A48FEF734
:101E300097FD1A48FFF7C2FE01940020ADF8080094
:101E4000ADF80C00ADF80A00ADF810000C20ADF8AC
:101E50000E0001A91148FFF75BFF4FF4E060FFF7A8
:101E6000D3FC25208DF8000000208DF80100022011
:101E70008DF8020001208DF803006846FFF78CFC06
:101E8000012240F225510548FFF71DFF01210348BB
:101E9000FFF787FE06B010BD000801400038014082
:101EA00000BFFEE70FB4054B10B503A9044A029822
:101EB00000F040F910BC5DF814FB0000052C000890
:101EC000A4000020490050EAC12018BF04204A0D98
:101ED00018BF40F0010040F2FF72B2EB515F08BF43
:101EE00040F00200012808BF052070472DE9F041AD
:101EF0004F1E00EBC7010446D1E9000115461E46FE
:101F000037F006020DD02A463346FEF75EFA7F1EF2
:101F100004EBC703D3E90023FEF7B0F937F006025C
:101F2000F1D1022F25D0042F13D0062F18BFBDE802
:101F3000F0812A463346FEF748FAD4E90A23FEF731
:101F40009DF92A463346FEF740FAD4E90823FEF706
:101F500095F92A463346FEF738FAD4E90623FEF708
:101F60008DF92A463346FEF730FAD4E90423FEF70A
:101F700085F92A463346FEF728FAD4E90223FEF70C
:101F80007DF92A463346FEF720FAD4E90023BDE85E
:101F9000F041FEF773B90122FEF7A8BCFEF76EB957
:101FA000024A00201107FEF7A1BC000001FDFFFF5F
:101FB00002E008C8121F08C1002AFAD17047704712
:101FC000002001E001C1121F002AFBD17047000070
:101FD0002DE9FF5FDDE90220010DDDF838B0024395
:101FE00018D044F61050A1F2FF3141430D140F9860
:101FF000012820D0A5EB0B00401C5FEA000A4FF03F
:102000000004474EDFF81C91A046504616D5CAF191
:10201000000728E00F98012443A2012808D00021DE
:1020200000980F9BC0E90021C0E90243BDE8FF9F73
:102030006FEA0B01F4E7CBF10000DEE7074612E0A0
:10204000F80707D02246334640464946FEF7BDF919
:10205000804689462246334610461946FEF7B5F9B2
:1020600004460E467F10002FEAD1DDE90201BAF1E5
:10207000000F42464B4602DAFEF7A7F901E0FEF7F1
:1020800016FA04460E460022284BFEF7F5FB03D84D
:102090004FF0FF30014607E00022254B2046314635
:1020A000FEF7ECF8FEF7D0FB102409E0002C0ADB69
:1020B0000A220023FEF7E2FA019B30321A55641E11
:1020C00050EA0102F2D1641C019AC4F111031444D4
:1020D0000F9A012A03D0012208430DD10AE00843D8
:1020E00004D000204FF0110B0F9080E7A3EB0B05FD
:1020F0006D1E0DE05B4504DD4FF0000205F10105AA
:1021000004E003DA4FF00002A5F10105002AECD04B
:1021100000980F99C0E90231C0E9004586E7000048
:10212000000024400000F03F300000000000F043B9
:102130000000E03F2DE9FF4F95B09B4689460646DB
:1021400000250FE2252877D100242746F84A0121EF
:10215000059400E0044316F8013F203B01FA03F028
:102160001042F7D130782A2811D06FF02F03307841
:10217000A0F13002092A16D8059A44F0020402EBB5
:10218000820203EB42021044761C0590EFE759F8F7
:10219000042B0592002A03DA504244F400540590BF
:1021A00044F00204761C30782E2816D116F8010F60
:1021B00044F004042A280DD06FF02F023078A0F1EB
:1021C0003003092B09D807EB870302EB4303C71839
:1021D000761CF3E759F8047B761C30786C280FD016
:1021E00006DC4C2817D068280DD06A2814D104E0EA
:1021F000742810D07A280FD10DE044F400140AE0BE
:1022000044F4801401E044F440147278824202D114
:1022100004F58014761C761C307866280BD013DC0D
:10222000582877D009DC002875D04528F6D04628F4
:10223000F4D047281AD19DE118E0632835D06428EE
:1022400079D0652812D195E1702873D008DC672811
:10225000F1D069286FD06E280DD06F2806D1B5E077
:1022600073282CD0752875D0782874D05A461799C1
:1022700090476D1C75E1C4F30250022809D0032871
:102280000DD0D9F8001004280DD00D6009F1040913
:1022900067E1D9F80010EA17C1E90052F6E7D9F86A
:1022A00000100D80F2E70D70F0E719F8041B8DF8AF
:1022B000001000208DF80100EA46012003E059F8E3
:1022C00004AB4FF0FF3061074FF0000102D40DE086
:1022D00008F101018846B9420FDA8045F8DB1AF8A7
:1022E00008100029F4D108E008F101018846814274
:1022F000FADB1AF808100029F6D105985B46A0EB26
:10230000080721463846179A00F094FA284400EB53
:10231000080507E04DE029E10DE01AF8010B5A46E7
:1023200017999047B8F10108F7D25B462146384625
:10233000179A13E142E00A220092C4F302524FF0CE
:10234000000A022A08D059F804CB032A4FEAEC719C
:102350000AD00DE029E02AE009F1070121F0070287
:10236000F2E802C1914609E00FFA8CFC4FEAEC71E9
:10237000042A03D14FFA8CFC4FEAEC71002907DAEA
:102380000A460021DCF1000C61EB02012D2202E083
:10239000220504D52B228DF80420012203E0E20758
:1023A00001D02022F7E7904659E00A2102E01022EE
:1023B0000DE010214FF0000A00910BE010224FF0C9
:1023C000000A44F004040827009203E008224FF0BA
:1023D000000A0092C4F30252022A05D059F804CB35
:1023E0000021032A08D009E009F1070121F00702C2
:1023F000F2E802C1914605E01FFA8CFC042A01D1E3
:102400000CF0FF0C4FF00008220728D5702806D0EA
:10241000009B83F0100353EA0A0305D00EE040222C
:102420008DF80420012208E05CEA010206D0302287
:102430008DF804208DF8050002229046009B83F061
:10244000080353EA0A030AD15CEA010201D16207D8
:1024500005D530228DF804204FF001087F1E582842
:1024600004D034A003900EA802900DE036A0F9E746
:1024700053466046009AFEF701F984460398825C51
:102480000298401E029002705CEA0100F0D10298AE
:1024900006A9081A00F1200A600702D524F4803446
:1024A00000E00127574502DDA7EB0A0000E000200D
:1024B00000EB0A01009005984144401A0590E003A2
:1024C00006D45B462146179A059800F0B3F90544F7
:1024D000002706E001A85A46C05D179990476D1C79
:1024E0007F1C4745F6DBE0030CD55B462146179A77
:1024F000059800F09FF9054404E030205A461799EA
:1025000090476D1C0099481E00900029F5DC08E0FA
:10251000029802995A460078491C029117999047EF
:102520006D1CBAF10001AAF1010AF1DC65E10000BD
:102530000928010030313233343536373839616299
:10254000636465660000000030313233343536375D
:1025500038394142434445460000000000F058F934
:102560000544761C307800287FF4ECAD19B028467D
:10257000BDE8F08F620700D4062709F1070222F0B8
:10258000070CFCE80223E14603F000485FEA080C70
:1025900002D00FF2702C0DE05FEA045C02D50FF25E
:1025A000682C07E05FEAC47C02D00FF2602C01E0E7
:1025B000AFF2700C4FF0FF3823F00043CDF850C05D
:1025C00065280CD006DC452809D046281DD04728B0
:1025D0003DD13DE0662818D067287ED138E0002143
:1025E000112F01DB112000E0781CCDE9000106A9C4
:1025F0000EA8FFF7EDFCDDE90F010E9A0391002113
:10260000009207F1010A04914DE04FF0004000975D
:10261000CDE9011006A90EA8FFF7DAFCDDE90F02EB
:1026200003920E9B11990022DDF80CA000930492F6
:1026300011B9791C00EB010AB7EB0A0004D4C0F110
:10264000FF3007F1010A0490AAEB0700019044E073
:10265000012F00DA01270021112F01DD112000E0F8
:102660003846CDE9000106A90EA8FFF7B1FCDDE967
:102670000F010E9A0391002104910092BA4621079E
:102680000CD40399514500DA8A46BAF1010F05DDF1
:10269000009AAAF10101515C302908D0B84202DA4F
:1026A00010F1040F06DA0121CDE9011015E0AAF1BD
:1026B0000101E9E7002805DC049901440491AAEB33
:1026C000000102E0411C514500DD8A460499401A90
:1026D000401C01904FF000400290200704D4019864
:1026E000504501DBCDF8048000208DF84F000298A2
:1026F0000DF14F07B0F1004F25D02B200E9002981E
:102700004FF0020800280CDA404202902D200E9073
:1027100007E00A210298FDF79BFF3031029007F88D
:10272000011DB8F10001A8F10108F2DC02980028AF
:10273000EFD1791E0E980870307800F0200040F03C
:10274000450007F8020D12A8C01B00F107081498F5
:10275000007800B1012000EB0A01019801EBE07163
:1027600005984144401A401E0590E00306D45B469C
:102770002146179A059800F05DF8054414980078F2
:1027800018B15A46179990476D1CE00324D55B4653
:102790002146179A059800F04DF805441CE004986E
:1027A000002807DBDDE90301884203DD0098405C77
:1027B000179901E0179930205A469047049805F17F
:1027C0000105401C04900198401E019004D12E2068
:1027D0005A46179990476D1CBAF10001AAF1010AF7
:1027E000DDDC05E017F8010B5A46179990476D1C80
:1027F000B8F10001A8F10108F4DC5B462146179A04
:102800000598ABE62D0000002B0000002000000022
:102810002DE9F041044600251E461746880404D4DD
:1028200005E039462020B0476D1C641EF9D52846C6
:10283000BDE8F0812DE9F041044600251E46904692
:10284000C80301D5302700E02027880404D505E01F
:1028500041463846B0476D1C641EF9D52846BDE890
:10286000F08100002DE9F84F04460D4621F00040AC
:1028700000917349814211DC7249884201DC06D122
:102880002CB120462946BDE8F84FFFF784BB6E48BF
:10289000002DCCBF6D496E49BDE8F88F6D4981426E
:1028A00011DD6D498142D8BF4FF0FF366DDD204606
:1028B0002946FFF707FB042808BFFFF771FB2046F6
:1028C0002946BDE8F88F6549654F25F000458142EE
:1028D00033DD6449814219DD002632464FF08043E2
:1028E00020462946FDF7CAFC80468A46012220463A
:1028F0002946FDF7FBFF00223B46FDF760FD4246FF
:102900005346FDF7D4FD04460D463EE00126002265
:10291000BA463B4620462946FDF7B0FC80460F46A6
:102920000022534620462946FDF749FD42463B46D4
:10293000FDF7BDFD04460D4627E04B4981421BDDF6
:10294000DFF828A102260022534620462946FDF73B
:102950003CFD00223B46FDF791FC80460F460022DD
:10296000534620462946FDF72AFD42463B46FDF7E1
:102970009EFD04460D4608E0032622462B46002015
:102980003B49FDF794FD04460D4622462B46104672
:102990001946FDF71AFD8B46824602460B46FDF7A7
:1029A00014FD07460246334888460B460621784404
:1029B000FFF79CFA52465B46FDF707FD82462E481C
:1029C0008B463A46434605217844FFF78FFA3A464C
:1029D0004346FDF7FAFC02460B46002E5046594688
:1029E0000CDAFDF74BFC22462B46FDF7EEFC01B05E
:1029F00022462B46BDE8F04FFDF7E4BCFDF73EFC58
:102A000022462B46FDF7E1FC1C4A7A4402EBC60342
:102A1000D3E90023FDF7D3FC22462B46FDF7CFFC7C
:102A2000174A7A4402EBC603D3E90023FDF7CAFC38
:102A3000009A002AB8BF81F00041BDE8F88F00007D
:102A4000000010440000F07F182D4454FB21F93F92
:102A5000FB21F9BF0000DC3F0000203E0000F33FF7
:102A60000000F03F0000E63F008003400000F83F18
:102A70000000F0BF16040000D40300007203000041
:102A80003A0300002DE9F04D9446CCF1000423F008
:102A900000464CEA0404524F46EAD4749A468846EB
:102AA00021F00042BC4206D8454240EA050442EA11
:102AB000D474BC4204D9BDE8F04D6246FFF76EBA4B
:102AC000AAF14055A5F17F6555EA0C040BD002240C
:102AD00004EAAA74434DDFF810E144EAD87452EADC
:102AE000000B04D00CE0BDE8F04DFFF7BBBE002C9E
:102AF00014BF012CBDE8F08D022C30D0032C32D055
:102B000056EA0C0B0AD0BE4220D1BA4209D126F0B7
:102B1000804622F080423346114617E000291ADB36
:102B200025E0DFF8C8B0FB44002C04BFDBE900015E
:102B3000BDE8F08D012C02BFDBE9000181F000410E
:102B4000BDE8F08D022C0AD0032C0CD0BA4212D171
:102B5000B8F1000F0BDA23482549BDE8F08D28466F
:102B60002449BDE8F08D28467146BDE8F08D1D482A
:102B70002149BDE8F08D921B12153C2AC4BF1948AB
:102B80001D490EDCBAF1000FBEBF12F13C0F002050
:102B9000014606DB6246FDF78AFC21F00041FFF7A3
:102BA00061FE002C08BFBDE8F08D012C04BF81F050
:102BB0000041BDE8F08D114A114B022C07D0FDF702
:102BC000FEFB2A46BDE8F04D0A4BFDF7F8BBFDF7CA
:102BD000F6FB2A46BDE8F04D064BFDF7F3BB0000BF
:102BE0000000F07F182D4454FB2109C0CE020000E4
:102BF000FB21F9BFFB210940FB21F93F075C14339E
:102C000026A6A13C70B504460D46E1B20548FFF783
:102C1000EBF800BF80210348FFF71EF80028F9D029
:102C2000204670BD003801401FB5FEF755FBFEF78A
:102C30004FFF4FF4E130FFF7DBF82F48FEF798F92C
:102C400020212E48FDF720FF01213220FEF7E4FC71
:102C500082460BE051462AA0FFF724F92D48FDF7E4
:102C60006DFE01213220FEF7D7FC8246BAF1000F3B
:102C7000F0D1FEF73BF9824609E0514626A0FFF766
:102C800011F92448FDF75AFEFEF730F98246BAF1F1
:102C9000000FF2D125491420FDF76EFF20211748BF
:102CA000FDF7F4FE27E000212148FEF731FBFEF797
:102CB00095F800210846FDF7F3FE1E480068FDF771
:102CC00098FC04460D461C480068FDF792FC064639
:102CD0000F461A480068FDF78CFC804642460B46BA
:102CE00017A0CDE90067CDE90245FFF7DBF841F217
:102CF0008830FDF723FED6E7801A0600000C01405D
:102D00004572726F722D6D7075363035302D2564B9
:102D10000D0A0000400D03004572726F722D686D40
:102D200063353838336C2D25640D0A00CDCC4C3F0B
:102D3000CDCCCC3DA00000206C000020680000201D
:102D400070697463683A20256620726F6C6C3A2053
:102D50002566207961773A2025660D0A000000007B
:102D60004FBB610567ACDD3F182D4454FB21E93FA3
:102D70009BF681D20B73EF3F182D4454FB21F93F92
:102D8000E2652F227F2B7A3C075C143326A6813C18
:102D9000BDCBF07A8807703C075C143326A6913CC3
:102DA000C4EB98999999C9BF711623FEC671BCBF2F
:102DB0006D9A74AFF2B0B3BF9AFDDE522DDEADBF97
:102DC0002F6C6A2C44B4A2BF0D5555555555D53FAF
:102DD000FF8300922449C23F6E204CC5CD45B73FCA
:102DE000513DD0A0660DB13FEB0D76244B7BA93F42
:102DF00011DA22E33AAD903F00000000000000002D
:102E0000202E000800000020A8000000B01F0008CD
:102E1000C82E0008A800002000040000C01F000801
:102E200000A24A04000000000000000001020304A8
:102E30000607080900000000010203040102030460
:102E40000607080902040608000000000000000050
:102E50000000000000000000000000000000000072
:102E60000000000000000000000000000000000062
:102E70000000000000000000000000000000000052
:102E80000000000000000000000000000000000042
:102E90000000000000000000000000000000000032
:102EA0000000000000000000000000000000000022
:102EB0000000000000000000000000000000000012
:082EC00000000000000000000A
:0400000508000145A9
:00000001FF
