:020000040800F2
:100000005804002045010008290E000813090008C3
:10001000B50C000895070008351500080000000021
:1000200000000000000000000000000011100008A7
:10003000B107000800000000D90E0008FD100008FC
:100040005F0100085F0100085F0100085F01000810
:100050005F0100085F0100085F0100085F01000800
:100060005F0100085F0100085F0100085F010008F0
:100070005F0100085F0100085F0100085F010008E0
:100080005F0100085F0100085F0100085F010008D0
:100090005F0100085F0100085F0100085F010008C0
:1000A0005F0100085F0100085F0100085F010008B0
:1000B0005F0100085F0100085F0100085F010008A0
:1000C0005F0100085F0100085F0100085F01000890
:1000D0005F010008E51100085F0100085F010008EA
:1000E0005F0100085F0100085F0100085F01000870
:1000F0005F0100085F0100085F0100085F01000860
:100100005F0100085F0100085F0100085F0100084F
:100110005F0100085F0100085F0100085F0100083F
:100120005F0100085F0100085F0100085F0100082F
:10013000DFF80CD000F00CFB00480047311E00082F
:10014000580400200648804706480047FEE7FEE7BF
:10015000FEE7FEE7FEE7FEE7FEE7FEE7FEE7FEE777
:1001600005110008310100082DE9FE4F804681EAA3
:100170000300C00F0C46009021F0004123F0004521
:10018000B8EB0200A94105D24046214690461C46E4
:100190000B46024623F00040104347D0270DC7F31B
:1001A0000A00C3F30A510290401A019040286BDA0A
:1001B000C3F3130040F4801B0098924620B1002343
:1001C000D2EB030A63EB0B0B01985946C0F14002D6
:1001D000504600F066F906460D4650465946019ACB
:1001E00000F06EF910EB08006141002487EA11521B
:1001F00084EAE7731A4340D0009A62B3019A012A55
:100200004FEA075215DC001B61EB02014FF0004280
:1002100002EA0752CDE90042001C41F58011324646
:100220002B4600F0A5F903B0BDE8F08F404621460B
:10023000F9E7001B61EB0201001C41F58013001877
:100240005B412018A2F5001747EB030140EAD57087
:10025000B6196D4111E06D084FEA360645EAC075E2
:100260004FEA0752001B61EB0201001C41F58011AF
:1002700049084FEA30000019514132462B4603B07D
:10028000BDE8F04F00F065B900980122400000235E
:10029000D0EB020263EBE073009821464FEAE07472
:1002A000B8EB000061EB0401E9E783F000435BE792
:1002B00081F0004158E72DE9F04D81EA030404F094
:1002C000004B21F0004514464FF0000A23F0004196
:1002D00050EA050220D054EA01021DD0C5F30A57A6
:1002E0000246C5F31303C1F31300C1F30A5640F4E9
:1002F000801543F48013A7EB0608101BD64608F2BE
:10030000FD3873EB050002D308F1010801E09218F3
:100310005B41B8F1000F03DA00200146BDE8F08D23
:1003200000204FF48011064684460EE0171B73EB45
:10033000050705D3121B63EB050306434CEA010CCA
:1003400049084FEA300092185B4150EA0107EDD1AD
:1003500052EA030012D082EA040083EA050108434E
:1003600005D0101BAB4106D20122002306E000227B
:100370004FF0004302E06FF0010253101AEB060049
:100380004CEB085110EB0A0041EB0B01BDE8F04DBE
:1003900000F0DFB80EB5C10F80EAE0700844CA076C
:1003A000002140F233438DE80E000A460B4600F070
:1003B000DFF803B000BD00F0004230F000400AD08A
:1003C000C10D01F56071C0F3160042EA0151C20887
:1003D00040071143704700200146704701F0004379
:1003E00030B421F0004150EA010206D00A0DA2F516
:1003F0006072C1F31301002A02DC30BC0020704798
:10040000440F44EAC104C100E01830BC00EBC25004
:1004100000F068B830B50B460146002020220124C8
:1004200009E021FA02F59D4205D303FA02F5491BC2
:1004300004FA02F52844151EA2F10102F1DC30BDD8
:100440002DE9F05F0546002092469B468846064609
:10045000814640241BE0284641464746224600F09C
:1004600089F953465A46C01A914110D3114618468D
:10047000224600F016F82D1A67EB01084F46224677
:100480000120002100F00DF817EB00094E41201E5D
:10049000A4F10104DFDC484631462A464346BDE864
:1004A000F09F202A04DB203A00FA02F10020704776
:1004B0009140C2F1200320FA03F3194390407047A2
:1004C000202A06DBCB17203A41FA02F043EAE07318
:1004D00006E041FA02F3D040C2F120029140084305
:1004E000194670470029A8BF7047401C490008BF43
:1004F00020F00100704710B4B0FA80FC00FA0CF054
:1005000050EA010404BF10BC704749B1CCF120048B
:1005100021FA04F411FA0CF118BF01212143084318
:10052000A3EB0C01CB1D4FEA00614FEA102042BF44
:10053000002010BC704700EBC35010440029A4BF3A
:1005400010BC7047401C490008BF20F0010010BCDF
:10055000704710B5141E73F1000408DA401C41F115
:10056000000192185B411A4301D120F0010010BD37
:100570002DE9F04D92469B4611B1B1FA81F202E0AD
:10058000B0FA80F220329046FFF78BFF04460F4608
:1005900040EA0A0041EA0B0153465A46084313D089
:1005A000114653EA010019D0C8F14002504600F04C
:1005B000E1F805460E46504659464246FFF771FFA0
:1005C000084305D0012004E020463946BDE8F08DFF
:1005D0000020054346EAE0762C4337430A9863053A
:1005E000E40AA0EB08000022FD0A44EA47540A305E
:1005F00002D500200146E9E7010510196941DDE94E
:10060000084500196941BDE8F04DA2E72DE9FE4F0C
:1006100081EA030404F0004421F0004100944FF00B
:10062000000B23F0004350EA01045ED052EA0304B9
:100630005BD0C3F30A54C1F30A552C44A4F2F3343B
:100640000194A0FB0254C1F3130141F48011C3F3E0
:10065000130343F4801301FB024400FB034E840A9E
:10066000970A44EA815447EA8357A4FB0768029536
:100670008D0A05FB07854FEA932C04FB0C542705D4
:10068000029D4FEA065847EA1637B5EB08056EEBB0
:10069000070C870E920E47EA811742EA8312A7FBE6
:1006A0000201B6EB0B0164EB00042B0D43EA0C33A3
:1006B0005E1844EB1C50DA465146E7FB0201C5F3D5
:1006C00013044FEA0B3343EA14534FEA0432019CFC
:1006D00043EA0603A4F10C040294009CCDE900B4A3
:1006E000FFF746FF03B0BDE8F08F00200146F9E7B1
:1006F000C1F30A52C1F3130140F2FF3341F48011F8
:100700009A4202DA00200146704740F233439A428F
:10071000A2F2334202DC524200F02CB8FFF7C1BE15
:1007200030B5041E71F1000404DB4FF00044404278
:1007300064EB0101141E73F1000405DB1C464FF04D
:100740000043524263EB0403994208BF904230BD1C
:10075000064C074D06E0E06840F0010394E807000E
:1007600098471034AC42F6D3FFF7E6FC6820000847
:1007700088200008202A04DB203A21FA02F0002118
:10078000704721FA02F3D040C2F1200291400843A1
:100790001946704700BFFEE70448006820B10348CF
:1007A0000068401E014908607047000028000020D2
:1007B00070470000074908604FF0E021096941F0E7
:1007C00001014FF0E022116100BF024909680029D0
:1007D000FBD17047280000202DE9F041024600259A
:1007E0000026002000230024002791F803C00CF00D
:1007F0000F0591F803C00CF0100CBCF1000F03D0F2
:1008000091F802C04CEA050591F800C0BCF1000F58
:1008100031D0146800202BE04FF0010C0CFA00F3EB
:10082000B1F800C00CEA03069E4220D183004FF0CD
:100830000F0C0CFA03F7BC4305FA03FC4CEA040462
:1008400091F803C0BCF1280F06D14FF0010C0CFA4F
:1008500000FCC2F814C00AE091F803C0BCF1480FD4
:1008600005D14FF0010C0CFA00FCC2F810C0401C7E
:100870000828D1D31460B1F800C0BCF1FF0F34DDFB
:10088000546800202EE000F1080C4FF0010808FA2F
:100890000CF3B1F800C00CEA03069E4221D183009C
:1008A0004FF00F0C0CFA03F7BC4305FA03FC4CEABB
:1008B000040491F803C0BCF1280F05D100F1080C25
:1008C00008FA0CF8C2F8148091F803C0BCF1480F84
:1008D00007D100F1080C4FF0010808FA0CF8C2F833
:1008E0001080401C0828CED35460BDE8F081024639
:1008F000002093680B400BB1012000E000207047FE
:1009000041617047016170470AB1016100E04161D6
:10091000704700BFFEE7000010B504460121082023
:1009200000F0ECFAC020074908801420C8700320AA
:1009300088700548FFF750FFC0210348FFF7E2FF2A
:1009400010BD000030000020000C01402DE9F041F6
:1009500005460F4690461E4600F0DCF8002141EAAD
:100960004501C8B200F0A8F800F010F9012804D140
:1009700000F0EEF80120BDE8F081384600F09CF868
:1009800000F004F9012803D100F0E2F80120F2E7B9
:1009900000F0C0F8012101EB4501C8B200F08CF86D
:1009A00000F0F4F8012803D100F0D2F80120E2E7CA
:1009B00000240FE000F014F808F80400701EA042B4
:1009C00003D1012000F056F802E0002000F052F8B8
:1009D000601CC4B2B442EDDB00F0BAF80020CAE7F4
:1009E00070B5002480212148FFF78CFF0220FFF71B
:1009F000E1FE80201E4908800420C8701B48FFF7D4
:100A0000EBFE0220FFF7D6FE002518E06006040E7C
:100A100040211648FFF774FF0220FFF7CBFE40216C
:100A20001248FFF76FFF0220FFF7C4FE80210F4836
:100A3000FFF75DFF00F001000443681CC5B2082DFC
:100A4000E4DB40210948FFF75BFF0220FFF7B2FE1D
:100A50008020074908801420C8700448FFF7BCFEB6
:100A60000220FFF7A7FE204670BD0000000C0140E9
:100A70003000002010B5044640210E48FFF740FF2B
:100A80000220FFF797FE224680210A48FFF73CFF2D
:100A90000220FFF78FFE40210648FFF733FF0220B8
:100AA000FFF788FE40210348FFF72AFF0220FFF7E7
:100AB00081FE10BD000C014070B5054600241CE00D
:100AC00040211348FFF71CFF0220FFF773FEC4F11B
:100AD000070045FA00F000F0010280210C48FFF702
:100AE00013FF0220FFF766FE40210948FFF70AFFC7
:100AF0000220FFF75FFE601CC4B2082CE0DB40213F
:100B00000348FFF7FDFE0220FFF754FE70BD000012
:100B1000000C014010B580210C48FFF7F3FE402186
:100B20000A48FFF7EFFE0220FFF744FE8021074846
:100B3000FFF7E6FE0220FFF73DFE40210348FFF7E6
:100B4000DFFE0220FFF736FE10BD0000000C014062
:100B500010B540210C48FFF7D3FE80210A48FFF76B
:100B6000CFFE0220FFF726FE40210748FFF7CAFE0E
:100B70000220FFF71FFE80210348FFF7C3FE02207B
:100B8000FFF718FE10BD0000000C014010B5402119
:100B90001D48FFF7B5FE0220FFF70CFE80211A4822
:100BA000FFF7B0FE0220FFF705FE40211648FFF7D1
:100BB000A9FE0220FFF7FEFD8020144908800420D2
:100BC000C8701148FFF708FE0220FFF7F3FD8021EF
:100BD0000D48FFF78CFE00F001040220FFF7EAFD4C
:100BE00080200A4908801420C8700748FFF7F4FDE8
:100BF0000220FFF7DFFD40210348FFF781FE0220BE
:100C0000FFF7D8FD204610BD000C01403000002049
:100C10002DE9F04105460E4617469846FFF77AFF44
:100C2000002141EA4501C8B2FFF746FFFFF7AEFFDA
:100C3000012804D1FFF78CFF0120BDE8F081304688
:100C4000FFF73AFFFFF7A2FF012803D1FFF780FF6C
:100C50000120F2E700240CE0385DFFF72DFFFFF7DD
:100C600095FF012803D1FFF773FF0120E5E7601C22
:100C7000C4B24445F0DBFFF76BFF0020DDE7000066
:100C800008B50121082000F039F92320ADF8000053
:100C900010208DF8030003208DF8020069460448F7
:100CA000FFF79AFD23210248FFF72CFE08BD000044
:100CB000000C014000BFFEE71CB506236A463B213D
:100CC0006820FFF743FE08B101201CBD9DF801001C
:100CD0009DF8001040EA012000B2104908809DF8FC
:100CE00003009DF8021040EA012000B20B49488041
:100CF0009DF805009DF8041040EA012000B2074964
:100D000088800846B0F90430B0F90220B0F900102C
:100D100003A000F011FC0020D7E700003C000020F9
:100D2000252D366420252D366420252D36640900B6
:100D30001CB506236A4643216820FFF707FE08B169
:100D400001201CBD9DF801009DF8001040EA012023
:100D500000B2104908809DF803009DF8021040EA97
:100D6000012000B20B4948809DF805009DF8041051
:100D700040EA012000B2074988800846B0F90430F3
:100D8000B0F90220B0F9001003A000F0D5FB00205C
:100D9000D7E7000044000020252D366420252D369D
:100DA0006420252D36640D0A000000002DE9F8436B
:100DB00002236A4641216820FFF7C8FD10B10120D7
:100DC000BDE8F8839DF801009DF8001040EA01207D
:100DD00000B20C4908800846B0F90000FFF7DAFAC3
:100DE00006460022084BFFF766FA0446074A084BFE
:100DF000FFF7BAF98046FFF7F1FA064908600020CC
:100E0000DEE700004200002000407540A4703D0A6B
:100E1000D74342404C00002010B50248FFF77CFD4C
:100E200010BD0000801A06007047000070B5002158
:100E300000230F22C47804B3154C246804F4E06442
:100E4000C4F5E064210AC1F10403CA40447804FAFD
:100E500003F184781440214309010E4C0678A15512
:100E6000047804F01F050124AC4005786D11AD0035
:100E700005F1E025C5F8004109E0047804F01F05FC
:100E80000124AC40044D0678761145F8264070BD2B
:100E90000CED00E000E400E080E100E002490143E5
:100EA000024A1160704700000000FA050CED00E0F6
:100EB00010B5002807DA0A07140E054A00F00F03E0
:100EC0001B1FD45403E00A07130E024A135410BD2B
:100ED00018ED00E000E400E07047000029B1064A88
:100EE00012690243044B1A6104E0034A1269824307
:100EF000014B1A61704700000010024029B1064AF8
:100F000092690243044B9A6104E0034A9269824366
:100F1000014B9A61704700000010024029B1064A57
:100F2000D2680243044BDA6004E0034AD268824389
:100F3000014BDA60704700000010024030B500211C
:100F40000022002400232D4D6D6805F00C0121B115
:100F5000042905D0082923D105E0294D056022E0A8
:100F6000274D05601FE0254D6D6805F47012234D77
:100F70006D6805F48034022505EB92421CB9214DC1
:100F8000554305600BE01D4D6D6805F400351DB13E
:100F90001C4D5543056002E0194D5543056002E0C4
:100FA000174D056000BF00BF144D6D6805F0F001DE
:100FB0000909154D6B5C0568DD4045600F4D6D6896
:100FC00005F4E061090A104D6B5C4568DD40856001
:100FD0000A4D6D6805F46051C90A0B4D6B5C45689C
:100FE000DD40C560054D6D6805F44041890B074D36
:100FF0006B5CC568B5FBF3F5056130BD00100240C0
:1010000000127A0000093D00140000202400002096
:10101000704710B500F002F810BD00000CB50020BC
:10102000019000903348006840F4803031490860F6
:1010300000BF3048006800F4003000900198401C68
:101040000190009818B90198B0F5A06FF1D1294826
:10105000006800F4003010B10120009001E0002091
:1010600000900098012843D12348006840F0100008
:10107000214908600846006820F00300086008461F
:10108000006840F0020008601A484068194948604A
:101090000846406848600846406840F48060486000
:1010A0000846406820F47C1048600846406840F4D8
:1010B000E81048600846006840F08070086000BF93
:1010C0000C48006800F000700028F9D0094840681A
:1010D00020F00300074948600846406840F00200DD
:1010E000486000BF0348406800F00C000828F9D1B0
:1010F0000CBD0000001002400020024010B5FFF7B8
:101100004BFB10BD10B51348006840F001001149B9
:10111000086008464068104908400E494860084683
:1011200000680E4908400B4908600846006820F432
:10113000802008600846406820F4FE0048604FF4B4
:101140001F008860FFF765FF4FF0006004490860EA
:1011500010BD0000001002400000FFF8FFFFF6FE87
:1011600008ED00E010B5174800681749B0FBF1F42E
:10117000B4F1807F01D3012011E024F07F40401EB4
:101180004FF0E02148610F214FF0FF30FFF790FE54
:1011900000204FF0E021886107200861002020B185
:1011A0000AA000F0C9F900BFFEE74FF0E020006997
:1011B00020F001004FF0E02108610021481EFFF7F8
:1011C00077FE10BD0000002040420F004572726F94
:1011D000723A5379737469636B5F496E6974282935
:1011E0000D0A000010B540F22551064800F08BF8BA
:1011F00010B105A000F0A0F940F22551014800F01F
:101200000BF810BD003801407561727431206974AB
:101210002072786E650D0A0010B50022002340F69A
:101220006A14A14200D100BF0A1201249440A3B263
:10123000DC43048010BD21B1828942F400528281D6
:1012400004E082894DF6FF731A40828170470000E6
:1012500010B504462048844209D101218803FFF7D4
:101260005DFE00214FF48040FFF758FE32E01B483E
:10127000844209D101214804FFF730FE00214FF4D8
:101280000030FFF72BFE25E01548844209D10121EB
:101290008804FFF723FE00214FF48020FFF71EFE95
:1012A00018E01048844209D10121C804FFF716FE56
:1012B00000214FF40020FFF711FE0BE00A488442A2
:1012C00008D101210805FFF709FE00214FF4801025
:1012D000FFF704FE10BD000000380140004400404C
:1012E00000480040004C00400050004002460020F2
:1012F000B1F5007F00D100BF13880B400BB1012076
:1013000000E00020704770B502460024002300254D
:10131000002040F66A16B14200D100BFC1F3421569
:1013200001F01F03012606FA03F3012D02D196896D
:10133000334006E0022D02D1168A334001E0968A3E
:1013400033400C12012606FA04F41688344013B117
:101350000CB1012000E0002070BDF0B50346002470
:1013600000260025002040F66A17B94200D100BFD0
:101370001846C1F3421401F01F06012707FA06F5CB
:10138000012C01D10C3004E0022C01D1103000E01E
:1013900014301AB107682F43076002E00768AF43B3
:1013A0000760F0BD2DE9F04786B005460E460024E3
:1013B000A24600BFA1460027B08900B100BF2F465A
:1013C0002C8A4CF6FF700440F08804432C82AC89D0
:1013D0004EF6F3100440B088318908437189084300
:1013E0000443AC81AC8A4FF6FF400440B08904430B
:1013F000AC8201A8FFF7A2FD1F48874202D1DDF8A9
:1014000010A001E0DDF80CA0A88900F4004040B174
:101410000AEBCA0000EB0A1031684900B0FBF1F892
:1014200007E00AEBCA0000EB0A1031688900B0FB44
:10143000F1F86420B8FBF0F004012009642101FBFD
:101440001089A88900F4004040B1322000EBC900A7
:10145000B0FBF1F000F00700044308E0322000EB9D
:1014600009106421B0FBF1F000F00F0004432C815F
:1014700006B0BDE8F087000000380140C1F3080263
:101480008280704710B586B00446012144F2050001
:10149000FFF734FD4FF40070ADF8140018208DF8FC
:1014A000170003208DF8160005A92048FFF794F9CE
:1014B0004FF48060ADF8140004208DF8170005A9E2
:1014C0001A48FFF789F91A48FFF7C2FE0194002075
:1014D000ADF80800ADF80C00ADF80A00ADF810004A
:1014E0000C20ADF80E0001A91148FFF75BFF4FF487
:1014F000E060FFF7D3FC25208DF8000000208DF878
:10150000010002208DF8020001208DF803006846DA
:10151000FFF78CFC012240F225510548FFF71DFF23
:1015200001210348FFF787FE06B010BD0008014007
:101530000038014000BFFEE70FB4054B10B503A90A
:10154000044A029800F0CAF810BC5DF814FB0000D1
:101550000D1E00085000002002E008C8121F08C13C
:10156000002AFAD170477047002001E001C1121F24
:10157000002AFBD1704700002DE9FF5FDDE9022062
:10158000010DDDF838B0024318D044F61050A1F236
:10159000FF3141430D140F98012820D0A5EB0B001B
:1015A000401C5FEA000A4FF00004474EDFF81C9130
:1015B000A046504616D5CAF1000728E00F9801242E
:1015C00043A2012808D0002100980F9BC0E9002108
:1015D000C0E90243BDE8FF9F6FEA0B01F4E7CBF1DE
:1015E0000000DEE7074612E0F80707D02246334640
:1015F00040464946FFF70AF8804689462246334668
:1016000010461946FFF702F804460E467F10002FD9
:10161000EAD1DDE90201BAF1000F42464B4602DA97
:10162000FEF7F4FF01E0FEF746FE04460E460022F8
:10163000284BFFF775F803D84FF0FF30014607E05D
:101640000022254B20463146FEF78EFDFFF750F86D
:10165000102409E0002C0ADB0A220023FEF7F0FE2A
:10166000019B30321A55641E50EA0102F2D1641C0B
:10167000019AC4F1110314440F9A012A03D00122E4
:1016800008430DD10AE0084304D000204FF0110BAD
:101690000F9080E7A3EB0B056D1E0DE05B4504DDAD
:1016A0004FF0000205F1010504E003DA4FF00002FB
:1016B000A5F10105002AECD000980F99C0E902318C
:1016C000C0E9004586E70000000024400000F03F2C
:1016D000300000000000F0430000E03F2DE9FF4F24
:1016E00095B09B468946064600250FE2252877D10E
:1016F00000242746F84A0121059400E0044316F827
:10170000013F203B01FA03F01042F7D130782A283C
:1017100011D06FF02F033078A0F13002092A16D8CB
:10172000059A44F0020402EB820203EB42021044E9
:10173000761C0590EFE759F8042B0592002A03DA8E
:10174000504244F40054059044F00204761C307872
:101750002E2816D116F8010F44F004042A280DD0C3
:101760006FF02F023078A0F13003092B09D807EB76
:10177000870302EB4303C718761CF3E759F8047B91
:10178000761C30786C280FD006DC4C2817D06828DF
:101790000DD06A2814D104E0742810D07A280FD113
:1017A0000DE044F400140AE044F4801401E044F431
:1017B00040147278824202D104F58014761C761CA3
:1017C000307866280BD013DC582877D009DC002845
:1017D00075D04528F6D04628F4D047281AD19DE187
:1017E00018E0632835D0642879D0652812D195E1B6
:1017F000702873D008DC6728F1D069286FD06E2874
:101800000DD06F2806D1B5E073282CD0752875D07F
:10181000782874D05A46179990476D1C75E1C4F327
:101820000250022809D003280DD0D9F8001004284E
:101830000DD00D6009F1040967E1D9F80010EA172D
:10184000C1E90052F6E7D9F800100D80F2E70D70FB
:10185000F0E719F8041B8DF8001000208DF8010046
:10186000EA46012003E059F804AB4FF0FF3061076E
:101870004FF0000102D40DE008F101018846B942A1
:101880000FDA8045F8DB1AF808100029F4D108E0D7
:1018900008F1010188468142FADB1AF80810002994
:1018A000F6D105985B46A0EB080721463846179A03
:1018B00000F094FA284400EB080507E04DE029E128
:1018C0000DE01AF8010B5A4617999047B8F1010834
:1018D000F7D25B4621463846179A13E142E00A22C6
:1018E0000092C4F302524FF0000A022A08D059F8BD
:1018F00004CB032A4FEAEC710AD00DE029E02AE07C
:1019000009F1070121F00702F2E802C1914609E05E
:101910000FFA8CFC4FEAEC71042A03D14FFA8CFCCD
:101920004FEAEC71002907DA0A460021DCF1000CCD
:1019300061EB02012D2202E0220504D52B228DF855
:101940000420012203E0E20701D02022F7E79046BD
:1019500059E00A2102E010220DE010214FF0000AA8
:1019600000910BE010224FF0000A44F00404082715
:10197000009203E008224FF0000A0092C4F30252E2
:10198000022A05D059F804CB0021032A08D009E027
:1019900009F1070121F00702F2E802C1914605E0D2
:1019A0001FFA8CFC042A01D10CF0FF0C4FF0000848
:1019B000220728D5702806D0009B83F0100353EA35
:1019C0000A0305D00EE040228DF80420012208E031
:1019D0005CEA010206D030228DF804208DF8050063
:1019E00002229046009B83F0080353EA0A030AD1BF
:1019F0005CEA010201D1620705D530228DF804208E
:101A00004FF001087F1E582804D034A003900EA880
:101A100002900DE036A0F9E753466046009AFEF7C3
:101A20000FFD84460398825C0298401E029002706B
:101A30005CEA0100F0D1029806A9081A00F1200A18
:101A4000600702D524F4803400E00127574502DD09
:101A5000A7EB0A0000E0002000EB0A0100900598C7
:101A60004144401A0590E00306D45B462146179A8C
:101A7000059800F0B3F90544002706E001A85A468E
:101A8000C05D179990476D1C7F1C4745F6DBE0034E
:101A90000CD55B462146179A059800F09FF905443E
:101AA00004E030205A46179990476D1C0099481E53
:101AB00000900029F5DC08E0029802995A46007867
:101AC000491C0291179990476D1CBAF10001AAF1C7
:101AD000010AF1DC65E100000928010030313233F0
:101AE000343536373839616263646566000000005A
:101AF0003031323334353637383941424344454644
:101B00000000000000F058F90544761C30780028E9
:101B10007FF4ECAD19B02846BDE8F08F620700D421
:101B2000062709F1070222F0070CFCE80223E14630
:101B300003F000485FEA080C02D00FF2702C0DE0B1
:101B40005FEA045C02D50FF2682C07E05FEAC47C10
:101B500002D00FF2602C01E0AFF2700C4FF0FF38B2
:101B600023F00043CDF850C065280CD006DC452892
:101B700009D046281DD047283DD13DE0662818D021
:101B800067287ED138E00021112F01DB112000E011
:101B9000781CCDE9000106A90EA8FFF7EDFCDDE9F0
:101BA0000F010E9A03910021009207F1010A04919E
:101BB0004DE04FF000400097CDE9011006A90EA8B6
:101BC000FFF7DAFCDDE90F0203920E9B1199002268
:101BD000DDF80CA00093049211B9791C00EB010A06
:101BE000B7EB0A0004D4C0F1FF3007F1010A0490FA
:101BF000AAEB0700019044E0012F00DA0127002141
:101C0000112F01DD112000E03846CDE9000106A9C1
:101C10000EA8FFF7B1FCDDE90F010E9A0391002138
:101C200004910092BA4621070CD40399514500DA79
:101C30008A46BAF1010F05DD009AAAF10101515C53
:101C4000302908D0B84202DA10F1040F06DA012177
:101C5000CDE9011015E0AAF10101E9E7002805DC52
:101C6000049901440491AAEB000102E0411C514592
:101C700000DD8A460499401A401C01904FF0004054
:101C80000290200704D40198504501DBCDF8048070
:101C900000208DF84F0002980DF14F07B0F1004F72
:101CA00025D02B200E9002984FF0020800280CDA65
:101CB000404202902D200E9007E00A210298FEF784
:101CC000A9FB3031029007F8011DB8F10001A8F11D
:101CD0000108F2DC02980028EFD1791E0E980870F6
:101CE000307800F0200040F0450007F8020D12A8FF
:101CF000C01B00F107081498007800B1012000EB28
:101D00000A01019801EBE07105984144401A401E18
:101D10000590E00306D45B462146179A059800F02B
:101D20005DF805441498007818B15A461799904701
:101D30006D1CE00324D55B462146179A059800F0F8
:101D40004DF805441CE00498002807DBDDE9030199
:101D5000884203DD0098405C179901E01799302014
:101D60005A469047049805F10105401C04900198DB
:101D7000401E019004D12E205A46179990476D1CA1
:101D8000BAF10001AAF1010ADDDC05E017F8010B48
:101D90005A46179990476D1CB8F10001A8F1010847
:101DA000F4DC5B462146179A0598ABE62D0000004F
:101DB0002B000000200000002DE9F0410446002522
:101DC0001E461746880404D405E039462020B04753
:101DD0006D1C641EF9D52846BDE8F0812DE9F0415F
:101DE000044600251E469046C80301D5302700E072
:101DF0002027880404D505E041463846B0476D1CCD
:101E0000641EF9D52846BDE8F081000070B504468F
:101E10000D46E1B20548FFF731FB00BF80210348C2
:101E2000FFF764FA0028F9D0204670BD0038014061
:101E300008B520215548FEF763FDFEF721FFFFF7A7
:101E400091F94FF4E130FFF71DFBFEF7E5FF20218C
:101E50004E48FEF757FD4E48FEF7ACFC8020009040
:101E600001236A466B216820FEF7D2FE10B149A01B
:101E7000FFF762FB4648FEF79DFC0020009001231F
:101E80006A466B216820FEF7C3FE10B145A0FFF73C
:101E900053FB01236A4638216820FEF7B9FE10B1D2
:101EA00044A0FFF749FB01236A466A216820FEF738
:101EB000AFFE10B142A0FFF73FFB01236A4623218A
:101EC0006820FEF7A5FE10B140A0FFF735FB80208B
:101ED000009001236A4637216820FEF799FE10B171
:101EE0003DA0FFF729FB0120009001236A466B21EA
:101EF0006820FEF78DFE10B13AA0FFF71DFB002011
:101F0000009001236A466C216820FEF781FE10B123
:101F100038A0FFF711FB0320009001236A461A2125
:101F20006820FEF775FE10B136A0FFF705FB2CE028
:101F3000FF20009001236A4675216820FEF706FD08
:101F400010B133A0FFF7F8FAFEF7B6FE10B133A0D8
:101F5000FFF7F2FAFEF72AFF18B135A0FFF7ECFA07
:101F600009E038480068FEF726FA044622460B4688
:101F700035A0FFF7E1FAFEF7DBFE10B135A0FFF761
:101F8000DBFA4CF25030FEF715FCD1E7000C0140B3
:101F9000A08601004572726F722D36622D31210DBF
:101FA0000A0000004572726F722D36622D32210DCB
:101FB0000A0000004572726F722D3338210D0A003D
:101FC0004572726F722D3661210D0A004572726F73
:101FD000722D3233210D0A004572726F722D333724
:101FE000210D0A004572726F722D70777231210DCA
:101FF0000A0000004572726F722D70777232210DE7
:102000000A0000004572726F722D3161210D0A00C5
:102010004572726F722D3735210D0A004572726F4D
:10202000722D476574416363656C4461746100009F
:102030004572726F722D47657454656D704461749A
:10204000610000004C000020252E3266A1E60D0A3A
:10205000000000004572726F722D476574477972F7
:102060006F446174610000008820000800000020B7
:102070005400000058150008DC200008540000201F
:10208000040400006815000800A24A0400000000D3
:102090000000000001020304060708090000000018
:1020A00001020304010203040607080902040608EA
:1020B0000000000000000000000000000000000020
:1020C0000000000000000000000000000000000010
:0C20D00000000000000000000000000004
:0400000508000145A9
:00000001FF
