:020000040800F2
:10000000B004002045010008D9180008F30A0008D0
:100010005114000873090008E51F000800000000E3
:10002000000000000000000000000000C11A0008ED
:10003000910900080000000089190008AD1B0008A4
:100040005F0100085F0100085F0100085F01000810
:100050005F0100085F0100085F0100085F01000800
:100060005F0100085F0100085F0100085F010008F0
:100070005F0100085F0100085F0100085F010008E0
:100080005F0100085F0100085F0100085F010008D0
:100090005F0100085F0100085F0100085F010008C0
:1000A0005F0100085F0100085F0100085F010008B0
:1000B0005F0100085F0100085F0100085F010008A0
:1000C0005F0100085F0100085F0100085F01000890
:1000D0005F010008951C00085F0100085F0100082F
:1000E0005F0100085F0100085F0100085F01000870
:1000F0005F0100085F0100085F0100085F01000860
:100100005F0100085F0100085F0100085F0100084F
:100110005F0100085F0100085F0100085F0100083F
:100120005F0100085F0100085F0100085F0100082F
:10013000DFF80CD000F0B8FB00480047953300080A
:10014000B00400200648804706480047FEE7FEE767
:10015000FEE7FEE7FEE7FEE7FEE7FEE7FEE7FEE777
:10016000B51B000831010008F0B480EA0102D40F89
:100170004200B2EB410F02D20246084611464A0045
:1001800042D0C30DDDB2C1F3C752AD1A202D35DA0E
:10019000C1F3160141F4000204B15242C5F1200638
:1001A00002FA06F12A411044B3EBD05F23D0C4B168
:1001B000012DA0EBC35009DCF0BC4FF0004202EA75
:1001C000C352DBB200F5000000F0B3BA400000F10A
:1001D000807000EBC350A0F1807040EAD1704900FC
:1001E00009E0490841EAC071A0EBC35000F50000E6
:1001F000400800EBC350F0BC00F092BA614201220B
:1002000002EB4101001BF6E7F0BC704781F00041B2
:10021000AAE780F00040A7E780EA010210B502F0EB
:100220000043400022D04A001FD0010E01EB1261B2
:10023000C0F35600C2F3560240F4000042F400023C
:10024000A0FB022000047F39140400D0401C50EAB7
:10025000124001D44000491EC2B20C0604EBD0107B
:10026000401C4008802A02D003E0002010BD20F08E
:100270000100002900DA0020184310BD2DE9FE4FCF
:10028000804681EA0300C00F0C46009021F0004137
:1002900023F00045B8EB0200A94105D240462146B3
:1002A00090461C460B46024623F00040104347D0C0
:1002B000270DC7F30A00C3F30A510290401A0190B8
:1002C00040286BDAC3F3130040F4801B0098924679
:1002D00020B10023D2EB030A63EB0B0B01985946C4
:1002E000C0F14002504600F0FAF906460D4650466D
:1002F0005946019A00F002FA10EB0800614100240F
:1003000087EA115284EAE7731A4340D0009A62B335
:10031000019A012A4FEA075215DC001B61EB02012A
:100320004FF0004202EA0752CDE90042001C41F5BD
:10033000801132462B4600F039FA03B0BDE8F08F49
:1003400040462146F9E7001B61EB0201001C41F524
:10035000801300185B412018A2F5001747EB03013A
:1003600040EAD570B6196D4111E06D084FEA3606C6
:1003700045EAC0754FEA0752001B61EB0201001C01
:1003800041F5801149084FEA3000001951413246C9
:100390002B4603B0BDE8F04F00F0F9B900980122F8
:1003A00040000023D0EB020263EBE073009821468B
:1003B0004FEAE074B8EB000061EB0401E9E783F079
:1003C00000435BE781F0004158E72DE9FE4F81EAE9
:1003D000030404F0004421F0004100944FF0000BAE
:1003E00023F0004350EA01045ED052EA03045BD0DC
:1003F000C3F30A54C1F30A552C44A4F2F334019414
:10040000A0FB0254C1F3130141F48011C3F31303A1
:1004100043F4801301FB024400FB034E840A970A55
:1004200044EA815447EA8357A4FB076802958D0A82
:1004300005FB07854FEA932C04FB0C542705029D0E
:100440004FEA065847EA1637B5EB08056EEB070C7E
:10045000870E920E47EA811742EA8312A7FB020138
:10046000B6EB0B0164EB00042B0D43EA0C335E1872
:1004700044EB1C50DA465146E7FB0201C5F3130476
:100480004FEA0B3343EA14534FEA0432019C43EA28
:100490000603A4F10C040294009CCDE900B400F022
:1004A00085F903B0BDE8F08F00200146F9E72DE99A
:1004B000F04D81EA030404F0004B21F0004514469E
:1004C0004FF0000A23F0004150EA050220D054EA20
:1004D00001021DD0C5F30A570246C5F31303C1F349
:1004E0001300C1F30A5640F4801543F48013A7EBC0
:1004F0000608101BD64608F2FD3873EB050002D340
:1005000008F1010801E092185B41B8F1000F03DA2D
:1005100000200146BDE8F08D00204FF48011064612
:1005200084460EE0171B73EB050705D3121B63EB24
:10053000050306434CEA010C49084FEA30009218C3
:100540005B4150EA0107EDD152EA030012D082EA82
:10055000040083EA0501084305D0101BAB4106D215
:100560000122002306E000224FF0004302E06FF07A
:10057000010253101AEB06004CEB085110EB0A0075
:1005800041EB0B01BDE8F04D00F001B9C10F80EA6D
:10059000E0700844CA079623002100F0CAB80EB5DF
:1005A000C10F80EAE0700844CA07002140F23343DB
:1005B0008DE80E000A460B4600F0F8F803B000BDC7
:1005C00000F0004220F00040C10DC0F3160040F4DE
:1005D00000007F2901DA00207047962903DCC1F171
:1005E0009601C84001E096398840002AF4D0404284
:1005F000704700F0004230F000400AD0C10D01F514
:100600006071C0F3160042EA0151C208400711436D
:10061000704700200146704701F0004330B421F0DC
:10062000004150EA010206D00A0DA2F56072C1F342
:100630001301002A02DC30BC00207047440F44EA5A
:10064000C104C100E01830BC00EBC25000F068B833
:1006500030B50B46014600202022012409E021FA92
:1006600002F59D4205D303FA02F5491B04FA02F58F
:100670002844151EA2F10102F1DC30BD2DE9F05F26
:100680000546002092469B46884606468146402401
:100690001BE0284641464746224600F017F95346DC
:1006A0005A46C01A914110D311461846224600F00E
:1006B00016F82D1A67EB01084F462246012000214B
:1006C00000F00DF817EB00094E41201EA4F10104C3
:1006D000DFDC484631462A464346BDE8F09F202AE3
:1006E00004DB203A00FA02F1002070479140C2F189
:1006F000200320FA03F3194390407047202A06DBB9
:10070000CB17203A41FA02F043EAE07306E041FADF
:1007100002F3D040C2F120029140084319467047CD
:100720000029A8BF7047401C490008BF20F0010005
:10073000704710B4B0FA80FC00FA0CF050EA0104E3
:1007400004BF10BC704749B1CCF1200421FA04F475
:1007500011FA0CF118BF012121430843A3EB0C014E
:10076000CB1D4FEA00614FEA102042BF002010BCB1
:10077000704700EBC35010440029A4BF10BC704761
:10078000401C490008BF20F0010010BC704710B5A4
:10079000141E73F1000408DA401C41F100019218A4
:1007A0005B411A4301D120F0010010BD2DE9F04D4D
:1007B00092469B4611B1B1FA81F202E0B0FA80F2A2
:1007C00020329046FFF78BFF04460F4640EA0A00AE
:1007D00041EA0B0153465A46084313D0114653EAE7
:1007E000010019D0C8F14002504600F06FF80546EC
:1007F0000E46504659464246FFF771FF084305D062
:10080000012004E020463946BDE8F08D0020054374
:1008100046EAE0762C4337430A986305E40AA0EBE6
:1008200008000022FD0A44EA47540A3002D500209D
:100830000146E9E7010510196941DDE9084500199C
:100840006941BDE8F04DA2E7C1F30A52C1F31301BB
:1008500040F2FF3341F480119A4202DA002001464F
:10086000704740F233439A42A2F2334202DC5242D2
:1008700000F02CB8FFF733BF30B5041E71F100044F
:1008800004DB4FF00044404264EB0101141E73F19D
:10089000000405DB1C464FF00043524263EB0403A7
:1008A000994208BF904230BD064C074D06E0E06813
:1008B00040F0010394E8070098471034AC42F6D3A7
:1008C000FFF73AFC3037000850370008202A04DBD5
:1008D000203A21FA02F00021704721FA02F3D040B9
:1008E000C2F12002914008431946704770B521F0CB
:1008F000004303430CD0C1F30A550024D5EB040593
:1009000064EB0403D617AD1AB34102DB00200146A5
:1009100070BD201841EB025170BD0EB540F233415D
:1009200002910021CDE900110A460B46FFF73EFF78
:1009300003B000BD70B5C1F30A5201F000450024B8
:10094000C1F3130140F2FF3341F480119A4201DAFE
:10095000002070BD40F233439A42A2F2334203DCDE
:100960005242FFF7B3FF00E090402C43F1D04042E9
:1009700070BD00BFFEE700000448006820B10348D6
:100980000068401E014908607047000028000020F0
:1009900070470000074908604FF0E021096941F005
:1009A00001014FF0E022116100BF024909680029EE
:1009B000FBD17047280000202DE9F04102460025B8
:1009C0000026002000230024002791F803C00CF02B
:1009D0000F0591F803C00CF0100CBCF1000F03D010
:1009E00091F802C04CEA050591F800C0BCF1000F77
:1009F00031D0146800202BE04FF0010C0CFA00F30A
:100A0000B1F800C00CEA03069E4220D183004FF0EB
:100A10000F0C0CFA03F7BC4305FA03FC4CEA040480
:100A200091F803C0BCF1280F06D14FF0010C0CFA6D
:100A300000FCC2F814C00AE091F803C0BCF1480FF2
:100A400005D14FF0010C0CFA00FCC2F810C0401C9C
:100A50000828D1D31460B1F800C0BCF1FF0F34DD19
:100A6000546800202EE000F1080C4FF0010808FA4D
:100A70000CF3B1F800C00CEA03069E4221D18300BA
:100A80004FF00F0C0CFA03F7BC4305FA03FC4CEAD9
:100A9000040491F803C0BCF1280F05D100F1080C43
:100AA00008FA0CF8C2F8148091F803C0BCF1480FA2
:100AB00007D100F1080C4FF0010808FA0CF8C2F851
:100AC0001080401C0828CED35460BDE8F081024657
:100AD000002093680B400BB1012000E0002070471C
:100AE00041617047016170470AB1016100E04161F5
:100AF000704700BFFEE700002DE9F04F91B083463C
:100B00008A468248B0F90000FFF740FD054680485C
:100B1000B0F90000FFF73AFD06467E48016830460E
:100B2000FFF77AFB04462946FFF71EFB10907A4830
:100B3000B0F90000FFF72AFD05467848B0F900003B
:100B4000FFF724FD0646764801683046FFF764FB50
:100B500004462946FFF708FB0F907248B0F90000E1
:100B6000FFF714FD0E905846FFF743FD80466E4A8E
:100B70006E4BFFF72AFC064600226D4BFFF797FCF1
:100B80000446FFF749FD83465046FFF732FD06460F
:100B9000654A664BFFF719FC80460022644BFFF75D
:100BA00086FC0446FFF738FD82465846FFF721FDD4
:100BB000804602F08DFC04460D460E98FFF719FDA5
:100BC000064622462B46FFF700FCCDE90A015846AF
:100BD000FFF70FFD804602F07DFB04460D4610989E
:100BE000FFF707FD064622462B46FFF7EEFBCDE951
:100BF0000801DDE90A23FFF741FBCDE90C01FFF70E
:100C00000BFD10905046FFF7F4FC044602F060FC28
:100C1000CDE906015846FFF7ECFC804602F05AFB8E
:100C200004460D460E98FFF7E4FC064622462B4686
:100C3000FFF7CBFBCDE90401DDE90623FFF7C5FB98
:100C4000CDE90A015846FFF7D4FC044602F040FC07
:100C5000804689465046FFF7CCFC064602F038FC39
:100C600004460D461098FFF7C4FC22462B46CDE9FA
:100C70000001FFF7AAFB42464B46CDE90201FFF710
:100C8000A4FBCDE906015046FFF7B3FC064602F08F
:100C900021FB04460D460F98FFF7ABFC8046224629
:100CA0002B46FFF792FBCDE90401DDE90623FFF7B0
:100CB000E5FACDE90801DDE90A23FFF780FBCDE97C
:100CC0000C01FFF7A9FC0F901098FFF792FC064665
:100CD0000F460F98FFF78DFC32463B46CDE90A01DF
:100CE00002F038FA04460022114BFFF76EFB8046F3
:100CF0000D4A0E4BFFF7DBFBCDE90C01FFF78CFC37
:100D00000C49086011B0BDE8F08F00007E000020A3
:100D10007800002084000020800000207A0000205D
:100D2000880000207C000020A7E8482EFF21094011
:100D300000806640A00000202DE9F34F87B0824676
:100D4000002081460546064604464FF47A710AFBA8
:100D500001F0C11700EB9171C1F38F0B9CE000F023
:100D6000DFF86848B0F90000A0421FDD4FF07E5068
:100D70000899FFF74BFA04902046FFF707FC039011
:100D80000499FFF749FA07465E48B0F90000FFF7FB
:100D9000FDFB04900899FFF73FFA80463946FFF7BC
:100DA000E3F90590FFF70CFC04B223E05548B0F9D5
:100DB0000000B0421EDA4FF07E500899FFF726FA85
:100DC00004903046FFF7E2FB03900499FFF724FA02
:100DD00007464C48B0F90000FFF7D8FB049008998B
:100DE000FFF71AFA80463946FFF7BEF90590FFF77C
:100DF000E7FB06B24448B0F90000A8421FDD4FF0FF
:100E00007E500899FFF702FA04902846FFF7BEFBD0
:100E100003900499FFF700FA80463B48B0F90000C0
:100E2000FFF7B4FB04900899FFF7F6F941460590E7
:100E3000FFF79AF90746FFF7C3FB05B224E03248F3
:100E4000B0F9000048451FDA4FF07E500899FFF7CF
:100E5000DDF904904846FFF799FB03900499FFF7EA
:100E6000DBF980462848B0F90000FFF78FFB0490BB
:100E70000899FFF7D1F941460590FFF775F9074644
:100E8000FFF79EFB0FFA80F940F6B830FFF782FDBE
:100E9000ABF101001FFA80FBBBF1000F3FF75FAF22
:100EA0004FF07E5019490860A5EB0900FFF777FB6A
:100EB000CDE90201A01BFFF772FB07460022144B8D
:100EC000FFF783FACDE90001DDE90223FFF7EFFA2E
:100ED000CDE90401FFF7A0FB0E490860A01B00EB61
:100EE000D071C4EB610109B20B4A1180A5EB090076
:100EF00000EBD071C5EB610109B2084A118009B05D
:100F0000BDE8F08F780000207A00002084000020E7
:100F10000000F03F880000207E00002080000020BC
:100F20002DE9FC4106236A4603211E2000F0DCF86F
:100F300010B10320BDE8FC819DF801009DF8001070
:100F400040EA012000B2214908809DF803009DF885
:100F5000021040EA012000B21D4908809DF80500FA
:100F60009DF8041040EA012000B21A490880174891
:100F7000B0F90000FFF713FB06460022164BFFF7FF
:100F800096FA0446FFF748FB144908601148B0F987
:100F90000000FFF704FB064600220F4BFFF787FA1D
:100FA0000446FFF739FB0E4908600948B0F9000014
:100FB000FFF7F5FA06460022074BFFF778FA0446DA
:100FC000FFF72AFB074908600020B3E778000020FC
:100FD0007C0000207A0000200068954094000020EA
:100FE000980000209C00002010B501230D4A0A2122
:100FF0001E2000F079F808B1012010BD01230A4A33
:101000000B211E2000F070F808B10220F5E7012343
:10101000064A0C211E2000F067F808B10320ECE717
:101020000020EAE7900000209100002092000020BC
:1010300008B542F21070FFF7ADFCFFF7D5FF08B11D
:10104000012008BD18480078482807D117480078C3
:10105000342803D116480078332801D00220F0E765
:101060007820009001236A4600211E2000F09EF99E
:1010700008B10320E5E70020009001236A461946E5
:101080001E2000F093F908B10420DAE70020009058
:1010900001236A4602211E2000F088F908B10520CC
:1010A000CFE70020CDE70000900000209100002055
:1010B0009200002010B504460121082000F076FCC3
:1010C000C020074908801420C87003208870054894
:1010D000FFF772FCC0210348FFF704FD10BD0000BC
:1010E00030000020000C01402DE9F04105460F467C
:1010F00090461E4600F0DCF8002141EA4501C8B2E6
:1011000000F0A8F800F010F9012804D100F0EEF882
:101110000120BDE8F081384600F09CF800F004F9A9
:10112000012803D100F0E2F80120F2E700F0C0F856
:10113000012101EB4501C8B200F08CF800F0F4F891
:10114000012803D100F0D2F80120E2E700240FE0EB
:1011500000F014F808F80400701EA04203D101202A
:1011600000F056F802E0002000F052F8601CC4B213
:10117000B442EDDB00F0BAF80020CAE770B50024F5
:1011800080212148FFF7AEFC0220FFF703FC8020FE
:101190001E4908800420C8701B48FFF70DFC022080
:1011A000FFF7F8FB002518E06006040E4021164802
:1011B000FFF796FC0220FFF7EDFB40211248FFF7F6
:1011C00091FC0220FFF7E6FB80210F48FFF77FFC30
:1011D00000F001000443681CC5B2082DE4DB402187
:1011E0000948FFF77DFC0220FFF7D4FB8020074968
:1011F00008801420C8700448FFF7DEFB0220FFF7C8
:10120000C9FB204670BD0000000C014030000020EA
:1012100010B5044640210E48FFF762FC0220FFF79C
:10122000B9FB224680210A48FFF75EFC0220FFF747
:10123000B1FB40210648FFF755FC0220FFF7AAFB4F
:1012400040210348FFF74CFC0220FFF7A3FB10BD31
:10125000000C014070B5054600241CE040211348F5
:10126000FFF73EFC0220FFF795FBC4F1070045FAAB
:1012700000F000F0010280210C48FFF735FC02204D
:10128000FFF788FB40210948FFF72CFC0220FFF7FD
:1012900081FB601CC4B2082CE0DB40210348FFF74F
:1012A0001FFC0220FFF776FB70BD0000000C014020
:1012B00010B580210C48FFF715FC40210A48FFF7C4
:1012C00011FC0220FFF766FB80210748FFF708FCAE
:1012D0000220FFF75FFB40210348FFF701FC0220DB
:1012E000FFF758FB10BD0000000C014010B5402175
:1012F0000C48FFF7F5FB80210A48FFF7F1FB0220BD
:10130000FFF748FB40210748FFF7ECFB0220FFF7FF
:1013100041FB80210348FFF7E5FB0220FFF73AFB82
:1013200010BD0000000C014010B540211D48FFF722
:10133000D7FB0220FFF72EFB80211A48FFF7D2FBD4
:101340000220FFF727FB40211648FFF7CBFB0220C6
:10135000FFF720FB8020144908800420C870114842
:10136000FFF72AFB0220FFF715FB80210D48FFF74E
:10137000AEFB00F001040220FFF70CFB80200A49BD
:1013800008801420C8700748FFF716FB0220FFF7FB
:1013900001FB40210348FFF7A3FB0220FFF7FAFA05
:1013A000204610BD000C0140300000202DE9F04126
:1013B00005460E4617469846FFF77AFF002141EA98
:1013C0004501C8B2FFF746FFFFF7AEFF012804D181
:1013D000FFF78CFF0120BDE8F0813046FFF73AFFB0
:1013E000FFF7A2FF012803D1FFF780FF0120F2E7FA
:1013F00000240CE0385DFFF72DFFFFF795FF012873
:1014000003D1FFF773FF0120E5E7601CC4B2444538
:10141000F0DBFFF76BFF0020DDE7000008B50121DE
:10142000082000F0C3FA2320ADF8000010208DF84A
:10143000030003208DF8020069460448FFF7BCFA58
:1014400023210248FFF74EFB08BD0000000C0140BD
:1014500000BFFEE72DE9F34F8BB000F0AFF800F0CE
:101460001BF94C480C990068FEF7D6FE83464A48A3
:1014700001685846FEF778FE81464FF07E510B9882
:10148000FEF7C7FE82464946FEF7C6FE8046FFF7D6
:10149000B0F804460D4641480068FFF7AAF8CDE9C8
:1014A00000013F480068FFF7A4F88246DDE9002309
:1014B00001F050FECDE904010B98FFF79AF8CDE951
:1014C0000201DDE90423FEF780FF0022354BCDE960
:1014D0000601FEF77AFF8046334A344BFEF7E7FFFA
:1014E000064622462B46FEF7C9FECDE90801FFF766
:1014F00093F8294908602E480C990068FEF78CFE85
:1015000007462C4801683846FEF72EFE05464FF088
:101510007E510B98FEF77DFE06462946FEF77CFEBF
:101520000446FFF766F882468B461C480068FFF7C2
:1015300060F804460D4620480068FFF75AF8064652
:1015400022462B4601F006FECDE902010B98FFF77B
:1015500050F8CDE90001DDE90223FEF736FF002255
:10156000104BCDE90401FEF730FF80460E4A0F4BC9
:10157000FEF79DFF52465B46CDE90601FEF77EFE73
:10158000CDE90801FFF748F80A4908600DB0BDE849
:10159000F08F00005C000020680000205400002054
:1015A0004C00002000806640A7E8482EFF2109403B
:1015B000600000206C000020500000202DE9FC415C
:1015C00006236A463B216820FFF78EFD10B10120FB
:1015D000BDE8FC819DF801009DF8001040EA012063
:1015E00000B2214908809DF803009DF8021040EAEE
:1015F000012000B21C4948809DF805009DF80410A8
:1016000040EA012000B218498880B1F90000FEF7D5
:10161000C6FF06460022154BFEF749FF0446FEF7BB
:10162000FBFF134908601049B1F90200FEF7B7FF4C
:10163000064600220D4BFEF73AFF0446FEF7ECFF8C
:101640000C4908600849B1F90400FEF7A8FF0646F6
:101650000022064BFEF72BFF0446FEF7DDFF06498E
:1016600008600020B4E700003C0000200000D040EB
:101670004C000020500000205400002010B5012331
:10168000044A75216820FFF72FFD08B1012010BD25
:101690000020FCE74A0000202DE9FC4106236A46B1
:1016A00043216820FFF720FD10B10120BDE8FC8137
:1016B0009DF801009DF8001040EA012000B2214988
:1016C00008809DF803009DF8021040EA012000B256
:1016D0001C4948809DF805009DF8041040EA01204F
:1016E00000B218498880B1F90000FEF758FF06469D
:1016F000154A164BFEF7DBFE0446FEF78DFF144934
:1017000008601049B1F90200FEF749FF06460E4A8B
:101710000E4BFEF7CCFE0446FEF77EFF0D49086037
:101720000849B1F90400FEF73AFF0646064A074B9E
:10173000FEF7BDFE0446FEF76FFF07490860002074
:10174000B4E7000044000020FCA9F1D24D62304013
:101750005C0000206000002064000020F8B5044612
:101760000D4642F21070FFF715F9FFF787FF08B139
:101770000120F8BD29480078682801D00220F8E748
:101780008020009001236A466B216820FFF70EFE3F
:1017900008B10320EDE742F21070FFF7FBF80020DC
:1017A000009001236A466B216820FFF7FFFD08B116
:1017B0000420DEE70120009001236A466B216820A7
:1017C000FFF7F4FD08B10A20D3E7182000900123A9
:1017D0006A461B216820FFF7E9FD08B10B20C8E726
:1017E0000020009001236A461C216820FFF7DEFDDF
:1017F00008B10C20BDE72946204600F03EF808B1AC
:101800000D20B6E704EBD471C1F34F00294600F078
:1018100007F808B10E20ACE70020AAE74A00002034
:1018200038B504460D46DDB1BC2C02DD0120009028
:1018300018E0622C02DD0220009013E02A2C02DD69
:10184000032000900EE0142C02DD0420009009E03B
:101850000A2C02DD0520009004E00620009001E043
:101860000020009001236A461A216820FFF79EFDA0
:1018700008B1012038BD0020FCE7F8B504460E464B
:101880006EB14FF47A75B4F57A7F01DD284604E035
:10189000042C01DA042000E0204604460CE04FF45A
:1018A000FA55B4F5FA5F01DD284604E0202C01DA90
:1018B000202000E02046044695FBF4F0401EC0B214
:1018C000009001236A4619216820FFF76FFD08B1D7
:1018D0000120F8BD0020FCE77047000070B5002132
:1018E00000230F22C47804B3154C246804F4E06488
:1018F000C4F5E064210AC1F10403CA40447804FA43
:1019000003F184781440214309010E4C0678A15557
:10191000047804F01F050124AC4005786D11AD007A
:1019200005F1E025C5F8004109E0047804F01F0541
:101930000124AC40044D0678761145F8264070BD70
:101940000CED00E000E400E080E100E0024901432A
:10195000024A1160704700000000FA050CED00E03B
:1019600010B5002807DA0A07140E054A00F00F0325
:101970001B1FD45403E00A07130E024A135410BD70
:1019800018ED00E000E400E07047000029B1064ACD
:1019900012690243044B1A6104E0034A126982434C
:1019A000014B1A61704700000010024029B1064A3D
:1019B00092690243044B9A6104E0034A92698243AC
:1019C000014B9A61704700000010024029B1064A9D
:1019D000D2680243044BDA6004E0034AD2688243CF
:1019E000014BDA60704700000010024030B5002162
:1019F0000022002400232D4D6D6805F00C0121B15B
:101A0000042905D0082923D105E0294D056022E0ED
:101A1000274D05601FE0254D6D6805F47012234DBC
:101A20006D6805F48034022505EB92421CB9214D06
:101A3000554305600BE01D4D6D6805F400351DB183
:101A40001C4D5543056002E0194D5543056002E009
:101A5000174D056000BF00BF144D6D6805F0F00123
:101A60000909154D6B5C0568DD4045600F4D6D68DB
:101A700005F4E061090A104D6B5C4568DD40856046
:101A80000A4D6D6805F46051C90A0B4D6B5C4568E1
:101A9000DD40C560054D6D6805F44041890B074D7B
:101AA0006B5CC568B5FBF3F5056130BD0010024005
:101AB00000127A0000093D001400002024000020DC
:101AC000704710B500F002F810BD00000CB5002002
:101AD000019000903348006840F48030314908603C
:101AE00000BF3048006800F4003000900198401CAE
:101AF0000190009818B90198B0F5A06FF1D129486C
:101B0000006800F4003010B10120009001E00020D6
:101B100000900098012843D12348006840F010004D
:101B2000214908600846006820F003000860084664
:101B3000006840F0020008601A484068194948608F
:101B40000846406848600846406840F48060486045
:101B50000846406820F47C1048600846406840F41D
:101B6000E81048600846006840F08070086000BFD8
:101B70000C48006800F000700028F9D0094840685F
:101B800020F00300074948600846406840F0020022
:101B9000486000BF0348406800F00C000828F9D1F5
:101BA0000CBD0000001002400020024010B5FEF7FE
:101BB000E3FE10BD10B51348006840F00100114964
:101BC000086008464068104908400E4948600846C9
:101BD00000680E4908400B4908600846006820F478
:101BE000802008600846406820F4FE0048604FF4FA
:101BF0001F008860FFF765FF4FF000600449086030
:101C000010BD0000001002400000FFF8FFFFF6FECC
:101C100008ED00E010B5174800681749B0FBF1F473
:101C2000B4F1807F01D3012011E024F07F40401EF9
:101C30004FF0E02148610F214FF0FF30FFF790FE99
:101C400000204FF0E021886107200861002020B1CA
:101C50000AA000F0C9F900BFFEE74FF0E0200069DC
:101C600020F001004FF0E02108610021481EFFF73D
:101C700077FE10BD0000002040420F004572726FD9
:101C8000723A5379737469636B5F496E697428297A
:101C90000D0A000010B540F22551064800F08BF8FF
:101CA00010B105A000F0A0F940F22551014800F064
:101CB0000BF810BD003801407561727431206974F1
:101CC0002072786E650D0A0010B50022002340F6E0
:101CD0006A14A14200D100BF0A1201249440A3B2A9
:101CE000DC43048010BD21B1828942F4005282811C
:101CF00004E082894DF6FF731A408281704700002C
:101D000010B504462048844209D101218803FFF719
:101D10005DFE00214FF48040FFF758FE32E01B4883
:101D2000844209D101214804FFF730FE00214FF41D
:101D30000030FFF72BFE25E01548844209D1012130
:101D40008804FFF723FE00214FF48020FFF71EFEDA
:101D500018E01048844209D10121C804FFF716FE9B
:101D600000214FF40020FFF711FE0BE00A488442E7
:101D700008D101210805FFF709FE00214FF480106A
:101D8000FFF704FE10BD0000003801400044004091
:101D900000480040004C0040005000400246002037
:101DA000B1F5007F00D100BF13880B400BB10120BB
:101DB00000E00020704770B5024600240023002593
:101DC000002040F66A16B14200D100BFC1F34215AF
:101DD00001F01F03012606FA03F3012D02D19689B3
:101DE000334006E0022D02D1168A334001E0968A84
:101DF00033400C12012606FA04F41688344013B15D
:101E00000CB1012000E0002070BDF0B503460024B5
:101E100000260025002040F66A17B94200D100BF15
:101E20001846C1F3421401F01F06012707FA06F510
:101E3000012C01D10C3004E0022C01D1103000E063
:101E400014301AB107682F43076002E00768AF43F8
:101E50000760F0BD2DE9F04786B005460E46002428
:101E6000A24600BFA1460027B08900B100BF2F469F
:101E70002C8A4CF6FF700440F08804432C82AC8915
:101E80004EF6F3100440B088318908437189084345
:101E90000443AC81AC8A4FF6FF400440B089044350
:101EA000AC8201A8FFF7A2FD1F48874202D1DDF8EE
:101EB00010A001E0DDF80CA0A88900F4004040B1BA
:101EC0000AEBCA0000EB0A1031684900B0FBF1F8D8
:101ED00007E00AEBCA0000EB0A1031688900B0FB8A
:101EE000F1F86420B8FBF0F004012009642101FB43
:101EF0001089A88900F4004040B1322000EBC900ED
:101F0000B0FBF1F000F00700044308E0322000EBE2
:101F100009106421B0FBF1F000F00F0004432C81A4
:101F200006B0BDE8F087000000380140C1F30802A8
:101F30008280704710B586B00446012144F2050046
:101F4000FFF734FD4FF40070ADF8140018208DF841
:101F5000170003208DF8160005A92048FEF72CFD78
:101F60004FF48060ADF8140004208DF8170005A927
:101F70001A48FEF721FD1A48FFF7C2FE019400201F
:101F8000ADF80800ADF80C00ADF80A00ADF810008F
:101F90000C20ADF80E0001A91148FFF75BFF4FF4CC
:101FA000E060FFF7D3FC25208DF8000000208DF8BD
:101FB000010002208DF8020001208DF80300684620
:101FC000FFF78CFC012240F225510548FFF71DFF69
:101FD00001210348FFF787FE06B010BD000801404D
:101FE0000038014000BFFEE70FB4054B10B503A950
:101FF000044A029800F006FC10BC5DF814FB0000D7
:1020000071330008A4000020490050EAC12018BF25
:1020100004204A0D18BF40F0010040F2FF72B2EBFD
:10202000515F08BF40F00200012808BF052070473B
:102030002DE9F74F144694B00021C4E90211159917
:10204000079121F00045C9498D4206DC1599C4E984
:10205000000117B00020BDE8F08FC549DFF814A3D8
:10206000A9423CDD0799C44E0029C44FC44A1599C2
:10207000534619DDFEF7A3F9554506D0C14AC24BB8
:10208000FEF79DF9C4E900010AE04FF0D352BE4BC0
:10209000FEF795F932463B46FEF791F9C4E9000197
:1020A00017B00120BDE8F08FFEF7E8F8554506D0DF
:1020B000B44AB54BFEF7E2F8C4E900010AE04FF07C
:1020C000D352B14BFEF7DAF832463B46FEF7D6F86C
:1020D000C4E9000117B04FF0FF30BDE8F08FAB4905
:1020E000A942159978DB21F0004183468846A84A29
:1020F000A84BFEF76AF90022A74BFEF7BFF8FEF7E0
:1021000019FC0990FEF74BFA06460F469C4A5346C7
:10211000FEF75BF943465A46FEF754F980468A4675
:10212000984A994B30463946FEF74FF92A0D01255A
:102130000B9242465346FEF745F9032DC4E90001D0
:1021400039D00B98C1F30A51401A05EB45111139EA
:10215000814230DA9148C346784400EB0510CDF84F
:102160000CA00C90D0E9002330463946FEF72DF93B
:1021700002460B460491069058460399FEF71FF954
:1021800080468A4602460B4658460399FEF717F9E1
:10219000049B069AFEF713F983460C98039139467F
:1021A000D0E902233046FEF710F95A46039BFEF7AA
:1021B00006F96D1CBDE707980028A2BF099817B063
:1021C000BDE8F08F616881F000416160099817B047
:1021D0004042BDE8F08FFFE784461598C1F3130134
:1021E000C0F30A50A0F2F5304FEA601800F01F0665
:1021F000C6F12000139000200690079041F4801E45
:1022000005206D4676B1664A08EB00017A4452F823
:10221000213002EB8101B3404A68139922FA01F19F
:10222000194305E05F4908EB0002794451F8221098
:10223000A1FB0E27A1FB0C131A449A4234BF0123C1
:10224000002303EB070A05EB8003D3E901B70F4432
:102250008F4234BF0121002193448B4411B1934537
:1022600002D903E0934501D2012100E00021C3E936
:1022700001B7514445F82010011EA0F10100C1DC56
:102280000298059F00F10050800F12900298DDE93E
:1022900003568000FEF783F9834628460D91FEF72A
:1022A0003CFB6FF01D02FEF721FBCDE90E0130462D
:1022B000FEF733FB6FF03D02FEF718FB80468A46BF
:1022C0003846FEF72AFB6FF05D02FEF70FFB07466C
:1022D000424653461191FDF7D1FFDDE90E23FDF78C
:1022E000CDFF5A460D9BFDF7C9FF00250E465A4605
:1022F00028460D9BFEF763F8DDE90E23FEF75FF835
:1023000042465346FEF75BF83A46119BFEF75AF8F1
:10231000DFF898A0244A5346FEF757F80746884648
:10232000234A244B31462846FEF74FF83A464346A7
:10233000FDF7A4FF074688464FF0A84253463146B2
:102340002846FEF742F83A464346FDF797FF159AAE
:1023500012F0004F04D0129A81F0004152421292C2
:10236000C4E90001129817B0BDE8F08FFB21E93FE6
:102370007CD90240FB21F93F7370032E8A19A33BDD
:10238000000040543163621A61B4D03DFB213941F1
:1023900083C8C96D305FE43F0000E03FE4140000F3
:1023A0006014000042140000182D4454FB21F93D34
:1023B0003326A611460B113C2DE9FF4D21F00048B4
:1023C00007460C46B8F1795F08DAFEF7B3FA002841
:1023D00001BF0020324904B0BDE8F08D3A462346E3
:1023E00010461946FDF7F1FF054602462D480E46F8
:1023F0000B460621784400F05DF82A463346FDF787
:10240000E4FFDDE9022382468B4638462146FDF78C
:10241000DCFF04460F4652465B4628463146FDF730
:10242000D4FF22463B46FDF7CAFF07468A464FF0D7
:10243000FF3228463146FEF759FA1B4A90450ADA20
:102440003A465346FDF7BBFF04B00022BDE8F04D0D
:10245000134BFDF7B7BF154A4245A8BFA8F50015B5
:102460004FF00004B8BF124D22462B46FDF7A7FFE0
:102470000646884622462B4600200949FDF79FFF65
:1024800004460D463A46534630464146FDF797FF0F
:1024900004B022462B46BDE8F04DFDF793BF000087
:1024A0000000F03F101200003333D33F0000E93F3B
:1024B0000000D23F2DE9F0414F1E00EBC70104465A
:1024C000D1E9000115461E4637F006020DD02A4616
:1024D0003346FDF77AFF7F1E04EBC703D3E90023E1
:1024E000FDF7CCFE37F00602F1D1022F25D0042FE4
:1024F00013D0062F18BFBDE8F0812A463346FDF7FA
:1025000064FFD4E90A23FDF7B9FE2A463346FDF7F6
:102510005CFFD4E90823FDF7B1FE2A463346FDF7F8
:1025200054FFD4E90623FDF7A9FE2A463346FDF7FA
:102530004CFFD4E90423FDF7A1FE2A463346FDF7FC
:1025400044FFD4E90223FDF799FE2A463346FDF7FE
:102550003CFFD4E90023BDE8F041FDF78FBE000049
:102560002DE9FF4D054621F0004084B00C46B0F146
:10257000795F0BDA2846FFF747FD042808BF00F013
:1025800071F8284608B02146BDE8F08D2A460B4672
:102590001046FDF71AFF06460F462A462346FDF76A
:1025A00014FF804626488A4632463B460521784439
:1025B000FFF780FF83461098029160B3214A224BB7
:1025C00040465146FDF701FFCDE900015A4640461D
:1025D0005146029BFDF7F9FE82468846DDE9060179
:1025E0004FF0FF32FEF782F952464346FDF7E7FE11
:1025F00032463B46FDF7E9FEDDE90623FDF7DFFE47
:10260000DDE90023FDF7DBFE08B02A462346BDE8DE
:10261000F04DFDF7D7BE0B465A4630463946FDF71A
:10262000D4FE084A084BFDF729FE42465346FDF703
:10263000CCFE08B02A462346BDE8F04DFDF71EBE8D
:1026400056110000495555555555C5BF0122FEF795
:102650004DB9FDF713BE0022134610461146FDF793
:1026600026BF0000024A00201107FEF73FB9000014
:1026700001FDFFFF02E008C8121F08C1002AFAD1BD
:1026800070477047002001E001C1121F002AFBD1F2
:10269000704700000149086070470000A800002052
:1026A0002DE9FF5FDDE90220010DDDF838B00243BE
:1026B00018D044F61050A1F2FF3141430D140F9889
:1026C000012820D0A5EB0B00401C5FEA000A4FF068
:1026D0000004474EDFF81C91A046504616D5CAF1BB
:1026E000000728E00F98012443A2012808D0002108
:1026F00000980F9BC0E90021C0E90243BDE8FF9F9D
:102700006FEA0B01F4E7CBF10000DEE7074612E0C9
:10271000F80707D02246334640464946FDF755FEA6
:10272000804689462246334610461946FDF74DFE3F
:1027300004460E467F10002FEAD1DDE90201BAF10E
:10274000000F42464B4602DAFDF73FFE01E0FDF77F
:10275000AEFE04460E460022284BFEF78DF803D845
:102760004FF0FF30014607E00022254B204631465E
:10277000FDF784FDFEF768F8102409E0002C0ADB61
:102780000A220023FDF77AFF019B30321A55641E9E
:1027900050EA0102F2D1641C019AC4F111031444FD
:1027A0000F9A012A03D0012208430DD10AE0084301
:1027B00004D000204FF0110B0F9080E7A3EB0B0526
:1027C0006D1E0DE05B4504DD4FF0000205F10105D3
:1027D00004E003DA4FF00002A5F10105002AECD075
:1027E00000980F99C0E90231C0E9004586E7000072
:1027F000000024400000F03F300000000000F043E3
:102800000000E03F2DE9FF4F95B09B468946064604
:1028100000250FE2252877D100242746F84A012118
:10282000059400E0044316F8013F203B01FA03F051
:102830001042F7D130782A2811D06FF02F0330786A
:10284000A0F13002092A16D8059A44F0020402EBDE
:10285000820203EB42021044761C0590EFE759F820
:10286000042B0592002A03DA504244F400540590E8
:1028700044F00204761C30782E2816D116F8010F89
:1028800044F004042A280DD06FF02F023078A0F114
:102890003003092B09D807EB870302EB4303C71862
:1028A000761CF3E759F8047B761C30786C280FD03F
:1028B00006DC4C2817D068280DD06A2814D104E013
:1028C000742810D07A280FD10DE044F400140AE0E7
:1028D00044F4801401E044F440147278824202D13E
:1028E00004F58014761C761C307866280BD013DC37
:1028F000582877D009DC002875D04528F6D046281E
:10290000F4D047281AD19DE118E0632835D0642817
:1029100079D0652812D195E1702873D008DC67283A
:10292000F1D069286FD06E280DD06F2806D1B5E0A0
:1029300073282CD0752875D0782874D05A461799EA
:1029400090476D1C75E1C4F30250022809D003289A
:102950000DD0D9F8001004280DD00D6009F104093C
:1029600067E1D9F80010EA17C1E90052F6E7D9F893
:1029700000100D80F2E70D70F0E719F8041B8DF8D8
:10298000001000208DF80100EA46012003E059F80C
:1029900004AB4FF0FF3061074FF0000102D40DE0AF
:1029A00008F101018846B9420FDA8045F8DB1AF8D0
:1029B00008100029F4D108E008F10101884681429D
:1029C000FADB1AF808100029F6D105985B46A0EB4F
:1029D000080721463846179A00F094FA284400EB7D
:1029E000080507E04DE029E10DE01AF8010B5A4611
:1029F00017999047B8F10108F7D25B46214638464F
:102A0000179A13E142E00A220092C4F302524FF0F7
:102A1000000A022A08D059F804CB032A4FEAEC71C5
:102A20000AD00DE029E02AE009F1070121F00702B0
:102A3000F2E802C1914609E00FFA8CFC4FEAEC7112
:102A4000042A03D14FFA8CFC4FEAEC71002907DA13
:102A50000A460021DCF1000C61EB02012D2202E0AC
:102A6000220504D52B228DF80420012203E0E20781
:102A700001D02022F7E7904659E00A2102E0102217
:102A80000DE010214FF0000A00910BE010224FF0F2
:102A9000000A44F004040827009203E008224FF0E3
:102AA000000A0092C4F30252022A05D059F804CB5E
:102AB0000021032A08D009E009F1070121F00702EB
:102AC000F2E802C1914605E01FFA8CFC042A01D10C
:102AD0000CF0FF0C4FF00008220728D5702806D014
:102AE000009B83F0100353EA0A0305D00EE0402256
:102AF0008DF80420012208E05CEA010206D03022B1
:102B00008DF804208DF8050002229046009B83F08A
:102B1000080353EA0A030AD15CEA010201D1620701
:102B200005D530228DF804204FF001087F1E58286B
:102B300004D034A003900EA802900DE036A0F9E76F
:102B400053466046009AFDF799FD84460398825CDF
:102B50000298401E029002705CEA0100F0D10298D7
:102B600006A9081A00F1200A600702D524F480346F
:102B700000E00127574502DDA7EB0A0000E0002036
:102B800000EB0A01009005984144401A0590E003CB
:102B900006D45B462146179A059800F0B3F9054420
:102BA000002706E001A85A46C05D179990476D1CA2
:102BB0007F1C4745F6DBE0030CD55B462146179AA0
:102BC000059800F09FF9054404E030205A46179913
:102BD00090476D1C0099481E00900029F5DC08E024
:102BE000029802995A460078491C02911799904719
:102BF0006D1CBAF10001AAF1010AF1DC65E10000E7
:102C000009280100303132333435363738396162C2
:102C10006364656600000000303132333435363786
:102C200038394142434445460000000000F058F95D
:102C30000544761C307800287FF4ECAD19B02846A6
:102C4000BDE8F08F620700D4062709F1070222F0E1
:102C5000070CFCE80223E14603F000485FEA080C99
:102C600002D00FF2702C0DE05FEA045C02D50FF287
:102C7000682C07E05FEAC47C02D00FF2602C01E010
:102C8000AFF2700C4FF0FF3823F00043CDF850C086
:102C900065280CD006DC452809D046281DD04728D9
:102CA0003DD13DE0662818D067287ED138E000216C
:102CB000112F01DB112000E0781CCDE9000106A9ED
:102CC0000EA8FFF7EDFCDDE90F010E9A039100213C
:102CD000009207F1010A04914DE04FF00040009787
:102CE000CDE9011006A90EA8FFF7DAFCDDE90F0215
:102CF00003920E9B11990022DDF80CA00093049220
:102D000011B9791C00EB010AB7EB0A0004D4C0F139
:102D1000FF3007F1010A0490AAEB0700019044E09C
:102D2000012F00DA01270021112F01DD112000E021
:102D30003846CDE9000106A90EA8FFF7B1FCDDE990
:102D40000F010E9A0391002104910092BA462107C7
:102D50000CD40399514500DA8A46BAF1010F05DD1A
:102D6000009AAAF10101515C302908D0B84202DA78
:102D700010F1040F06DA0121CDE9011015E0AAF1E6
:102D80000101E9E7002805DC049901440491AAEB5C
:102D9000000102E0411C514500DD8A460499401AB9
:102DA000401C01904FF000400290200704D401988D
:102DB000504501DBCDF8048000208DF84F000298CB
:102DC0000DF14F07B0F1004F25D02B200E90029847
:102DD0004FF0020800280CDA404202902D200E909D
:102DE00007E00A210298FDF733FC3031029007F822
:102DF000011DB8F10001A8F10108F2DC02980028D9
:102E0000EFD1791E0E980870307800F0200040F065
:102E1000450007F8020D12A8C01B00F1070814981E
:102E2000007800B1012000EB0A01019801EBE0718C
:102E300005984144401A401E0590E00306D45B46C5
:102E40002146179A059800F05DF80544149800781B
:102E500018B15A46179990476D1CE00324D55B467C
:102E60002146179A059800F04DF805441CE0049897
:102E7000002807DBDDE90301884203DD0098405CA0
:102E8000179901E0179930205A469047049805F1A8
:102E90000105401C04900198401E019004D12E2091
:102EA0005A46179990476D1CBAF10001AAF1010A20
:102EB000DDDC05E017F8010B5A46179990476D1CA9
:102EC000B8F10001A8F10108F4DC5B462146179A2D
:102ED0000598ABE62D0000002B000000200000004C
:102EE0002DE9F041044600251E461746880404D407
:102EF00005E039462020B0476D1C641EF9D52846F0
:102F0000BDE8F0812DE9F041044600251E469046BB
:102F1000C80301D5302700E02027880404D505E048
:102F200041463846B0476D1C641EF9D52846BDE8B9
:102F3000F08100002DE9F84F04460D4621F00040D5
:102F400000917349814211DC7249884201DC06D14B
:102F50002CB120462946BDE8F84FFFF777BB6E48F5
:102F6000002DCCBF6D496E49BDE8F88F6D49814297
:102F700011DD6D498142D8BF4FF0FF366DDD20462F
:102F80002946FFF741F8042808BFFFF76BFB2046EE
:102F90002946BDE8F88F6549654F25F00045814217
:102FA00033DD6449814219DD002632464FF080430B
:102FB00020462946FDF762F980468A4601222046CE
:102FC0002946FDF793FC00223B46FDF7F8F94246FF
:102FD0005346FDF76CFA04460D463EE001260022FA
:102FE000BA463B4620462946FDF748F980460F463B
:102FF0000022534620462946FDF7E1F942463B466A
:10300000FDF755FA04460D4627E04B4981421BDD8A
:10301000DFF828A102260022534620462946FDF764
:10302000D4F900223B46FDF729F980460F460022DD
:10303000534620462946FDF7C2F942463B46FDF776
:1030400036FA04460D4608E0032622462B460020A9
:103050003B49FDF72CFA04460D4622462B46104606
:103060001946FDF7B2F98B46824602460B46FDF73C
:10307000ACF907460246334888460B460621784499
:10308000FFF718FA52465B46FDF79FF982462E4835
:103090008B463A46434605217844FFF70BFA3A46F9
:1030A0004346FDF792F902460B46002E504659461C
:1030B0000CDAFDF7E3F822462B46FDF786F901B05E
:1030C00022462B46BDE8F04FFDF77CB9FDF7D6F858
:1030D00022462B46FDF779F91C4A7A4402EBC603D7
:1030E000D3E90023FDF76BF922462B46FDF767F97C
:1030F000174A7A4402EBC603D3E90023FDF762F9CD
:10310000009A002AB8BF81F00041BDE8F88F0000A6
:10311000000010440000F07F182D4454FB21F93FBB
:10312000FB21F9BF0000DC3F0000203E0000F33F20
:103130000000F03F0000E63F008003400000F83F41
:103140000000F0BF5605000014050000B2040000A6
:103150007A0400002DE9F04D9446CCF1000423F0F0
:1031600000464CEA0404524F46EAD4749A46884614
:1031700021F00042BC4206D8454240EA050442EA3A
:10318000D474BC4204D9BDE8F04D6246FFF761BA81
:10319000AAF14055A5F17F6555EA0C040BD0022435
:1031A00004EAAA74434DDFF810E144EAD87452EA05
:1031B000000B04D00CE0BDE8F04DFFF7BBBE002CC7
:1031C00014BF012CBDE8F08D022C30D0032C32D07E
:1031D00056EA0C0B0AD0BE4220D1BA4209D126F0E1
:1031E000804622F080423346114617E000291ADB60
:1031F00025E0DFF8C8B0FB44002C04BFDBE9000188
:10320000BDE8F08D012C02BFDBE9000181F0004137
:10321000BDE8F08D022C0AD0032C0CD0BA4212D19A
:10322000B8F1000F0BDA23482549BDE8F08D284698
:103230002449BDE8F08D28467146BDE8F08D1D4853
:103240002149BDE8F08D921B12153C2AC4BF1948D4
:103250001D490EDCBAF1000FBEBF12F13C0F002079
:10326000014606DB6246FDF722F921F00041FFF737
:1032700061FE002C08BFBDE8F08D012C04BF81F079
:103280000041BDE8F08D114A114B022C07D0FDF72B
:1032900096F82A46BDE8F04D0A4BFDF790B8FDF7C9
:1032A0008EF82A46BDE8F04D064BFDF78BB80000BE
:1032B0000000F07F182D4454FB2109C03E0400009B
:1032C000FB21F9BFFB210940FB21F93F075C1433C7
:1032D00026A6A13C00B5244B21F0004287B09A42BB
:1032E000DCBF0022134629DD204B9A4208D140B9A9
:1032F0004FF00100FFF7CEF9FFF7ADF907B000BDC1
:1033000003DBFFF7A3F907B000BD02AAFEF790FEAA
:1033100010F0030104BF0DF1080C9CE80F000DD064
:10332000012001290ED0022914D00DF1080C0090C3
:103330009CE80F00FFF714F907B000BDFFF73CF859
:1033400007B000BD0DF1080C00909CE80F00FFF7DE
:1033500007F905E00DF1080C9CE80F00FFF72CF8C9
:1033600007B081F0004100BDFB21E93F0000F07F84
:1033700070B504460D46E1B20548FEF7D7FD00BF23
:1033800080210348FEF70AFD0028F9D0204670BDD1
:10339000003801401FB5FEF741F8FEF73BFC4FF443
:1033A000E130FEF7C7FD3048FDF784FE20212F48AD
:1033B000FDF796FB01213220FEF7D0F982460BE0A3
:1033C00051462BA0FEF710FE2E48FDF7E3FA01212F
:1033D0003220FEF7C3F98246BAF1000FF0D1FDF7B3
:1033E00027FE824609E0514627A0FEF7FDFD25484D
:1033F000FDF7D0FAFDF71CFE8246BAF1000FF2D1BC
:1034000026490A20FDF798FC20211848FDF76AFBA1
:1034100029E000212248FEF71DF8FDF781FD214833
:10342000016821480068FDF767FB20480068FDF748
:10343000E0F804460D461B480068FDF7DAF806463A
:103440000F4619480068FDF7D4F8804642460B46FF
:1034500017A0CDE90067CDE90245FEF7C5FD41F2B1
:103460008830FDF797FAD4E7801A0600000C014077
:103470004572726F722D6D7075363035302D256442
:103480000D0A0000400D03004572726F722D686DC9
:1034900063353838336C2D25640D0A00CDCC4C3F94
:1034A000CDCCCC3D6C00002068000020A0000020A6
:1034B00070697463683A20256620726F6C6C3A20DC
:1034C0002566207961773A2025660D0A0000000004
:1034D00000B5254B21F0004287B09A4203DC002260
:1034E000134600922BE0214B9A4208D140B94FF08D
:1034F0000100FFF7CFF8FFF7AEF807B000BD03DB20
:10350000FFF7A4F807B000BD02AAFEF791FD10F086
:1035100003014FF001000DD0012914D002291AD067
:103520000DF1080C9CE80F00FEF746FF07B081F094
:10353000004100BD0DF1080C00909CE80F00FFF762
:103540000FF807B000BD0DF1080C9CE80F00FEF766
:1035500033FF07B000BD0DF1080C00909CE80F0090
:10356000FEF7FEFFE2E70000FB21E93F0000F07FED
:103570004FBB610567ACDD3F182D4454FB21E93F8B
:103580009BF681D20B73EF3F182D4454FB21F93F7A
:10359000E2652F227F2B7A3C075C143326A6813C00
:1035A000BDCBF07A8807703C075C143326A6913CAB
:1035B000C4EB98999999C9BF711623FEC671BCBF17
:1035C0006D9A74AFF2B0B3BF9AFDDE522DDEADBF7F
:1035D0002F6C6A2C44B4A2BF0D5555555555D53F97
:1035E000FF8300922449C23F6E204CC5CD45B73FB2
:1035F000513DD0A0660DB13FEB0D76244B7BA93F2A
:1036000011DA22E33AAD903F4C5555555555A53F3B
:103610007751C1166CC156BF9015CB19A001FA3E67
:10362000AD529C804F7E92BEC4B1B4BD9EEE213E91
:10363000D43888BEE9FAA8BD0000000000000000F0
:1036400000004054FB21F93F3163621A61B4D03D60
:103650000000601A61B4D03D7370032E8A19A33B39
:103660000000002E8A19A33BC14920259A837B398B
:1036700000000000000000006E83F9A22915444EEE
:10368000D15727FCC0DD34F5999562DB4190433C6E
:10369000AB6351FE61C5BBDE3A6E24B7E0D24D424A
:1036A000EA2E49061C92D1091CEB1DFE3EA729B14A
:1036B000F53582E88444BB2E26709CE9417E5FB4D8
:1036C00039D69139F43953838B5F849C3B28F9BDFB
:1036D000FF97F81F0F9805DE8B112FEF1F6D0A5A09
:1036E000CF7E366DB709CB27663F464F2DEA5F9EEA
:1036F000C7BA27757BF1E5EBF739073DEA92528AA5
:10370000B15FFB6B085D8D1FA6F810111111813F91
:10371000D561C119A0012ABF7DFEB157E31DC73E87
:10372000EB9C2B8AE6E55ABE7CD5CF5A3AD9E53DCB
:103730005037000800000020AC000000742600088C
:10374000FC370008AC0000200404000084260008B8
:1037500000A24A040000000000000000010203046F
:103760000607080900000000010203040102030427
:103770000607080902040608000000000000000017
:103780000000000000000000000000000000000039
:103790000000000000000000000000000000000029
:1037A0000000000000000000000000000000000019
:1037B0000000000000000000000000000000000009
:1037C00000000000000000000000000000000000F9
:1037D00000000000000000000000000000000000E9
:1037E00000000000000000000000000000000000D9
:0C37F000000000000000000000000000CD
:0400000508000145A9
:00000001FF
