:020000040800F2
:100000004004002045010008DD040008EB02000860
:10001000290300088D010008610D000800000000A0
:10002000000000000000000000000000E5060008DD
:10003000A9010008000000008D050008D107000894
:100040005F0100085F0100085F0100085F01000810
:100050005F0100085F0100085F0100085F01000800
:100060005F0100085F0100085F0100085F010008F0
:100070005F0100085F0100085F0100085F010008E0
:100080005F0100085F0100085F0100085F010008D0
:100090005F0100085F0100085F0100085F010008C0
:1000A0005F0100085F0100085F0100085F010008B0
:1000B0005F0100085F0100085F0100085F010008A0
:1000C0005F0100085F0100085F0100085F01000890
:1000D0005F0100085F0100085F0100085F01000880
:1000E0005F0100085F0100085F0100085F01000870
:1000F0005F0100085F0100085F0100085F01000860
:100100005F0100085F0100085F0100085F0100084F
:100110005F0100085F0100085F0100085F0100083F
:100120005F0100085F0100085F0100085F0100082F
:10013000DFF80CD000F018F800480047350E000832
:10014000400400200648804706480047FEE7FEE7D7
:10015000FEE7FEE7FEE7FEE7FEE7FEE7FEE7FEE777
:10016000D907000831010008064C074D06E0E06899
:1001700040F0010394E8070098471034AC42F6D3EE
:10018000FFF7DAFF980E0008B80E000800BFFEE780
:100190000448006820B103480068401E0149086017
:1001A00070470000280000207047000007490860E1
:1001B0004FF0E021096941F001014FF0E0221161A7
:1001C00000BF024909680029FBD1704728000020C0
:1001D0002DE9F041024600250026002000230024DE
:1001E000002791F803C00CF00F0591F803C00CF044
:1001F000100CBCF1000F03D091F802C04CEA0505C9
:1002000091F800C0BCF1000F31D0146800202BE041
:100210004FF0010C0CFA00F3B1F800C00CEA030631
:100220009E4220D183004FF00F0C0CFA03F7BC4321
:1002300005FA03FC4CEA040491F803C0BCF1280F52
:1002400006D14FF0010C0CFA00FCC2F814C00AE011
:1002500091F803C0BCF1480F05D14FF0010C0CFA26
:1002600000FCC2F810C0401C0828D1D31460B1F8BB
:1002700000C0BCF1FF0F34DD546800202EE000F117
:10028000080C4FF0010808FA0CF3B1F800C00CEAB2
:1002900003069E4221D183004FF00F0C0CFA03F7A6
:1002A000BC4305FA03FC4CEA040491F803C0BCF11A
:1002B000280F05D100F1080C08FA0CF8C2F81480D8
:1002C00091F803C0BCF1480F07D100F1080C4FF0C2
:1002D000010808FA0CF8C2F81080401C0828CED398
:1002E0005460BDE8F0810161704700BFFEE7000087
:1002F00008B50121082000F06BF94FF44050ADF82B
:10030000000010208DF8030003208DF802006946DC
:100310000448FFF75DFF4FF440510248FFF7E3FF49
:1003200008BD0000000C014000BFFEE700B589B029
:1003300001210C2000F04CF90121022000F028F9E5
:1003400018208DF8230003208DF822008020ADF8BE
:10035000200008A92548FFF73BFF0320ADF8200047
:1003600008A92348FFF734FF40F6C900ADF8140090
:10037000FF20ADF818000020ADF81600ADF81A0007
:100380008DF81C0005A91B4800F0ACFB6020ADF8FF
:1003900004000120ADF806000020ADF80C00ADF817
:1003A0001000ADF80A0001A9124800F08FFA0821E8
:1003B000104800F0DDFA01A90E4800F0E7FA082124
:1003C0000C4800F033FB01A90A4800F039FB082172
:1003D000084800F073FB0121064800F05FFA012194
:1003E000044800F067FA09B000BD000000080140B1
:1003F000000C01400004004070B505460E46012483
:100400001B481C4A1288815C1B4800F064FB194899
:10041000008820441949098890FBF1F201FB120081
:10042000144908801248164A1288815C124800F06C
:1004300054FB1348008820441049098890FBF1F2CE
:1004400001FB12000E49088009480E4A1288815C9F
:10045000094800F044FB0B480088204407490988FC
:1004600090FBF1F201FB12000649088070BD00000C
:100470008C0E0008340000200004004030000020F2
:10048000360000203800002010B50C200E490880EE
:1004900008460088032190FBF1F00C4908800020F9
:1004A0000B4908800846008808490988084409491A
:1004B00008800846008805490988084406490880DC
:1004C000FFF734FF10BD0000300000203200002094
:1004D0003400002036000020380000207047000063
:1004E00070B5002100230F22C47804B3154C246892
:1004F00004F4E064C4F5E064210AC1F10403CA40D5
:10050000447804FA03F184781440214309010E4C25
:100510000678A155047804F01F050124AC40057845
:100520006D11AD0005F1E025C5F8004109E0047842
:1005300004F01F050124AC40044D0678761145F8FF
:10054000264070BD0CED00E000E400E080E100E03A
:1005500002490143024A1160704700000000FA0599
:100560000CED00E010B5002807DA0A07140E054A62
:1005700000F00F031B1FD45403E00A07130E024AB6
:10058000135410BD18ED00E000E400E070470000D7
:1005900029B1064AD2690243044BDA6104E0034AF6
:1005A000D2698243014BDA617047000000100240BB
:1005B00029B1064A12690243044B1A6104E0034A56
:1005C00012698243014B1A6170470000001002401B
:1005D00029B1064A92690243044B9A6104E0034A36
:1005E00092698243014B9A617047000000100240FB
:1005F00029B1064AD2680243044BDA6004E0034A98
:10060000D2688243014BDA6070470000001002405C
:1006100030B500210022002400232D4D6D6805F027
:100620000C0121B1042905D0082923D105E0294D69
:10063000056022E0274D05601FE0254D6D6805F43B
:100640007012234D6D6805F48034022505EB92424B
:100650001CB9214D554305600BE01D4D6D6805F437
:1006600000351DB11C4D5543056002E0194D554341
:10067000056002E0174D056000BF00BF144D6D68B6
:1006800005F0F0010909154D6B5C0568DD4045601A
:100690000F4D6D6805F4E061090A104D6B5C45680B
:1006A000DD4085600A4D6D6805F46051C90A0B4D47
:1006B0006B5C4568DD40C560054D6D6805F44041E3
:1006C000890B074D6B5CC568B5FBF3F5056130BD63
:1006D0000010024000127A0000093D0014000020C2
:1006E00024000020704710B500F002F810BD000093
:1006F0000CB50020019000903348006840F4803031
:100700003149086000BF3048006800F400300090B4
:100710000198401C0190009818B90198B0F5A06F9D
:10072000F1D12948006800F4003010B10120009098
:1007300001E0002000900098012843D12348006880
:1007400040F01000214908600846006820F00300CE
:1007500008600846006840F0020008601A484068D7
:10076000194948600846406848600846406840F4B7
:10077000806048600846406820F47C104860084665
:10078000406840F4E81048600846006840F0807017
:10079000086000BF0C48006800F000700028F9D025
:1007A0000948406820F0030007494860084640684F
:1007B00040F00200486000BF0348406800F00C00B1
:1007C0000828F9D10CBD00000010024000200240B2
:1007D00000B5FFF7DDFC00BD10B51348006840F020
:1007E00001001149086008464068104908400E4958
:1007F0004860084600680E4908400B4908600846F2
:10080000006820F4802008600846406820F4FE005C
:1008100048604FF41F008860FFF765FF4FF00060ED
:100820000449086010BD0000001002400000FFF8FD
:10083000FFFFF6FE08ED00E010B516480068164907
:10084000B0FBF1F4B4F1807F01D3012011E024F07A
:100850007F40401E4FF0E02148610F214FF0FF30F4
:10086000FFF780FE00204FF0E0218861072008613B
:10087000002008B100BFFEE74FF0E020006920F043
:1008800001004FF0E02108610021481EFFF76AFED9
:1008900010BD00000000002040420F0021B102887E
:1008A00042F08002028004E002884FF67F731A4013
:1008B0000280704721B1028842F00102028004E008
:1008C00002884FF6FE731A400280704770B500240C
:1008D00000220023058C4FF6EF7635400584028C0C
:1008E0008388048B48F6FF752C404FF6FF452C405B
:1008F0000D884FF6FF7606EA05252C434FF6DF7587
:100900002A400D8906EA05152A434D8806EA051591
:100910002A43154DA84202D0144DA8421DD14FF6CE
:100920007F752A404D894FF6FF7606EA05152A4362
:100930004FF6BF752A408D8806EA05152A434FF603
:10094000FF352B404FF2FF752B408D8906EA850558
:100950002B43CD8906EA85052B4383800483CD880C
:100960000587028470BD0000002C01400034014066
:100970000A460021018B4FF2FF7319404FF6FF73B7
:1009800003EA0223194301837047000070B5002475
:1009900000220023058C4FF6FF6635400584028C4B
:1009A0008388848B4FF68F752C404FF6FC752C4056
:1009B0000D882C434FF6FF552A400D894FF6FF76E0
:1009C00006EA05252A434D8806EA05252A43154DE2
:1009D000A84202D0144DA8421DD14FF2FF752A4003
:1009E0004D894FF6FF7606EA05252A434FF6FF3577
:1009F0002A408D8806EA05252A434EF6FF752B40CE
:100A00004DF6FF752B408D8906EA05152B43CD89E0
:100A100006EA05152B4383808483CD88858702846D
:100A200070BD0000002C0140003401400A46002146
:100A3000818B4FF6F7731940114381837047000093
:100A400070B5002200230024058C4EF6FF76354059
:100A50000584038C8488828B48F6FF752A404FF604
:100A6000FF452A400D884FF6FF7606EA05252A4302
:100A70004DF6FF752B400D8906EA05352B434D8851
:100A800006EA05352B430B4DA84202D00A4DA84279
:100A900008D14BF6FF752C408D894FF6FF7606EA9C
:100AA00085152C4384808283CD88A0F84050038430
:100AB00070BD0000002C0140003401400A460021B6
:100AC000818B4FF2FF7319404FF6FF7303EA022345
:100AD0001943818370470187704781877047A0F869
:100AE00040107047002202881D4B98420ED01D4BCB
:100AF00098420BD0B0F1804F08D01B4B984205D0E4
:100B00001A4B984202D01A4B984204D14FF68F7379
:100B10001A404B881A43174B984207D0164B9842FD
:100B200004D04FF6FF431A40CB881A4302808B88CB
:100B300083850B8803850A4B98420BD0094B98425A
:100B400008D00E4B984205D00D4B984202D00D4B69
:100B5000984201D10B7A03860123838270470000FB
:100B6000002C014000340140000400400008004017
:100B7000000C004000100040001400400040014004
:100B8000004401400048014021B1828942F40052F2
:100B9000828104E082894DF6FF731A40828170479A
:100BA00010B504462048844209D101218803FFF78B
:100BB0001FFD00214FF48040FFF71AFD32E01B4873
:100BC000844209D101214804FFF7F2FC00214FF4CF
:100BD0000030FFF7EDFC25E01548844209D10121E2
:100BE0008804FFF7E5FC00214FF48020FFF7E0FCCC
:100BF00018E01048844209D10121C804FFF7D8FC4D
:100C000000214FF40020FFF7D3FC0BE00A48844298
:100C100008D101210805FFF7CBFC00214FF480101B
:100C2000FFF7C6FC10BD0000003801400044004042
:100C300000480040004C004000500040F0B5034622
:100C4000002400260025002040F66A17B94200D192
:100C500000BF1846C1F3421401F01F06012707FA2E
:100C600006F5012C01D10C3004E0022C01D110302A
:100C700000E014301AB107682F43076002E00768EC
:100C8000AF430760F0BD00002DE9F04786B0054690
:100C90000E460024A24600BFA1460027B08900B13D
:100CA00000BF2F462C8A4CF6FF700440F0880443A6
:100CB0002C82AC894EF6F3100440B0883189084389
:100CC000718908430443AC81AC8A4FF6FF4004406D
:100CD000B0890443AC8201A8FFF79AFC1F48874201
:100CE00002D1DDF810A001E0DDF80CA0A88900F425
:100CF000004040B10AEBCA0000EB0A10316849001D
:100D0000B0FBF1F807E00AEBCA0000EB0A1031680B
:100D10008900B0FBF1F86420B8FBF0F00401200971
:100D2000642101FB1089A88900F4004040B1322001
:100D300000EBC900B0FBF1F000F00700044308E04D
:100D4000322000EB09106421B0FBF1F000F00F003D
:100D500004432C8106B0BDE8F08700000038014054
:100D600000BFFEE710B586B00446012144F205003D
:100D7000FFF72EFC4FF40070ADF8140018208DF82A
:100D8000170003208DF8160005A92048FFF720FA68
:100D90004FF48060ADF8140004208DF8170005A909
:100DA0001A48FFF715FA1A48FFF7FAFE01940020D7
:100DB000ADF80800ADF80C00ADF80A00ADF8100071
:100DC0000C20ADF80E0001A91148FFF75DFF4FF4AC
:100DD000E060FFF7BDFB25208DF8000000208DF8B6
:100DE000010002208DF8020001208DF80300684602
:100DF000FFF776FB012240F225510548FFF71EFF61
:100E000001210348FFF7C0FE06B010BD00080140F5
:100E10000038014002E008C8121F08C1002AFAD1B8
:100E200070477047002001E001C1121F002AFBD16A
:100E30007047000000BF0024FFF75AFAFFF7FCFCE0
:100E40004FF4E130FFF78EFF4FF480500E490860F9
:100E500040000860FFF718FB14E0322C01D2641C3C
:100E600008E000240848001F006880F4805006490C
:100E7000091F086001210846FFF7BEFA42F2107010
:100E8000FFF794F9E9E70000100C0140BFEEFFEE18
:100E9000BF7F40110011407FB80E00080000002005
:100EA0003C000000140E0008F40E00083C00002076
:100EB00004040000240E000800A24A040000000000
:100EC00000000000010203040607080900000000FA
:100ED00001020304010203040607080902040608CC
:100EE0000000000000000000000000000000000002
:040EF00000000000FE
:0400000508000145A9
:00000001FF
