:020000040800F2
:10000000B8080020450100083D250008031300083A
:10001000DD1B0008851100083335000800000000D2
:10002000000000000000000000000000012C00089B
:10003000A111000800000000912A0008312E0008DC
:100040005F0100085F0100085F0100085F01000810
:100050005F0100085F0100085F0100085F01000800
:100060005F0100085F0100085F0100085F010008F0
:100070005F0100085F0100085F0100085F010008E0
:100080005F0100085F0100083D0B00085F010008E8
:100090005F0100085F0100085F0100085F010008C0
:1000A0005F0100085F0100085F0100085F010008B0
:1000B0005F0100085F0100085F0100085F010008A0
:1000C0005F0100085F0100085F0100085F01000890
:1000D0005F010008993200085F0100085F01000815
:1000E0005F0100085F0100085F0100085F01000870
:1000F0005F0100085F0100085F0100085F01000860
:100100005F0100085F0100085F0100085F0100084F
:100110005F0100085F0100085F0100085F0100083F
:100120005F0100085F0100085F0100085F0100082F
:10013000DFF80CD000F054FC00480047E949000803
:10014000B80800200648804706480047FEE7FEE75B
:10015000FEE7FEE7FEE7FEE7FEE7FEE7FEE7FEE777
:10016000392E000831010008F0B480EA0102D40FF2
:100170004200B2EB410F02D20246084611464A0045
:1001800042D0C30DDDB2C1F3C752AD1A202D35DA0E
:10019000C1F3160141F4000204B15242C5F1200638
:1001A00002FA06F12A411044B3EBD05F23D0C4B168
:1001B000012DA0EBC35009DCF0BC4FF0004202EA75
:1001C000C352DBB200F5000000F04FBB400000F16D
:1001D000807000EBC350A0F1807040EAD1704900FC
:1001E00009E0490841EAC071A0EBC35000F50000E6
:1001F000400800EBC350F0BC00F02EBB614201226E
:1002000002EB4101001BF6E7F0BC704781F00041B2
:10021000AAE780F00040A7E780EA010210B502F0EB
:100220000043400022D04A001FD0010E01EB1261B2
:10023000C0F35600C2F3560240F4000042F400023C
:10024000A0FB022000047F39140400D0401C50EAB7
:10025000124001D44000491EC2B20C0604EBD0107B
:10026000401C4008802A02D003E0002010BD20F08E
:100270000100002900DA0020184310BD30B480EAE4
:10028000010202F0004530F0004221F0004013D09E
:1002900090B1C30DD40DC2F31601C0F31600E41AD9
:1002A00041F4000140F400027D34914201D3641C0A
:1002B00000E04900002C02DA30BC002070474FF407
:1002C00000000023914201D3891A034340084FEAFA
:1002D0004101F7D151B1914202D14FF0004105E007
:1002E00002D24FF0010101E06FF0010103EBC450B5
:1002F000284430BC00F0B0BA2DE9FE4F804681EAB8
:100300000300C00F0C46009021F0004123F000458F
:10031000B8EB0200A94105D24046214690461C4652
:100320000B46024623F00040104347D0270DC7F389
:100330000A00C3F30A510290401A019040286BDA78
:10034000C3F3130040F4801B0098924620B10023B1
:10035000D2EB030A63EB0B0B01985946C0F1400244
:10036000504600F048FA06460D4650465946019A56
:1003700000F060FA10EB08006141002487EA115296
:1003800084EAE7731A4340D0009A62B3019A012AC3
:100390004FEA075215DC001B61EB02014FF00042EF
:1003A00002EA0752CDE90042001C41F580113246B5
:1003B0002B4600F097FA03B0BDE8F08F4046214687
:1003C000F9E7001B61EB0201001C41F580130018E6
:1003D0005B412018A2F5001747EB030140EAD570F6
:1003E000B6196D4111E06D084FEA360645EAC07551
:1003F0004FEA0752001B61EB0201001C41F580111E
:1004000049084FEA30000019514132462B4603B0EB
:10041000BDE8F04F00F057BA0098012240000023D9
:10042000D0EB020263EBE073009821464FEAE074E0
:10043000B8EB000061EB0401E9E783F000435BE700
:1004400081F0004158E72DE9FE4F81EA030404F0F2
:10045000004421F0004100944FF0000B23F00043D2
:1004600050EA01045ED052EA03045BD0C3F30A549D
:10047000C1F30A552C44A4F2F3340194A0FB0254B6
:10048000C1F3130141F48011C3F3130343F4801348
:1004900001FB024400FB034E840A970A44EA81549C
:1004A00047EA8357A4FB076802958D0A05FB078579
:1004B0004FEA932C04FB0C542705029D4FEA065883
:1004C00047EA1637B5EB08056EEB070C870E920E60
:1004D00047EA811742EA8312A7FB0201B6EB0B0140
:1004E00064EB00042B0D43EA0C335E1844EB1C5004
:1004F000DA465146E7FB0201C5F313044FEA0B331A
:1005000043EA14534FEA0432019C43EA0603A4F180
:100510000C040294009CCDE900B400F0E3F903B0B0
:10052000BDE8F08F00200146F9E72DE9F04D81EAA2
:10053000030404F0004B21F0004514464FF0000A7C
:1005400023F0004150EA050220D054EA01021DD0F8
:10055000C5F30A570246C5F31303C1F31300C1F3F1
:100560000A5640F4801543F48013A7EB0608101BCD
:10057000D64608F2FD3873EB050002D308F10108F6
:1005800001E092185B41B8F1000F03DA0020014648
:10059000BDE8F08D00204FF48011064684460EE041
:1005A000171B73EB050705D3121B63EB050306430B
:1005B0004CEA010C49084FEA300092185B4150EABE
:1005C0000107EDD152EA030012D082EA040083EA67
:1005D0000501084305D0101BAB4106D201220023C0
:1005E00006E000224FF0004302E06FF001025310DA
:1005F0001AEB06004CEB085110EB0A0041EB0B0123
:10060000BDE8F04D00F05FB996230022114600F0DE
:100610002CB90EB5C10F80EAE0700844CA0700216A
:1006200040F233438DE80E000A460B4600F05AF9BB
:1006300003B000BD0EB540F2334102910021CDE977
:1006400000110A460B4600F04DF903B000BDC1F39E
:100650000A5210B5C1F3130140F2FF3341F4801187
:100660009A4201DA002010BD40F233439A42A2F2CE
:10067000334203DC524200F0CDF810BD904010BD73
:1006800000F0004230F000400AD0C10D01F5607169
:10069000C0F3160042EA0151C208400711437047F7
:1006A000002001467047000030B5041E71F10004BF
:1006B00004DB4FF00044404264EB0101141E73F16F
:1006C000000405DB1C464FF00043524263EB040379
:1006D0008B4208BF824230BD30B5041E71F1000468
:1006E00004DB4FF00044404264EB0101141E73F13F
:1006F000000405DB1C464FF00043524263EB040349
:10070000994208BF904230BD01F0004330B421F05F
:10071000004150EA010206D00A0DA2F56072C1F351
:100720001301002A02DC30BC00207047440F44EA69
:10073000C104C100E01830BC00EBC25000F08CB81E
:10074000002801DBC0F10040002901DBC1F10041BC
:1007500081427047002801DBC0F10040002901DB25
:10076000C1F100418842704730B50B460146002078
:100770002022012409E021FA02F59D4205D303FA63
:1007800002F5491B04FA02F52844151EA2F10102E4
:10079000F1DC30BD2DE9F05F0546002092469B4616
:1007A00088460646814640241BE028464146474687
:1007B000224600F02FF853465A46C01A914110D3F2
:1007C00011461846224600F016F82D1A67EB01086C
:1007D0004F4622460120002100F00DF817EB0009DA
:1007E0004E41201EA4F10104DFDC484631462A4672
:1007F0004346BDE8F09F202A04DB203A00FA02F1CC
:10080000002070479140C2F1200320FA03F31943FE
:1008100090407047202A04DB203A21FA02F00021A0
:10082000704721FA02F3D040C2F120029140084300
:1008300019467047202A06DBCB17203A41FA02F00E
:1008400043EAE07306E041FA02F3D040C2F120022D
:1008500091400843194670470029A8BF7047401CC3
:10086000490008BF20F00100704710B4B0FA80FCC6
:1008700000FA0CF050EA010404BF10BC704749B103
:10088000CCF1200421FA04F411FA0CF118BF012173
:1008900021430843A3EB0C01CB1D4FEA00614FEA53
:1008A000102042BF002010BC704700EBC350104422
:1008B0000029A4BF10BC7047401C490008BF20F0AD
:1008C000010010BC704710B5141E73F1000408DA63
:1008D000401C41F1000192185B411A4301D120F004
:1008E000010010BD2DE9F04D92469B4611B1B1FAC1
:1008F00081F202E0B0FA80F220329046FFF77BFFEF
:1009000004460F4640EA0A0041EA0B0153465A46A4
:10091000084313D0114653EA010019D0C8F1400230
:100920005046FFF777FF05460E4650465946424669
:10093000FFF761FF084305D0012004E02046394657
:10094000BDE8F08D0020054346EAE0762C433743AE
:100950000A986305E40AA0EB08000022FD0A44EAB5
:1009600047540A3002D500200146E9E70105101975
:100970006941DDE9084500196941BDE8F04DA2E78C
:1009800070B521F0004303430CD0C1F30A55002495
:10099000D5EB040564EB0403D617AD1AB34102DBB3
:1009A0000020014670BD201841EB025170BDC1F31B
:1009B0000A52C1F3130140F2FF3341F480119A420D
:1009C00002DA00200146704740F233439A42A2F215
:1009D000334202DC5242FFF71DBFFFF70CBF00009D
:1009E000064C074D06E0E06840F0010394E807007C
:1009F00098471034AC42F6D3FFF79EFBD85A000854
:100A0000F85A00082DE9F04D00231A461B1A8A41B6
:100A100003DB00200146BDE8F08DC1F30A52C1F3AB
:100A2000130141F480154FF0000BD10702D10018DB
:100A30006D41521E0027044640F2FF11384601EB7B
:100A4000620A3E468046024600204FF48011FFF7BE
:100A5000E1FEC2197141BB1846EB0100B4EB030C77
:100A600075EB000C04D3E41A65EB000517460E463F
:100A7000241908F101006D4180463428E3DDF9199D
:100A800046EB0600091BA84103D24FF0FF32134684
:100A900001E0002213461BEB070046EB0A51BDE8BC
:100AA000F04DFFF710BF70B5C1F30A5201F00045D9
:100AB0000024C1F3130140F2FF3341F480119A4244
:100AC00001DA002070BD40F233439A42A2F2334271
:100AD00003DC5242FFF79EFE00E090402C43F1D031
:100AE000404270BD70B58C1810F8015B15F007031B
:100AF00001D110F8013B2A1106D110F8012B03E0B7
:100B000010F8016B01F8016B5B1EF9D12B0705D4BE
:100B10000023521E0DD401F8013BFAE710F8013B07
:100B2000CB1A921C03E013F8015B01F8015B521E23
:100B3000F9D5A142D8D3002070BD000010B50348FC
:100B400000F01DF80249088010BD0000002401409B
:100B50008401002021B1826842F00102826003E03A
:100B6000826822F0010282607047014600208A6894
:100B700002F004020AB1012000E0002070470146A3
:100B8000C86C80B27047014600208A6802F00802F3
:100B90000AB1012000E00020704710B50023CBB25D
:100BA0001AB144681C43446002E044689C434460BA
:100BB00010BD000030B502460020002350680F4CE5
:100BC00020400D790C6844EA052420435060906869
:100BD0000B4C2040D1E902542C434D7944EA4504A2
:100BE00020439060D06A20F470000C7C641EE4B254
:100BF000234340EA0350D06230BD0000FFFEF0FF07
:100C0000FDF7F1FFF0B504460D4600200021092D47
:100C100011DDE068A5F10A0606EB4607072606FA8D
:100C200007F18843A5F10A0606EB460603FA06F12A
:100C30000843E0600CE0206905EB4507072606FA4B
:100C400007F1884305EB450603FA06F108432061E6
:100C5000072A0FDA606B561E06EB86071F2606FA78
:100C600007F18843561E06EB860605FA06F108438F
:100C7000606322E00D2A0FDA206BD61F06EB860791
:100C80001F2606FA07F18843D61F06EB860605FAEB
:100C900006F10843206310E0E06AA2F10D0606EBBE
:100CA00086071F2606FA07F18843A2F10D0606EB18
:100CB000860605FA06F10843E062F0BD816841F05E
:100CC00008018160704721B1826842F4A00282600D
:100CD00003E0826822F4A00282607047816841F0DC
:100CE00004018160704700002DE9F34F8BB000F0E4
:100CF000AFF800F01BF94C480C990068FFF78CFA2C
:100D000083464A4801685846FFF72EFA81464FF05D
:100D10007E510B98FFF77DFA82464946FFF77CFA31
:100D20008046FFF7ADFC04460D4641480068FFF7DA
:100D3000A7FCCDE900013F480068FFF7A1FC82460F
:100D4000DDE9002303F07EFDCDE904010B98FFF7F8
:100D500097FCCDE90201DDE90423FFF774FB0022D3
:100D6000354BCDE90601FFF76EFB8046334A344B25
:100D7000FFF7DBFB064622462B46FFF7BDFACDE91F
:100D80000801FFF7C1FC294908602E480C9900684A
:100D9000FFF742FA07462C4801683846FFF7E4F9A6
:100DA00005464FF07E510B98FFF733FA0646294669
:100DB000FFF732FA0446FFF763FC82468B461C4875
:100DC0000068FFF75DFC04460D4620480068FFF709
:100DD00057FC064622462B4603F034FDCDE90201BE
:100DE0000B98FFF74DFCCDE90001DDE90223FFF789
:100DF0002AFB0022104BCDE90401FFF724FB8046BB
:100E00000E4A0F4BFFF791FB52465B46CDE90601B8
:100E1000FFF772FACDE90801FFF776FC0A4908608E
:100E20000DB0BDE8F08F00006801002074010020C3
:100E3000600100205801002000806640182D4454B5
:100E4000FB2109406C010020780100205C0100209A
:100E50002DE9FC4106236A463B21692000F06EFA29
:100E600010B10120BDE8FC819DF801009DF8001043
:100E700040EA012000B2214908809DF803009DF856
:100E8000021040EA012000B21C4948809DF805008C
:100E90009DF8041040EA012000B218498880B1F999
:100EA0000000FFF7B6FB06460022154BFFF73DFB9F
:100EB0000446FFF729FC134908601049B1F9020004
:100EC000FFF7A7FB064600220D4BFFF72EFB04465B
:100ED000FFF71AFC0C4908600849B1F90400FFF754
:100EE00098FB06460022064BFFF71FFB0446FFF760
:100EF0000BFC064908600020B4E700004801002010
:100F00000000D040580100205C010020600100205A
:100F100010B50123044A7521692000F00FFA08B1C9
:100F2000012010BD0020FCE7560100202DE9FC4106
:100F300006236A464321692000F000FA10B101201F
:100F4000BDE8FC819DF801009DF8001040EA0120F9
:100F500000B2214908809DF803009DF8021040EA84
:100F6000012000B21C4948809DF805009DF804103E
:100F700040EA012000B218498880B1F90000FFF76B
:100F800048FB0646154A164BFFF7CFFA0446FFF713
:100F9000BBFB144908601049B1F90200FFF739FBA7
:100FA00006460E4A0E4BFFF7C0FA0446FFF7ACFBAD
:100FB0000D4908600849B1F90400FFF72AFB06460D
:100FC000064A074BFFF7B1FA0446FFF79DFB0749B6
:100FD00008600020B4E7000050010020FCA9F1D215
:100FE0004D623040680100206C010020700100203B
:100FF000F8B504460D46002000F086F942F2107064
:1010000000F0D0F8FFF784FF30B12D4801782DA013
:1010100002F054FB0120F8BD29480078682801D06F
:101020000220F8E78020009001236A466B216920A6
:1010300000F0E6FA08B10320EDE742F2107000F08C
:10104000B1F80020009001236A466B21692000F06E
:10105000D7FA08B10420DEE70120009001236A4698
:101060006B21692000F0CCFA08B10A20D3E71820E0
:10107000009001236A461B21692000F0C1FA08B1E3
:101080000B20C8E70020009001236A461C2169203C
:1010900000F0B6FA08B10C20BDE72946204600F062
:1010A00042F808B10D20B6E704EBD471C1F34F004C
:1010B000294600F00BF808B10E20ACE70020AAE7A3
:1010C00056010020307825780D0A000038B5044616
:1010D0000D46DDB1BC2C02DD0120009018E0622C31
:1010E00002DD0220009013E02A2C02DD0320009094
:1010F0000EE0142C02DD0420009009E00A2C02DD31
:101100000520009004E00620009001E000200090FF
:1011100001236A461A21692000F072FA08B1012001
:1011200038BD0020FCE7F8B504460E466EB14FF41A
:101130007A75B4F57A7F01DD284604E0042C01DAE3
:10114000042000E0204604460CE04FF4FA55B4F5C4
:10115000FA5F01DD284604E0202C01DA202000E0BF
:101160002046044695FBF4F0401EC0B200900123D7
:101170006A461921692000F043FA08B10120F8BD40
:101180000020FCE700BFFEE70448006820B10348E8
:101190000068401E014908607047000028000020D8
:1011A00070470000074908604FF0E021096941F0ED
:1011B00001014FF0E022116100BF024909680029D6
:1011C000FBD17047280000202DE9F04102460025A0
:1011D0000026002000230024002791F803C00CF013
:1011E0000F0591F803C00CF0100CBCF1000F03D0F8
:1011F00091F802C04CEA050591F800C0BCF1000F5F
:1012000031D0146800202BE04FF0010C0CFA00F3F1
:10121000B1F800C00CEA03069E4220D183004FF0D3
:101220000F0C0CFA03F7BC4305FA03FC4CEA040468
:1012300091F803C0BCF1280F06D14FF0010C0CFA55
:1012400000FCC2F814C00AE091F803C0BCF1480FDA
:1012500005D14FF0010C0CFA00FCC2F810C0401C84
:101260000828D1D31460B1F800C0BCF1FF0F34DD01
:10127000546800202EE000F1080C4FF0010808FA35
:101280000CF3B1F800C00CEA03069E4221D18300A2
:101290004FF00F0C0CFA03F7BC4305FA03FC4CEAC1
:1012A000040491F803C0BCF1280F05D100F1080C2B
:1012B00008FA0CF8C2F8148091F803C0BCF1480F8A
:1012C00007D100F1080C4FF0010808FA0CF8C2F839
:1012D0001080401C0828CED35460BDE8F08102463F
:1012E000002093680B400BB1012000E00020704704
:1012F00041617047016170470AB1016100E04161DD
:10130000704700BFFEE7000010B504460121082029
:1013100001F0ECFBC020074908801420C8700320AE
:1013200088700548FFF750FFC0210348FFF7E2FF30
:1013300010BD000030000020000C01402DE9F041FC
:1013400005460F4690461E4600F0DCF8002141EAB3
:101350004501C8B200F0A8F800F010F9012804D146
:1013600000F0EEF80120BDE8F081384600F09CF86E
:1013700000F004F9012803D100F0E2F80120F2E7BF
:1013800000F0C0F8012101EB4501C8B200F08CF873
:1013900000F0F4F8012803D100F0D2F80120E2E7D0
:1013A00000240FE000F014F808F80400701EA042BA
:1013B00003D1012000F056F802E0002000F052F8BE
:1013C000601CC4B2B442EDDB00F0BAF80020CAE7FA
:1013D00070B5002480212148FFF78CFF0320FFF720
:1013E000E1FE80201E4908800420C8701B48FFF7DA
:1013F000EBFE0320FFF7D6FE002518E06006040E82
:1014000040211648FFF774FF0320FFF7CBFE402171
:101410001248FFF76FFF0320FFF7C4FE80210F483B
:10142000FFF75DFF00F001000443681CC5B2082D02
:10143000E4DB40210948FFF75BFF0320FFF7B2FE22
:101440008020074908801420C8700448FFF7BCFEBC
:101450000320FFF7A7FE204670BD0000000C0140EE
:101460003000002010B5044640210E48FFF740FF31
:101470000320FFF797FE224680210A48FFF73CFF32
:101480000320FFF78FFE40210648FFF733FF0320BC
:10149000FFF788FE40210348FFF72AFF0320FFF7EC
:1014A00081FE10BD000C014070B5054600241CE013
:1014B00040211348FFF71CFF0320FFF773FEC4F120
:1014C000070045FA00F000F0010280210C48FFF708
:1014D00013FF0320FFF766FE40210948FFF70AFFCC
:1014E0000320FFF75FFE601CC4B2082CE0DB402144
:1014F0000348FFF7FDFE0320FFF754FE70BD000018
:10150000000C014010B580210C48FFF7F3FE40218C
:101510000A48FFF7EFFE0320FFF744FE802107484B
:10152000FFF7E6FE0320FFF73DFE40210348FFF7EB
:10153000DFFE0320FFF736FE10BD0000000C014067
:1015400010B540210C48FFF7D3FE80210A48FFF771
:10155000CFFE0320FFF726FE40210748FFF7CAFE13
:101560000320FFF71FFE80210348FFF7C3FE03207F
:10157000FFF718FE10BD0000000C014010B540211F
:101580001D48FFF7B5FE0320FFF70CFE80211A4827
:10159000FFF7B0FE0320FFF705FE40211648FFF7D6
:1015A000A9FE0320FFF7FEFD8020144908800420D7
:1015B000C8701148FFF708FE0320FFF7F3FD8021F4
:1015C0000D48FFF78CFE00F001040320FFF7EAFD51
:1015D00080200A4908801420C8700748FFF7F4FDEE
:1015E0000320FFF7DFFD40210348FFF781FE0320C2
:1015F000FFF7D8FD204610BD000C01403000002050
:101600002DE9F04105460E4617469846FFF77AFF4A
:10161000002141EA4501C8B2FFF746FFFFF7AEFFE0
:10162000012804D1FFF78CFF0120BDE8F08130468E
:10163000FFF73AFFFFF7A2FF012803D1FFF780FF72
:101640000120F2E700240CE0385DFFF72DFFFFF7E3
:1016500095FF012803D1FFF773FF0120E5E7601C28
:10166000C4B24445F0DBFFF76BFF0020DDE700006C
:1016700010B504460121082001F038FA4FF440600B
:10168000074908801420C870032088700548FFF7B8
:101690009BFD4FF440610348FFF72CFE10BD000096
:1016A00080010020000C01402DE9F04105460F4665
:1016B00090461E4600F0EAF8002141EA4501C8B212
:1016C00000F0B2F800F026F9012804D100F000F98A
:1016D0000120BDE8F081384600F0A6F800F01AF9C4
:1016E000012803D100F0F4F80120F2E700F0CEF871
:1016F000012101EB4501C8B200F096F800F00AF9AB
:10170000012803D100F0E4F80120E2E700240FE013
:1017100000F014F808F80400701EA04203D1012064
:1017200000F05CF802E0002000F058F8601CC4B241
:10173000B442EDDB00F0CCF80020CAE770B500241D
:101740004FF400612348FFF7D5FD0320FFF72AFD82
:101750004FF40060204908800420C8701D48FFF73E
:1017600033FD0320FFF71EFD00251BE06006040E7D
:101770004FF480611748FFF7BBFD0320FFF712FD10
:101780004FF480611348FFF7B5FD0320FFF70AFD12
:101790004FF400610F48FFF7A2FD00F00100044381
:1017A000681CC5B2082DE1DB4FF480610948FFF7E2
:1017B0009FFD0320FFF7F6FC4FF400600649088008
:1017C0001420C8700348FFF7FFFC0320FFF7EAFC72
:1017D000204670BD000C01408001002010B5044679
:1017E0004FF480610F48FFF783FD0320FFF7DAFC19
:1017F00022464FF400610B48FFF77EFD0320FFF700
:10180000D1FC4FF480610748FFF774FD0320FFF718
:10181000C9FC4FF480610348FFF76AFD0320FFF71E
:10182000C1FC10BD000C014070B5054600241FE04E
:101830004FF480611448FFF75BFD0320FFF7B2FC13
:10184000C4F1070045FA00F000F001024FF4006116
:101850000D48FFF751FD0320FFF7A4FC4FF4806112
:101860000948FFF747FD0320FFF79CFC601CC4B24A
:10187000082CDDDB4FF480610348FFF739FD0320BE
:10188000FFF790FC70BD0000000C014010B54FF454
:1018900000610E48FFF72EFD4FF480610B48FFF703
:1018A00029FD0320FFF77EFC4FF400610748FFF796
:1018B0001FFD0320FFF776FC4FF480610348FFF71C
:1018C00017FD0320FFF76EFC10BD0000000C014067
:1018D00010B54FF480610E48FFF70AFD4FF4006128
:1018E0000B48FFF705FD0320FFF75CFC4FF4806118
:1018F0000748FFF7FFFC0320FFF754FC4FF400619B
:101900000348FFF7F7FC0320FFF74CFC10BD000075
:10191000000C014010B54FF480612148FFF7E8FC4E
:101920000320FFF73FFC4FF400611D48FFF7E2FC86
:101930000320FFF737FC4FF480611948FFF7DAFC0A
:101940000320FFF72FFC4FF40060164908800420A5
:10195000C8701348FFF738FC0320FFF723FC4FF44F
:1019600000610F48FFF7BBFC00F001040320FFF704
:1019700019FC4FF400600B4908801420C870084817
:10198000FFF722FC0320FFF70DFC4FF480610448B1
:10199000FFF7AEFC0320FFF705FC204610BD00005A
:1019A000000C0140800100202DE9F04105460E4663
:1019B00017469846FFF76AFF002141EA4501C8B281
:1019C000FFF732FFFFF7A6FF012804D1FFF780FFE2
:1019D0000120BDE8F0813046FFF726FFFFF79AFFB0
:1019E000012803D1FFF774FF0120F2E700240CE087
:1019F000385DFFF719FFFFF78DFF012803D1FFF7CF
:101A000067FF0120E5E7601CC4B24445F0DBFFF747
:101A10005FFF0020DDE7000008B50121082001F08C
:101A200065F84FF44050ADF8000010208DF8030029
:101A300003208DF8020069460448FFF7C5FB4FF408
:101A400040510248FFF756FC08BD0000000C014061
:101A500000B587B00121480201F048F8002002904B
:101A60008DF80C0001208DF80D004FF460200490DB
:101A70000020059001208DF8180002A91E48FFF7EC
:101A800099F84FF4404001F005F80523012219466A
:101A90001948FFF7B7F801224FF408711648FFF70D
:101AA0007CF801211448FFF755F81348FFF706F9B1
:101AB00000BF1148FFF767F80028FAD10E48FFF77A
:101AC0000DF900BF0C48FFF750F80028FAD10121AA
:101AD0000948FFF7F8F812208DF8040000208DF86F
:101AE000050004208DF8060001208DF8070001A8EC
:101AF00000F026FD07B000BD0024014008B501211B
:101B0000042000F0F3FF04208DF8030003208DF87B
:101B100002002020ADF8000069460248FFF754FBA0
:101B200008BD0000000801402DE9F14F86B02048B3
:101B30000088FEF769FD4FF07E5102900698FEF78F
:101B400068FB01900299FEF767FB0390FEF798FD92
:101B5000184A194BCDE90401FEF775FC06460F46FD
:101B6000164801680698FEF757FB0590FEF788FDBA
:101B7000804632463B46FEF7BFFB0446104A114BF7
:101B8000FEF75BFC8246FEF7BFFD0C490860084685
:101B90000068FEF775FD04460B4A0C4BFEF784FD0A
:101BA00002D200200549086007B0BDE8F08F0000B0
:101BB000840100201361C3D32B65793F8801002085
:101BC0003FC6DCB5847C903F7B14AE47E17A843F0E
:101BD00010B5FFF793FFFFF73BFF10BD00BFFEE717
:101BE00070B505460C46002C50D029480088844228
:101BF0000BD04FF4347090FBF4F02649098890FB29
:101C0000F1F02549088022480480244800882249B0
:101C10000988884205DA21480088401C1F4908804D
:101C200034E000201D49088000F03EF81C48008880
:101C30001849098808441B49495708441549098827
:101C400090FBF1F201FB120015490880084640881C
:101C50001049098808441349495708440D4909881F
:101C600090FBF1F201FB12000D4948800846808884
:101C70000849098808440B49495708440549098817
:101C800090FBF1F201FB12000549888070BD000055
:101C90008600002070000020880000208A000020BC
:101CA000740000208858000810B50C4800880C4AC1
:101CB00032F810100B4801F09AFA08484088084A98
:101CC00032F81010074801F090FA04488088044A5E
:101CD00032F81010034801F086FA10BD740000209D
:101CE000940100200004004070B505460C46002C0D
:101CF00050D02948008884420BD04FF4347090FBB8
:101D0000F4F02649098890FBF1F025490880224823
:101D100004802448008822490988884205DA21483D
:101D20000088401C1F49088034E000201D490880BD
:101D300000F03EF81C4800881849098808441B49EF
:101D4000495708441549098890FBF1F201FB12003C
:101D500015490880084640881049098808441349F5
:101D6000495708440D49098890FBF1F201FB120024
:101D70000D494880084680880849098808440B496D
:101D8000495708440549098890FBF1F201FB12000C
:101D90000549888070BD00008C0000207000002084
:101DA0008E000020900000207A0000208858000853
:101DB00010B50D4800880D4A32F810100C4801F09B
:101DC00010FA09484088094A32F810104FF0804054
:101DD00001F00DFA04488088044A32F810104FF0E0
:101DE000804001F002FA10BD7A000020940100202A
:101DF0000004004070B505460C46002C50D0294820
:101E0000008884420BD04FF4347090FBF4F02649E4
:101E1000098890FBF1F02549088022480480244875
:101E2000008822490988884205DA21480088401C38
:101E30001F49088034E000201D49088000F03EF86A
:101E40001C4800881849098808441B494957084418
:101E50001549098890FBF1F201FB12001549088031
:101E600008464088104909880844134949570844DE
:101E70000D49098890FBF1F201FB12000D494880E1
:101E8000084680880849098808440B49495708448E
:101E90000549098890FBF1F201FB12000549888091
:101EA00070BD00009200002070000020940000200F
:101EB00096000020800000208858000810B50D48CA
:101EC00000880D4A32F810100C4801F090F90948CA
:101ED0004088094A32F810104FF0804001F083F931
:101EE00004488088044A32F81010044801F07DF953
:101EF00010BD000080000020940100200008004078
:101F000000B589B001210C2000F0F0FD012107206F
:101F100000F0CCFD18208DF8230003208DF822005E
:101F20008020ADF8200008A95548FFF74DF903209F
:101F3000ADF8200008A95348FFF746F94C20ADF84A
:101F4000200008A94E48FFF73FF90220ADF8200015
:101F500008A94B48FFF738F94FF44070ADF820005E
:101F600008A94848FFF730F94720ADF814003120A0
:101F7000ADF818000020ADF81600ADF81A008DF885
:101F80001C0005A9404801F035F905A94FF0804033
:101F900001F030F905A93D4801F02CF96020ADF8B9
:101FA00004000120ADF806000020ADF80C00ADF8EB
:101FB0001000ADF80A0001A9334801F00DF808211E
:101FC000314801F05BF801A92F4801F065F80821BC
:101FD0002D4801F0B1F801A92B4801F0B7F808210C
:101FE000294801F0F1F801A9274800F09FFF0821D6
:101FF000254800F0E7FF01A94FF0804001F04CF8C0
:102000000821C80601F098F801A94FF0804001F0BE
:102010009DF80821C80601F0D7F801A94FF08040CB
:1020200000F0DAFF0821C80601F028F801A91748D6
:1020300001F032F80821154801F07EF801A9134893
:1020400001F084F80821114801F0BEF801210E4882
:1020500000F054FF0121880700F050FF01210B48D8
:1020600000F04CFF0121084800F054FF01218807CF
:1020700000F050FF0121054800F04CFF09B000BD01
:1020800000080140000C014000040040000800402E
:1020900010B5FFF709FEFFF78BFEFFF70FFF10BD2E
:1020A00010B500F023FEFFF72BFFFFF7F1FF10BD87
:1020B0002DE9F34F8BB000F0AFF800F01BF94C485E
:1020C0000C990068FEF7A8F883464A48016858460C
:1020D000FEF74AF881464FF07E510B98FEF799F8CB
:1020E00082464946FEF798F88046FEF7C9FA04464C
:1020F0000D4641480068FEF7C3FACDE900013F48AC
:102100000068FEF7BDFA8246DDE9002302F09AFB83
:10211000CDE904010B98FEF7B3FACDE90201DDE940
:102120000423FEF790F90022354BCDE90601FEF7B6
:102130008AF98046334A344BFEF7F7F906462246C1
:102140002B46FEF7D9F8CDE90801FEF7DDFA29495B
:1021500008602E480C990068FEF75EF807462C4888
:1021600001683846FEF700F805464FF07E510B989F
:10217000FEF74FF806462946FEF74EF80446FEF7EE
:102180007FFA82468B461C480068FEF779FA0446BF
:102190000D4620480068FEF773FA064622462B4695
:1021A00002F050FBCDE902010B98FEF769FACDE988
:1021B0000001DDE90223FEF746F90022104BCDE9CC
:1021C0000401FEF740F980460E4A0F4BFEF7ADF9C9
:1021D00052465B46CDE90601FEF78EF8CDE90801CF
:1021E000FEF792FA0A4908600DB0BDE8F08F0000D2
:1021F0005C00002068000020540000204C000020FB
:1022000000806640182D4454FB21094060000020E6
:102210006C000020500000202DE9FC4106236A4696
:102220003B216820FFF740FA10B10120BDE8FC8196
:102230009DF801009DF8001040EA012000B22149FC
:1022400008809DF803009DF8021040EA012000B2CA
:102250001C4948809DF805009DF8041040EA0120C3
:1022600000B218498880B1F90000FEF7D2F906469D
:102270000022154BFEF759F90446FEF745FA1349BB
:1022800008601049B1F90200FEF7C3F906460022C2
:102290000D4BFEF74AF90446FEF736FA0C49086082
:1022A0000849B1F90400FEF7B4F906460022064BCE
:1022B000FEF73BF90446FEF727FA064908600020BE
:1022C000B4E700003C0000200000D0404C0000209B
:1022D000500000205400002010B50123044A75214D
:1022E0006820FFF7E1F908B1012010BD0020FCE7EC
:1022F0004A0000202DE9FC4106236A46432168205C
:10230000FFF7D2F910B10120BDE8FC819DF8010072
:102310009DF8001040EA012000B2214908809DF894
:1023200003009DF8021040EA012000B21C494880D9
:102330009DF805009DF8041040EA012000B21849FC
:102340008880B1F90000FEF764F90646154A164B7D
:10235000FEF7EBF80446FEF7D7F914490860104978
:10236000B1F90200FEF755F906460E4A0E4BFEF78C
:10237000DCF80446FEF7C8F90D4908600849B1F9D0
:102380000400FEF746F90646064A074BFEF7CDF86D
:102390000446FEF7B9F9074908600020B4E70000D9
:1023A00044000020FCA9F1D24D6230405C000020C6
:1023B0006000002064000020F8B504460D460020AF
:1023C000FFF756F942F21070FEF7ECFEFFF784FFBC
:1023D00008B10120F8BD2A480078682801D0022001
:1023E000F8E78020009001236A466B216820FFF700
:1023F000DBFA08B10320EDE742F21070FEF7D2FEDF
:102400000020009001236A466B216820FFF7CCFA78
:1024100008B10420DEE70120009001236A466B2109
:102420006820FFF7C1FA08B10A20D3E7182000900E
:1024300001236A461B216820FFF7B6FA08B10B207A
:10244000C8E70020009001236A461C216820FFF79E
:10245000ABFA08B10C20BDE72946204600F03FF852
:1024600008B10D20B6E704EBD471C1F34F00294643
:1024700000F008F808B10E20ACE70020AAE7000041
:102480004A00002038B504460D46DDB1BC2C02DD03
:102490000120009018E0622C02DD0220009013E081
:1024A0002A2C02DD032000900EE0142C02DD042013
:1024B000009009E00A2C02DD0520009004E00620CF
:1024C000009001E00020009001236A461A21682054
:1024D000FFF76AFA08B1012038BD0020FCE7F8B523
:1024E00004460E466EB14FF47A75B4F57A7F01DD7D
:1024F000284604E0042C01DA042000E020460446CB
:102500000CE04FF4FA55B4F5FA5F01DD284604E01B
:10251000202C01DA202000E02046044695FBF4F050
:10252000401EC0B2009001236A4619216820FFF7BF
:102530003BFA08B10120F8BD0020FCE7704700001D
:1025400070B5002100230F22C47804B3154C246811
:1025500004F4E064C4F5E064210AC1F10403CA4054
:10256000447804FA03F184781440214309010E4CA5
:102570000678A155047804F01F050124AC400578C5
:102580006D11AD0005F1E025C5F8004109E00478C2
:1025900004F01F050124AC40044D0678761145F87F
:1025A000264070BD0CED00E000E400E080E100E0BA
:1025B00002490143024A1160704700000000FA0519
:1025C0000CED00E010B5002807DA0A07140E054AE2
:1025D00000F00F031B1FD45403E00A07130E024A36
:1025E000135410BD18ED00E000E400E02DE9FC5F9D
:1025F00083468A4650480068504908604E48406803
:102600004F4908604C4880684E49086051464E4822
:102610000068FEF795F809D04B48C0F800A00020EC
:102620004A4908604A4908604A4908605146584684
:10263000FDF7ECFD48490860084601683F4800681E
:10264000FDF7EAFD4549086043480068FEF718F8C1
:1026500021F0004104460022414BFEF73DF803D82B
:102660000020404908602BE03B480068FEF708F86E
:1026700021F00041044600223B4BFEF715F804D838
:102680004FF07E50374908601AE033480068FDF784
:10269000F7FF21F0004180460022334BFDF72CFE6E
:1026A00000222F4BCDE90001FDF73FFF0646002237
:1026B0002E4BFDF7C5FE0446FEF726F829490860B3
:1026C0002548016822480068FDF74EFD2049086052
:1026D0001B48016823480068FDF79EFD04461C481E
:1026E00001682046FDF798FD2149086019480168F6
:1026F00019480068FDF78AFD14490860164800680B
:1027000014490860114801680E480068FDF784FD0F
:10271000184908601648016810480068FDF724FD54
:102720000446144801682046FDF71EFD1249086062
:1027300008460068BDE8FC9F940400209C0000202F
:10274000A0000020A4000020C4000020D40000202D
:10275000D0000020CC000020C8000020DC000020B9
:1027600000004E40E800002000003E400000F03F26
:10277000E0000020E4000020D80000202DE9FC5FEC
:1027800083468A465048C068504908604E480069F0
:102790004F4908604C4840694E49086051464E48D0
:1027A0000068FDF7CDFF09D04B48C0F800A000201D
:1027B0004A4908604A4908604A49086051465846F3
:1027C000FDF724FD48490860084601683F48006855
:1027D000FDF722FD4549086043480068FDF750FFBA
:1027E00021F0004104460022414BFDF775FF03D85C
:1027F0000020404908602BE03B480068FDF740FF9F
:1028000021F00041044600223B4BFDF74DFF04D868
:102810004FF07E50374908601AE033480068FDF7F2
:102820002FFF21F0004180460022334BFDF764FD6D
:1028300000222F4BCDE90001FDF777FE064600226E
:102840002E4BFDF7FDFD0446FDF75EFF29490860AC
:102850002548016822480068FDF786FC2049086089
:102860001B48016823480068FDF7D6FC04461C4855
:1028700001682046FDF7D0FC21490860194801682D
:1028800019480068FDF7C2FC144908601648006842
:1028900014490860114801680E480068FDF7BCFC47
:1028A000184908601648016810480068FDF75CFC8C
:1028B0000446144801682046FDF756FC124908609A
:1028C00008460068BDE8FC9F94040020A800002092
:1028D000AC000020B0000020EC000020FC00002034
:1028E000F8000020F4000020F00000200401002087
:1028F00000004E401001002000003E400000F03F6C
:10290000080100200C010020000100202DE9FC5FDF
:1029100083468A464D4880694D4908604B48C069E6
:102920004C4908604948006A4B49086051464B4889
:102930000068FDF705FF09D04848C0F800A0002056
:10294000474908604749086047490860514658466A
:10295000FDF75CFC45490860084601683C48006892
:10296000FDF75AFC4249086040480068FDF788FEC0
:1029700021F00041044600223E4BFDF7ADFE03D896
:1029800000203D4908602BE038480068FDF778FEDC
:1029900021F0004104460022384BFDF785FE04D8A3
:1029A0004FF07E50344908601AE030480068FDF767
:1029B00067FE21F0004180460022304BFDF79CFC71
:1029C00000222C4BCDE90001FDF7AFFD06460022A9
:1029D0002B4BFDF735FD0446FDF796FE26490860B2
:1029E000224801681F480068FDF7BEFB1D490860CA
:1029F0000846016817480068FDF70EFC2149086089
:102A00001948016819480068FDF700FC144908607E
:102A10001648006814490860114801680E480068AB
:102A2000FDF7FAFB1849086016480168104800686D
:102A3000FDF79AFB0446144801682046FDF794FB15
:102A40001249086008460068BDE8FC9F9404002015
:102A5000B4000020B8000020BC00002014010020B9
:102A600024010020200100201C010020180100206A
:102A70002C01002000004E403801002000003E40A4
:102A80000000F03F30010020340100202801002028
:102A90007047000001460020034A506820F440407F
:102AA00008435060704700000010024029B1064AF8
:102AB000D2690243044BDA6104E0034AD2698243DB
:102AC000014BDA61704700000010024029B1064A4C
:102AD00012690243044B1A6104E0034A12698243FB
:102AE000014B1A61704700000010024029B1064AEC
:102AF00092690243044B9A6104E0034A926982435B
:102B0000014B9A61704700000010024029B1064A4B
:102B1000D2680243044BDA6004E0034AD26882437D
:102B2000014BDA60704700000010024030B5002110
:102B30000022002400232D4D6D6805F00C0121B109
:102B4000042905D0082923D105E0294D056022E09C
:102B5000274D05601FE0254D6D6805F47012234D6B
:102B60006D6805F48034022505EB92421CB9214DB5
:102B7000554305600BE01D4D6D6805F400351DB132
:102B80001C4D5543056002E0194D5543056002E0B8
:102B9000174D056000BF00BF144D6D6805F0F001D2
:102BA0000909154D6B5C0568DD4045600F4D6D688A
:102BB00005F4E061090A104D6B5C4568DD408560F5
:102BC0000A4D6D6805F46051C90A0B4D6B5C456890
:102BD000DD40C560054D6D6805F44041890B074D2A
:102BE0006B5CC568B5FBF3F5056130BD00100240B4
:102BF00000127A0000093D0014000020240000208B
:102C0000704710B500F002F810BD00000CB50020B0
:102C1000019000903348006840F4803031490860EA
:102C200000BF3048006800F4003000900198401C5C
:102C30000190009818B90198B0F5A06FF1D129481A
:102C4000006800F4003010B10120009001E0002085
:102C500000900098012843D12348006840F01000FC
:102C6000214908600846006820F003000860084613
:102C7000006840F0020008601A484068194948603E
:102C80000846406848600846406840F480604860F4
:102C90000846406820F47C1048600846406840F4CC
:102CA000E81048600846006840F08070086000BF87
:102CB0000C48006800F000700028F9D0094840680E
:102CC00020F00300074948600846406840F00200D1
:102CD000486000BF0348406800F00C000828F9D1A4
:102CE0000CBD000000100240002002402DE9F0471A
:102CF0008EB04FF0000A64204349088008460088DF
:102D0000032190FBF1F041490880002040490880F0
:102D1000084600883D49098808443D4948800846DE
:102D200040883A490988084439498880002039494F
:102D30000880084600883549098808443549488094
:102D40000846408831490988084432498880002073
:102D500031490880084600882C49098808442E49D2
:102D60004880084640882949098808442A498880BB
:102D700000BF41E024480088FDF75CFCCDE902017A
:102D80000AF10100FDF745FC06460022234BFDF742
:102D90005AFBCDE90001DDE90223FDF7C6FB002265
:102DA0004FF08043CDE90401FDF74DFB04461C4A7A
:102DB0001C4BFDF748FB804602F0F0FC0022174B4D
:102DC000CDE90601FDF798FA0022174BCDE908017D
:102DD000FDF739FB00224FF08043CDE90A01FDF7F2
:102DE000A4FBCDE90C01FDF732FC104921F81A00D3
:102DF0000AF101001FFA80FA034800888245B9DB16
:102E00000EB0BDE8F08700007000002072000020C6
:102E1000740000207A000020800000200000F03FB5
:102E2000182D4454FB2109400080484094010020A3
:102E300000B5FEF7A9F900BD10B51348006840F0D1
:102E400001001149086008464068104908400E49D1
:102E50004860084600680E4908400B49086008466B
:102E6000006820F4802008600846406820F4FE00D6
:102E700048604FF41F008860FFF7C3FE4FF000600A
:102E80000449086010BD0000001002400000FFF877
:102E9000FFFFF6FE08ED00E010B516480068164981
:102EA000B0FBF1F4B4F1807F01D3012011E024F0F4
:102EB0007F40401E4FF0E02148610F214FF0FF306E
:102EC000FFF780FB00204FF0E021886107200861B8
:102ED000002008B100BFFEE74FF0E020006920F0BD
:102EE00001004FF0E02108610021481EFFF76AFB56
:102EF00010BD00000000002040420F0021B10288F8
:102F000042F08002028004E002884FF67F731A408C
:102F10000280704721B1028842F00102028004E081
:102F200002884FF6FE731A400280704770B5002485
:102F300000220023058C4FF6FE7635400584028C76
:102F40008388048B4FF68F752C40B51E2C400D885E
:102F50002C43751E2A400D892A434D882A43144D5F
:102F6000A8420BD0134DA84208D0134DA84205D05B
:102F7000124DA84202D0124DA84213D14FF6F77558
:102F80002A404D892A434FF6FB752A408D882A43F3
:102F90004FF6FF652B404FF6FF552B408D892B4395
:102FA000CD892B4383800483CD888586028470BDC0
:102FB000002C014000340140004001400044014029
:102FC000004801400A460021018B4FF6F773194073
:102FD000114301837047000070B5002400220023D4
:102FE000058C4FF6EF7635400584028C8388048B80
:102FF00048F6FF752C404FF6FF452C400D884FF6E4
:10300000FF7606EA05252C434FF6DF752A400D8929
:1030100006EA05152A434D8806EA05152A43154D8B
:10302000A84202D0144DA8421DD14FF67F752A4008
:103030004D894FF6FF7606EA05152A434FF6BF7510
:103040002A408D8806EA05152A434FF6FF352B40A6
:103050004FF2FF752B408D8906EA85052B43CD89FC
:1030600006EA85052B4383800483CD880587028487
:1030700070BD0000002C0140003401400A460021D0
:10308000018B4FF2FF7319404FF6FF7303EA0223DF
:10309000194301837047000070B50024002200230B
:1030A000058C4FF6FF6635400584028C8388848B3F
:1030B0004FF68F752C404FF6FC752C400D882C4335
:1030C0004FF6FF552A400D894FF6FF7606EA052593
:1030D0002A434D8806EA05252A43154DA84202D009
:1030E000144DA8421DD14FF2FF752A404D894FF66D
:1030F000FF7606EA05252A434FF6FF352A408D88DC
:1031000006EA05252A434EF6FF752B404DF6FF755E
:103110002B408D8906EA05152B43CD8906EA051556
:103120002B4383808483CD888587028470BD000013
:10313000002C0140003401400A460021818B4FF6EB
:10314000F7731940114381837047000070B5002266
:1031500000230024058C4EF6FF7635400584038C51
:103160008488828B48F6FF752A404FF6FF452A4037
:103170000D884FF6FF7606EA05252A434DF6FF75C2
:103180002B400D8906EA05352B434D8806EA0535A7
:103190002B430B4DA84202D00A4DA84208D14BF652
:1031A000FF752C408D894FF6FF7606EA85152C4376
:1031B00084808283CD88A0F84050038470BD0000D5
:1031C000002C0140003401400A460021818B4FF25F
:1031D000FF7319404FF6FF7303EA022319438183FB
:1031E0007047818670470187704781877047A0F8D4
:1031F00040107047002202881D4B98420ED01D4B94
:1032000098420BD0B0F1804F08D01B4B984205D0AC
:103210001A4B984202D01A4B984204D14FF68F7342
:103220001A404B881A43174B984207D0164B9842C6
:1032300004D04FF6FF431A40CB881A4302808B8894
:1032400083850B8803850A4B98420BD0094B984223
:1032500008D00E4B984205D00D4B984202D00D4B32
:10326000984201D10B7A03860123838270470000C4
:10327000002C0140003401400004004000080040E0
:10328000000C0040001000400014004000400140CD
:10329000004401400048014010B540F225510C485F
:1032A00000F083F8012811D1094800F039F90949E3
:1032B000094A1288885408490988481CC11700EB3C
:1032C00011610912A0EB0121034A118010BD000019
:1032D00000380140940300209800002021B1828929
:1032E00042F40052828104E082894DF6FF731A4055
:1032F0008281704710B504462048844209D10121DB
:103300008803FFF703FC00214FF48040FFF7FEFB2A
:1033100032E01B48844209D101214804FFF7D6FB63
:1033200000214FF40030FFF7D1FB25E0154884421F
:1033300009D101218804FFF7C9FB00214FF4802047
:10334000FFF7C4FB18E01048844209D10121C804EA
:10335000FFF7BCFB00214FF40020FFF7B7FB0BE0A9
:103360000A48844208D101210805FFF7AFFB00217C
:103370004FF48010FFF7AAFB10BD00000038014099
:103380000044004000480040004C00400050004015
:1033900002460020B1F5007F00D100BF13880B402A
:1033A0000BB1012000E00020704770B502460024F8
:1033B00000230025002040F66A16B14200D100BF6C
:1033C000C1F3421501F01F03012606FA03F3012D94
:1033D00002D19689334006E0022D02D1168A33408D
:1033E00001E0968A33400C12012606FA04F416888E
:1033F000344013B10CB1012000E0002070BDF0B5E5
:103400000346002400260025002040F66A17B94232
:1034100000D100BF1846C1F3421401F01F06012776
:1034200007FA06F5012C01D10C3004E0022C01D181
:10343000103000E014301AB107682F43076002E033
:103440000768AF430760F0BD2DE9F04786B0054639
:103450000E460024A24600BFA1460027B08900B155
:1034600000BF2F462C8A4CF6FF700440F0880443BE
:103470002C82AC894EF6F3100440B08831890843A1
:10348000718908430443AC81AC8A4FF6FF40044085
:10349000B0890443AC8201A8FFF748FB1F4887426C
:1034A00002D1DDF810A001E0DDF80CA0A88900F43D
:1034B000004040B10AEBCA0000EB0A103168490035
:1034C000B0FBF1F807E00AEBCA0000EB0A10316824
:1034D0008900B0FBF1F86420B8FBF0F0040120098A
:1034E000642101FB1089A88900F4004040B132201A
:1034F00000EBC900B0FBF1F000F00700044308E066
:10350000322000EB09106421B0FBF1F000F00F0055
:1035100004432C8106B0BDE8F0870000003801406C
:1035200001468888C0F308007047C1F30802828012
:10353000704700BFFEE700002DE9F04F87B0002480
:10354000A34600250026A146A2464AE02A48445D3B
:103550000D2C02D00A2C00D01CB90020274908806D
:1035600045E02E2C02D14FF0010B38E0202C29D160
:103570004846FDF75FF807463A460B4600202049CB
:1035800001F030FCCDE902015046FDF753F8074643
:1035900000221C4BFCF757FFCDE90001DDE90223B7
:1035A000FCF7C3FFCDE90401FDF7AEF8164941F879
:1035B0002600701C86B24FF0000B4FF000094FF050
:1035C000000A0CE0A4F130000AEB8A0100EB410A8A
:1035D000BBF1010F03D109F101001FFA80F9681C4A
:1035E00085B206480088854201DA092EAEDB00BFAD
:1035F00007B0BDE8F08F0000940300209800002081
:10360000000024400000F03F9404002010B586B074
:103610000446012144F20500FFF768FA4FF40070F8
:10362000ADF8140018208DF8170003208DF816004F
:1036300005A92048FDF7C8FD4FF48060ADF81400DF
:1036400004208DF8170005A91A48FDF7BDFD1A489A
:10365000FFF750FE01940020ADF80800ADF80C0013
:10366000ADF80A00ADF810000C20ADF80E0001A96D
:103670001148FFF7E9FE4FF4E060FEF799FF2520BF
:103680008DF8000000208DF8010002208DF8020066
:1036900001208DF803006846FEF752FF012240F238
:1036A00025510548FFF7ABFE01210348FFF716FE41
:1036B00006B010BD00080140003801400FB4054BB2
:1036C00010B503A9044A029800F014FC10BC5DF880
:1036D00014FB0000C54900088C010020490050EA95
:1036E000C12018BF04204A0D18BF40F0010040F26D
:1036F000FF72B2EB515F08BF40F00200012808BF23
:10370000052070472DE9F74F144694B00021C4E915
:1037100002111599079121F00045C9498D4206DC37
:103720001599C4E9000117B00020BDE8F08FC54924
:10373000DFF814A3A9423CDD0799C44E0029C44F09
:10374000C44A1599534619DDFCF777FE554506D056
:10375000C14AC24BFCF771FEC4E900010AE04FF018
:10376000D352BE4BFCF769FE32463B46FCF765FE82
:10377000C4E9000117B00120BDE8F08FFCF7BCFDE3
:10378000554506D0B44AB54BFCF7B6FDC4E9000177
:103790000AE04FF0D352B14BFCF7AEFD32463B4648
:1037A000FCF7AAFDC4E9000117B04FF0FF30BDE8F7
:1037B000F08FAB49A942159978DB21F0004183468F
:1037C0008846A84AA84BFCF73EFE0022A74BFCF710
:1037D00093FDFDF768F90990FCF71BFF06460F46BD
:1037E0009C4A5346FCF72FFE43465A46FCF728FEF8
:1037F00080468A46984A994B30463946FCF723FE64
:103800002A0D01250B9242465346FCF719FE032D63
:10381000C4E9000139D00B98C1F30A51401A05EBF5
:1038200045111139814230DA9148C346784400EBA2
:103830000510CDF80CA00C90D0E900233046394695
:10384000FCF701FE02460B46049106905846039988
:10385000FCF7F3FD80468A4602460B46584603991C
:10386000FCF7EBFD049B069AFCF7E7FD83460C98FA
:1038700003913946D0E902233046FCF7E4FD5A466D
:10388000039BFCF7DAFD6D1CBDE707980028A2BF7B
:10389000099817B0BDE8F08F616881F00041616060
:1038A000099817B04042BDE8F08FFFE784461598AD
:1038B000C1F31301C0F30A50A0F2F5304FEA6018CB
:1038C00000F01F06C6F1200013900020069007901C
:1038D00041F4801E05206D4676B1664A08EB000172
:1038E0007A4452F8213002EB8101B3404A681399BF
:1038F00022FA01F1194305E05F4908EB000279441F
:1039000051F82210A1FB0E27A1FB0C131A449A4276
:1039100034BF0123002303EB070A05EB8003D3E93F
:1039200001B70F448F4234BF0121002193448B44DF
:1039300011B1934502D903E0934501D2012100E082
:103940000021C3E901B7514445F82010011EA0F140
:103950000100C1DC0298059F00F10050800F129019
:103960000298DDE903568000FCF753FE83462846A3
:103970000D91FCF75FFE6FF01D02FDF701F8CDE938
:103980000E013046FCF756FE6FF03D02FCF7F8FFE3
:1039900080468A463846FCF74DFE6FF05D02FCF724
:1039A000EFFF0746424653461191FCF7A5FCDDE9BF
:1039B0000E23FCF7A1FC5A460D9BFCF79DFC00254D
:1039C0000E465A4628460D9BFCF737FDDDE90E23CF
:1039D000FCF733FD42465346FCF72FFD3A46119B58
:1039E000FCF72EFDDFF898A0244A5346FCF72BFD88
:1039F00007468846234A244B31462846FCF723FDD8
:103A00003A464346FCF778FC074688464FF0A84202
:103A1000534631462846FCF716FD3A464346FCF726
:103A20006BFC159A12F0004F04D0129A81F00041FD
:103A300052421292C4E90001129817B0BDE8F08F0B
:103A4000FB21E93F7CD90240FB21F93F7370032E33
:103A50008A19A33B000040543163621A61B4D03D1F
:103A6000FB21394183C8C96D305FE43F0000E03F6E
:103A7000B82100003421000016210000182D445404
:103A8000FB21F93D3326A611460B113C2DE9FF4DD4
:103A900021F0004807460C46B8F1795F08DAFDF7D7
:103AA00002F8002801BF0020324904B0BDE8F08DC3
:103AB0003A46234610461946FCF7C5FC0546024621
:103AC0002D480E460B460621784400F05DF82A4644
:103AD0003346FCF7B8FCDDE9022382468B463846C4
:103AE0002146FCF7B0FC04460F4652465B4628468A
:103AF0003146FCF7A8FC22463B46FCF79EFC0746F5
:103B00008A464FF0FF3228463146FCF739FF1B4A00
:103B100090450ADA3A465346FCF78FFC04B000227F
:103B2000BDE8F04D134BFCF78BBC154A4245A8BFCE
:103B3000A8F500154FF00004B8BF124D22462B46E1
:103B4000FCF77BFC0646884622462B4600200949A6
:103B5000FCF773FC04460D463A4653463046414650
:103B6000FCF76BFC04B022462B46BDE8F04DFCF799
:103B700067BC00000000F03FE41E00003333D33F79
:103B80000000E93F0000D23F2DE9F0414F1E00EB5D
:103B9000C7010446D1E9000115461E4637F006026A
:103BA0000DD02A463346FCF74EFC7F1E04EBC703BC
:103BB000D3E90023FCF7A0FB37F00602F1D1022F76
:103BC00025D0042F13D0062F18BFBDE8F0812A4658
:103BD0003346FCF738FCD4E90A23FCF78DFB2A4670
:103BE0003346FCF730FCD4E90823FCF785FB2A4672
:103BF0003346FCF728FCD4E90623FCF77DFB2A4674
:103C00003346FCF720FCD4E90423FCF775FB2A4675
:103C10003346FCF718FCD4E90223FCF76DFB2A4677
:103C20003346FCF710FCD4E90023BDE8F041FCF773
:103C300063BB00002DE9FF4D054621F0004084B034
:103C40000C46B0F1795F0BDA2846FFF747FD0428F0
:103C500008BF00F07FF8284608B02146BDE8F08D87
:103C60002A460B461046FCF7EEFB06460F462A4650
:103C70002346FCF7E8FB804626488A4632463B4608
:103C800005217844FFF780FF83461098029160B3C6
:103C9000214A224B40465146FCF7D5FBCDE90001B5
:103CA0005A4640465146029BFCF7CDFB8246884669
:103CB000DDE906014FF0FF32FCF762FE5246434653
:103CC000FCF7BBFB32463B46FCF7BDFBDDE90623B8
:103CD000FCF7B3FBDDE90023FCF7AFFB08B02A4695
:103CE0002346BDE8F04DFCF7ABBB0B465A463046C9
:103CF0003946FCF7A8FB084A084BFCF7FDFA424698
:103D00005346FCF7A0FB08B02A462346BDE8F04D19
:103D1000FCF7F2BA2A1E0000495555555555C5BF46
:103D20000022134610460149FCF7FFBB0000F03F9C
:103D30000122FCF725BEFCF7DFBA0022134610462D
:103D40001146FCF7F2BB40F2013200204FF0E04197
:103D5000FCF716BE024A00201107FCF711BE000056
:103D600001FDFFFF02E008C8121F08C1002AFAD1B6
:103D700070477047002001E001C1121F002AFBD1EB
:103D80007047000001490860704700009001002062
:103D90002DE9FF5FDDE90220010DDDF838B00243B7
:103DA00018D044F61050A1F2FF3141430D140F9882
:103DB000012820D0A5EB0B00401C5FEA000A4FF061
:103DC0000004474EDFF81C91A046504616D5CAF1B4
:103DD000000728E00F98012443A2012808D0002101
:103DE00000980F9BC0E90021C0E90243BDE8FF9F96
:103DF0006FEA0B01F4E7CBF10000DEE7074612E0C3
:103E0000F80707D02246334640464946FCF71BFBDD
:103E1000804689462246334610461946FCF713FB76
:103E200004460E467F10002FEAD1DDE90201BAF107
:103E3000000F42464B4602DAFCF705FB01E0FCF7B7
:103E400074FB04460E460022284BFCF745FC03D8C1
:103E50004FF0FF30014607E00022254B2046314657
:103E6000FCF74AFAFCF7A3FD102409E0002C0ADB5A
:103E70000A220023FCF78EFC019B30321A55641E87
:103E800050EA0102F2D1641C019AC4F111031444F6
:103E90000F9A012A03D0012208430DD10AE00843FA
:103EA00004D000204FF0110B0F9080E7A3EB0B051F
:103EB0006D1E0DE05B4504DD4FF0000205F10105CC
:103EC00004E003DA4FF00002A5F10105002AECD06E
:103ED00000980F99C0E90231C0E9004586E700006B
:103EE000000024400000F03F300000000000F043DC
:103EF0000000E03F2DE9FF4F95B09B4689460646FE
:103F000000250FE2252877D100242746F84A012111
:103F1000059400E0044316F8013F203B01FA03F04A
:103F20001042F7D130782A2811D06FF02F03307863
:103F3000A0F13002092A16D8059A44F0020402EBD7
:103F4000820203EB42021044761C0590EFE759F819
:103F5000042B0592002A03DA504244F400540590E1
:103F600044F00204761C30782E2816D116F8010F82
:103F700044F004042A280DD06FF02F023078A0F10D
:103F80003003092B09D807EB870302EB4303C7185B
:103F9000761CF3E759F8047B761C30786C280FD038
:103FA00006DC4C2817D068280DD06A2814D104E00C
:103FB000742810D07A280FD10DE044F400140AE0E0
:103FC00044F4801401E044F440147278824202D137
:103FD00004F58014761C761C307866280BD013DC30
:103FE000582877D009DC002875D04528F6D0462817
:103FF000F4D047281AD19DE118E0632835D0642811
:1040000079D0652812D195E1702873D008DC672833
:10401000F1D069286FD06E280DD06F2806D1B5E099
:1040200073282CD0752875D0782874D05A461799E3
:1040300090476D1C75E1C4F30250022809D0032893
:104040000DD0D9F8001004280DD00D6009F1040935
:1040500067E1D9F80010EA17C1E90052F6E7D9F88C
:1040600000100D80F2E70D70F0E719F8041B8DF8D1
:10407000001000208DF80100EA46012003E059F805
:1040800004AB4FF0FF3061074FF0000102D40DE0A8
:1040900008F101018846B9420FDA8045F8DB1AF8C9
:1040A00008100029F4D108E008F101018846814296
:1040B000FADB1AF808100029F6D105985B46A0EB48
:1040C000080721463846179A00F094FA284400EB76
:1040D000080507E04DE029E10DE01AF8010B5A460A
:1040E00017999047B8F10108F7D25B462146384648
:1040F000179A13E142E00A220092C4F302524FF0F1
:10410000000A022A08D059F804CB032A4FEAEC71BE
:104110000AD00DE029E02AE009F1070121F00702A9
:10412000F2E802C1914609E00FFA8CFC4FEAEC710B
:10413000042A03D14FFA8CFC4FEAEC71002907DA0C
:104140000A460021DCF1000C61EB02012D2202E0A5
:10415000220504D52B228DF80420012203E0E2077A
:1041600001D02022F7E7904659E00A2102E0102210
:104170000DE010214FF0000A00910BE010224FF0EB
:10418000000A44F004040827009203E008224FF0DC
:10419000000A0092C4F30252022A05D059F804CB57
:1041A0000021032A08D009E009F1070121F00702E4
:1041B000F2E802C1914605E01FFA8CFC042A01D105
:1041C0000CF0FF0C4FF00008220728D5702806D00D
:1041D000009B83F0100353EA0A0305D00EE040224F
:1041E0008DF80420012208E05CEA010206D03022AA
:1041F0008DF804208DF8050002229046009B83F084
:10420000080353EA0A030AD15CEA010201D16207FA
:1042100005D530228DF804204FF001087F1E582864
:1042200004D034A003900EA802900DE036A0F9E768
:1042300053466046009AFCF7ADFA84460398825CC8
:104240000298401E029002705CEA0100F0D10298D0
:1042500006A9081A00F1200A600702D524F4803468
:1042600000E00127574502DDA7EB0A0000E000202F
:1042700000EB0A01009005984144401A0590E003C4
:1042800006D45B462146179A059800F0B3F9054419
:10429000002706E001A85A46C05D179990476D1C9B
:1042A0007F1C4745F6DBE0030CD55B462146179A99
:1042B000059800F09FF9054404E030205A4617990C
:1042C00090476D1C0099481E00900029F5DC08E01D
:1042D000029802995A460078491C02911799904712
:1042E0006D1CBAF10001AAF1010AF1DC65E10000E0
:1042F00009280100303132333435363738396162BC
:10430000636465660000000030313233343536377F
:1043100038394142434445460000000000F058F956
:104320000544761C307800287FF4ECAD19B028469F
:10433000BDE8F08F620700D4062709F1070222F0DA
:10434000070CFCE80223E14603F000485FEA080C92
:1043500002D00FF2702C0DE05FEA045C02D50FF280
:10436000682C07E05FEAC47C02D00FF2602C01E009
:10437000AFF2700C4FF0FF3823F00043CDF850C07F
:1043800065280CD006DC452809D046281DD04728D2
:104390003DD13DE0662818D067287ED138E0002165
:1043A000112F01DB112000E0781CCDE9000106A9E6
:1043B0000EA8FFF7EDFCDDE90F010E9A0391002135
:1043C000009207F1010A04914DE04FF00040009780
:1043D000CDE9011006A90EA8FFF7DAFCDDE90F020E
:1043E00003920E9B11990022DDF80CA00093049219
:1043F00011B9791C00EB010AB7EB0A0004D4C0F133
:10440000FF3007F1010A0490AAEB0700019044E095
:10441000012F00DA01270021112F01DD112000E01A
:104420003846CDE9000106A90EA8FFF7B1FCDDE989
:104430000F010E9A0391002104910092BA462107C0
:104440000CD40399514500DA8A46BAF1010F05DD13
:10445000009AAAF10101515C302908D0B84202DA71
:1044600010F1040F06DA0121CDE9011015E0AAF1DF
:104470000101E9E7002805DC049901440491AAEB55
:10448000000102E0411C514500DD8A460499401AB2
:10449000401C01904FF000400290200704D4019886
:1044A000504501DBCDF8048000208DF84F000298C4
:1044B0000DF14F07B0F1004F25D02B200E90029840
:1044C0004FF0020800280CDA404202902D200E9096
:1044D00007E00A210298FCF747F93031029007F80B
:1044E000011DB8F10001A8F10108F2DC02980028D2
:1044F000EFD1791E0E980870307800F0200040F05F
:10450000450007F8020D12A8C01B00F10708149817
:10451000007800B1012000EB0A01019801EBE07185
:1045200005984144401A401E0590E00306D45B46BE
:104530002146179A059800F05DF805441498007814
:1045400018B15A46179990476D1CE00324D55B4675
:104550002146179A059800F04DF805441CE0049890
:10456000002807DBDDE90301884203DD0098405C99
:10457000179901E0179930205A469047049805F1A1
:104580000105401C04900198401E019004D12E208A
:104590005A46179990476D1CBAF10001AAF1010A19
:1045A000DDDC05E017F8010B5A46179990476D1CA2
:1045B000B8F10001A8F10108F4DC5B462146179A26
:1045C0000598ABE62D0000002B0000002000000045
:1045D0002DE9F041044600251E461746880404D400
:1045E00005E039462020B0476D1C641EF9D52846E9
:1045F000BDE8F0812DE9F041044600251E469046B5
:10460000C80301D5302700E02027880404D505E041
:1046100041463846B0476D1C641EF9D52846BDE8B2
:10462000F08100002DE9F84F04460D4621F00040CE
:1046300000917349814211DC7249884201DC06D144
:104640002CB120462946BDE8F84FFFF771BB6E48F4
:10465000002DCCBF6D496E49BDE8F88F6D49814290
:1046600011DD6D498142D8BF4FF0FF366DDD204628
:104670002946FFF733F8042808BFFFF76BFB2046F5
:104680002946BDE8F88F6549654F25F00045814210
:1046900033DD6449814219DD002632464FF0804304
:1046A00020462946FBF728FE80468A4601222046FE
:1046B0002946FCF765F900223B46FBF7BEFE424661
:1046C0005346FBF732FF04460D463EE0012600222A
:1046D000BA463B4620462946FBF70EFE80460F466B
:1046E0000022534620462946FBF7A7FE42463B469A
:1046F000FBF71BFF04460D4627E04B4981421BDDBB
:10470000DFF828A102260022534620462946FBF75F
:104710009AFE00223B46FBF7EFFD80460F46002243
:10472000534620462946FBF788FE42463B46FBF7A8
:10473000FCFE04460D4608E0032622462B460020D8
:104740003B49FBF7F2FE04460D4622462B46104637
:104750001946FBF778FE8B46824602460B46FBF76E
:1047600072FE07460246334888460B4606217844C7
:10477000FFF70AFA52465B46FBF765FE82462E4873
:104780008B463A46434605217844FFF7FDF93A4601
:104790004346FBF758FE02460B46002E504659464C
:1047A0000CDAFBF7A9FD22462B46FBF74CFE01B0C5
:1047B00022462B46BDE8F04FFBF742BEFBF79CFDBF
:1047C00022462B46FBF73FFE1C4A7A4402EBC60307
:1047D000D3E90023FBF731FE22462B46FBF72DFEE3
:1047E000174A7A4402EBC603D3E90023FBF728FEFD
:1047F000009A002AB8BF81F00041BDE8F88F0000A0
:10480000000010440000F07F182D4454FB21F93FB4
:10481000FB21F9BF0000DC3F0000203E0000F33F19
:104820000000F03F0000E63F008003400000F83F3A
:104830000000F0BF0E120000CC1100006A11000051
:10484000321100002DE9F04D9446CCF1000423F024
:1048500000464CEA0404524F46EAD4749A4688460D
:1048600021F00042BC4206D8454240EA050442EA33
:10487000D474BC4204D9BDE8F04D6246FFF75BBA80
:10488000AAF14055A5F17F6555EA0C040BD002242E
:1048900004EAAA74434DDFF810E144EAD87452EAFE
:1048A000000B04D00CE0BDE8F04DFFF7BBBE002CC0
:1048B00014BF012CBDE8F08D022C30D0032C32D077
:1048C00056EA0C0B0AD0BE4220D1BA4209D126F0DA
:1048D000804622F080423346114617E000291ADB59
:1048E00025E0DFF8C8B0FB44002C04BFDBE9000181
:1048F000BDE8F08D012C02BFDBE9000181F0004131
:10490000BDE8F08D022C0AD0032C0CD0BA4212D193
:10491000B8F1000F0BDA23482549BDE8F08D284691
:104920002449BDE8F08D28467146BDE8F08D1D484C
:104930002149BDE8F08D921B12153C2AC4BF1948CD
:104940001D490EDCBAF1000FBEBF12F13C0F002072
:10495000014606DB6246FBF7E8FD21F00041FFF768
:1049600061FE002C08BFBDE8F08D012C04BF81F072
:104970000041BDE8F08D114A114B022C07D0FBF726
:104980005CFD2A46BDE8F04D0A4BFBF756BDFBF730
:1049900054FD2A46BDE8F04D064BFBF751BD000023
:1049A0000000F07F182D4454FB2109C0F6100000D0
:1049B000FB21F9BFFB210940FB21F93F075C1433C0
:1049C00026A6A13C70B504460D46E1B20548FEF7A7
:1049D000ACFD00BF80210348FEF7DAFC0028F9D0C7
:1049E000204670BD0038014096B000250024002606
:1049F000002700201590149013908046814682462F
:104A000083461290FDF708F8FEF746FA4FF4E130BE
:104A1000FEF7FCFD4FF48050CE490860400008606E
:104A2000FDF7D6F801213220FDF7C6FC05460BE064
:104A30002946C9A0FEF742FECC48FCF7B3FB012192
:104A40003220FDF7B9FC0546002DF1D101213220BD
:104A5000FCF7CEFA05460BE02946C5A0FEF72EFE70
:104A6000C248FCF79FFB01213220FCF7C1FA054642
:104A7000002DF1D1FDF714FB6AE1204604EBD07163
:104A80004910A4EB4101C1F10201322292FBF1F283
:104A9000711CB1FBF2F302FB13163EB9AD48001FC7
:104AA000006880F48050AB49091F0860B549B648DA
:104AB0000068FBF74FFE04D24FF40050A549086090
:104AC0000EE0781C1421B0FBF1F201FB12073FB994
:104AD000A048001F006880F400509E49091F08602C
:104AE000AA48FDF721F8002C7BD1A949A948FDF778
:104AF000DFFAA9480068FBF7C3FDCDE91001A7481C
:104B00000068FBF7BDFDCDE90E01DDE91001CDE93F
:104B10000001A3A0DDE90E23FEF7D0FD9E4800684A
:104B2000FBF7AEFD21F000410022A44BCDE91001BE
:104B3000FBF7D2FD0DD2002197480068FBF70AFE73
:104B400001D2012000E0002003211190FDF7CCF8F4
:104B5000FAE092480068FBF793FD21F00041002243
:104B6000964BCDE91001FBF7B7FD0DD200218B4824
:104B70000068FBF7EFFD01D2012000E000200321D7
:104B80001190FDF72DF8DFE000210846FDF728F829
:104B900000210846FDF7A8F84FF0000A11E0FDF7E4
:104BA000A9FBFCF7C3F9864801681298FBF7DCFA09
:104BB0001290844801685846FBF7D6FA83460AF1FA
:104BC000010ABAF57A7FEAD37F491298FBF756FBC0
:104BD00012907D495846FBF751FB83460124B3E010
:104BE000FFE76B496B48FDF763FA69496948FCF7D1
:104BF0007BF8FEF7A1FC002168480068FDF7F6FC91
:104C000015901598FBF73CFD21F00041CDE90E0110
:104C1000FBF71DFD80B2002111901598FBF79AFD5E
:104C200001D2012000E0002010901199FCF7D8FF7C
:104C3000002159480068FDF7A1FD14901498FBF776
:104C40001FFD21F00041CDE90E01FBF700FD80B210
:104C5000002111901498FBF77DFD01D2012000E0A6
:104C6000002010901199FDF73FF8554812990068FF
:104C7000FBF7CCFA55490F90FBF7CEFA524910904A
:104C8000FBF7FCFA49461190FBF76EFA814659464C
:104C90004C480068FBF7BAFA4C490F90FBF7BCFA96
:104CA00049491090FBF7EAFA41461190FBF75CFA8C
:104CB0008046002143480068FDF728FE13901398B2
:104CC000FBF7DEFC21F00041CDE90E01FBF7BFFC54
:104CD00080B2002111901398FBF73CFD01D2012016
:104CE00000E0002010901199FDF784F81398FBF76D
:104CF000C7FCCDE910014046FBF7C2FCCDE90E012F
:104D00004846FBF7BDFCCDE90C015846FBF7B8FC63
:104D1000CDE90A011298FBF7B3FCCDE90801DDE902
:104D20001001CDE90601DDE90E01CDE90401DDE95F
:104D30000C01CDE90201DDE90A01CDE9000124A061
:104D4000DDE90823FEF7BAFC41F28830FCF72AFAC5
:104D500093E60000100C01404572726F722D6D7069
:104D600075363035302D25640D0A0000400D0300E6
:104D70004572726F722D626F6172646D70752D2550
:104D8000640D0A000000284188010020CDCC4C3F72
:104D90000AD7A33BCDCC4C3D6C000020680000201E
:104DA0005B23315D70697463683A20256620726FF9
:104DB0006C6C3A2025660D0A0000000000000840D7
:104DC000640000207001002000007A440000A04030
:104DD00025662C25662C25662C25662C25660D0A55
:104DE000000000002DE9F04D16460F4694B01C4619
:104DF00021F0004123F00042002814BF4FF0010CC5
:104E00004FF0000C0CEB470CFE4B0CEB03054FEA8C
:104E1000630C65452BD3350018BF012505EB440510
:104E20001D44F94B9D4222D3F84B52EA060C02D0A6
:104E30009F4205D148B914B000201946BDE8F08D55
:104E4000002808BF4FF0000C01D04FF0010C0CEB14
:104E5000470313F5001F0AD8002E14BF4FF0010CB2
:104E60004FF0000C0CEB440313F5001F07D914B0EE
:104E7000324623463946BDE8F04DFEF75CBFDFF809
:104E800090834FF0000A002FB8BF424523DAE14B70
:104E90009A42A8BF4FF0020A1DDADC4B93421ADC9B
:104EA000DD4B03EB2253142B08DDC3F1340C26FA3F
:104EB0000CF303FA0CFCB4450DD108E05EB9C3F164
:104EC000140C22FA0CF303FA0CFC944503D103F002
:104ED0000103C3F1020A51EA00031BD1002C19DAC5
:104EE000002F18BFBAF1020F02D0BAF1010F07D09C
:104EF0000220FEF747FF14B0BDE8F04DFEF710BFEB
:104F00000220FEF73FFFFEF70BFF14B081F00041D7
:104F1000BDE8F08D330070D1424525D107F18042C4
:104F200012F5801201BF00280020B84914B008BF54
:104F3000BDE8F08DB548884207DC002CA1BF1846BB
:104F4000214614B0BDE8F08D07E0002CBFBF184625
:104F500084F0004114B0BDE8F08DB0497944D1E946
:104F6000000114B0BDE8F08DDFF8A0C262452AD17F
:104F7000002C24DA39B1414517D1002804BF0020A4
:104F800002461CD106E040B10220FEF7FBFEFEF710
:104F9000DAFE0A46394600F0D7BA9D4A394614B0BF
:104FA000002062F31E01BDE8F08D08DA14B03B4624
:104FB000BDE8F04D024600206146FBF7B6BA14B0DA
:104FC0003946BDE8F08D414517DAB4F1804F0CD079
:104FD000A4F10053B3F1FF530FD13B1E0DDB14B00E
:104FE0001946BDE8F04D00F029BC3B4614B002461E
:104FF000BDE8F04D1946FBF726BA050027F000433F
:105000003AD1E1B1414537D1002F06DD002CA1BFD7
:105010000020414614B0BDE8F08D002F01DD002CCA
:105020001FDB002F16DA002C14DBBAF1010F4FF052
:10503000000014BF76497A4914B0BDE8F08DBAF18A
:10504000020F18BF002F0CD0BAF1010F09D1002FA9
:1050500007DA0BE0002FB8BF002C0DDABAF1010F10
:1050600004D0002014B00146BDE8F08D14B000203B
:105070004FF00041BDE8F08D4FF0010808EBE77CF0
:10508000CDF814C05CEA0A0C0DD0DFF898C1624577
:105090007EDDDFF894C1654B624512DD8B420ADB91
:1050A000002C18DB23E00120FEF76CFE14B0BDE8F5
:1050B000F04DFEF742BE554A8A4202DC002C0ADC63
:1050C00015E0994202DA002C11DA04E04F4B9942C4
:1050D00019DD002C0BDD0220FEF754FEFEF733FE37
:1050E0004B4A14B061F31E021146BDE8F08D022058
:1050F000FEF748FEFEF72EFE444A14B061F31E028E
:105100001146BDE8F08D00223946FBF796F90746B7
:105110000D466FF00102FBF733FC4FF05532444B64
:10512000FBF78EF93A462B46FBF78DF90022414BEF
:10513000FBF786F980468B463A462B4610461946C1
:10514000FBF781F942465B46FBF77DF988460E90F6
:105150004FF0C042384B38462946FBF774F9834676
:105160000091364A344B41460E98FBF76CF9804665
:105170000191334A334B38462946FBF764F94246DE
:10518000019BFBF75AF90D4602460B460C9000E0D6
:1051900011E058460099FBF7AFF8002788465A46B9
:1051A0003846009BFBF749F92B460C9AFBF748F968
:1051B000024600F079B90020B1F5801F07DA3522E8
:1051C00028461946FBF7DCFB05466FF0340000EB80
:1051D0002150A0F2FF300190C1F3130040F07F6135
:1051E00041F04051029118498842D8BF4FF0000B5E
:1051F00035DD16498142C8BF4FF0010B2FDC4FF05F
:10520000000B25E0FFFF1F00FFFF0F000000F03F35
:105210000000F07F0000404301FCFFFF800A000017
:105220000000F0FF0000E0410000F043FFFFEF3F0F
:105230005555D53F0000E03F4715F73FFE822B65EF
:1052400044DF5DF80BAE543E8E9803007AB60B0037
:105250000198401C01900298A0F580100290FF4830
:105260000299784400EBCB000991D0E9002328464D
:105270000B931292FBF7E1F800910A9028460B9BE2
:10528000129A0999FBF738F802460B460020F449B8
:10529000FBF74BF9CDE90C010B46024600990A9841
:1052A000FBF7D1F80690EF4888460027784402992A
:1052B000006810904FF0005040EA610000EB8B4016
:1052C00000F5002102910B9B129A1098FBF7B5F89C
:1052D0002A46099BFBF7B4F83A464346FBF7B3F876
:1052E0000891129038464146029B109AFBF7ABF8A2
:1052F000009B0A9AFBF7A4F8089B129AFBF79DF80B
:10530000DDE90C23FBF79FF80B91069A12904346B8
:1053100010461946FBF797F805460246D2480B4659
:105320000A9106217844FEF72FFC0A9B2A46089131
:10533000029010461946FBF786F8089B029AFBF785
:1053400082F805460991434638461946069AFAF707
:10535000D3FF0B9B129AFBF776F82A46099BFAF7C4
:10536000CBFFCDE908013A46434610461946FBF704
:105370006AF80A910022BD4B0090FAF7BDFFDDE903
:105380000823FAF7B9FF0D463A46B84B3846FBF703
:1053900054F80A9B009AFBF750F8DDE90823FBF765
:1053A0004FF8CDE908013A462B4610464146FBF737
:1053B0004AF800910A90DDE908014346069AFBF796
:1053C00042F8069088462B463A460B991298FBF70E
:1053D0003AF84346069AFAF78FFF80460B46024694
:1053E0000D9100990A98FAF787FF00200F460546AD
:1053F000009B0A9AFBF721F842460D9BFBF720F829
:1054000088460E904FF06042994B28463946FBF78C
:105410001AF802910090974A954B41460E98FBF777
:1054200012F880460391944A944B28463946FBF77C
:105430000AF84246039BFAF75FFF914A7A4402EB6F
:10544000CB03D3E90023FAF757FF054607910198EC
:10545000FBF7DFF80C9003912A46079B029900980E
:10546000FAF74AFF874A7A4402EBCB03D3E90023D9
:1054700093460193FAF740FF039B0C9AFAF73CFF1F
:10548000002788463846039B0C9AFAF7D6FF5A46FF
:10549000019BFAF7D2FF029B009AFAF7CEFF2A4649
:1054A000079BFAF7CDFF02460020069005986C4D49
:1054B000AAF10103184301D1734D069000200B4659
:1054C000049030462146FAF7BEFF82468B462346BB
:1054D00030461946049AFAF7B0FF3A464346FAF7BF
:1054E000B2FF52465B46FAF707FF06468A463A463F
:1054F000434621460498FAF7A6FF04460F46324673
:105500005346FAF7F9FE614A8B46914221DBABEB39
:10551000020353EA000210D122463B46FAF78DFF00
:10552000804603915A4A5B4B30465146FAF7E4FEF7
:105530004246039BFBF7D0F827D20220FEF722FC5D
:10554000FEF701FC0A46294614B062F31E01BDE8CD
:10555000F08D514B2BF000429A4216D34F4A0BEB81
:10556000020353EA000208D122463B46FAF765FFE0
:1055700032465346FBF7B0F807D80220FEF702FC8C
:10558000FEF7E8FB0A462946DEE72BF000404449D7
:10559000444A01EB20514FF00008824223DA481CB4
:1055A0004FF4801121FA00F058443F4AC0F30A51E9
:1055B0007A443E4BA1F2FF31CB4020EA0303C0F313
:1055C000130040F4801CC1F1140012682CFA00F89A
:1055D000BBF1000FB8BFC8F1000820463946FAF702
:1055E0002CFF04460F4622463B4630465146FAF70A
:1055F00083FE4FF0000B5A462D4B58460391FAF7A5
:1056000022FF00910A902B4A2B4B58460399FAF738
:105610001AFF0491029022463B4658460399FAF736
:105620000CFF32465346FAF70BFF244A244BFAF795
:105630000AFF049B029AFAF75FFE07468A46009B20
:105640000A9AFAF759FE04460E46009B0A9AFAF7A0
:10565000F4FE3A465346FAF7F3FE33E02A0600001A
:105660000000F03F300700009805000000000840EF
:1056700009C7EE3FFD033ADCF5015B14E02F3EBEA7
:1056800070040000360400000000F0BF00009040ED
:10569000FE822B654715973C00CC904000346F3F4D
:1056A00001FCFFFF0000E03F2C040000FFFF0F00A3
:1056B000432EE63F396CA80C615C20BEEF39FAFE40
:1056C000422EE63F0746224633460F9110461946C2
:1056D000FAF7B9FE834602462E488A460B46052154
:1056E0007844FEF751FA5A465346FAF7ACFE224682
:1056F0003346FAF7A5FE82468B463A4620463146A7
:105700000F9BFAF7A0FE3A460F9BFAF7F5FD0F46FE
:105710000A9000224FF0804350465946FAF78DFE1A
:105720000391009052465B4620463146FAF78BFEC5
:10573000039B009AFAF7F9FE3B460A9AFAF77DFEB8
:1057400022463346FAF779FE0022134BFAF778FE29
:105750000E46044601EB08510815002810DC4246AD
:1057600020463146FBF70CF9FDF7B8FF042808BFC7
:10577000FEF7F0FA424620463146FBF701F90446AF
:1057800006980B4614B022462946BDE8F04DFAF7BC
:105790005ABE00000C0200000000F03F00B5254B8F
:1057A00021F0004287B09A4203DC002213460092A7
:1057B0002BE0214B9A4208D140B94FF00100FEF78F
:1057C000E1FAFEF7BAFA07B000BD03DBFEF7B0FA64
:1057D00007B000BD02AAFDF795FF10F003014FF0DE
:1057E00001000DD0012914D002291AD00DF1080CA6
:1057F0009CE80F00FEF74AF907B081F0004100BDB8
:105800000DF1080C00909CE80F00FEF713FA07B0AA
:1058100000BD0DF1080C9CE80F00FEF737F907B04A
:1058200000BD0DF1080C00909CE80F00FEF702FA95
:10583000E2E70000FB21E93F0000F07F2DE9F041A5
:1058400006460F46FBF7DEF804000D4618BF0120A0
:10585000284320F00040C0F17F6000F1E040C00F1D
:105860000ED0301C18BF0120384320F00040C0F19A
:105870007F6000F1E040C00F04BF0120FEF782FA14
:1058800020462946BDE8F081FF010000000000002D
:10589000000000000000F03F000000000000F83FA2
:1058A00000000000000000000000004003B8E23FDC
:1058B000000000000000000006D0CF43EBFD4C3E8E
:1058C000033333333333E33FFFAB6FDBB66DDB3F83
:1058D0004D268F515555D53F01411DA96074D13FCB
:1058E00065DBC9934A86CD3FEF4E454A287ECA3FC5
:1058F0003E5555555555C53F93BDBE166CC166BF47
:105900002CDE25AF6A56113FF16BD2C541BDBBBE3F
:10591000D0A4BE726937663E4FBB610567ACDD3F00
:10592000182D4454FB21E93F9BF681D20B73EF3FC6
:10593000182D4454FB21F93FE2652F227F2B7A3C3E
:10594000075C143326A6813CBDCBF07A8807703CF7
:10595000075C143326A6913CC4EB98999999C9BF6A
:10596000711623FEC671BCBF6D9A74AFF2B0B3BF9F
:105970009AFDDE522DDEADBF2F6C6A2C44B4A2BF5F
:105980000D5555555555D53FFF8300922449C23FCB
:105990006E204CC5CD45B73F513DD0A0660DB13FFF
:1059A000EB0D76244B7BA93F11DA22E33AAD903F11
:1059B0004C5555555555A53F7751C1166CC156BF2D
:1059C0009015CB19A001FA3EAD529C804F7E92BE3D
:1059D000C4B1B4BD9EEE213ED43888BEE9FAA8BD5C
:1059E000000000000000000000004054FB21F93FCF
:1059F0003163621A61B4D03D0000601A61B4D03DD9
:105A00007370032E8A19A33B0000002E8A19A33B52
:105A1000C14920259A837B39000000000000000066
:105A20006E83F9A22915444ED15727FCC0DD34F509
:105A3000999562DB4190433CAB6351FE61C5BBDE8F
:105A40003A6E24B7E0D24D42EA2E49061C92D109A3
:105A50001CEB1DFE3EA729B1F53582E88444BB2E20
:105A600026709CE9417E5FB439D69139F43953836D
:105A70008B5F849C3B28F9BDFF97F81F0F9805DECC
:105A80008B112FEF1F6D0A5ACF7E366DB709CB27CA
:105A9000663F464F2DEA5F9EC7BA27757BF1E5EB5F
:105AA000F739073DEA92528AB15FFB6B085D8D1FA3
:105AB000A6F810111111813FD561C119A0012ABFAB
:105AC0007DFEB157E31DC73EEB9C2B8AE6E55ABE2F
:105AD0007CD5CF5A3AD9E53DF85A0008000000209D
