:020000040800F2
:10000000C0170020450100087D2B00089F13000841
:10001000212100084D10000853380008000000009E
:10002000000000000000000000000000F93000089F
:100030003D120008000000007D3000082933000850
:100040005F0100085F0100085F0100085F01000810
:100050005F0100085F0100085F0100085F01000800
:100060005F0100085F0100085F0100085F010008F0
:100070005F0100085F0100085F0100085F010008E0
:100080005F0100085F010008010A00085F01000825
:100090005F0100085F0100085F0100085F010008C0
:1000A0005F0100085F0100085F0100085F010008B0
:1000B0005F0100085F0100085F0100085F010008A0
:1000C0005F0100085F0100085F0100085F01000890
:1000D0005F010008B13700085F0100085F010008F8
:1000E0005F0100085F0100085F0100085F01000870
:1000F0005F0100085F0100085F0100085F01000860
:100100005F0100085F0100085F0100085F0100084F
:100110005F0100085F0100085F0100085F0100083F
:100120005F0100085F0100085F0100085F0100082F
:10013000DFF80CD000F008FC0048004791420008AE
:10014000C01700200648804706480047FEE7FEE744
:10015000FEE7FEE7FEE7FEE7FEE7FEE7FEE7FEE777
:100160003133000831010008F0B480EA0102D40FF5
:100170004200B2EB410F02D20246084611464A0045
:1001800042D0C30DDDB2C1F3C752AD1A202D35DA0E
:10019000C1F3160141F4000204B15242C5F1200638
:1001A00002FA06F12A411044B3EBD05F23D0C4B168
:1001B000012DA0EBC35009DCF0BC4FF0004202EA75
:1001C000C352DBB200F5000000F01CBB400000F1A0
:1001D000807000EBC350A0F1807040EAD1704900FC
:1001E00009E0490841EAC071A0EBC35000F50000E6
:1001F000400800EBC350F0BC00F0FBBA61420122A2
:1002000002EB4101001BF6E7F0BC704781F00041B2
:10021000AAE780F00040A7E780EA010210B502F0EB
:100220000043400022D04A001FD0010E01EB1261B2
:10023000C0F35600C2F3560240F4000042F400023C
:10024000A0FB022000047F39140400D0401C50EAB7
:10025000124001D44000491EC2B20C0604EBD0107B
:10026000401C4008802A02D003E0002010BD20F08E
:100270000100002900DA0020184310BD30B480EAE4
:10028000010202F0004530F0004221F0004013D09E
:1002900090B1C30DD40DC2F31601C0F31600E41AD9
:1002A00041F4000140F400027D34914201D3641C0A
:1002B00000E04900002C02DA30BC002070474FF407
:1002C00000000023914201D3891A034340084FEAFA
:1002D0004101F7D151B1914202D14FF0004105E007
:1002E00002D24FF0010101E06FF0010103EBC450B5
:1002F000284430BC00F07DBA2DE9FE4F804681EAEB
:100300000300C00F0C46009021F0004123F000458F
:10031000B8EB0200A94105D24046214690461C4652
:100320000B46024623F00040104347D0270DC7F389
:100330000A00C3F30A510290401A019040286BDA78
:10034000C3F3130040F4801B0098924620B10023B1
:10035000D2EB030A63EB0B0B01985946C0F1400244
:10036000504600F015FA06460D4650465946019A89
:1003700000F02DFA10EB08006141002487EA1152C9
:1003800084EAE7731A4340D0009A62B3019A012AC3
:100390004FEA075215DC001B61EB02014FF00042EF
:1003A00002EA0752CDE90042001C41F580113246B5
:1003B0002B4600F064FA03B0BDE8F08F40462146BA
:1003C000F9E7001B61EB0201001C41F580130018E6
:1003D0005B412018A2F5001747EB030140EAD570F6
:1003E000B6196D4111E06D084FEA360645EAC07551
:1003F0004FEA0752001B61EB0201001C41F580111E
:1004000049084FEA30000019514132462B4603B0EB
:10041000BDE8F04F00F024BA00980122400000230C
:10042000D0EB020263EBE073009821464FEAE074E0
:10043000B8EB000061EB0401E9E783F000435BE700
:1004400081F0004158E72DE9FE4F81EA030404F0F2
:10045000004421F0004100944FF0000B23F00043D2
:1004600050EA01045ED052EA03045BD0C3F30A549D
:10047000C1F30A552C44A4F2F3340194A0FB0254B6
:10048000C1F3130141F48011C3F3130343F4801348
:1004900001FB024400FB034E840A970A44EA81549C
:1004A00047EA8357A4FB076802958D0A05FB078579
:1004B0004FEA932C04FB0C542705029D4FEA065883
:1004C00047EA1637B5EB08056EEB070C870E920E60
:1004D00047EA811742EA8312A7FB0201B6EB0B0140
:1004E00064EB00042B0D43EA0C335E1844EB1C5004
:1004F000DA465146E7FB0201C5F313044FEA0B331A
:1005000043EA14534FEA0432019C43EA0603A4F180
:100510000C040294009CCDE900B400F0B0F903B0E3
:10052000BDE8F08F00200146F9E72DE9F04D81EAA2
:10053000030404F0004B21F0004514464FF0000A7C
:1005400023F0004150EA050220D054EA01021DD0F8
:10055000C5F30A570246C5F31303C1F31300C1F3F1
:100560000A5640F4801543F48013A7EB0608101BCD
:10057000D64608F2FD3873EB050002D308F10108F6
:1005800001E092185B41B8F1000F03DA0020014648
:10059000BDE8F08D00204FF48011064684460EE041
:1005A000171B73EB050705D3121B63EB050306430B
:1005B0004CEA010C49084FEA300092185B4150EABE
:1005C0000107EDD152EA030012D082EA040083EA67
:1005D0000501084305D0101BAB4106D201220023C0
:1005E00006E000224FF0004302E06FF001025310DA
:1005F0001AEB06004CEB085110EB0A0041EB0B0123
:10060000BDE8F04D00F02CB996230022114600F011
:10061000F9B80EB5C10F80EAE0700844CA0700219E
:1006200040F233438DE80E000A460B4600F027F9EE
:1006300003B000BD0EB540F2334102910021CDE977
:1006400000110A460B4600F01AF903B000BD20F075
:100650000040C10DC0F3160040F400007F2901DA0C
:1006600000207047962903DCC1F19601C84070470D
:10067000963988407047C1F30A5210B5C1F313018F
:1006800040F2FF3341F480119A4201DA002010BD9C
:1006900040F233439A42A2F2334203DC524200F06A
:1006A00086F810BD904010BD00F0004230F00040D0
:1006B0000AD0C10D01F56071C0F3160042EA015184
:1006C000C2084007114370470020014670470000F0
:1006D00030B5041E71F1000404DB4FF000444042C9
:1006E00064EB0101141E73F1000405DB1C464FF09E
:1006F0000043524263EB04038B4208BF824230BD89
:1007000030B5041E71F1000404DB4FF00044404298
:1007100064EB0101141E73F1000405DB1C464FF06D
:100720000043524263EB0403994208BF904230BD3C
:1007300001F0004330B421F0004150EA010206D03C
:100740000A0DA2F56072C1F31301002A02DC30BC6D
:1007500000207047440F44EAC104C100E01830BCD7
:1007600000EBC25000F045B8002801DBC0F10040AA
:10077000002901DBC1F1004181427047002801DB03
:10078000C0F10040002901DBC1F1004188427047FF
:10079000202A04DB203A00FA02F100207047914041
:1007A000C2F1200320FA03F3194390407047202A36
:1007B00004DB203A21FA02F00021704721FA02F30B
:1007C000D040C2F120029140084319467047202AC8
:1007D00006DBCB17203A41FA02F043EAE07306E069
:1007E00041FA02F3D040C2F1200291400843194679
:1007F00070470029A8BF7047401C490008BF20F07F
:100800000100704710B4B0FA80FC00FA0CF050EA16
:10081000010404BF10BC704749B1CCF1200421FA97
:1008200004F411FA0CF118BF012121430843A3EB92
:100830000C01CB1D4FEA00614FEA102042BF00209F
:1008400010BC704700EBC35010440029A4BF10BC7B
:100850007047401C490008BF20F0010010BC7047E1
:1008600010B5141E73F1000408DA401C41F10001B8
:1008700092185B411A4301D120F0010010BD2DE90F
:10088000F04D92469B4611B1B1FA81F202E0B0FA06
:1008900080F220329046FFF77BFF04460F4640EA85
:1008A0000A0041EA0B0153465A46084313D0114649
:1008B00053EA010019D0C8F140025046FFF777FF14
:1008C00005460E46504659464246FFF761FF08432B
:1008D00005D0012004E020463946BDE8F08D002017
:1008E000054346EAE0762C4337430A986305E40A59
:1008F000A0EB08000022FD0A44EA47540A3002D562
:1009000000200146E9E7010510196941DDE90845C4
:1009100000196941BDE8F04DA2E770B521F0004330
:1009200003430CD0C1F30A550024D5EB040564EB56
:100930000403D617AD1AB34102DB0020014670BD97
:10094000201841EB025170BD064C074D06E0E068EF
:1009500040F0010394E8070098471034AC42F6D306
:10096000FFF7EAFB504A0008704A000870B5C1F36F
:100970000A5201F000450024C1F3130140F2FF3395
:1009800041F480119A4201DA002070BD40F23343F5
:100990009A42A2F2334203DC5242FFF708FF00E022
:1009A00090402C43F1D0404270BD70B58C1810F8C7
:1009B000015B15F0070301D110F8013B2A1106D1A4
:1009C00010F8012B03E010F8016B01F8016B5B1EBE
:1009D000F9D12B0705D40023521E0DD401F8013B99
:1009E000FAE710F8013BCB1A921C03E013F8015B05
:1009F00001F8015B521EF9D5A142D8D3002070BD89
:100A000010B5034800F028F80249088010BD000026
:100A1000002801407C01002021B1826842F00102DF
:100A2000826003E0826822F001028260704721B197
:100A3000826842F48072826003E0826822F48072ED
:100A400082607047014600208A6802F004020AB101
:100A5000012000E0002070470146C86C80B270475A
:100A6000014600208A6802F008020AB1012000E075
:100A70000020704710B50023CBB21AB144681C4364
:100A8000446002E044689C43446010BD30B50246B7
:100A90000020002350680F4C20400D790C6844EA78
:100AA00005242043506090680B4C2040D1E902544B
:100AB0002C434D7944EA450420439060D06A20F4E9
:100AC00070000C7C641EE4B2234340EA0350D06201
:100AD00030BD0000FFFEF0FFFDF7F1FFF0B504466A
:100AE0000D4600200021092D11DDE068A5F10A0660
:100AF00006EB4607072606FA07F18843A5F10A0622
:100B000006EB460603FA06F10843E0600CE02069B4
:100B100005EB4507072606FA07F1884305EB45066E
:100B200003FA06F108432061072A0FDA606B561EAC
:100B300006EB86071F2606FA07F18843561E06EBCA
:100B4000860605FA06F10843606322E00D2A0FDAF3
:100B5000206BD61F06EB86071F2606FA07F188438F
:100B6000D61F06EB860605FA06F10843206310E05F
:100B7000E06AA2F10D0606EB86071F2606FA07F1CA
:100B80008843A2F10D0606EB860605FA06F1084336
:100B9000E062F0BD816841F008018160704721B1D9
:100BA000826842F4A002826003E0826822F4A0021C
:100BB00082607047816841F00401816070470000E5
:100BC0002DE9F34F8BB000F0AFF800F01BF94C4863
:100BD0000C990068FFF720FB83464A480168584695
:100BE000FFF7C2FA81464FF07E510B98FFF711FBD9
:100BF00082464946FFF710FB8046FFF755FD044645
:100C00000D4641480068FFF74FFDCDE900013F4820
:100C10000068FFF749FD8246DDE9002303F078FA1A
:100C2000CDE904010B98FFF73FFDCDE90201DDE9B5
:100C30000423FFF708FC0022354BCDE90601FFF73E
:100C400002FC8046334A344BFFF76FFC06462246CF
:100C50002B46FFF751FBCDE90801FFF769FD294954
:100C600008602E480C990068FFF7D6FA07462C4812
:100C700001683846FFF778FA05464FF07E510B9829
:100C8000FFF7C7FA06462946FFF7C6FA0446FFF7FC
:100C90000BFD82468B461C480068FFF705FD0446A5
:100CA0000D4620480068FFF7FFFC064622462B460B
:100CB00003F02EFACDE902010B98FFF7F5FCCDE920
:100CC0000001DDE90223FFF7BEFB0022104BCDE956
:100CD0000401FFF7B8FB80460E4A0F4BFFF725FCD7
:100CE00052465B46CDE90601FFF706FBCDE9080158
:100CF000FFF71EFD0A4908600DB0BDE8F08F000047
:100D0000600100206C0100205801002054010020E7
:100D100000806640182D4454FB21094064010020E6
:100D200070010020500100202DE9FC4106236A4695
:100D30003B21692000F050FB10B10120BDE8FC818F
:100D40009DF801009DF8001040EA012000B2214901
:100D500008809DF803009DF8021040EA012000B2CF
:100D60001C4948809DF805009DF8041040EA0120C8
:100D700000B218498880B1F90000FFF74AFC064626
:100D80000022154BFFF7D1FB0446FFF7D1FC1349B6
:100D900008601049B1F90200FFF73BFC064600224B
:100DA0000D4BFFF7C2FB0446FFF7C2FC0C4908607D
:100DB0000849B1F90400FFF72CFC06460022064B57
:100DC000FFF7B3FB0446FFF7B3FC064908600020B9
:100DD000B4E70000400100200000D0405001002096
:100DE000540100205801002010B50123044A752148
:100DF000692000F0F1FA08B1012010BD0020FCE7E5
:100E00004E0100202DE9FC4106236A46432169205A
:100E100000F0E2FA10B10120BDE8FC819DF801006C
:100E20009DF8001040EA012000B2214908809DF899
:100E300003009DF8021040EA012000B21C494880DE
:100E40009DF805009DF8041040EA012000B2184901
:100E50008880B1F90000FFF7DCFB0646154A164B07
:100E6000FFF763FB0446FFF763FC14490860104971
:100E7000B1F90200FFF7CDFB06460E4A0E4BFFF715
:100E800054FB0446FFF754FC0D4908600849B1F9CA
:100E90000400FFF7BEFB0646064A074BFFF745FB7B
:100EA0000446FFF745FC074908600020B4E700004E
:100EB00048010020FCA9F1D24D62304060010020C1
:100EC0006401002068010020F8B504460D460020AA
:100ED00000F068FA42F2107000F0B2F9FFF784FFF8
:100EE00008B10120F8BD2A480078682801D0022006
:100EF000F8E78020009001236A466B21692000F00A
:100F0000CDFB08B10320EDE742F2107000F098F934
:100F10000020009001236A466B21692000F0BEFB8F
:100F200008B10420DEE70120009001236A466B210E
:100F3000692000F0B3FB08B10A20D3E71820009025
:100F400001236A461B21692000F0A8FB08B10B2091
:100F5000C8E70020009001236A461C21692000F0A8
:100F60009DFB08B10C20BDE72946204600F03FF864
:100F700008B10D20B6E704EBD471C1F34F00294648
:100F800000F008F808B10E20ACE70020AAE7000046
:100F90004E01002038B504460D46DDB1BC2C02DD03
:100FA0000120009018E0622C02DD0220009013E086
:100FB0002A2C02DD032000900EE0142C02DD042018
:100FC000009009E00A2C02DD0520009004E00620D4
:100FD000009001E00020009001236A461A21692058
:100FE00000F05CFB08B1012038BD0020FCE7F8B53B
:100FF00004460E466EB14FF47A75B4F57A7F01DD82
:10100000284604E0042C01DA042000E020460446CF
:101010000CE04FF4FA55B4F5FA5F01DD284604E020
:10102000202C01DA202000E02046044695FBF4F055
:10103000401EC0B2009001236A461921692000F0C9
:101040002DFB08B10120F8BD0020FCE700BFFEE742
:1010500008B50121102002F03FF810208DF80300A0
:1010600003208DF802000820ADF80000694604480E
:1010700000F0F8F80821024800F088F908BD0000E7
:10108000001001400448006820B103480068401E79
:1010900001490860704700001400002021B1026877
:1010A00042F00102026004E002684FF6FE731A404B
:1010B0000260704701684FF6FE7211400160002126
:1010C000016041608160C1604B49884208D14A4952
:1010D0000839496841F00F01474A083A51608AE0EF
:1010E00045491431884208D143490839496841F0DB
:1010F000F001414A083A51607DE03F492831884279
:1011000008D13D490839496841F470613A4A083AC2
:10111000516070E038493C31884208D1364908397D
:10112000496841F47041344A083A516063E03249F9
:101130005031884208D130490839496841F470215A
:101140002D4A083A516056E02B496431884208D153
:1011500029490839496841F47001274A083A516021
:1011600049E025497831884208D12349083949683E
:1011700041F07061204A083A51603CE01F498842C2
:1011800006D1011F096841F00F01021F116032E012
:101190001A491431884208D11849091F096841F0D9
:1011A000F001164A121F116025E0144928318842C7
:1011B00008D11249091F096841F470610F4A121FD2
:1011C000116018E00D493C31884208D10B49091FD4
:1011D000096841F47041094A121F11600BE0074988
:1011E0005031884207D10549091F096841F470212F
:1011F000024A121F116070470800024008040240B2
:1012000010B50022026847F6F0739A430C6A8B68A7
:1012100023430C6923434C6923438C692343CC69E2
:1012200023434C6A23438C6A23431A430260CB68EE
:1012300043600B6883604B68C36010BD704700005B
:10124000074908604FF0E021096941F001014FF0C2
:10125000E022116100BF024909680029FBD17047F3
:10126000140000202DE9F041024600250026002050
:1012700000230024002791F803C00CF00F0591F81B
:1012800003C00CF0100CBCF1000F03D091F802C0A9
:101290004CEA050591F800C0BCF1000F31D014688C
:1012A00000202BE04FF0010C0CFA00F3B1F800C065
:1012B0000CEA03069E4220D183004FF00F0C0CFA7B
:1012C00003F7BC4305FA03FC4CEA040491F803C09D
:1012D000BCF1280F06D14FF0010C0CFA00FCC2F84B
:1012E00014C00AE091F803C0BCF1480F05D14FF0DB
:1012F000010C0CFA00FCC2F810C0401C0828D1D325
:101300001460B1F800C0BCF1FF0F34DD5468002058
:101310002EE000F1080C4FF0010808FA0CF3B1F8C8
:1013200000C00CEA03069E4221D183004FF00F0C4F
:101330000CFA03F7BC4305FA03FC4CEA040491F8E9
:1013400003C0BCF1280F05D100F1080C08FA0CF815
:10135000C2F8148091F803C0BCF1480F07D100F126
:10136000080C4FF0010808FA0CF8C2F81080401C75
:101370000828CED35460BDE8F0810246002093686F
:101380000B400BB1012000E0002070474161704725
:10139000016170470AB1016100E04161704700BF1F
:1013A000FEE7000010B504460121082001F094FE7C
:1013B000C020074908801420C870032088700548A1
:1013C000FFF750FFC0210348FFF7E2FF10BD000008
:1013D0001C000020000C01402DE9F04105460F469D
:1013E00090461E4600F0DCF8002141EA4501C8B2F3
:1013F00000F0A8F800F010F9012804D100F0EEF890
:101400000120BDE8F081384600F09CF800F004F9B6
:10141000012803D100F0E2F80120F2E700F0C0F863
:10142000012101EB4501C8B200F08CF800F0F4F89E
:10143000012803D100F0D2F80120E2E700240FE0F8
:1014400000F014F808F80400701EA04203D1012037
:1014500000F056F802E0002000F052F8601CC4B220
:10146000B442EDDB00F0BAF80020CAE770B5002402
:1014700080212148FFF78CFF0320FFF7E1FE802049
:101480001E4908800420C8701B48FFF7EBFE0320AC
:10149000FFF7D6FE002518E06006040E402116482E
:1014A000FFF774FF0320FFF7CBFE40211248FFF740
:1014B0006FFF0320FFF7C4FE80210F48FFF75DFF99
:1014C00000F001000443681CC5B2082DE4DB402194
:1014D0000948FFF75BFF0320FFF7B2FE80200749B2
:1014E00008801420C8700448FFF7BCFE0320FFF7F3
:1014F000A7FE204670BD0000000C01401C0000202B
:1015000010B5044640210E48FFF740FF0320FFF7C7
:1015100097FE224680210A48FFF73CFF0320FFF791
:101520008FFE40210648FFF733FF0320FFF788FEB8
:1015300040210348FFF72AFF0320FFF781FE10BD7B
:10154000000C014070B5054600241CE04021134802
:10155000FFF71CFF0320FFF773FEC4F1070045FAF5
:1015600000F000F0010280210C48FFF713FF032078
:10157000FFF766FE40210948FFF70AFF0320FFF747
:101580005FFE601CC4B2082CE0DB40210348FFF77B
:10159000FDFE0320FFF754FE70BD0000000C01406B
:1015A00010B580210C48FFF7F3FE40210A48FFF7F1
:1015B000EFFE0320FFF744FE80210748FFF7E6FE19
:1015C0000320FFF73DFE40210348FFF7DFFE032025
:1015D000FFF736FE10BD0000000C014010B54021A1
:1015E0000C48FFF7D3FE80210A48FFF7CFFE032007
:1015F000FFF726FE40210748FFF7CAFE0320FFF74A
:101600001FFE80210348FFF7C3FE0320FFF718FEEB
:1016100010BD0000000C014010B540211D48FFF72F
:10162000B5FE0320FFF70CFE80211A48FFF7B0FE3D
:101630000320FFF705FE40211648FFF7A9FE03200F
:10164000FFF7FEFD8020144908800420C87011486F
:10165000FFF708FE0320FFF7F3FD80210D48FFF799
:101660008CFE00F001040320FFF7EAFD80200A4908
:1016700008801420C8700748FFF7F4FD0320FFF727
:10168000DFFD40210348FFF781FE0320FFF7D8FD6F
:10169000204610BD000C01401C0000202DE9F04147
:1016A00005460E4617469846FFF77AFF002141EAA5
:1016B0004501C8B2FFF746FFFFF7AEFF012804D18E
:1016C000FFF78CFF0120BDE8F0813046FFF73AFFBD
:1016D000FFF7A2FF012803D1FFF780FF0120F2E707
:1016E00000240CE0385DFFF72DFFFFF795FF012880
:1016F00003D1FFF773FF0120E5E7601CC4B2444546
:10170000F0DBFFF76BFF0020DDE7000010B50446BB
:101710000121082001F0E0FC4FF4406007490880F7
:101720001420C870032088700548FFF79BFD4FF414
:1017300040610348FFF72CFE10BD00007801002037
:10174000000C01402DE9F04105460F4690461E462B
:1017500000F0EAF8002141EA4501C8B200F0B2F811
:1017600000F026F9012804D100F000F90120BDE8BD
:10177000F081384600F0A6F800F01AF9012803D1EC
:1017800000F0F4F80120F2E700F0CEF8012101EBBF
:101790004501C8B200F096F800F00AF9012803D11B
:1017A00000F0E4F80120E2E700240FE000F014F874
:1017B00008F80400701EA04203D1012000F05CF87C
:1017C00002E0002000F058F8601CC4B2B442EDDB27
:1017D00000F0CCF80020CAE770B500244FF4006197
:1017E0002348FFF7D5FD0320FFF72AFD4FF40060E3
:1017F000204908800420C8701D48FFF733FD0320EE
:10180000FFF71EFD00251BE06006040E4FF480610B
:101810001748FFF7BBFD0320FFF712FD4FF480616F
:101820001348FFF7B5FD0320FFF70AFD4FF40061F1
:101830000F48FFF7A2FD00F001000443681CC5B289
:10184000082DE1DB4FF480610948FFF79FFD03207D
:10185000FFF7F6FC4FF40060064908801420C870BA
:101860000348FFF7FFFC0320FFF7EAFC204670BDAA
:10187000000C01407801002010B504464FF480614F
:101880000F48FFF783FD0320FFF7DAFC22464FF4F1
:1018900000610B48FFF77EFD0320FFF7D1FC4FF4FA
:1018A00080610748FFF774FD0320FFF7C9FC4FF480
:1018B00080610348FFF76AFD0320FFF7C1FC10BDFC
:1018C000000C014070B5054600241FE04FF4806114
:1018D0001448FFF75BFD0320FFF7B2FCC4F10700DB
:1018E00045FA00F000F001024FF400610D48FFF7E7
:1018F00051FD0320FFF7A4FC4FF480610948FFF776
:1019000047FD0320FFF79CFC601CC4B2082CDDDB04
:101910004FF480610348FFF739FD0320FFF790FC87
:1019200070BD0000000C014010B54FF400610E487E
:10193000FFF72EFD4FF480610B48FFF729FD0320D0
:10194000FFF77EFC4FF400610748FFF71FFD0320FF
:10195000FFF776FC4FF480610348FFF717FD032083
:10196000FFF76EFC10BD0000000C014010B54FF4F5
:1019700080610E48FFF70AFD4FF400610B48FFF746
:1019800005FD0320FFF75CFC4FF480610748FFF77B
:10199000FFFC0320FFF754FC4FF400610348FFF7FE
:1019A000F7FC0320FFF74CFC10BD0000000C0140C9
:1019B00010B54FF480612148FFF7E8FC0320FFF7E2
:1019C0003FFC4FF400611D48FFF7E2FC0320FFF7E6
:1019D00037FC4FF480611948FFF7DAFC0320FFF76A
:1019E0002FFC4FF40060164908800420C87013488B
:1019F000FFF738FC0320FFF723FC4FF400610F488A
:101A0000FFF7BBFC00F001040320FFF719FC4FF4C3
:101A100000600B4908801420C8700848FFF722FCBA
:101A20000320FFF70DFC4FF480610448FFF7AEFC84
:101A30000320FFF705FC204610BD0000000C01400C
:101A4000780100202DE9F04105460E4617469846DC
:101A5000FFF76AFF002141EA4501C8B2FFF732FFF4
:101A6000FFF7A6FF012804D1FFF780FF0120BDE8A2
:101A7000F0813046FFF726FFFFF79AFF012803D1D8
:101A8000FFF774FF0120F2E700240CE0385DFFF758
:101A900019FFFFF78DFF012803D1FFF767FF012032
:101AA000E5E7601CC4B24445F0DBFFF75FFF0020B0
:101AB000DDE7000000B591B00121084601F0ECFA25
:101AC0000121480201F008FB3748FFF7F3FA3748D5
:101AD000069037480790002008904FF480700C90D3
:101AE00080000D900220099000200A9080200B9029
:101AF00020200E9000020F900020109006A92A4886
:101B0000FFF77EFB01212848FFF7C8FA002001906B
:101B100001208DF808008DF809004FF46020039033
:101B20000020049002208DF8140001A91F484C38B1
:101B3000FEF7ACFF4FF4404001F0A2FA052301226A
:101B40000A211A484C38FEF7C9FF052302220B214F
:101B500016484C38FEF7C2FF012114484C38FEF7F6
:101B600066FF012111484C38FEF756FF0F484C38EC
:101B7000FFF710F800BF0D484C38FEF771FF002842
:101B8000F9D10A484C38FFF715F800BF07484C3820
:101B9000FEF758FF0028F9D1012104484C38FEF720
:101BA000FEFF11B000BD0000080002404C240140BF
:101BB0008401002008B50121102001F08DFA0320D6
:101BC0008DF8020000208DF803000320ADF800001E
:101BD00069460748FFF746FB28208DF803000420DC
:101BE000ADF8000069460248FFF73CFB08BD000065
:101BF0000010014010B50E480E49086000210D4844
:101C00000068FEF709FB04460B49FEF702FB0B498F
:101C100008600B480B49086000210A480068FEF77D
:101C2000FBFA04460849FEF7F4FA0849086010BDBB
:101C30000000703C880100200000F0C190010020ED
:101C40000000C83C8C010020000048C29401002024
:101C50002DE9F047044621490888FEF7D5FC804667
:101C60004FF07E512046FEF7D4FA81464146FEF7FA
:101C7000D3FA06461A480088FEF7C6FC804621467D
:101C8000FEF7CAFA07463146FEF76EFA0546FEF73A
:101C9000DEFC1349088011494888FEF7B5FC8046F0
:101CA0004FF07E512046FEF7B4FA81464146FEF7DA
:101CB000B3FA06460B480088FEF7A6FC804621468C
:101CC000FEF7AAFA07463146FEF74EFA0546FEF73A
:101CD000BEFC04490880BDE8F087000084010020B4
:101CE000980100209A0100202DE9F04704460D4696
:101CF000244800881338B0F5805F02DD4FF480502F
:101D000009E0204800881338002801D5002002E0AF
:101D10001C480088133886B21B4800880F30B0F585
:101D2000805F02DD4FF4805009E0174800880F30D3
:101D3000002801D5002002E0134800880F3087B248
:101D40003046FEF761FC8146104801684846FEF7C0
:101D500063FA80460E4801684046FEF705FA2060A7
:101D60003846FEF751FC81460A4801684846FEF7AE
:101D700053FA8046084801684046FEF7F5F92860A6
:101D8000BDE8F087980100209A010020880100201A
:101D9000900100208C0100209401002010B5FFF775
:101DA00009FFFFF787FEFFF725FF10BD10B51A48A2
:101DB00000780A280EDA04211848FFF7DEFA28B95D
:101DC00015480078401C1449087020E00020124992
:101DD00008701CE01048007814280FDA04210F481E
:101DE000FFF7CBFA012805D10B480078401C0A49BF
:101DF00008700CE00A200849087008E00020064935
:101E000008700748008880F00100054908800448F0
:101E1000008800F0010010BD9E010020001001406C
:101E20009C01002008B50121082001F055F94FF46C
:101E30004050ADF8000010208DF8030003208DF80D
:101E4000020069460448FFF70DFA4FF4405102487A
:101E5000FFF79EFA08BD0000000C014000B587B0F6
:101E60000121880201F038F9002002908DF80C0061
:101E700001208DF80D004FF46020049000200590A3
:101E800001208DF8180002A92048FEF7FFFD4FF44D
:101E9000404001F0F5F80523012219461B48FEF7E2
:101EA0001DFE01224FF408711848FEF7E3FD0121E1
:101EB0001648FEF7B1FD1548FEF76CFE00BF13484B
:101EC000FEF7CEFD0028FAD11048FEF773FE00BFE2
:101ED0000E48FEF7B7FD0028FAD101210B48FEF7A6
:101EE0005EFE4FF4E06000F083FE12208DF80400E7
:101EF00000208DF8050004208DF8060001208DF8E3
:101F0000070001A800F03CFE07B000BD002801401A
:101F100008B50121042001F0DFF800208DF803004E
:101F200003208DF802002020ADF800006946024829
:101F3000FFF798F908BD0000000801402DE9F14FB6
:101F400084B0224922480068FEF70EFC0ED22148D8
:101F50000088FEF76FFB06461F4A204BFEF773FA18
:101F60000446FEF7E5FB1A4908602CE01948008892
:101F7000FEF760FB8046184A184BFEF764FACDE97D
:101F800002014FF07E510498FEF743F98046FEF7B8
:101F90008BFBCDE90001DDE90223FEF754FA04468C
:101FA0000D460B4801680498FEF736F98046FEF7A7
:101FB0007BFB064622462B46FEF79EF98246FEF73D
:101FC000B7FB0349086005B0BDE8F08F6F12833A94
:101FD000800100207C010020CDCCCCCCCC4C793FC2
:101FE00010B5FFF795FFFFF739FF10BD2DE9F04160
:101FF000064600240025002743484449098840F844
:1020000021604348007870BB4048048817E0621E96
:102010003D4B53F822101A4652F82400FEF7A4FB59
:102020000BD2394850F82470601E374951F820000F
:1020300041F82400601E41F82070601E84B2002C1C
:10204000E5DC3249088800EBD07149102E4A52F87D
:102050002110304A11602D4800881E2846D10120E9
:102060002B49087042E0FFE7002407E0264850F8BB
:102070002400294941F82400601C84B21F2CF5DBA0
:1020800000241BE0601C85B214E0234A52F825109E
:1020900052F82400FEF772FB0AD21F4850F8247051
:1020A00050F825001C4941F82400084640F82570E6
:1020B000681C85B21F2DE8DB601C84B21E2CE1DB9E
:1020C00007240AE0144850F8241012480068FEF76C
:1020D0004BF810490860601C84B2172CF2DB0F49E2
:1020E0000C480068FEF7CAF80A49086007480088EB
:1020F000401C1F2190FBF1F201FB120003490880F4
:1021000004480068BDE8F081C81200202E010020BC
:102110002C010020300100204413002000007841F1
:1021200000BFFEE770B505460C46002C63D0324870
:102130000088844215D03C2C09DA3C2090FBF4F056
:10214000401E2E49088001202D49088007E000200C
:102150002A4908803C2094FBF0F029490880264851
:1021600004802848008825490988884205DA2548DE
:102170000088401C234908803DE000202149088058
:1021800000F048F820480088204909880844204980
:1021900049571B4A128801FB02001C49098890FB21
:1021A000F1F201FB120018490880084640881749DF
:1021B0000988084416494957114A128801FB020050
:1021C0001249098890FBF1F201FB12000E49488088
:1021D000084680880D49098801440D484057084A3F
:1021E000128800FB02100949098890FBF1F201FBFB
:1021F00012000549888070BD720000207400002024
:102200007800002076000020600000205C000020A4
:102210008C48000810B50C4800880C4A32F81010A1
:102220000B4801F070FA08484088084A32F810104C
:10223000074801F066FA04488088044A32F8101012
:10224000034801F05CFA10BD60000020A4010020EA
:102250000004004010B500220421074801F0D6F820
:1022600000220821044801F0D1F800220C21024884
:1022700001F0CCF810BD00000004004070B5054628
:102280000C46002C63D032480088844215D03C2C88
:1022900009DA3C2090FBF4F0401E2E490880012012
:1022A0002D49088007E000202A4908803C2094FB43
:1022B000F0F02949088026480480284800882549EC
:1022C0000988884205DA25480088401C234908808F
:1022D0003DE000202149088000F048F820480088AF
:1022E000204909880844204949571B4A128801FBA4
:1022F00002001C49098890FBF1F201FB1200184909
:1023000008800846408817490988084416494957F3
:10231000114A128801FB02001249098890FBF1F270
:1023200001FB12000E494880084680880D49098843
:1023300001440D484057084A128800FB0210094921
:10234000098890FBF1F201FB12000549888070BDFD
:102350007A0000207C000020800000207E00002009
:10236000660000205C0000208C48000810B50D4875
:1023700000880D4A32F810100C4801F0BEF90948E7
:102380004088094A32F810104FF0804001F0BBF944
:1023900004488088044A32F810104FF0804001F061
:1023A000B0F910BD66000020A40100200004004028
:1023B00010B500220821C80601F028F800220C21DF
:1023C0004FF0804001F022F800221146014801F050
:1023D0001DF810BD0004004070B505460C46002CE9
:1023E00063D032480088844215D03C2C09DA3C2066
:1023F00090FBF4F0401E2E49088001202D490880F2
:1024000007E000202A4908803C2094FBF0F029498D
:102410000880264804802848008825490988884281
:1024200005DA25480088401C234908803DE000204B
:102430002149088000F048F8204800882049098890
:102440000844204949571B4A128801FB02001C49D5
:10245000098890FBF1F201FB120018490880084638
:10246000408817490988084416494957114A128873
:1024700001FB02001249098890FBF1F201FB1200F6
:102480000E494880084680880D49098801440D4856
:102490004057084A128800FB02100949098890FB3E
:1024A000F1F201FB12000549888070BD8200002016
:1024B0008400002088000020860000206C0000209E
:1024C0005C0000208C48000810B50D4800880D4ABB
:1024D00032F810100C4801F016F909484088094AF2
:1024E00032F810104FF0804001F009F9044880885C
:1024F000044A32F81010044801F003F910BD00003E
:102500006C000020A40100200008004010B500224B
:102510000821074800F07AFF00220421080700F094
:1025200075FF00220C21024800F070FF10BD000072
:102530000008004000B589B001210C2000F0CCFD5E
:102540000121072000F0B8FD18208DF8230003209A
:102550008DF822008020ADF8200008A95548FEF72C
:1025600081FE0320ADF8200008A95348FEF77AFE4B
:102570004C20ADF8200008A94E48FEF773FE02205B
:10258000ADF8200008A94B48FEF76CFE4FF44070F0
:10259000ADF8200008A94848FEF764FE4720ADF8D2
:1025A00014003120ADF818000020ADF81600ADF889
:1025B0001A008DF81C0005A9404801F0A7F805A9EC
:1025C0004FF0804001F0A2F805A93D4801F09EF8C7
:1025D0006020ADF804000120ADF806000020ADF841
:1025E0000C00ADF81000ADF80A0001A9334800F066
:1025F0007FFF0821314800F0CDFF01A92F4800F0EE
:10260000D7FF08212D4801F023F801A92B4801F03C
:1026100029F80821294801F063F801A9274800F0AA
:1026200011FF0821254800F059FF01A94FF0804013
:1026300000F0BEFF0821C80601F00AF801A94FF01A
:10264000804001F00FF80821C80601F049F801A9FF
:102650004FF0804000F04CFF0821C80600F09AFFC0
:1026600001A9174800F0A4FF0821154800F0F0FF69
:1026700001A9134800F0F6FF0821114801F030F8D5
:1026800001210E4800F0B6FE0121880700F0B2FEDD
:1026900001210B4800F0AEFE0121084800F0C5FE04
:1026A0000121880700F0C1FE0121054800F0BDFEB0
:1026B00009B000BD00080140000C014000040040CA
:1026C0000008004010B5FFF7A5FDFFF74FFEFFF72C
:1026D000FBFE10BD10B500F085FDFFF72BFFFFF7E7
:1026E000F1FF10BD2DE9F34F8BB000F0B5F800F00D
:1026F00021F94E480C990068FDF78EFD83464C4841
:1027000001685846FDF730FD81464FF07E510B9829
:10271000FDF77FFD82464946FDF77EFD8046FDF7C9
:10272000C3FF04460D4643480068FDF7BDFFCDE9F1
:10273000000141480068FDF7B7FF8046DDE900234E
:1027400001F0E6FCCDE904010B98FDF7ADFFCDE902
:102750000201DDE90423FDF776FE0022374BCDE9C7
:102760000601FDF770FE8246354A364BFDF7DDFE69
:10277000064622462B46FDF7BFFDCDE90801FDF7D1
:10278000D7FF2B49086030480C990068FDF744FDDD
:1027900007462E4801683846FDF7E6FC05464FF02F
:1027A0007E510B98FDF735FD06462946FDF734FDB1
:1027B0000446FDF779FF82468B461E480068FDF708
:1027C00073FF8046894622480068FDF76DFF064684
:1027D00042464B4601F09CFCCDE902011D490B9895
:1027E000FDF71AFD0646FDF75FFFCDE90001DDE9C3
:1027F0000223FDF728FE0022104BCDE90401FDF76E
:1028000022FE04460E4A0F4BFDF78FFE52465B46F2
:10281000CDE90601FDF770FDCDE90801FDF788FF60
:102820000A4908600DB0BDE8F08F000048000020A4
:1028300054000020400000203C0000200080664042
:10284000182D4454FB2109404C0000205800002062
:1028500038000020000080BF2DE9FC4106236A46B5
:102860003B216820FEF76EFF10B10120BDE8FC811E
:102870009DF801009DF8001040EA012000B22149B6
:1028800008809DF803009DF8021040EA012000B284
:102890001C4948809DF805009DF8041040EA01207D
:1028A00000B218498880B1F90000FDF7B2FE064673
:1028B0000022154BFDF739FE0446FDF739FF134999
:1028C00008601049B1F90200FDF7A3FE0646002298
:1028D0000D4BFDF72AFE0446FDF72AFF0C49086060
:1028E0000849B1F90400FDF794FE06460022064BA4
:1028F000FDF71BFE0446FDF71BFF0649086000209C
:10290000B4E70000280000200000D040380000207C
:102910003C0000204000002010B50123044A75212E
:102920006820FEF70FFF08B1012010BD0020FCE772
:10293000360000202DE9FC4106236A464321682029
:10294000FEF700FF10B10120BDE8FC819DF80100F9
:102950009DF8001040EA012000B2214908809DF84E
:1029600003009DF8021040EA012000B21C49488093
:102970009DF805009DF8041040EA012000B21849B6
:102980008880B1F90000FDF744FE0646154A164B53
:10299000FDF7CBFD0446FDF7CBFE14490860104956
:1029A000B1F90200FDF735FE06460E4A0E4BFDF763
:1029B000BCFD0446FDF7BCFE0D4908600849B1F9AD
:1029C0000400FDF726FE0646064A074BFDF7ADFD5F
:1029D0000446FDF7ADFE074908600020B4E700009B
:1029E00030000020FCA9F1D24D62304048000020A8
:1029F0004C00002050000020F8B504460D46002091
:102A0000FEF784FE42F21070FEF71AFCFFF784FF17
:102A100008B10120F8BD2A480078682801D00220BA
:102A2000F8E78020009001236A466B216820FFF7B9
:102A300009F808B10320EDE742F21070FEF700FC40
:102A40000020009001236A466B216820FEF7FAFF00
:102A500008B10420DEE70120009001236A466B21C3
:102A60006820FEF7EFFF08B10A20D3E71820009096
:102A700001236A461B216820FEF7E4FF08B10B2002
:102A8000C8E70020009001236A461C216820FEF759
:102A9000D9FF08B10C20BDE72946204600F03FF8D9
:102AA00008B10D20B6E704EBD471C1F34F002946FD
:102AB00000F008F808B10E20ACE70020AAE70000FB
:102AC0003600002038B504460D46DDB1BC2C02DDD1
:102AD0000120009018E0622C02DD0220009013E03B
:102AE0002A2C02DD032000900EE0142C02DD0420CD
:102AF000009009E00A2C02DD0520009004E0062089
:102B0000009001E00020009001236A461A2168200D
:102B1000FEF798FF08B1012038BD0020FCE7F8B5AA
:102B200004460E466EB14FF47A75B4F57A7F01DD36
:102B3000284604E0042C01DA042000E02046044684
:102B40000CE04FF4FA55B4F5FA5F01DD284604E0D5
:102B5000202C01DA202000E02046044695FBF4F00A
:102B6000401EC0B2009001236A4619216820FEF77A
:102B700069FF08B10120F8BD0020FCE770470000A4
:102B800070B5002100230F22C47804B3154C2468CB
:102B900004F4E064C4F5E064210AC1F10403CA400E
:102BA000447804FA03F184781440214309010E4C5F
:102BB0000678A155047804F01F050124AC4005787F
:102BC0006D11AD0005F1E025C5F8004109E004787C
:102BD00004F01F050124AC40044D0678761145F839
:102BE000264070BD0CED00E000E400E080E100E074
:102BF00002490143024A1160704700000000FA05D3
:102C00000CED00E010B5002807DA0A07140E054A9B
:102C100000F00F031B1FD45403E00A07130E024AEF
:102C2000135410BD18ED00E000E400E02DE9FC5F56
:102C300083468A4651464A480068FDF795FD09D00B
:102C40004748C0F800A0002046490860464908608F
:102C50004649086051465846FDF7D8FA444908608D
:102C60000846016843480068FDF7D6FA4249086003
:102C70003F480068FDF718FD21F00041044600229E
:102C80003E4BFDF73DFD03D800203D4908602BE099
:102C900037480068FDF708FD21F000410446002296
:102CA000384BFDF715FD04D84FF07E5034490860CD
:102CB0001AE02F480068FDF7F7FC21F0004180463C
:102CC0000022304BFDF718FB00222C4BCDE9000110
:102CD000FDF72BFC064600222B4BFDF7B1FB04460B
:102CE000FDF726FD26490860214801681E48006856
:102CF000FDF73AFA1C49086024480168204800683A
:102D0000FDF78AFA0446184801682046FDF784FA60
:102D10001F4908601548016815480068FDF776FAF4
:102D20001049086012480068104908600D480168A1
:102D300018480068FDF770FA1749086014480168E0
:102D40000D480068FDF710FA044613480168204654
:102D5000FDF70AFA1149086008460068BDE8FC9FC3
:102D6000B4000020C4000020C0000020BC000020EF
:102D7000B80000208C000020CC00002000004E4055
:102D8000D800002000003E400000F03F90000020EE
:102D9000D000002094000020D4000020C8000020B3
:102DA0002DE9FC5F83468A4651464A480068FDF794
:102DB000DBFC09D04748C0F800A000204649086065
:102DC000464908604649086051465846FDF71EFAD4
:102DD000444908600846016843480068FDF71CFA4A
:102DE000424908603F480068FDF75EFC21F0004161
:102DF000044600223E4BFDF783FC03D800203D49EA
:102E000008602BE037480068FDF74EFC21F00041D8
:102E100004460022384BFDF75BFC04D84FF07E508F
:102E2000344908601AE02F480068FDF73DFC21F0A6
:102E3000004180460022304BFDF75EFA00222C4B09
:102E4000CDE90001FDF771FB064600222B4BFDF793
:102E5000F7FA0446FDF76CFC264908602148016832
:102E60001E480068FDF780F91C4908602448016885
:102E700020480068FDF7D0F904461848016820464C
:102E8000FDF7CAF91F490860154801681548006830
:102E9000FDF7BCF910490860124800681049086045
:102EA0000D48016818480068FDF7B6F91749086031
:102EB000144801680D480068FDF756F904461348A8
:102EC00001682046FDF750F911490860084600687E
:102ED000BDE8FC9FDC000020EC000020E8000020A2
:102EE000E4000020E000002098000020F400002012
:102EF00000004E400001002000003E400000F03F76
:102F00009C000020F8000020A0000020FC00002011
:102F1000F00000202DE9FC5F83468A465146474871
:102F20000068FDF721FC09D04448C0F800A000204B
:102F30004349086043490860434908605146584680
:102F4000FDF764F941490860084601684048006897
:102F5000FDF762F93F4908603C480068FDF7A4FBB3
:102F600021F00041044600223B4BFDF7C9FB03D88A
:102F700000203A4908602BE034480068FDF794FBD4
:102F800021F0004104460022354BFDF7A1FB04D897
:102F90004FF07E50314908601AE02C480068FDF778
:102FA00083FB21F00041804600222D4BFDF7A4F960
:102FB0000022294BCDE90001FDF7B7FA06460022B1
:102FC000284BFDF73DFA0446FDF7B2FB23490860A4
:102FD0001E4801681B480068FDF7C6F819490860DB
:102FE0000846016820480068FDF716F91F49086087
:102FF0001548016815480068FDF708F91049086090
:1030000012480068104908600D48016818480068B7
:10301000FDF702F917490860144801680D48006877
:10302000FDF7A2F80446134801682046FDF79CF816
:103030001149086008460068BDE8FC9F04010020B3
:1030400014010020100100200C01002008010020C4
:10305000A40000201C01002000004E402801002098
:1030600000003E400000F03FA800002020010020AA
:10307000AC0000202401002018010020704700004F
:1030800001460020034A506820F440400843506045
:10309000704700000010024029B1064A52690243FD
:1030A000044B5A6104E0034A52698243014B5A615E
:1030B000704700000010024029B1064AD26902435D
:1030C000044BDA6104E0034AD2698243014BDA61BE
:1030D000704700000010024029B1064A926902437D
:1030E000044B9A6104E0034A92698243014B9A615E
:1030F0007047000000100240704710B500F002F861
:1031000010BD00000CB5002001900090334800680D
:1031100040F480303149086000BF3048006800F456
:10312000003000900198401C0190009818B9019857
:10313000B0F5A06FF1D12948006800F4003010B15B
:103140000120009001E0002000900098012843D168
:103150002348006840F010002149086008460068D4
:1031600020F0030008600846006840F00200086094
:103170001A4840681949486008464068486008464F
:10318000406840F4806048600846406820F47C1045
:1031900048600846406840F4E81048600846006807
:1031A00040F08070086000BF0C48006800F00070BC
:1031B0000028F9D00948406820F00300074948601A
:1031C0000846406840F00200486000BF034840687D
:1031D00000F00C000828F9D10CBD000000100240DE
:1031E000002002402DE9F0478EB04FF0000A4FF466
:1031F00096604349088008460088032190FBF1F05F
:1032000040490880002040490880084600883D4920
:10321000098808443C49488008464088394909885B
:1032200008443949888000203849088008460088C9
:10323000344909880844354948800846408831495E
:1032400009880844314988800020314908800846AF
:1032500000882C49098808442D4948800846408840
:103260002849098808442A49888000BF41E0244849
:103270000088FDF7DFF9CDE902010AF10100FDF751
:10328000C8F906460022234BFDF7DDF8CDE9000121
:10329000DDE90223FDF749F900224FF08043CDE933
:1032A0000401FDF7D0F804461B4A1C4BFDF7CBF890
:1032B000804601F09BFA0022164BCDE90601FDF78E
:1032C0001BF80022164BCDE90801FDF7BCF80022DF
:1032D0004FF08043CDE90A01FDF727F9CDE90C0154
:1032E000FDF7C9F90F4921F81A000AF101001FFA88
:1032F00080FA034800888245B9DB0EB0BDE8F0874C
:103300005C0000205E0000206000002066000020BD
:103310006C0000200000F03F182D4454FB210940B0
:1033200000804840A401002000B5FDF7ABFE00BDC1
:1033300010B51348006840F00100114908600846C4
:103340004068104908400E494860084600680E4928
:1033500008400B4908600846006820F48020086097
:103360000846406820F4FE0048604FF41F00886063
:10337000FFF7C3FE4FF000600449086010BD000075
:10338000001002400000FFF8FFFFF6FE08ED00E02D
:1033900010B5164800681649B0FBF1F4B4F1807F0F
:1033A00001D3012011E024F07F40401E4FF0E021C6
:1033B00048610F214FF0FF30FFF724FC00204FF051
:1033C000E021886107200861002008B100BFFEE706
:1033D0004FF0E020006920F001004FF0E02108618B
:1033E0000021481EFFF70EFC10BD00000000002069
:1033F00040420F0021B1028842F08002028004E0C6
:1034000002884FF67F731A400280704730B5002360
:1034100001248C40A3B2048C9C430484048C02FAE3
:1034200001F5ADB22C43048430BD21B1028842F0D5
:103430000102028004E002884FF6FE731A40028007
:103440007047000070B5002400220023058C4FF661
:10345000FE7635400584028C8388048B4FF68F7589
:103460002C40B51E2C400D882C43751E2A400D891A
:103470002A434D882A43144DA8420BD0134DA8422D
:1034800008D0134DA84205D0124DA84202D0124DCB
:10349000A84213D14FF6F7752A404D892A434FF6BB
:1034A000FB752A408D882A434FF6FF652B404FF667
:1034B000FF552B408D892B43CD892B43838004837B
:1034C000CD888586028470BD002C01400034014007
:1034D0000040014000440140004801400A460021EC
:1034E000018B4FF6F77319401143018370470000B9
:1034F00070B5002400220023058C4FF6EF7635408E
:103500000584028C8388048B48F6FF752C404FF6A7
:10351000FF452C400D884FF6FF7606EA05252C4323
:103520004FF6DF752A400D8906EA05152A434D88B6
:1035300006EA05152A43154DA84202D0144DA842AB
:103540001DD14FF67F752A404D894FF6FF7606EA6A
:1035500005152A434FF6BF752A408D8806EA0515E2
:103560002A434FF6FF352B404FF2FF752B408D89D4
:1035700006EA85052B43CD8906EA85052B43838022
:103580000483CD880587028470BD0000002C0140B3
:10359000003401400A460021018B4FF2FF731940AD
:1035A0004FF6FF7303EA02231943018370470000BB
:1035B00070B5002400220023058C4FF6FF663540CD
:1035C0000584028C8388848B4FF68F752C404FF6D0
:1035D000FC752C400D882C434FF6FF552A400D8971
:1035E0004FF6FF7606EA05252A434D8806EA0525AB
:1035F0002A43154DA84202D0144DA8421DD14FF2C6
:10360000FF752A404D894FF6FF7606EA05252A43C5
:103610004FF6FF352A408D8806EA05252A434EF6E7
:10362000FF752B404DF6FF752B408D8906EA051579
:103630002B43CD8906EA05152B4383808483CD88EF
:103640008587028470BD0000002C014000340140D9
:103650000A460021818B4FF6F7731940114381838D
:103660007047000070B5002200230024058C4EF640
:10367000FF7635400584038C8488828B48F6FF757D
:103680002A404FF6FF452A400D884FF6FF7606EA9E
:1036900005252A434DF6FF752B400D8906EA0535B1
:1036A0002B434D8806EA05352B430B4DA84202D02B
:1036B0000A4DA84208D14BF6FF752C408D894FF674
:1036C000FF7606EA85152C4384808283CD88A0F896
:1036D0004050038470BD0000002C014000340140C4
:1036E0000A460021818B4FF2FF7319404FF6FF739A
:1036F00003EA02231943818370478186704701875B
:10370000704781877047A0F84010704700220288F8
:103710001D4B98420ED01D4B98420BD0B0F1804FFC
:1037200008D01B4B984205D01A4B984202D01A4B36
:10373000984204D14FF68F731A404B881A43174BA7
:10374000984207D0164B984204D04FF6FF431A40D8
:10375000CB881A4302808B8883850B8803850A4BAC
:1037600098420BD0094B984208D00E4B984205D096
:103770000D4B984202D00D4B984201D10B7A038633
:103780000123838270470000002C01400034014077
:103790000004004000080040000C00400010004001
:1037A0000014004000400140004401400048014036
:1037B00010B540F225510C4800F01CF8012811D139
:1037C000094800F041F80949094A12888854084913
:1037D0000988481CC11700EB11610912A0EB0121F7
:1037E000034A118010BD000000380140A4110020E0
:1037F0008A00002070B50246002400230025002026
:1038000040F66A16B14200D100BFC1F3421501F083
:103810001F03012606FA03F3012D02D196893340D6
:1038200006E0022D02D1168A334001E0968A334029
:103830000C12012606FA04F41688344013B10CB1B8
:10384000012000E0002070BD01468888C0F3080018
:10385000704700BFFEE7490050EAC12018BF0420AE
:103860004A0D18BF40F0010040F2FF72B2EB515F09
:1038700008BF40F00200012808BF05207047000083
:103880002DE9F74F144694B00021C4E902111599AF
:10389000079121F00045C9498D4206DC1599C4E91C
:1038A000000117B00020BDE8F08FC549DFF814A370
:1038B000A9423CDD0799C44E0029C44FC44A15995A
:1038C000534619DDFCF7B9FD554506D0C14AC24B38
:1038D000FCF7B3FDC4E900010AE04FF0D352BE4B40
:1038E000FCF7ABFD32463B46FCF7A7FDC4E90001FF
:1038F00017B00120BDE8F08FFCF7FEFC554506D05F
:10390000B44AB54BFCF7F8FCC4E900010AE04FF0FB
:10391000D352B14BFCF7F0FC32463B46FCF7ECFCD3
:10392000C4E9000117B04FF0FF30BDE8F08FAB499C
:10393000A942159978DB21F0004183468846A84AC0
:10394000A84BFCF780FD0022A74BFCF7D5FCFDF748
:103950000DF80990FCF75DFE06460F469C4A53465B
:10396000FCF771FD43465A46FCF76AFD80468A46DD
:10397000984A994B30463946FCF765FD2A0D0125DA
:103980000B9242465346FCF75BFD032DC4E9000150
:1039900039D00B98C1F30A51401A05EB4511113982
:1039A000814230DA9148C346784400EB0510CDF8E7
:1039B0000CA00C90D0E9002330463946FCF743FDBB
:1039C00002460B460491069058460399FCF735FDD4
:1039D00080468A4602460B4658460399FCF72DFD61
:1039E000049B069AFCF729FD83460C9803913946FF
:1039F000D0E902233046FCF726FD5A46039BFCF72C
:103A00001CFD6D1CBDE707980028A2BF099817B0E0
:103A1000BDE8F08F616881F000416160099817B0DE
:103A20004042BDE8F08FFFE784461598C1F31301CB
:103A3000C0F30A50A0F2F5304FEA601800F01F06FC
:103A4000C6F12000139000200690079041F4801EDC
:103A500005206D4676B1664A08EB00017A4452F8BB
:103A6000213002EB8101B3404A68139922FA01F137
:103A7000194305E05F4908EB0002794451F8221030
:103A8000A1FB0E27A1FB0C131A449A4234BF012359
:103A9000002303EB070A05EB8003D3E901B70F44CA
:103AA0008F4234BF0121002193448B4411B19345CF
:103AB00002D903E0934501D2012100E00021C3E9CE
:103AC00001B7514445F82010011EA0F10100C1DCEE
:103AD0000298059F00F10050800F12900298DDE9D6
:103AE00003568000FCF795FD834628460D91FCF7B0
:103AF000A1FD6FF01D02FCF710FFCDE90E0130466D
:103B0000FCF798FD6FF03D02FCF707FF80468A4600
:103B10003846FCF78FFD6FF05D02FCF7FEFE0746AE
:103B2000424653461191FCF7E7FBDDE90E23FCF713
:103B3000E3FB5A460D9BFCF7DFFB00250E465A4679
:103B400028460D9BFCF779FCDDE90E23FCF775FC9C
:103B500042465346FCF771FC3A46119BFCF770FC59
:103B6000DFF898A0244A5346FCF76DFC07468846C8
:103B7000234A244B31462846FCF765FC3A46434627
:103B8000FCF7BAFB074688464FF0A8425346314639
:103B90002846FCF758FC3A464346FCF7ADFB159A1D
:103BA00012F0004F04D0129A81F00041524212925A
:103BB000C4E90001129817B0BDE8F08FFB21E93F7E
:103BC0007CD90240FB21F93F7370032E8A19A33B75
:103BD000000040543163621A61B4D03DFB21394189
:103BE00083C8C96D305FE43F0000E03FB40F0000C0
:103BF000300F0000120F0000182D4454FB21F93D36
:103C00003326A611460B113C2DE9FF4D21F000484B
:103C100007460C46B8F1795F08DAFCF7A7FE0028E2
:103C200001BF0020324904B0BDE8F08D3A4623467A
:103C300010461946FCF707FC054602462D480E467D
:103C40000B460621784400F05DF82A463346FCF71F
:103C5000FAFBDDE9022382468B4638462146FCF713
:103C6000F2FB04460F4652465B4628463146FCF7B7
:103C7000EAFB22463B46FCF7E0FB07468A464FF04C
:103C8000FF3228463146FCF748FE1B4A90450ADAC7
:103C90003A465346FCF7D1FB04B00022BDE8F04D94
:103CA000134BFCF7CDBB154A4245A8BFA8F500153C
:103CB0004FF00004B8BF124D22462B46FCF7BDFB67
:103CC0000646884622462B4600200949FCF7B5FBEC
:103CD00004460D463A46534630464146FCF7ADFB96
:103CE00004B022462B46BDE8F04DFCF7A9BB00000E
:103CF0000000F03FE00C00003333D33F0000E93F09
:103D00000000D23F2DE9F0414F1E00EBC7010446F1
:103D1000D1E9000115461E4637F006020DD02A46AD
:103D20003346FCF790FB7F1E04EBC703D3E9002367
:103D3000FCF7E2FA37F00602F1D1022F25D0042F6A
:103D400013D0062F18BFBDE8F0812A463346FCF792
:103D50007AFBD4E90A23FCF7CFFA2A463346FCF76C
:103D600072FBD4E90823FCF7C7FA2A463346FCF76E
:103D70006AFBD4E90623FCF7BFFA2A463346FCF770
:103D800062FBD4E90423FCF7B7FA2A463346FCF772
:103D90005AFBD4E90223FCF7AFFA2A463346FCF774
:103DA00052FBD4E90023BDE8F041FCF7A5BA0000BE
:103DB0002DE9FF4D054621F0004084B00C46B0F1DE
:103DC000795F0BDA2846FFF746FD042808BF00F0AC
:103DD00071F8284608B02146BDE8F08D2A460B460A
:103DE0001046FCF730FB06460F462A462346FCF7F2
:103DF0002AFB804626488A4632463B4605217844BF
:103E0000FFF780FF83461098029160B3214A224B4E
:103E100040465146FCF717FBCDE900015A464046A3
:103E20005146029BFCF70FFB82468846DDE90601FE
:103E30004FF0FF32FCF771FD52464346FCF7FDFAA6
:103E400032463B46FCF7FFFADDE90623FCF7F5FABC
:103E5000DDE90023FCF7F1FA08B02A462346BDE865
:103E6000F04DFCF7EDBA0B465A4630463946FCF7A2
:103E7000EAFA084A084BFCF73FFA42465346FCF779
:103E8000E2FA08B02A462346BDE8F04DFCF734BA02
:103E9000260C0000495555555555C5BF0122FCF764
:103EA0003CBDFCF729BA0022134610461146FCF728
:103EB0003CBB0000024A00201107FCF72EBD0000A9
:103EC00001FDFFFF02E008C8121F08C1002AFAD155
:103ED00070477047002001E001C1121F002AFBD18A
:103EE000704700000149086070470000A0010020F1
:103EF0002DE9F84F04460D4621F00040009173492A
:103F0000814211DC7249884201DC06D12CB1204685
:103F10002946BDE8F84FFFF7C1BF6E48002DCCBF62
:103F20006D496E49BDE8F88F6D49814211DD6D49DB
:103F30008142D8BF4FF0FF366DDD20462946FFF79E
:103F40008AFC042808BFFFF7B5FF20462946BDE8D4
:103F5000F88F6549654F25F00045814233DD64499E
:103F6000814219DD002632464FF080432046294623
:103F7000FCF7C2F980468A46012220462946FCF712
:103F8000CCFC00223B46FCF758FA42465346FCF76D
:103F9000CCFA04460D463EE001260022BA463B46D6
:103FA00020462946FCF7A8F980460F4600225346D2
:103FB00020462946FCF741FA42463B46FCF7B5FA53
:103FC00004460D4627E04B4981421BDDDFF828A15E
:103FD00002260022534620462946FCF734FA0022E6
:103FE0003B46FCF789F980460F460022534620469F
:103FF0002946FCF722FA42463B46FCF796FA04466D
:104000000D4608E0032622462B4600203B49FCF7DC
:104010008CFA04460D4622462B4610461946FCF7FC
:1040200012FA8B46824602460B46FCF70CFA07460C
:104030000246334888460B4606217844FFF762FE65
:1040400052465B46FCF7FFF982462E488B463A46BD
:10405000434605217844FFF755FE3A464346FCF7B0
:10406000F2F902460B46002E504659460CDAFCF790
:1040700043F922462B46FCF7E6F901B022462B46CF
:10408000BDE8F04FFCF7DCB9FCF736F922462B46C9
:10409000FCF7D9F91C4A7A4402EBC603D3E90023A2
:1040A000FCF7CBF922462B46FCF7C7F9174A7A44AE
:1040B00002EBC603D3E90023FCF7C2F9009A002AF9
:1040C000B8BF81F00041BDE8F88F00000000104447
:1040D0000000F07F182D4454FB21F93FFB21F9BF6C
:1040E0000000DC3F0000203E0000F33F0000F03FF6
:1040F0000000E63F008003400000F83F0000F0BFF2
:10410000BA0800007808000016080000DE0700006A
:104110002DE9F04D9446CCF1000423F000464CEA22
:104120000404524F46EAD4749A46884621F000426D
:10413000BC4206D8454240EA050442EAD474BC4277
:1041400004D9BDE8F04D6246FFF7ABBEAAF1405579
:10415000A5F17F6555EA0C040BD0022404EAAA7489
:10416000434DDFF810E144EAD87452EA000B04D062
:104170000CE0BDE8F04DFFF7BBBE002C14BF012CD6
:10418000BDE8F08D022C30D0032C32D056EA0C0B57
:104190000AD0BE4220D1BA4209D126F0804622F090
:1041A00080423346114617E000291ADB25E0DFF88C
:1041B000C8B0FB44002C04BFDBE90001BDE8F08D72
:1041C000012C02BFDBE9000181F00041BDE8F08D68
:1041D000022C0AD0032C0CD0BA4212D1B8F1000F35
:1041E0000BDA23482549BDE8F08D28462449BDE86F
:1041F000F08D28467146BDE8F08D1D482149BDE887
:10420000F08D921B12153C2AC4BF19481D490EDCC3
:10421000BAF1000FBEBF12F13C0F0020014606DBD1
:104220006246FCF782F921F00041FFF761FE002CA5
:1042300008BFBDE8F08D012C04BF81F00041BDE84E
:10424000F08D114A114B022C07D0FCF7F6F82A46E4
:10425000BDE8F04D0A4BFCF7F0B8FCF7EEF82A4643
:10426000BDE8F04D064BFCF7EBB800000000F07F16
:10427000182D4454FB2109C0A2070000FB21F9BFFF
:10428000FB210940FB21F93F075C143326A6A13C22
:1042900090B00024002500260027A046A146A24693
:1042A000A34600200E900D900C900B900A90099060
:1042B00008900790069005900490FDF7B3FDFFF776
:1042C00067F84FF48050FA49086040000860FDF735
:1042D00087FEFCF7BDFEFDF761FD01213220FEF7F0
:1042E0008BFB054607E0F348FCF7AAFF01213220CB
:1042F000FEF782FB0546002DF5D101213220FCF7A7
:10430000E3FD054607E0EB48FCF79AFF0121322068
:10431000FCF7DAFD0546002DF5D1FEF7DBF962E288
:10432000C4F103003C2191FBF0F1781CB0FBF1F2E9
:1043300001FB12073FB9DE48001F006880F480507F
:10434000DB49091F0860DC48FDF7F8FD86B9DB4949
:10435000DB480068FCF712FA0AD24FF40050D44947
:1043600008600821D748FDF711F84FF0000818E061
:1043700008F101002821B0FBF1F201FB1208B8F1AD
:10438000000F0ED1CA48001F006880F40050C849D1
:10439000091F0860CB48C06880F00800C949C860A0
:1043A0000126002E7ED1002C48D1C749C748FEF710
:1043B00099F9C7480068FCF777F921F0004100221D
:1043C000C44BCDE90201FCF79BF90DD20021C04896
:1043D0000068FCF7C9F901D2012000E00020782133
:1043E0000390FDF74BFFFAE1BB480068FCF75CF96E
:1043F00021F000410022B74BCDE90201FCF780F922
:104400000DD20021B4480068FCF7B8F901D20120B0
:1044100000E0002078210390FDF784FEDFE109F140
:104420000109B9F1C80FDED900210846FDF77AFE6F
:1044300000210846FDF722FF0124D0E1012C41D1E3
:104440000BF1010BBBF1C80FCDD9BAF5487F12D2E1
:10445000FEF770FAFCF7D6FCA04801680798FBF756
:1044600083FE07909E4801680898FBF77DFE089040
:104470000AF1010AB3E19B490798FBF7FFFE079099
:1044800098490898FBF7FAFE089097490798FCF7B7
:1044900075F910D395490798FCF766F90BD3944941
:1044A000089800E095E1FCF769F904D39149089870
:1044B000FCF75AF904D200200890079082468EE15A
:1044C00002248CE180498148FEF70CF97E497F483F
:1044D000FCF776FB80480068FCF7E6F821F0004125
:1044E0000022854BCDE90201FCF7F2F802D2002050
:1044F0007949086076480068FCF7D6F821F0004159
:1045000000227D4BCDE90201FCF7E2F802D2002047
:104510006F490860714807990068FBF777FE774993
:104520000290FBF7ABFE03900A99FBF71DFE0A9081
:104530006B4808990068FBF769FE70490290FBF729
:104540009DFE03900B99FBF70FFE0B90DDE90A012E
:10455000FBF75CFE0990624808990068FBF756FE7D
:104560000390FDF743FD0690654966480068FCF737
:1045700005F911D3644963480068FCF7F5F80BD3DB
:10458000624963480068FCF7F9F805D3614960485F
:104590000068FCF7E9F804D200200C900D900E9012
:1045A0005EE0FDF703FC90B35B48FDF751FB05A906
:1045B00004A8FDF799FB55490598FCF7DFF801D2EF
:1045C000524807E053490598FCF7CEF801D251480C
:1045D00000E00598059051490498FCF7CFF801D206
:1045E0004E4807E04E490498FCF7BEF801D24C480B
:1045F00000E004980490384805990068FEF716FB1F
:104600000E9004990998FEF785FC0C9022E0FFE7D4
:10461000002131480068FEF709FB0E900698FCF770
:1046200043F821F000414FF020423E4BCDE902011A
:10463000FCF766F809D231490698FBF71FFE3A49A4
:104640000390FBF7E9FD0C9004E000210998FEF7C8
:1046500061FC0C9000211E480068FEF7A1FB0D9044
:1046600032490E98FCF78AF801D2304807E0304909
:104670000E98FCF779F801D22D4800E00E980E90C4
:104680002A490D98FCF77AF801D2284807E0284912
:104690000D98FCF769F801D2254800E00D980D90BF
:1046A00010490C98FCF76AF844D20E484AE0000022
:1046B000100C0140400D0300A4707D3F0000E0405D
:1046C00080010020001001400AD7A33BCDCC4C3D17
:1046D000580000200000F03F54000020500000204F
:1046E0006801002000004844000080BF0000A0BF17
:1046F0006666E6BE0000B0C00000D03F0000484340
:1047000000005C426C01002000005CC200004842D6
:1047100070010020000048C26666663F0000F0415C
:104720000000F0C19999C93F00803B4500007A44E0
:1047300000007AC42C490C98FCF716F801D22A48DC
:1047400000E00C980C900E98FBF7AEFF21F00041B2
:10475000CDE90001FBF78FFF80B2002103900E9896
:10476000FCF70CF801D2012000E000200290039930
:10477000FDF7D8FC0D98FBF797FF21F00041CDE93C
:104780000001FBF778FF80B2002103900D98FBF742
:10479000EBFF01D2012000E0002002900399FDF719
:1047A0006DFD0C98FBF780FF21F00041CDE9000181
:1047B000FBF761FF80B2002103900C98FBF7DEFF4E
:1047C00001D2012000E0002002900399FDF704FED1
:1047D00005E0FDF73FFDFDF7EBFDFDF797FE41F22C
:1047E0008830FCF72DFD9BE5000048C400B5254B43
:1047F00021F0004287B09A4203DC00221346009267
:104800002BE0214B9A4208D140B94FF00100FFF74D
:1048100069FBFFF748FB07B000BD03DBFFF73EFB7A
:1048200007B000BD02AAFFF72BF810F003014FF00C
:1048300001000DD0012914D002291AD00DF1080C65
:104840009CE80F00FFF7E0F907B081F0004100BDE0
:104850000DF1080C00909CE80F00FFF7A9FA07B0D3
:1048600000BD0DF1080C9CE80F00FFF7CDF907B073
:1048700000BD0DF1080C00909CE80F00FFF798FABE
:10488000E2E70000FB21E93F0000F07FFF010000AC
:104890004FBB610567ACDD3F182D4454FB21E93F58
:1048A0009BF681D20B73EF3F182D4454FB21F93F47
:1048B000E2652F227F2B7A3C075C143326A6813CCD
:1048C000BDCBF07A8807703C075C143326A6913C78
:1048D000C4EB98999999C9BF711623FEC671BCBFE4
:1048E0006D9A74AFF2B0B3BF9AFDDE522DDEADBF4C
:1048F0002F6C6A2C44B4A2BF0D5555555555D53F64
:10490000FF8300922449C23F6E204CC5CD45B73F7E
:10491000513DD0A0660DB13FEB0D76244B7BA93FF6
:1049200011DA22E33AAD903F4C5555555555A53F08
:104930007751C1166CC156BF9015CB19A001FA3E34
:10494000AD529C804F7E92BEC4B1B4BD9EEE213E5E
:10495000D43888BEE9FAA8BD0000000000000000BD
:1049600000004054FB21F93F3163621A61B4D03D2D
:104970000000601A61B4D03D7370032E8A19A33B06
:104980000000002E8A19A33BC14920259A837B3958
:1049900000000000000000006E83F9A22915444EBB
:1049A000D15727FCC0DD34F5999562DB4190433C3B
:1049B000AB6351FE61C5BBDE3A6E24B7E0D24D4217
:1049C000EA2E49061C92D1091CEB1DFE3EA729B117
:1049D000F53582E88444BB2E26709CE9417E5FB4A5
:1049E00039D69139F43953838B5F849C3B28F9BDC8
:1049F000FF97F81F0F9805DE8B112FEF1F6D0A5AD6
:104A0000CF7E366DB709CB27663F464F2DEA5F9EB6
:104A1000C7BA27757BF1E5EBF739073DEA92528A71
:104A2000B15FFB6B085D8D1FA6F810111111813F5E
:104A3000D561C119A0012ABF7DFEB157E31DC73E54
:104A4000EB9C2B8AE6E55ABE7CD5CF5A3AD9E53D98
:104A5000704A000800000020A4010000AA09000814
:104A6000904A0008A40100201C160000D43E000853
:104A70001184A24A0400097A010203040607080906
:104A800063B442CB20410C5AA00C11190C01F20066
:0400000508000145A9
:00000001FF
