:020000040800F2
:10000000D80F002045010008B92B00086B14000828
:10001000ED210008191100089B3B000800000000BA
:10002000000000000000000000000000493200084D
:100030000913000800000000B930000879340008F6
:100040005F0100085F0100085F0100085F01000810
:100050005F0100085F0100085F0100085F01000800
:100060005F0100085F0100085F0100085F010008F0
:100070005F0100085F0100085F0100085F010008E0
:100080005F0100085F010008C10A00085F01000865
:100090005F0100085F0100085F0100085F010008C0
:1000A0005F0100085F0100085F0100085F010008B0
:1000B0005F0100085F0100085F0100085F010008A0
:1000C0005F0100085F0100085F0100085F01000890
:1000D0005F010008013900085F0100085F010008A6
:1000E0005F0100085F0100085F0100085F01000870
:1000F0005F0100085F0100085F0100085F01000860
:100100005F0100085F0100085F0100085F0100084F
:100110005F0100085F0100085F0100085F0100083F
:100120005F0100085F0100085F0100085F0100082F
:10013000DFF80CD000F068FC00480047614F000871
:10014000D80F00200648804706480047FEE7FEE734
:10015000FEE7FEE7FEE7FEE7FEE7FEE7FEE7FEE777
:100160008134000831010008F0B480EA0102D40FA4
:100170004200B2EB410F02D20246084611464A0045
:1001800042D0C30DDDB2C1F3C752AD1A202D35DA0E
:10019000C1F3160141F4000204B15242C5F1200638
:1001A00002FA06F12A411044B3EBD05F23D0C4B168
:1001B000012DA0EBC35009DCF0BC4FF0004202EA75
:1001C000C352DBB200F5000000F063BB400000F159
:1001D000807000EBC350A0F1807040EAD1704900FC
:1001E00009E0490841EAC071A0EBC35000F50000E6
:1001F000400800EBC350F0BC00F042BB614201225A
:1002000002EB4101001BF6E7F0BC704781F00041B2
:10021000AAE780F00040A7E780EA010210B502F0EB
:100220000043400022D04A001FD0010E01EB1261B2
:10023000C0F35600C2F3560240F4000042F400023C
:10024000A0FB022000047F39140400D0401C50EAB7
:10025000124001D44000491EC2B20C0604EBD0107B
:10026000401C4008802A02D003E0002010BD20F08E
:100270000100002900DA0020184310BD30B480EAE4
:10028000010202F0004530F0004221F0004013D09E
:1002900090B1C30DD40DC2F31601C0F31600E41AD9
:1002A00041F4000140F400027D34914201D3641C0A
:1002B00000E04900002C02DA30BC002070474FF407
:1002C00000000023914201D3891A034340084FEAFA
:1002D0004101F7D151B1914202D14FF0004105E007
:1002E00002D24FF0010101E06FF0010103EBC450B5
:1002F000284430BC00F0C4BA2DE9FE4F804681EAA4
:100300000300C00F0C46009021F0004123F000458F
:10031000B8EB0200A94105D24046214690461C4652
:100320000B46024623F00040104347D0270DC7F389
:100330000A00C3F30A510290401A019040286BDA78
:10034000C3F3130040F4801B0098924620B10023B1
:10035000D2EB030A63EB0B0B01985946C0F1400244
:10036000504600F05CFA06460D4650465946019A42
:1003700000F074FA10EB08006141002487EA115282
:1003800084EAE7731A4340D0009A62B3019A012AC3
:100390004FEA075215DC001B61EB02014FF00042EF
:1003A00002EA0752CDE90042001C41F580113246B5
:1003B0002B4600F0ABFA03B0BDE8F08F4046214673
:1003C000F9E7001B61EB0201001C41F580130018E6
:1003D0005B412018A2F5001747EB030140EAD570F6
:1003E000B6196D4111E06D084FEA360645EAC07551
:1003F0004FEA0752001B61EB0201001C41F580111E
:1004000049084FEA30000019514132462B4603B0EB
:10041000BDE8F04F00F06BBA0098012240000023C5
:10042000D0EB020263EBE073009821464FEAE074E0
:10043000B8EB000061EB0401E9E783F000435BE700
:1004400081F0004158E72DE9FE4F81EA030404F0F2
:10045000004421F0004100944FF0000B23F00043D2
:1004600050EA01045ED052EA03045BD0C3F30A549D
:10047000C1F30A552C44A4F2F3340194A0FB0254B6
:10048000C1F3130141F48011C3F3130343F4801348
:1004900001FB024400FB034E840A970A44EA81549C
:1004A00047EA8357A4FB076802958D0A05FB078579
:1004B0004FEA932C04FB0C542705029D4FEA065883
:1004C00047EA1637B5EB08056EEB070C870E920E60
:1004D00047EA811742EA8312A7FB0201B6EB0B0140
:1004E00064EB00042B0D43EA0C335E1844EB1C5004
:1004F000DA465146E7FB0201C5F313044FEA0B331A
:1005000043EA14534FEA0432019C43EA0603A4F180
:100510000C040294009CCDE900B400F0F7F903B09C
:10052000BDE8F08F00200146F9E72DE9F04D81EAA2
:10053000030404F0004B21F0004514464FF0000A7C
:1005400023F0004150EA050220D054EA01021DD0F8
:10055000C5F30A570246C5F31303C1F31300C1F3F1
:100560000A5640F4801543F48013A7EB0608101BCD
:10057000D64608F2FD3873EB050002D308F10108F6
:1005800001E092185B41B8F1000F03DA0020014648
:10059000BDE8F08D00204FF48011064684460EE041
:1005A000171B73EB050705D3121B63EB050306430B
:1005B0004CEA010C49084FEA300092185B4150EABE
:1005C0000107EDD152EA030012D082EA040083EA67
:1005D0000501084305D0101BAB4106D201220023C0
:1005E00006E000224FF0004302E06FF001025310DA
:1005F0001AEB06004CEB085110EB0A0041EB0B0123
:10060000BDE8F04D00F073B996230022114600F0CA
:1006100040B90EB5C10F80EAE0700844CA07002156
:1006200040F233438DE80E000A460B4600F06EF9A7
:1006300003B000BD0EB540F2334102910021CDE977
:1006400000110A460B4600F061F903B000BD20F02E
:100650000040C10DC0F3160040F400007F2901DA0C
:1006600000207047962903DCC1F19601C84070470D
:10067000963988407047C1F30A5210B5C1F313018F
:1006800040F2FF3341F480119A4201DA002010BD9C
:1006900040F233439A42A2F2334203DC524200F06A
:1006A000CDF810BD904010BD00F0004230F0004089
:1006B0000AD0C10D01F56071C0F3160042EA015184
:1006C000C2084007114370470020014670470000F0
:1006D00030B5041E71F1000404DB4FF000444042C9
:1006E00064EB0101141E73F1000405DB1C464FF09E
:1006F0000043524263EB04038B4208BF824230BD89
:1007000030B5041E71F1000404DB4FF00044404298
:1007100064EB0101141E73F1000405DB1C464FF06D
:100720000043524263EB0403994208BF904230BD3C
:1007300001F0004330B421F0004150EA010206D03C
:100740000A0DA2F56072C1F31301002A02DC30BC6D
:1007500000207047440F44EAC104C100E01830BCD7
:1007600000EBC25000F08CB8002801DBC0F1004063
:10077000002901DBC1F1004181427047002801DB03
:10078000C0F10040002901DBC1F1004188427047FF
:1007900030B50B46014600202022012409E021FA51
:1007A00002F59D4205D303FA02F5491B04FA02F54E
:1007B0002844151EA2F10102F1DC30BD2DE9F05FE5
:1007C0000546002092469B468846064681464024C0
:1007D0001BE0284641464746224600F02FF8534684
:1007E0005A46C01A914110D311461846224600F0CD
:1007F00016F82D1A67EB01084F462246012000210A
:1008000000F00DF817EB00094E41201EA4F1010481
:10081000DFDC484631462A464346BDE8F09F202AA1
:1008200004DB203A00FA02F1002070479140C2F147
:10083000200320FA03F3194390407047202A04DB79
:10084000203A21FA02F00021704721FA02F3D04049
:10085000C2F120029140084319467047202A06DB66
:10086000CB17203A41FA02F043EAE07306E041FA7E
:1008700002F3D040C2F1200291400843194670476C
:100880000029A8BF7047401C490008BF20F00100A4
:10089000704710B4B0FA80FC00FA0CF050EA010482
:1008A00004BF10BC704749B1CCF1200421FA04F414
:1008B00011FA0CF118BF012121430843A3EB0C01ED
:1008C000CB1D4FEA00614FEA102042BF002010BC50
:1008D000704700EBC35010440029A4BF10BC704700
:1008E000401C490008BF20F0010010BC704710B543
:1008F000141E73F1000408DA401C41F10001921843
:100900005B411A4301D120F0010010BD2DE9F04DEB
:1009100092469B4611B1B1FA81F202E0B0FA80F240
:1009200020329046FFF77BFF04460F4640EA0A005C
:1009300041EA0B0153465A46084313D0114653EA85
:10094000010019D0C8F140025046FFF777FF054675
:100950000E46504659464246FFF761FF084305D010
:10096000012004E020463946BDE8F08D0020054313
:1009700046EAE0762C4337430A986305E40AA0EB85
:1009800008000022FD0A44EA47540A3002D500203C
:100990000146E9E7010510196941DDE9084500193B
:1009A0006941BDE8F04DA2E770B521F00043034373
:1009B0000CD0C1F30A550024D5EB040564EB040305
:1009C000D617AD1AB34102DB0020014670BD2018D6
:1009D00041EB025170BDC1F30A52C1F3130140F261
:1009E000FF3341F480119A4202DA00200146704739
:1009F00040F233439A42A2F2334202DC5242FFF702
:100A00001DBFFFF70CBF0000064C074D06E0E06875
:100A100040F0010394E8070098471034AC42F6D345
:100A2000FFF78AFBD0570008F057000870B5C1F3F4
:100A30000A5201F000450024C1F3130140F2FF33D4
:100A400041F480119A4201DA002070BD40F2334334
:100A50009A42A2F2334203DC5242FFF7EFFE00E07B
:100A600090402C43F1D0404270BD70B58C1810F806
:100A7000015B15F0070301D110F8013B2A1106D1E3
:100A800010F8012B03E010F8016B01F8016B5B1EFD
:100A9000F9D12B0705D40023521E0DD401F8013BD8
:100AA000FAE710F8013BCB1A921C03E013F8015B44
:100AB00001F8015B521EF9D5A142D8D3002070BDC8
:100AC00010B5034800F028F80249088010BD000066
:100AD000002801408C01002021B1826842F001020F
:100AE000826003E0826822F001028260704721B1D7
:100AF000826842F48072826003E0826822F480722D
:100B000082607047014600208A6802F004020AB140
:100B1000012000E0002070470146C86C80B2704799
:100B2000014600208A6802F008020AB1012000E0B4
:100B30000020704710B50023CBB21AB144681C43A3
:100B4000446002E044689C43446010BD30B50246F6
:100B50000020002350680F4C20400D790C6844EAB7
:100B600005242043506090680B4C2040D1E902548A
:100B70002C434D7944EA450420439060D06A20F428
:100B800070000C7C641EE4B2234340EA0350D06240
:100B900030BD0000FFFEF0FFFDF7F1FFF0B50446A9
:100BA0000D4600200021092D11DDE068A5F10A069F
:100BB00006EB4607072606FA07F18843A5F10A0661
:100BC00006EB460603FA06F10843E0600CE02069F4
:100BD00005EB4507072606FA07F1884305EB4506AE
:100BE00003FA06F108432061072A0FDA606B561EEC
:100BF00006EB86071F2606FA07F18843561E06EB0A
:100C0000860605FA06F10843606322E00D2A0FDA32
:100C1000206BD61F06EB86071F2606FA07F18843CE
:100C2000D61F06EB860605FA06F10843206310E09E
:100C3000E06AA2F10D0606EB86071F2606FA07F109
:100C40008843A2F10D0606EB860605FA06F1084375
:100C5000E062F0BD816841F008018160704721B118
:100C6000826842F4A002826003E0826822F4A0025B
:100C700082607047816841F0040181607047000024
:100C80002DE9F34F8BB000F0B5F800F021F94E4894
:100C90000C990068FFF7C0FA83464C480168584633
:100CA000FFF762FA81464FF07E510B98FFF7B1FAD9
:100CB00082464946FFF7B0FA8046FFF7F5FC044646
:100CC0000D4643480068FFF7EFFCCDE900014148BD
:100CD0000068FFF7E9FC8046DDE9002304F06EF8C8
:100CE000CDE904010B98FFF7DFFCCDE90201DDE956
:100CF0000423FFF7A8FB0022374BCDE90601FFF7DD
:100D0000A2FB8246354A364BFFF70FFC06462246C9
:100D10002B46FFF7F1FACDE90801FFF709FD2B4952
:100D2000086030480C990068FFF776FA07462E48AD
:100D300001683846FFF718FA05464FF07E510B98C8
:100D4000FFF767FA06462946FFF766FA0446FFF7FB
:100D5000ABFC82468B461E480068FFF7A5FC804628
:100D6000894622480068FFF79FFC064642464B46EC
:100D700004F024F8CDE902011D490B98FFF74CFA65
:100D80000646FFF791FCCDE90001DDE90223FFF7FC
:100D90005AFB0022104BCDE90401FFF754FB044637
:100DA0000E4A0F4BFFF7C1FB52465B46CDE90601E9
:100DB000FFF7A2FACDE90801FFF7BAFC0A4908607B
:100DC0000DB0BDE8F08F0000700100207C01002014
:100DD000680100206401002000806640182D445402
:100DE000FB210940740100208001002060010020E7
:100DF000000080BF2DE9FC4106236A463B216920A3
:100E000000F050FB10B10120BDE8FC819DF801000D
:100E10009DF8001040EA012000B2214908809DF8A9
:100E200003009DF8021040EA012000B21C494880EE
:100E30009DF805009DF8041040EA012000B2184911
:100E40008880B1F90000FFF7E4FB06460022154B4D
:100E5000FFF76BFB0446FFF76BFC13490860104972
:100E6000B1F90200FFF7D5FB064600220D4BFFF754
:100E70005CFB0446FFF75CFC0C4908600849B1F9CB
:100E80000400FFF7C6FB06460022064BFFF74DFBAA
:100E90000446FFF74DFC064908600020B4E7000057
:100EA000500100200000D0406001002064010020BB
:100EB0006801002010B50123044A7521692000F063
:100EC000F1FA08B1012010BD0020FCE75E0100200E
:100ED0002DE9FC4106236A464321692000F0E2FA2D
:100EE00010B10120BDE8FC819DF801009DF80010C3
:100EF00040EA012000B2214908809DF803009DF8D6
:100F0000021040EA012000B21C4948809DF805000B
:100F10009DF8041040EA012000B218498880B1F918
:100F20000000FFF776FB0646154A164BFFF7FDFA61
:100F30000446FFF7FDFB144908601049B1F90200AF
:100F4000FFF767FB06460E4A0E4BFFF7EEFA044624
:100F5000FFF7EEFB0D4908600849B1F90400FFF7FF
:100F600058FB0646064A074BFFF7DFFA0446FFF731
:100F7000DFFB074908600020B4E7000058010020AB
:100F8000FCA9F1D24D6230407001002074010020B4
:100F900078010020F8B504460D46002000F068FAFC
:100FA00042F2107000F0B2F9FFF784FF08B101209F
:100FB000F8BD2A480078682801D00220F8E7802090
:100FC000009001236A466B21692000F0CDFB08B137
:100FD0000320EDE742F2107000F098F90020009035
:100FE00001236A466B21692000F0BEFB08B1042092
:100FF000DEE70120009001236A466B21692000F0A2
:10100000B3FB08B10A20D3E71820009001236A46F9
:101010001B21692000F0A8FB08B10B20C8E70020C5
:10102000009001236A461C21692000F09DFB08B155
:101030000C20BDE72946204600F03FF808B10D20FE
:10104000B6E704EBD471C1F34F00294600F008F86D
:1010500008B10E20ACE70020AAE700005E010020E6
:1010600038B504460D46DDB1BC2C02DD01200090F0
:1010700018E0622C02DD0220009013E02A2C02DD31
:10108000032000900EE0142C02DD0420009009E003
:101090000A2C02DD0520009004E00620009001E00B
:1010A0000020009001236A461A21692000F05CFBB1
:1010B00008B1012038BD0020FCE7F8B504460E4613
:1010C0006EB14FF47A75B4F57A7F01DD284604E0FD
:1010D000042C01DA042000E0204604460CE04FF422
:1010E000FA55B4F5FA5F01DD284604E0202C01DA58
:1010F000202000E02046044695FBF4F0401EC0B2DC
:10110000009001236A461921692000F02DFB08B1E7
:101110000120F8BD0020FCE700BFFEE708B5012173
:10112000102002F007F810208DF8030003208DF83E
:1011300002000820ADF800006946044800F0F8F805
:101140000821024800F088F908BD000000100140A5
:101150000448006820B103480068401E0149086047
:10116000704700002800002021B1026842F001020F
:10117000026004E002684FF6FE731A400260704796
:1011800001684FF6FE72114001600021016041606C
:101190008160C1604B49884208D14A490839496891
:1011A00041F00F01474A083A51608AE0454914313D
:1011B000884208D143490839496841F0F001414A61
:1011C000083A51607DE03F492831884208D13D49C5
:1011D0000839496841F470613A4A083A516070E050
:1011E00038493C31884208D136490839496841F4C8
:1011F0007041344A083A516063E0324950318842C4
:1012000008D130490839496841F470212D4A083A1B
:10121000516056E02B496431884208D12949083988
:10122000496841F47001274A083A516049E025496C
:101230007831884208D123490839496841F0706102
:10124000204A083A51603CE01F49884206D1011FFC
:10125000096841F00F01021F116032E01A49143190
:10126000884208D11849091F096841F0F001164A5F
:10127000121F116025E014492831884208D1124913
:10128000091F096841F470610F4A121F116018E0CC
:101290000D493C31884208D10B49091F096841F4C6
:1012A0007041094A121F11600BE007495031884212
:1012B00007D10549091F096841F47021024A121F2C
:1012C00011607047080002400804024010B5002277
:1012D000026847F6F0739A430C6A8B6823430C69E3
:1012E00023434C6923438C692343CC6923434C6AD1
:1012F00023438C6A23431A430260CB6843600B6824
:1013000083604B68C36010BD7047000007490860E8
:101310004FF0E021096941F001014FF0E022116135
:1013200000BF024909680029FBD17047280000204E
:101330002DE9F0410246002500260020002300246C
:10134000002791F803C00CF00F0591F803C00CF0D2
:10135000100CBCF1000F03D091F802C04CEA050557
:1013600091F800C0BCF1000F31D0146800202BE0D0
:101370004FF0010C0CFA00F3B1F800C00CEA0306C0
:101380009E4220D183004FF00F0C0CFA03F7BC43B0
:1013900005FA03FC4CEA040491F803C0BCF1280FE1
:1013A00006D14FF0010C0CFA00FCC2F814C00AE0A0
:1013B00091F803C0BCF1480F05D14FF0010C0CFAB5
:1013C00000FCC2F810C0401C0828D1D31460B1F84A
:1013D00000C0BCF1FF0F34DD546800202EE000F1A6
:1013E000080C4FF0010808FA0CF3B1F800C00CEA41
:1013F00003069E4221D183004FF00F0C0CFA03F735
:10140000BC4305FA03FC4CEA040491F803C0BCF1A8
:10141000280F05D100F1080C08FA0CF8C2F8148066
:1014200091F803C0BCF1480F07D100F1080C4FF050
:10143000010808FA0CF8C2F81080401C0828CED326
:101440005460BDE8F0810246002093680B400BB168
:10145000012000E000207047416170470161704742
:101460000AB1016100E04161704700BFFEE7000082
:1014700010B504460121082001F05CFEC020074998
:1014800008801420C870032088700548FFF750FFBB
:10149000C0210348FFF7E2FF10BD0000300000202C
:1014A000000C01402DE9F04105460F4690461E46CE
:1014B00000F0DCF8002141EA4501C8B200F0A8F8CC
:1014C00000F010F9012804D100F0EEF80120BDE889
:1014D000F081384600F09CF800F004F9012803D1AF
:1014E00000F0E2F80120F2E700F0C0F8012101EB82
:1014F0004501C8B200F08CF800F0F4F8012803D1DF
:1015000000F0D2F80120E2E700240FE000F014F828
:1015100008F80400701EA04203D1012000F056F824
:1015200002E0002000F052F8601CC4B2B442EDDBCF
:1015300000F0BAF80020CAE770B5002480212148E5
:10154000FFF78CFF0320FFF7E1FE80201E49088093
:101550000420C8701B48FFF7EBFE0320FFF7D6FE00
:10156000002518E06006040E40211648FFF774FFBE
:101570000320FFF7CBFE40211248FFF76FFF032047
:10158000FFF7C4FE80210F48FFF75DFF00F0010068
:101590000443681CC5B2082DE4DB40210948FFF76D
:1015A0005BFF0320FFF7B2FE80200749088014206C
:1015B000C8700448FFF7BCFE0320FFF7A7FE2046D3
:1015C00070BD0000000C01403000002010B5044642
:1015D00040210E48FFF740FF0320FFF797FE224609
:1015E00080210A48FFF73CFF0320FFF78FFE4021D0
:1015F0000648FFF733FF0320FFF788FE402103482A
:10160000FFF72AFF0320FFF781FE10BD000C014009
:1016100070B5054600241CE040211348FFF71CFF6D
:101620000320FFF773FEC4F1070045FA00F000F055
:10163000010280210C48FFF713FF0320FFF766FE2D
:1016400040210948FFF70AFF0320FFF75FFE601CF7
:10165000C4B2082CE0DB40210348FFF7FDFE032065
:10166000FFF754FE70BD0000000C014010B5802152
:101670000C48FFF7F3FE40210A48FFF7EFFE032076
:10168000FFF744FE80210748FFF7E6FE0320FFF73F
:101690003DFE40210348FFF7DFFE0320FFF736FE43
:1016A00010BD0000000C014010B540210C48FFF7B0
:1016B000D3FE80210A48FFF7CFFE0320FFF726FE66
:1016C00040210748FFF7CAFE0320FFF71FFE8021D5
:1016D0000348FFF7C3FE0320FFF718FE10BD00000C
:1016E000000C014010B540211D48FFF7B5FE032056
:1016F000FFF70CFE80211A48FFF7B0FE0320FFF72A
:1017000005FE40211648FFF7A9FE0320FFF7FEFD66
:101710008020144908800420C8701148FFF708FE93
:101720000320FFF7F3FD80210D48FFF78CFE00F04A
:1017300001040320FFF7EAFD80200A4908801420F5
:10174000C8700748FFF7F4FD0320FFF7DFFD4021D5
:101750000348FFF781FE0320FFF7D8FD204610BDA8
:10176000000C0140300000202DE9F04105460E46F6
:1017700017469846FFF77AFF002141EA4501C8B2B3
:10178000FFF746FFFFF7AEFF012804D1FFF78CFFFC
:101790000120BDE8F0813046FFF73AFFFFF7A2FFD6
:1017A000012803D1FFF780FF0120F2E700240CE0BD
:1017B000385DFFF72DFFFFF795FF012803D1FFF7F5
:1017C00073FF0120E5E7601CC4B24445F0DBFFF77E
:1017D0006BFF0020DDE7000010B504460121082062
:1017E00001F0A8FC4FF44060074908801420C8703D
:1017F000032088700548FFF79BFD4FF440610348C4
:10180000FFF72CFE10BD000088010020000C0140F5
:101810002DE9F04105460F4690461E4600F0EAF8D5
:10182000002141EA4501C8B200F0B2F800F026F903
:10183000012804D100F000F90120BDE8F08138460C
:1018400000F0A6F800F01AF9012803D100F0F4F82E
:101850000120F2E700F0CEF8012101EB4501C8B20A
:1018600000F096F800F00AF9012803D100F0E4F83E
:101870000120E2E700240FE000F014F808F804006B
:10188000701EA04203D1012000F05CF802E00020AD
:1018900000F058F8601CC4B2B442EDDB00F0CCF8A4
:1018A0000020CAE770B500244FF400612348FFF719
:1018B000D5FD0320FFF72AFD4FF400602049088082
:1018C0000420C8701D48FFF733FD0320FFF71EFDFD
:1018D00000251BE06006040E4FF480611748FFF7F7
:1018E000BBFD0320FFF712FD4FF480611348FFF7A3
:1018F000B5FD0320FFF70AFD4FF400610F48FFF725
:10190000A2FD00F001000443681CC5B2082DE1DB14
:101910004FF480610948FFF79FFD0320FFF7F6FCB5
:101920004FF40060064908801420C8700348FFF790
:10193000FFFC0320FFF7EAFC204670BD000C0140CD
:101940008801002010B504464FF480610F48FFF76E
:1019500083FD0320FFF7DAFC22464FF400610B48B9
:10196000FFF77EFD0320FFF7D1FC4FF480610748AD
:10197000FFF774FD0320FFF7C9FC4FF480610348B3
:10198000FFF76AFD0320FFF7C1FC10BD000C01400A
:1019900070B5054600241FE04FF480611448FFF73E
:1019A0005BFD0320FFF7B2FCC4F1070045FA00F02D
:1019B00000F001024FF400610D48FFF751FD0320D4
:1019C000FFF7A4FC4FF480610948FFF747FD0320AF
:1019D000FFF79CFC601CC4B2082CDDDB4FF4806177
:1019E0000348FFF739FD0320FFF790FC70BD0000AE
:1019F000000C014010B54FF400610E48FFF72EFDBA
:101A00004FF480610B48FFF729FD0320FFF77EFCB0
:101A10004FF400610748FFF71FFD0320FFF776FC36
:101A20004FF480610348FFF717FD0320FFF76EFCBA
:101A300010BD0000000C014010B54FF480610E484D
:101A4000FFF70AFD4FF400610B48FFF705FD032087
:101A5000FFF75CFC4FF480610748FFF7FFFC0320B1
:101A6000FFF754FC4FF400610348FFF7F7FC032035
:101A7000FFF74CFC10BD0000000C014010B54FF406
:101A800080612148FFF7E8FC0320FFF73FFC4FF49B
:101A900000611D48FFF7E2FC0320FFF737FC4FF41D
:101AA00080611948FFF7DAFC0320FFF72FFC4FF4A1
:101AB0000060164908800420C8701348FFF738FCFE
:101AC0000320FFF723FC4FF400610F48FFF7BBFC36
:101AD00000F001040320FFF719FC4FF400600B49EC
:101AE00008801420C8700848FFF722FC0320FFF785
:101AF0000DFC4FF480610448FFF7AEFC0320FFF7B4
:101B000005FC204610BD0000000C014088010020AB
:101B10002DE9F04105460E4617469846FFF76AFF45
:101B2000002141EA4501C8B2FFF732FFFFF7A6FFE7
:101B3000012804D1FFF780FF0120BDE8F081304685
:101B4000FFF726FFFFF79AFF012803D1FFF774FF85
:101B50000120F2E700240CE0385DFFF719FFFFF7E2
:101B60008DFF012803D1FFF767FF0120E5E7601C27
:101B7000C4B24445F0DBFFF75FFF0020DDE7000063
:101B800000B591B00121084601F0A4FA01214802F4
:101B900001F0D0FA3748FFF7F3FA37480690374894
:101BA0000790002008904FF480700C9080000D90FA
:101BB0000220099000200A9080200B9020200E9097
:101BC00000020F900020109006A92A48FFF77EFB24
:101BD00001212848FFF7C8FA0020019001208DF864
:101BE00008008DF809004FF4602003900020049055
:101BF00002208DF8140001A91F484C38FEF7A6FFFB
:101C00004FF4404001F05AFA052301220A211A48F4
:101C10004C38FEF7C3FF052302220B2116484C382F
:101C2000FEF7BCFF012114484C38FEF760FF01218C
:101C300011484C38FEF750FF0F484C38FFF70AF8B0
:101C400000BF0D484C38FEF76BFF0028F9D10A4859
:101C50004C38FFF70FF800BF07484C38FEF752FF2B
:101C60000028F9D1012104484C38FEF7F8FF11B0E3
:101C700000BD0000080002404C24014094010020F7
:101C800008B50121102001F055FA03208DF802005B
:101C900000208DF803000320ADF8000069460748D6
:101CA000FFF746FB28208DF803000420ADF8000064
:101CB00069460248FFF73CFB08BD000000100140E8
:101CC00010B50E480E49086000210D480068FEF767
:101CD000A3FA04460B49FEF79CFA0B4908600B482F
:101CE0000B49086000210A480068FEF795FA04468F
:101CF0000849FEF78EFA0849086010BD0000DCBCF8
:101D00009801002000005C42A00100200000DC3CA3
:101D10009C01002000005CC2A40100202DE9F047D6
:101D2000044621490888FEF76FFC80464FF07E513B
:101D30002046FEF76EFA81464146FEF76DFA0646EA
:101D40001A480088FEF760FC80462146FEF764FAD8
:101D500007463146FEF708FA0546FEF778FC1349B8
:101D6000088011494888FEF74FFC80464FF07E51AD
:101D70002046FEF74EFA81464146FEF74DFA0646EA
:101D80000B480088FEF740FC80462146FEF744FAE7
:101D900007463146FEF7E8F90546FEF758FC0449C8
:101DA0000880BDE8F087000094010020A801002011
:101DB000AA0100202DE9F04704460D46244800887A
:101DC0001338B0F5805F02DD4FF4805009E0204801
:101DD00000881338002801D5002002E01C48008844
:101DE000133886B21B4800880F30B0F5805F02DDE3
:101DF0004FF4805009E0174800880F30002801D5C3
:101E0000002002E0134800880F3087B23046FEF70A
:101E1000FBFB8146104801684846FEF7FDF9804605
:101E20000E4801684046FEF79FF920603846FEF7ED
:101E3000EBFB81460A4801684846FEF7EDF980460B
:101E4000084801684046FEF78FF92860BDE8F08732
:101E5000A8010020AA01002098010020A001002074
:101E60009C010020A401002010B5FFF709FFFFF737
:101E700087FEFFF725FF10BD10B51A4800780A2825
:101E80000EDA04211848FFF7DEFA28B91548007861
:101E9000401C1449087020E00020124908701CE022
:101EA0001048007814280FDA04210F48FFF7CBFA06
:101EB000012805D10B480078401C0A4908700CE045
:101EC0000A200849087008E0002006490870074801
:101ED000008880F00100054908800448008800F06F
:101EE000010010BDAE01002000100140AC01002037
:101EF00008B50121082001F01DF94FF44050ADF85C
:101F0000000010208DF8030003208DF802006946C0
:101F10000448FFF70DFA4FF440510248FFF79EFACC
:101F200008BD0000000C014000B587B00121880207
:101F300001F000F9002002908DF80C0001208DF8CE
:101F40000D004FF4602004900020059001208DF8D2
:101F5000180002A92048FEF7F9FD4FF4404001F0B7
:101F6000ADF80523012219461B48FEF717FE012292
:101F70004FF408711848FEF7DDFD01211648FEF701
:101F8000ABFD1548FEF766FE00BF1348FEF7C8FD1F
:101F90000028FAD11048FEF76DFE00BF0E48FEF78C
:101FA000B1FD0028FAD101210B48FEF758FE4FF48D
:101FB000E06000F03BFE12208DF8040000208DF858
:101FC000050004208DF8060001208DF8070001A807
:101FD00000F0F4FD07B000BD0028014008B5012164
:101FE000042001F0A7F800208DF8030003208DF8ED
:101FF00002002020ADF8000069460248FFF798F97A
:1020000008BD0000000801402DE9F14F84B02249CD
:1020100022480068FEF7A8FB0ED221480088FEF790
:1020200009FB06461F4A204BFEF70DFA0446FEF751
:102030007FFB1A4908602CE019480088FEF7FAFA7D
:102040008046184A184BFEF7FEF9CDE902014FF021
:102050007E510498FEF7DDF88046FEF725FBCDE9BA
:102060000001DDE90223FEF7EEF904460D460B48B8
:1020700001680498FEF7D0F88046FEF715FB064687
:1020800022462B46FEF738F98246FEF751FB0349FC
:10209000086005B0BDE8F08F6F12833A9001002010
:1020A0008C010020CDCCCCCCCC4C793F10B5FFF7C7
:1020B00095FFFFF739FF10BD2DE9F04106460024DA
:1020C0000025002743484449098840F821604348D7
:1020D000007870BB4048048817E0621E3D4B53F8FF
:1020E00022101A4652F82400FEF73EFB0BD2394864
:1020F00050F82470601E374951F8200041F8240040
:10210000601E41F82070601E84B2002CE5DC32496C
:10211000088800EBD07149102E4A52F82110304A3D
:1021200011602D4800881E2846D101202B490870D7
:1021300042E0FFE7002407E0264850F82400294940
:1021400041F82400601C84B21F2CF5DB00241BE046
:10215000601C85B214E0234A52F8251052F824007E
:10216000FEF70CFB0AD21F4850F8247050F82500E7
:102170001C4941F82400084640F82570681C85B2C7
:102180001F2DE8DB601C84B21E2CE1DB07240AE073
:10219000144850F8241012480068FDF7E5FF104974
:1021A0000860601C84B2172CF2DB0F490C480068F1
:1021B000FEF764F80A49086007480088401C1F21A0
:1021C00090FBF1F201FB120003490880044800680B
:1021D000BDE8F081DC0A00203E0100203C01002027
:1021E00040010020580B00200000784100BFFEE7AE
:1021F00070B505460C46002C4DD027480088844217
:1022000008D04FF4347090FBF4F0401E234908804E
:10221000214804802248008820490988884205DA3C
:102220001F480088401C1E49088034E000201C49DB
:10223000088000F03DF81B4800881B4909880844C5
:102240001A49495708441849098890FBF1F201FBE3
:102250001200144908800846408813490988084438
:102260001249495708441049098890FBF1F201FBD3
:1022700012000C494880084680880B4909880844A8
:102280000A49495708440849098890FBF1F201FBC3
:1022900012000449888070BD86000020880000205C
:1022A0008A00002074000020700000200C560008F6
:1022B00010B50C4800880C4A32F810100B4801F099
:1022C000CAFA08484088084A32F81010074801F056
:1022D000C0FA04488088044A32F81010034801F01C
:1022E000B6FA10BD74000020B801002000040040C0
:1022F00010B500220421074801F030F9002208211E
:10230000044801F02BF900220C21024801F026F9C3
:1023100010BD00000004004070B505460C46002CBE
:102320004DD027480088844208D04FF4347090FB89
:10233000F4F0401E23490880214804802248008888
:1023400020490988884205DA1F480088401C1E4938
:10235000088034E000201C49088000F03DF81B484C
:1023600000881B49098808441A49495708441849F4
:10237000098890FBF1F201FB12001449088008461D
:1023800040881349098808441249495708441049AC
:10239000098890FBF1F201FB12000C4948800846C5
:1023A00080880B49098808440A4949570844084964
:1023B000098890FBF1F201FB12000449888070BD8E
:1023C0008C0000208E000020900000207A00002069
:1023D000700000200C56000810B50D4800880D4A0A
:1023E00032F810100C4801F030FA09484088094AC8
:1023F00032F810104FF0804001F02DFA0448808828
:10240000044A32F810104FF0804001F022FA10BD5B
:102410007A000020B80100200004004010B500221E
:102420000821C80601F09AF800220C214FF08040E4
:1024300001F094F800221146014801F08FF810BD18
:102440000004004070B505460C46002C4DD02748CE
:102450000088844208D04FF4347090FBF4F0401EA2
:10246000234908802148048022480088204909889F
:10247000884205DA1F480088401C1E49088034E065
:1024800000201C49088000F03DF81B4800881B49CB
:10249000098808441A49495708441849098890FB93
:1024A000F1F201FB120014490880084640881349E4
:1024B000098808441249495708441049098890FB83
:1024C000F1F201FB12000C494880084680880B4954
:1024D000098808440A49495708440849098890FB73
:1024E000F1F201FB12000449888070BD92000020C7
:1024F0009400002096000020800000207000002042
:102500000C56000810B50D4800880D4A32F810101E
:102510000C4801F0A0F909484088094A32F8101027
:102520004FF0804001F093F904488088044A32F863
:102530001010044801F08DF910BD0000800000204B
:10254000B80100200008004010B50022082107480B
:1025500001F004F800220421080700F0FFFF002228
:102560000C21024800F0FAFF10BD000000080040F6
:1025700000B589B001210C2000F0DCFD012107200D
:1025800000F0B8FD18208DF8230003208DF82200FC
:102590008020ADF8200008A95548FEF7C9FE0320A9
:1025A000ADF8200008A95348FEF7C2FE4C20ADF854
:1025B000200008A94E48FEF7BBFE0220ADF820001F
:1025C00008A94B48FEF7B4FE4FF44070ADF8200068
:1025D00008A94848FEF7ACFE4720ADF814003120AA
:1025E000ADF818000020ADF81600ADF81A008DF80F
:1025F0001C0005A9404801F031F905A94FF08040C1
:1026000001F02CF905A93D4801F028F96020ADF84A
:1026100004000120ADF806000020ADF80C00ADF874
:102620001000ADF80A0001A9334801F009F80821AB
:10263000314801F057F801A92F4801F061F808214D
:102640002D4801F0ADF801A92B4801F0B3F808219D
:10265000294801F0EDF801A9274800F09BFF082167
:10266000254800F0E3FF01A94FF0804001F048F851
:102670000821C80601F094F801A94FF0804001F04C
:1026800099F80821C80601F0D3F801A94FF080405D
:1026900000F0D6FF0821C80601F024F801A9174868
:1026A00001F02EF80821154801F07AF801A9134825
:1026B00001F080F80821114801F0BAF801210E4814
:1026C00000F040FF0121880700F03CFF01210B488A
:1026D00000F038FF0121084800F04FFF0121880772
:1026E00000F04BFF0121054800F047FF09B000BD95
:1026F00000080140000C01400004004000080040B8
:1027000010B5FFF7D5FDFFF767FEFFF7FBFE10BD25
:1027100010B500F00FFEFFF72BFFFFF7F1FF10BD24
:102720002DE9F34F8BB000F0B5F800F021F94E48D9
:102730000C990068FDF770FD83464C4801685846C7
:10274000FDF712FD81464FF07E510B98FDF761FDBC
:1027500082464946FDF760FD8046FDF7A5FF044629
:102760000D4643480068FDF79FFFCDE90001414851
:102770000068FDF799FF8046DDE9002302F01EFBAB
:10278000CDE904010B98FDF78FFFCDE90201DDE9EA
:102790000423FDF758FE0022374BCDE90601FDF773
:1027A00052FE8246354A364BFDF7BFFE06462246AC
:1027B0002B46FDF7A1FDCDE90801FDF7B9FF2B4937
:1027C000086030480C990068FDF726FD07462E4842
:1027D00001683846FDF7C8FC05464FF07E510B985E
:1027E000FDF717FD06462946FDF716FD0446FDF7E1
:1027F0005BFF82468B461E480068FDF755FF80460A
:10280000894622480068FDF74FFF064642464B4680
:1028100002F0D4FACDE902011D490B98FDF7FCFC4A
:102820000646FDF741FFCDE90001DDE90223FDF792
:102830000AFE0022104BCDE90401FDF704FE044618
:102840000E4A0F4BFDF771FE52465B46CDE906017D
:10285000FDF752FDCDE90801FDF76AFF0A4908605E
:102860000DB0BDE8F08F00005C0000206800002083
:10287000540000205000002000806640182D445471
:10288000FB210940600000206C0000204C0000206B
:10289000000080BF2DE9FC4106236A463B216820E9
:1028A000FEF7B6FF10B10120BDE8FC819DF80100E4
:1028B0009DF8001040EA012000B2214908809DF8EF
:1028C00003009DF8021040EA012000B21C49488034
:1028D0009DF805009DF8041040EA012000B2184957
:1028E0008880B1F90000FDF794FE06460022154BE2
:1028F000FDF71BFE0446FDF71BFF13490860104956
:10290000B1F90200FDF785FE064600220D4BFDF7EA
:102910000CFE0446FDF70CFF0C4908600849B1F9AC
:102920000400FDF776FE06460022064BFDF7FDFD8E
:102930000446FDF7FDFE064908600020B4E70000EC
:102940003C0000200000D0404C000020500000203F
:102950005400002010B50123044A75216820FEF7B9
:1029600057FF08B1012010BD0020FCE74A000020FD
:102970002DE9FC4106236A4643216820FEF748FF03
:1029800010B10120BDE8FC819DF801009DF8001008
:1029900040EA012000B2214908809DF803009DF81B
:1029A000021040EA012000B21C4948809DF8050051
:1029B0009DF8041040EA012000B218498880B1F95E
:1029C0000000FDF726FE0646154A164BFDF7ADFD45
:1029D0000446FDF7ADFE144908601049B1F9020044
:1029E000FDF717FE06460E4A0E4BFDF79EFD044608
:1029F000FDF79EFE0D4908600849B1F90400FDF796
:102A000008FE0646064A074BFDF78FFD0446FDF714
:102A10008FFE074908600020B4E700004400002052
:102A2000FCA9F1D24D6230405C0000206000002023
:102A300064000020F8B504460D460020FEF7CCFEE9
:102A400042F21070FEF762FCFFF784FF08B101202C
:102A5000F8BD2A480078682801D00220F8E78020D5
:102A6000009001236A466B216820FFF751F808B1F6
:102A70000320EDE742F21070FEF748FC00200090C2
:102A800001236A466B216820FFF742F808B1042051
:102A9000DEE70120009001236A466B216820FFF7E2
:102AA00037F808B10A20D3E71820009001236A46BE
:102AB0001B216820FFF72CF808B10B20C8E7002085
:102AC000009001236A461C216820FFF721F808B115
:102AD0000C20BDE72946204600F03FF808B10D2044
:102AE000B6E704EBD471C1F34F00294600F008F8B3
:102AF00008B10E20ACE70020AAE700004A00002041
:102B000038B504460D46DDB1BC2C02DD0120009035
:102B100018E0622C02DD0220009013E02A2C02DD76
:102B2000032000900EE0142C02DD0420009009E048
:102B30000A2C02DD0520009004E00620009001E050
:102B40000020009001236A461A216820FEF7E0FF6A
:102B500008B1012038BD0020FCE7F8B504460E4658
:102B60006EB14FF47A75B4F57A7F01DD284604E042
:102B7000042C01DA042000E0204604460CE04FF467
:102B8000FA55B4F5FA5F01DD284604E0202C01DA9D
:102B9000202000E02046044695FBF4F0401EC0B221
:102BA000009001236A4619216820FEF7B1FF08B1A1
:102BB0000120F8BD0020FCE77047000070B500213F
:102BC00000230F22C47804B3154C246804F4E06495
:102BD000C4F5E064210AC1F10403CA40447804FA50
:102BE00003F184781440214309010E4C0678A15565
:102BF000047804F01F050124AC4005786D11AD0088
:102C000005F1E025C5F8004109E0047804F01F054E
:102C10000124AC40044D0678761145F8264070BD7D
:102C20000CED00E000E400E080E100E00249014337
:102C3000024A1160704700000000FA050CED00E048
:102C400010B5002807DA0A07140E054A00F00F0332
:102C50001B1FD45403E00A07130E024A135410BD7D
:102C600018ED00E000E400E02DE9FC5F83468A46B1
:102C700051464A480068FDF777FD09D04748C0F83B
:102C800000A000204649086046490860464908609F
:102C900051465846FDF7BAFA4449086008460168AB
:102CA00043480068FDF7B8FA424908603F480068A9
:102CB000FDF7FAFC21F00041044600223E4BFDF7EF
:102CC0001FFD03D800203D4908602BE0374800680D
:102CD000FDF7EAFC21F0004104460022384BFDF7E5
:102CE000F7FC04D84FF07E50344908601AE02F48B2
:102CF0000068FDF7D9FC21F0004180460022304BEE
:102D0000FDF7FAFA00222C4BCDE90001FDF70DFC8E
:102D1000064600222B4BFDF793FB0446FDF708FD0A
:102D200026490860214801681E480068FDF71CFA22
:102D30001C4908602448016820480068FDF76CFAC7
:102D40000446184801682046FDF766FA1F490860E6
:102D50001548016815480068FDF758FA10490860E1
:102D600012480068104908600D480168184800685A
:102D7000FDF752FA17490860144801680D480068C9
:102D8000FDF7F2F90446134801682046FDF7ECF917
:102D90001149086008460068BDE8FC9FC400002097
:102DA000D4000020D0000020CC000020C80000206B
:102DB0009C000020DC00002000004E40E8000020C5
:102DC00000003E400000F03FA0000020E000002096
:102DD000A4000020E4000020D80000202DE9FC5FC2
:102DE00083468A4651464A480068FDF7BDFC09D033
:102DF0004748C0F800A000204649086046490860DE
:102E00004649086051465846FDF700FA44490860B3
:102E10000846016843480068FDF7FEF9424908602A
:102E20003F480068FDF740FC21F0004104460022C5
:102E30003E4BFDF765FC03D800203D4908602BE0C0
:102E400037480068FDF730FC21F0004104460022BD
:102E5000384BFDF73DFC04D84FF07E5034490860F4
:102E60001AE02F480068FDF71FFC21F00041804662
:102E70000022304BFDF740FA00222C4BCDE9000137
:102E8000FDF753FB064600222B4BFDF7D9FA04460B
:102E9000FDF74EFC26490860214801681E4800687D
:102EA000FDF762F91C490860244801682048006861
:102EB000FDF7B2F90446184801682046FDF7ACF961
:102EC0001F4908601548016815480068FDF79EF91C
:102ED0001049086012480068104908600D480168F0
:102EE00018480068FDF798F9174908601448016808
:102EF0000D480068FDF738F904461348016820467C
:102F0000FDF732F91149086008460068BDE8FC9FEA
:102F1000EC000020FC000020F8000020F40000205D
:102F2000F0000020A80000200401002000004E4016
:102F30001001002000003E400000F03FAC000020E7
:102F400008010020B00000200C010020000100203A
:102F50002DE9FC5F83468A46514647480068FDF7E5
:102F600003FC09D04448C0F800A000204349086091
:102F7000434908604349086051465846FDF746F901
:102F8000414908600846016840480068FDF744F977
:102F90003F4908603C480068FDF786FB21F000418E
:102FA000044600223B4BFDF7ABFB03D800203A4917
:102FB00008602BE034480068FDF776FB21F0004103
:102FC00004460022354BFDF783FB04D84FF07E50BA
:102FD000314908601AE02C480068FDF765FB21F0D4
:102FE0000041804600222D4BFDF786F90022294B37
:102FF000CDE90001FDF799FA06460022284BFDF7BE
:103000001FFA0446FDF794FB234908601E48016837
:103010001B480068FDF7A8F81949086008460168D0
:1030200020480068FDF7F8F81F4908601548016856
:1030300015480068FDF7EAF8104908601248006872
:10304000104908600D48016818480068FDF7E4F869
:1030500017490860144801680D480068FDF784F8B6
:103060000446134801682046FDF77EF811490860C0
:1030700008460068BDE8FC9F1401002024010020E0
:10308000200100201C01002018010020B4000020B5
:103090002C01002000004E403801002000003E407E
:1030A0000000F03FB800002030010020BC000020EC
:1030B0003401002028010020704700000146002054
:1030C000034A506820F440400843506070470000B5
:1030D0000010024029B1064A52690243044B5A616A
:1030E00004E0034A52698243014B5A617047000071
:1030F0000010024029B1064AD2690243044BDA614A
:1031000004E0034AD2698243014BDA617047000050
:103110000010024029B1064A12690243044B1A61A9
:1031200004E0034A12698243014B1A6170470000B0
:103130000010024029B1064A92690243044B9A6189
:1031400004E0034A92698243014B9A617047000090
:103150000010024029B1064AD2680243044BDA60EB
:1031600004E0034AD2688243014BDA6070470000F2
:103170000010024030B500210022002400232D4D14
:103180006D6805F00C0121B1042905D0082923D16F
:1031900005E0294D056022E0274D05601FE0254D23
:1031A0006D6805F47012234D6D6805F480340225B6
:1031B00005EB92421CB9214D554305600BE01D4DB6
:1031C0006D6805F400351DB11C4D5543056002E0E6
:1031D000194D5543056002E0174D056000BF00BF63
:1031E000144D6D6805F0F0010909154D6B5C05681B
:1031F000DD4045600F4D6D6805F4E061090A104D32
:103200006B5C4568DD4085600A4D6D6805F4605172
:10321000C90A0B4D6B5C4568DD40C560054D6D68A6
:1032200005F44041890B074D6B5CC568B5FBF3F5B0
:10323000056130BD0010024000127A0000093D0017
:103240001400002024000020704710B500F002F8A0
:1032500010BD00000CB500200190009033480068BC
:1032600040F480303149086000BF3048006800F405
:10327000003000900198401C0190009818B9019806
:10328000B0F5A06FF1D12948006800F4003010B10A
:103290000120009001E0002000900098012843D117
:1032A0002348006840F01000214908600846006883
:1032B00020F0030008600846006840F00200086043
:1032C0001A484068194948600846406848600846FE
:1032D000406840F4806048600846406820F47C10F4
:1032E00048600846406840F4E810486008460068B6
:1032F00040F08070086000BF0C48006800F000706B
:103300000028F9D00948406820F0030007494860C8
:103310000846406840F00200486000BF034840682B
:1033200000F00C000828F9D10CBD0000001002408C
:10333000002002402DE9F0478EB04FF0000A6420D3
:103340004349088008460088032190FBF1F0414979
:103350000880002040490880084600883D490988C7
:1033600008443D494880084640883A49098808444D
:103370003949888000203949088008460088354945
:1033800009880844354948800846408831490988F9
:103390000844324988800020314908800846008866
:1033A0002C49098808442E49488008464088294904
:1033B000098808442A49888000BF41E024480088E1
:1033C000FDF738F9CDE902010AF10100FDF721F915
:1033D00006460022234BFDF736F8CDE90001DDE972
:1033E0000223FDF7A2F800224FF08043CDE904014B
:1033F000FDF729F804461C4A1C4BFDF724F88046CB
:1034000002F0B4F80022174BCDE90601FCF774FF77
:103410000022174BCDE90801FDF715F800224FF007
:103420008043CDE90A01FDF780F8CDE90C01FDF7F5
:1034300022F9104921F81A000AF101001FFA80FA56
:10344000034800888245B9DB0EB0BDE8F087000074
:103450007000002072000020740000207A0000201C
:10346000800000200000F03F182D4454FB2109404B
:1034700000804840B801002000B5FDF769FE00BD9E
:1034800010B51348006840F0010011490860084673
:103490004068104908400E494860084600680E49D7
:1034A00008400B4908600846006820F48020086046
:1034B0000846406820F4FE0048604FF41F00886012
:1034C000FFF7C3FE4FF000600449086010BD000024
:1034D000001002400000FFF8FFFFF6FE08ED00E0DC
:1034E00010B5164800681649B0FBF1F4B4F1807FBE
:1034F00001D3012011E024F07F40401E4FF0E02175
:1035000048610F214FF0FF30FFF79AFB00204FF08A
:10351000E021886107200861002008B100BFFEE7B4
:103520004FF0E020006920F001004FF0E021086139
:103530000021481EFFF784FB10BD000000000020A2
:1035400040420F0021B1028842F08002028004E074
:1035500002884FF67F731A400280704730B500230F
:1035600001248C40A3B2048C9C430484048C02FA92
:1035700001F5ADB22C43048430BD21B1028842F084
:103580000102028004E002884FF6FE731A400280B6
:103590007047000070B5002400220023058C4FF610
:1035A000FE7635400584028C8388048B4FF68F7538
:1035B0002C40B51E2C400D882C43751E2A400D89C9
:1035C0002A434D882A43144DA8420BD0134DA842DC
:1035D00008D0134DA84205D0124DA84202D0124D7A
:1035E000A84213D14FF6F7752A404D892A434FF66A
:1035F000FB752A408D882A434FF6FF652B404FF616
:10360000FF552B408D892B43CD892B438380048329
:10361000CD888586028470BD002C014000340140B5
:103620000040014000440140004801400A4600219A
:10363000018B4FF6F7731940114301837047000067
:1036400070B5002400220023058C4FF6EF7635403C
:103650000584028C8388048B48F6FF752C404FF656
:10366000FF452C400D884FF6FF7606EA05252C43D2
:103670004FF6DF752A400D8906EA05152A434D8865
:1036800006EA05152A43154DA84202D0144DA8425A
:103690001DD14FF67F752A404D894FF6FF7606EA19
:1036A00005152A434FF6BF752A408D8806EA051591
:1036B0002A434FF6FF352B404FF2FF752B408D8983
:1036C00006EA85052B43CD8906EA85052B438380D1
:1036D0000483CD880587028470BD0000002C014062
:1036E000003401400A460021018B4FF2FF7319405C
:1036F0004FF6FF7303EA022319430183704700006A
:1037000070B5002400220023058C4FF6FF6635407B
:103710000584028C8388848B4FF68F752C404FF67E
:10372000FC752C400D882C434FF6FF552A400D891F
:103730004FF6FF7606EA05252A434D8806EA052559
:103740002A43154DA84202D0144DA8421DD14FF274
:10375000FF752A404D894FF6FF7606EA05252A4374
:103760004FF6FF352A408D8806EA05252A434EF696
:10377000FF752B404DF6FF752B408D8906EA051528
:103780002B43CD8906EA05152B4383808483CD889E
:103790008587028470BD0000002C01400034014088
:1037A0000A460021818B4FF6F7731940114381833C
:1037B0007047000070B5002200230024058C4EF6EF
:1037C000FF7635400584038C8488828B48F6FF752C
:1037D0002A404FF6FF452A400D884FF6FF7606EA4D
:1037E00005252A434DF6FF752B400D8906EA053560
:1037F0002B434D8806EA05352B430B4DA84202D0DA
:103800000A4DA84208D14BF6FF752C408D894FF622
:10381000FF7606EA85152C4384808283CD88A0F844
:103820004050038470BD0000002C01400034014072
:103830000A460021818B4FF2FF7319404FF6FF7348
:1038400003EA022319438183704781867047018709
:10385000704781877047A0F84010704700220288A7
:103860001D4B98420ED01D4B98420BD0B0F1804FAB
:1038700008D01B4B984205D01A4B984202D01A4BE5
:10388000984204D14FF68F731A404B881A43174B56
:10389000984207D0164B984204D04FF6FF431A4087
:1038A000CB881A4302808B8883850B8803850A4B5B
:1038B00098420BD0094B984208D00E4B984205D045
:1038C0000D4B984202D00D4B984201D10B7A0386E2
:1038D0000123838270470000002C01400034014026
:1038E0000004004000080040000C004000100040B0
:1038F00000140040004001400044014000480140E5
:1039000010B540F225510C4800F083F8012811D180
:10391000094800F039F90949094A128888540849C8
:103920000988481CC11700EB11610912A0EB0121A5
:10393000034A118010BD000000380140B809002082
:103940009800002021B1828942F40052828104E073
:1039500082894DF6FF731A408281704710B5044684
:103960002048844209D101218803FFF7F3FB00219D
:103970004FF48040FFF7EEFB32E01B48844209D150
:1039800001214804FFF7C6FB00214FF40030FFF788
:10399000C1FB25E01548844209D101218804FFF7C5
:1039A000B9FB00214FF48020FFF7B4FB18E010486A
:1039B000844209D10121C804FFF7ACFB00214FF478
:1039C0000020FFF7A7FB0BE00A48844208D1012141
:1039D0000805FFF79FFB00214FF48010FFF79AFBCB
:1039E00010BD000000380140004400400048004085
:1039F000004C00400050004002460020B1F5007F1E
:103A000000D100BF13880B400BB1012000E0002063
:103A1000704770B50246002400230025002040F6C0
:103A20006A16B14200D100BFC1F3421501F01F0375
:103A3000012606FA03F3012D02D19689334006E0F0
:103A4000022D02D1168A334001E0968A33400C12CF
:103A5000012606FA04F41688344013B10CB1012093
:103A600000E0002070BDF0B50346002400260025CC
:103A7000002040F66A17B94200D100BF1846C1F3D2
:103A8000421401F01F06012707FA06F5012C01D1A7
:103A90000C3004E0022C01D1103000E014301AB1D7
:103AA00007682F43076002E00768AF430760F0BD77
:103AB0002DE9F04786B005460E460024A24600BF19
:103AC000A1460027B08900B100BF2F462C8A4CF6D2
:103AD000FF700440F08804432C82AC894EF6F3104A
:103AE0000440B08831890843718908430443AC819C
:103AF000AC8A4FF6FF400440B0890443AC8201A871
:103B0000FFF738FB1F48874202D1DDF810A001E023
:103B1000DDF80CA0A88900F4004040B10AEBCA000F
:103B200000EB0A1031684900B0FBF1F807E00AEB3E
:103B3000CA0000EB0A1031688900B0FBF1F864207C
:103B4000B8FBF0F004012009642101FB1089A88969
:103B500000F4004040B1322000EBC900B0FBF1F0AE
:103B600000F00700044308E0322000EB0910642154
:103B7000B0FBF1F000F00F0004432C8106B0BDE86B
:103B8000F08700000038014001468888C0F3080033
:103B90007047C1F308028280704700BFFEE7000053
:103BA00010B586B00446012144F20500FFF7C2FAC1
:103BB0004FF40070ADF8140018208DF817000320A2
:103BC0008DF8160005A92048FDF7B2FB4FF4806080
:103BD000ADF8140004208DF8170005A91A48FDF768
:103BE000A7FB1A48FFF7BAFE01940020ADF80800C1
:103BF000ADF80C00ADF80A00ADF810000C20ADF8DF
:103C00000E0001A91148FFF753FF4FF4E060FFF7E2
:103C10000DF825208DF8000000208DF8010002200D
:103C20008DF8020001208DF803006846FEF7C6FFFC
:103C3000012240F225510548FFF715FF01210348F5
:103C4000FFF780FE06B010BD0008014000380140BB
:103C50000FB4054B10B503A9044A029800F006FC06
:103C600010BC5DF814FB00003D4F0008B0010020BF
:103C7000490050EAC12018BF04204A0D18BF40F087
:103C8000010040F2FF72B2EB515F08BF40F002004A
:103C9000012808BF052070472DE9F74F144694B05E
:103CA0000021C4E902111599079121F00045C94985
:103CB0008D4206DC1599C4E9000117B00020BDE86B
:103CC000F08FC549DFF814A3A9423CDD0799C44E23
:103CD0000029C44FC44A1599534619DDFCF7ADFBC2
:103CE000554506D0C14AC24BFCF7A7FBC4E9000109
:103CF0000AE04FF0D352BE4BFCF79FFB32463B46E7
:103D0000FCF79BFBC4E9000117B00120BDE8F08F70
:103D1000FCF7F2FA554506D0B44AB54BFCF7ECFA7D
:103D2000C4E900010AE04FF0D352B14BFCF7E4FACA
:103D300032463B46FCF7E0FAC4E9000117B04FF009
:103D4000FF30BDE8F08FAB49A942159978DB21F02F
:103D5000004183468846A84AA84BFCF774FB002222
:103D6000A74BFCF7C9FAFCF761FE0990FCF751FC80
:103D700006460F469C4A5346FCF765FB43465A46A7
:103D8000FCF75EFB80468A46984A994B3046394696
:103D9000FCF759FB2A0D01250B9242465346FCF7CE
:103DA0004FFB032DC4E9000139D00B98C1F30A5130
:103DB000401A05EB45111139814230DA9148C3466A
:103DC000784400EB0510CDF80CA00C90D0E900234E
:103DD00030463946FCF737FB02460B460491069005
:103DE00058460399FCF729FB80468A4602460B4653
:103DF00058460399FCF721FB049B069AFCF71DFB30
:103E000083460C9803913946D0E902233046FCF7EB
:103E10001AFB5A46039BFCF710FB6D1CBDE7079885
:103E20000028A2BF099817B0BDE8F08F616881F043
:103E300000416160099817B04042BDE8F08FFFE78C
:103E400084461598C1F31301C0F30A50A0F2F5306F
:103E50004FEA601800F01F06C6F120001390002002
:103E60000690079041F4801E05206D4676B1664AA3
:103E700008EB00017A4452F8213002EB8101B34093
:103E80004A68139922FA01F1194305E05F4908EBEA
:103E90000002794451F82210A1FB0E27A1FB0C135C
:103EA0001A449A4234BF0123002303EB070A05EBAF
:103EB0008003D3E901B70F448F4234BF01210021B1
:103EC00093448B4411B1934502D903E0934501D249
:103ED000012100E00021C3E901B7514445F8201059
:103EE000011EA0F10100C1DC0298059F00F1005005
:103EF000800F12900298DDE903568000FCF789FBE1
:103F0000834628460D91FCF795FB6FF01D02FCF7E8
:103F10004BFDCDE90E013046FCF78CFB6FF03D0206
:103F2000FCF742FD80468A463846FCF783FB6FF07B
:103F30005D02FCF739FD0746424653461191FCF7F6
:103F4000DBF9DDE90E23FCF7D7F95A460D9BFCF7A8
:103F5000D3F900250E465A4628460D9BFCF76DFA0C
:103F6000DDE90E23FCF769FA42465346FCF765FA91
:103F70003A46119BFCF764FADFF898A0244A5346AE
:103F8000FCF761FA07468846234A244B3146284607
:103F9000FCF759FA3A464346FCF7AEF9074688461D
:103FA0004FF0A842534631462846FCF74CFA3A46B1
:103FB0004346FCF7A1F9159A12F0004F04D0129A6B
:103FC00081F0004152421292C4E90001129817B0E8
:103FD000BDE8F08FFB21E93F7CD90240FB21F93F8E
:103FE0007370032E8A19A33B000040543163621A98
:103FF00061B4D03DFB21394183C8C96D305FE43FD6
:104000000000E03F1C190000981800007A1800001A
:10401000182D4454FB21F93D3326A611460B113CC3
:104020002DE9FF4D21F0004807460C46B8F1795FB5
:1040300008DAFCF7FBFC002801BF0020324904B07D
:10404000BDE8F08D3A46234610461946FCF7FBF9C9
:10405000054602462D480E460B460621784400F0E0
:104060005DF82A463346FCF7EEF9DDE90223824685
:104070008B4638462146FCF7E6F904460F46524681
:104080005B4628463146FCF7DEF922463B46FCF704
:10409000D4F907468A464FF0FF3228463146FCF7EE
:1040A00083FC1B4A90450ADA3A465346FCF7C5F9A9
:1040B00004B00022BDE8F04D134BFCF7C1B9154A1E
:1040C0004245A8BFA8F500154FF00004B8BF124D37
:1040D00022462B46FCF7B1F90646884622462B4677
:1040E00000200949FCF7A9F904460D463A46534613
:1040F00030464146FCF7A1F904B022462B46BDE804
:10410000F04DFCF79DB900000000F03F481600009C
:104110003333D33F0000E93F0000D23F2DE9F041A7
:104120004F1E00EBC7010446D1E9000115461E46AB
:1041300037F006020DD02A463346FCF784F97F1E7D
:1041400004EBC703D3E90023FCF7D6F837F00602E7
:10415000F1D1022F25D0042F13D0062F18BFBDE8B0
:10416000F0812A463346FCF76EF9D4E90A23FCF7BE
:10417000C3F82A463346FCF766F9D4E90823FCF76E
:10418000BBF82A463346FCF75EF9D4E90623FCF770
:10419000B3F82A463346FCF756F9D4E90423FCF772
:1041A000ABF82A463346FCF74EF9D4E90223FCF774
:1041B000A3F82A463346FCF746F9D4E90023BDE8C4
:1041C000F041FCF799B800002DE9FF4D054621F0BC
:1041D000004084B00C46B0F1795F0BDA2846FFF757
:1041E00047FD042808BF00F071F8284608B02146B2
:1041F000BDE8F08D2A460B461046FCF724F906462A
:104200000F462A462346FCF71EF9804626488A4672
:1042100032463B4605217844FFF780FF83461098DD
:10422000029160B3214A224B40465146FCF70BF9FC
:10423000CDE900015A4640465146029BFCF703F97E
:1042400082468846DDE906014FF0FF32FCF7ACFB01
:1042500052464346FCF7F1F832463B46FCF7F3F88A
:10426000DDE90623FCF7E9F8DDE90023FCF7E5F8D2
:1042700008B02A462346BDE8F04DFCF7E1B80B46EE
:104280005A4630463946FCF7DEF8084A084BFCF738
:1042900033F842465346FCF7D6F808B02A46234680
:1042A000BDE8F04DFCF728B88E150000495555556E
:1042B0005555C5BF0122FCF777BBFCF71DB800229E
:1042C000134610461146FCF730B90000024A0020A0
:1042D0001107FCF769BB000001FDFFFF02E008C801
:1042E000121F08C1002AFAD170477047002001E070
:1042F00001C1121F002AFBD170470000014908606C
:1043000070470000B40100202DE9FF5FDDE90220C5
:10431000010DDDF838B0024318D044F61050A1F278
:10432000FF3141430D140F98012820D0A5EB0B005D
:10433000401C5FEA000A4FF00004474EDFF81C9172
:10434000A046504616D5CAF1000728E00F98012470
:1043500043A2012808D0002100980F9BC0E900214A
:10436000C0E90243BDE8FF9F6FEA0B01F4E7CBF120
:104370000000DEE7074612E0F80707D02246334682
:1043800040464946FCF75FF8804689462246334658
:1043900010461946FCF757F804460E467F10002FCA
:1043A000EAD1DDE90201BAF1000F42464B4602DADA
:1043B000FCF749F801E0FCF7B8F804460E46002285
:1043C000284BFCF79DF903D84FF0FF30014607E07A
:1043D0000022254B20463146FBF78EFFFCF7FBFA07
:1043E000102409E0002C0ADB0A220023FCF7E6F97E
:1043F000019B30321A55641E50EA0102F2D1641C4E
:10440000019AC4F1110314440F9A012A03D0012226
:1044100008430DD10AE0084304D000204FF0110BEF
:104420000F9080E7A3EB0B056D1E0DE05B4504DDEF
:104430004FF0000205F1010504E003DA4FF000023D
:10444000A5F10105002AECD000980F99C0E90231CE
:10445000C0E9004586E70000000024400000F03F6E
:10446000300000000000F0430000E03F2DE9FF4F66
:1044700095B09B468946064600250FE2252877D150
:1044800000242746F84A0121059400E0044316F869
:10449000013F203B01FA03F01042F7D130782A287F
:1044A00011D06FF02F033078A0F13002092A16D80E
:1044B000059A44F0020402EB820203EB420210442C
:1044C000761C0590EFE759F8042B0592002A03DAD1
:1044D000504244F40054059044F00204761C3078B5
:1044E0002E2816D116F8010F44F004042A280DD006
:1044F0006FF02F023078A0F13003092B09D807EBB9
:10450000870302EB4303C718761CF3E759F8047BD3
:10451000761C30786C280FD006DC4C2817D0682821
:104520000DD06A2814D104E0742810D07A280FD155
:104530000DE044F400140AE044F4801401E044F473
:1045400040147278824202D104F58014761C761CE5
:10455000307866280BD013DC582877D009DC002887
:1045600075D04528F6D04628F4D047281AD19DE1C9
:1045700018E0632835D0642879D0652812D195E1F8
:10458000702873D008DC6728F1D069286FD06E28B6
:104590000DD06F2806D1B5E073282CD0752875D0C2
:1045A000782874D05A46179990476D1C75E1C4F36A
:1045B0000250022809D003280DD0D9F80010042891
:1045C0000DD00D6009F1040967E1D9F80010EA1770
:1045D000C1E90052F6E7D9F800100D80F2E70D703E
:1045E000F0E719F8041B8DF8001000208DF8010089
:1045F000EA46012003E059F804AB4FF0FF306107B1
:104600004FF0000102D40DE008F101018846B942E3
:104610000FDA8045F8DB1AF808100029F4D108E019
:1046200008F1010188468142FADB1AF808100029D6
:10463000F6D105985B46A0EB080721463846179A45
:1046400000F094FA284400EB080507E04DE029E16A
:104650000DE01AF8010B5A4617999047B8F1010876
:10466000F7D25B4621463846179A13E142E00A2208
:104670000092C4F302524FF0000A022A08D059F8FF
:1046800004CB032A4FEAEC710AD00DE029E02AE0BE
:1046900009F1070121F00702F2E802C1914609E0A1
:1046A0000FFA8CFC4FEAEC71042A03D14FFA8CFC10
:1046B0004FEAEC71002907DA0A460021DCF1000C10
:1046C00061EB02012D2202E0220504D52B228DF898
:1046D0000420012203E0E20701D02022F7E7904600
:1046E00059E00A2102E010220DE010214FF0000AEB
:1046F00000910BE010224FF0000A44F00404082758
:10470000009203E008224FF0000A0092C4F3025224
:10471000022A05D059F804CB0021032A08D009E069
:1047200009F1070121F00702F2E802C1914605E014
:104730001FFA8CFC042A01D10CF0FF0C4FF000088A
:10474000220728D5702806D0009B83F0100353EA77
:104750000A0305D00EE040228DF80420012208E073
:104760005CEA010206D030228DF804208DF80500A5
:1047700002229046009B83F0080353EA0A030AD101
:104780005CEA010201D1620705D530228DF80420D0
:104790004FF001087F1E582804D034A003900EA8C3
:1047A00002900DE036A0F9E753466046009AFCF708
:1047B00005F884460398825C0298401E02900270BD
:1047C0005CEA0100F0D1029806A9081A00F1200A5B
:1047D000600702D524F4803400E00127574502DD4C
:1047E000A7EB0A0000E0002000EB0A01009005980A
:1047F0004144401A0590E00306D45B462146179ACF
:10480000059800F0B3F90544002706E001A85A46D0
:10481000C05D179990476D1C7F1C4745F6DBE00390
:104820000CD55B462146179A059800F09FF9054480
:1048300004E030205A46179990476D1C0099481E95
:1048400000900029F5DC08E0029802995A460078A9
:10485000491C0291179990476D1CBAF10001AAF109
:10486000010AF1DC65E10000092801003031323332
:10487000343536373839616263646566000000009C
:104880003031323334353637383941424344454686
:104890000000000000F058F90544761C307800282C
:1048A0007FF4ECAD19B02846BDE8F08F620700D464
:1048B000062709F1070222F0070CFCE80223E14673
:1048C00003F000485FEA080C02D00FF2702C0DE0F4
:1048D0005FEA045C02D50FF2682C07E05FEAC47C53
:1048E00002D00FF2602C01E0AFF2700C4FF0FF38F5
:1048F00023F00043CDF850C065280CD006DC4528D5
:1049000009D046281DD047283DD13DE0662818D063
:1049100067287ED138E00021112F01DB112000E053
:10492000781CCDE9000106A90EA8FFF7EDFCDDE932
:104930000F010E9A03910021009207F1010A0491E0
:104940004DE04FF000400097CDE9011006A90EA8F8
:10495000FFF7DAFCDDE90F0203920E9B11990022AA
:10496000DDF80CA00093049211B9791C00EB010A48
:10497000B7EB0A0004D4C0F1FF3007F1010A04903C
:10498000AAEB0700019044E0012F00DA0127002183
:10499000112F01DD112000E03846CDE9000106A904
:1049A0000EA8FFF7B1FCDDE90F010E9A039100217B
:1049B00004910092BA4621070CD40399514500DABC
:1049C0008A46BAF1010F05DD009AAAF10101515C96
:1049D000302908D0B84202DA10F1040F06DA0121BA
:1049E000CDE9011015E0AAF10101E9E7002805DC95
:1049F000049901440491AAEB000102E0411C5145D5
:104A000000DD8A460499401A401C01904FF0004096
:104A10000290200704D40198504501DBCDF80480B2
:104A200000208DF84F0002980DF14F07B0F1004FB4
:104A300025D02B200E9002984FF0020800280CDAA7
:104A4000404202902D200E9007E00A210298FBF7C9
:104A50009FFE3031029007F8011DB8F10001A8F166
:104A60000108F2DC02980028EFD1791E0E98087038
:104A7000307800F0200040F0450007F8020D12A841
:104A8000C01B00F107081498007800B1012000EB6A
:104A90000A01019801EBE07105984144401A401E5B
:104AA0000590E00306D45B462146179A059800F06E
:104AB0005DF805441498007818B15A461799904744
:104AC0006D1CE00324D55B462146179A059800F03B
:104AD0004DF805441CE00498002807DBDDE90301DC
:104AE000884203DD0098405C179901E01799302057
:104AF0005A469047049805F10105401C049001981E
:104B0000401E019004D12E205A46179990476D1CE3
:104B1000BAF10001AAF1010ADDDC05E017F8010B8A
:104B20005A46179990476D1CB8F10001A8F1010889
:104B3000F4DC5B462146179A0598ABE62D00000091
:104B40002B000000200000002DE9F0410446002564
:104B50001E461746880404D405E039462020B04795
:104B60006D1C641EF9D52846BDE8F0812DE9F041A1
:104B7000044600251E469046C80301D5302700E0B4
:104B80002027880404D505E041463846B0476D1C0F
:104B9000641EF9D52846BDE8F08100002DE9F84FE4
:104BA00004460D4621F0004000917349814211DC1A
:104BB0007249884201DC06D12CB120462946BDE865
:104BC000F84FFFF777BB6E48002DCCBF6D496E499B
:104BD000BDE8F88F6D49814211DD6D498142D8BF32
:104BE0004FF0FF366DDD20462946FFF741F80428D7
:104BF00008BFFFF76BFB20462946BDE8F88F6549E3
:104C0000654F25F00045814233DD6449814219DD5D
:104C1000002632464FF0804320462946FBF76CFBC6
:104C200080468A46012220462946FBF7BDFE002227
:104C30003B46FBF702FC42465346FBF776FC044634
:104C40000D463EE001260022BA463B462046294654
:104C5000FBF752FB80460F4600225346204629466A
:104C6000FBF7EBFB42463B46FBF75FFC04460D4679
:104C700027E04B4981421BDDDFF828A102260022F4
:104C8000534620462946FBF7DEFB00223B46FBF756
:104C900033FB80460F460022534620462946FBF749
:104CA000CCFB42463B46FBF740FC04460D4608E081
:104CB000032622462B4600203B49FBF736FC0446E0
:104CC0000D4622462B4610461946FBF7BCFB8B4689
:104CD000824602460B46FBF7B6FB074602463348C0
:104CE00088460B4606217844FFF718FA52465B4681
:104CF000FBF7A9FB82462E488B463A4643460521E0
:104D00007844FFF70BFA3A464346FBF79CFB024612
:104D10000B46002E504659460CDAFBF7EDFA2246B8
:104D20002B46FBF790FB01B022462B46BDE8F04F27
:104D3000FBF786BBFBF7E0FA22462B46FBF783FB2B
:104D40001C4A7A4402EBC603D3E90023FBF775FB48
:104D500022462B46FBF771FB174A7A4402EBC60347
:104D6000D3E90023FBF76CFB009A002AB8BF81F05F
:104D70000041BDE8F88F0000000010440000F07F03
:104D8000182D4454FB21F93FFB21F9BF0000DC3F03
:104D90000000203E0000F33F0000F03F0000E63F2F
:104DA000008003400000F83F0000F0BF8E090000C3
:104DB0004C090000EA080000B20800002DE9F04D9F
:104DC0009446CCF1000423F000464CEA0404524F10
:104DD00046EAD4749A46884621F00042BC4206D87E
:104DE000454240EA050442EAD474BC4204D9BDE815
:104DF000F04D6246FFF761BAAAF14055A5F17F6513
:104E000055EA0C040BD0022404EAAA74434DDFF8DF
:104E100010E144EAD87452EA000B04D00CE0BDE87B
:104E2000F04DFFF7BBBE002C14BF012CBDE8F08D88
:104E3000022C30D0032C32D056EA0C0B0AD0BE42E2
:104E400020D1BA4209D126F0804622F08042334672
:104E5000114617E000291ADB25E0DFF8C8B0FB4453
:104E6000002C04BFDBE90001BDE8F08D012C02BF7E
:104E7000DBE9000181F00041BDE8F08D022C0AD091
:104E8000032C0CD0BA4212D1B8F1000F0BDA234830
:104E90002549BDE8F08D28462449BDE8F08D284617
:104EA0007146BDE8F08D1D482149BDE8F08D921B8B
:104EB00012153C2AC4BF19481D490EDCBAF1000F77
:104EC000BEBF12F13C0F0020014606DB6246FBF735
:104ED0002CFB21F00041FFF761FE002C08BFBDE86C
:104EE000F08D012C04BF81F00041BDE8F08D114A26
:104EF000114B022C07D0FBF7A0FA2A46BDE8F04D73
:104F00000A4BFBF79ABAFBF798FA2A46BDE8F04D30
:104F1000064BFBF795BA00000000F07F182D4454B3
:104F2000FB2109C076080000FB21F9BFFB210940E5
:104F3000FB21F93F075C143326A6A13C70B504465B
:104F40000D46E1B20548FEF724FE00BF802103486C
:104F5000FEF752FD0028F9D0204670BD0038014010
:104F600096B00024002500260027A046A146A246B0
:104F7000A3460020149013901290119010900F905F
:104F80000E900D900C900B900A90FCF7B1FFFEF77D
:104F9000A7FA4FF4E130FEF703FE4FF48050FB49CF
:104FA000086040000860FDF781F8FCF7B7F8FCF7EF
:104FB0005BFF01213220FDF73DFD05460BE0294650
:104FC000F3A0FEF745FEF748FCF7A0F901213220D7
:104FD000FDF730FD0546002DF1D101213220FBF710
:104FE000D9FF05460BE02946EFA0FEF731FEED485C
:104FF000FCF78CF901213220FBF7CCFF0546002D90
:10500000F1D1FDF785FBA7E2C4F103003C2191FB40
:10501000F0F1781CB0FBF1F201FB12073FB9DB485D
:10502000001F006880F48050D849091F0860E348D9
:10503000FCF7EAFF86B9E249E2480068FBF79EFB0D
:105040000AD24FF40050D14908600821DE48FCF72D
:1050500003FA4FF0000823E008F101002821B0FB1B
:10506000F1F201FB1208B8F1000F19D1C748001F77
:10507000006880F40050C549091F0860D248C06824
:1050800080F00800D049C8600126CE480068FBF7D0
:105090000BFB02460B46CDE90801CCA0FEF7D8FD7C
:1050A000002E7BD1002C5CD1CB49CC48FDF738FBDE
:1050B000CB480068FBF7F8FACDE90801C948006859
:1050C000FBF7F2FACDE90601DDE90801CDE90001BF
:1050D000C5A0DDE90623FEF7BBFDC1480068FBF76C
:1050E000E3FA21F000410022C64BCDE90801FBF7AD
:1050F00007FB0CD3BB480068FBF7D6FA21F0004150
:105100000022C04BCDE90801FBF7FAFA1AD20021C0
:10511000B3480068FBF728FB01D2012000E0002023
:1051200078210990FDF7F8F80021AE480068FBF7F8
:1051300025FB01D2012000E0002078210990FDF735
:1051400057F805E209F10109B9F1C80FF9D90021B1
:105150000846FDF74DF800210846FDF7DDF801246B
:10516000F6E1012C53D10BF1010BBBF1C80FE8D9CB
:10517000BAF57A7F13D2FDF7FBFBFBF7A9FEA24835
:1051800001680D98FAF7F0FF0D90A04801680E989D
:10519000FAF7EAFF0E900AF1010AD9E1D2E19C493F
:1051A0000D98FBF76BF80D9099490E98FBF766F890
:1051B0000E900E98FBF778FACDE908010D98FBF7F1
:1051C00073FACDE90601DDE90801CDE9000191A0FE
:1051D000DDE90623FEF73CFD90490D98FBF7CEFA7A
:1051E0000ED38F490D98FBF7BFFA09D38D490E985E
:1051F000FBF7C4FA04D38C490E98FBF7B5FA04D236
:1052000000200E900D908246A2E10224A0E1724996
:105210007248FDF785FA70497048FBF731FD7A480E
:105220000D990068FAF7F2FF80490890FBF726F81D
:1052300009901099FAF798FF109074480E99006839
:10524000FAF7E4FF79490890FBF718F809901199EB
:10525000FAF78AFF1190DDE91001FAF7D7FF0F90F6
:105260006A480E990068FAF7D1FF0990FCF724FF0D
:105270000C900C98FBF718FACDE908011198FBF790
:1052800013FACDE906011098FBF70EFACDE90401F7
:10529000DDE90801CDE90201DDE90601CDE9000102
:1052A00063A0DDE90423FEF7D3FC64496448006889
:1052B000FBF764FA11D3634961480068FBF754FABD
:1052C0000BD3614961480068FBF758FA05D3604980
:1052D0005E480068FBF748FA04D200201290139051
:1052E0001490CDE0FCF7C8FD90B35A48FCF716FDCA
:1052F0000BA90AA8FCF75EFD57490B98FBF73EFA8D
:1053000001D2554807E055490B98FBF72DFA01D219
:10531000524800E00B980B904F490A98FBF72EFA81
:1053200001D24D4807E04D490A98FBF71DFA01D21A
:105330004A4800E00A980A902A480B990068FDF74D
:1053400093FC14900A990F98FDF702FE129091E0D9
:10535000FFE7002123480068FDF786FC14900C98B5
:10536000FBF7A2F921F000414FF020423C4BCDE980
:105370000801FBF7C5F978D22C490C98FAF77EFFA3
:1053800038490990FAF748FF129073E0100C014079
:105390004572726F722D6D7075363035302D256403
:1053A0000D0A0000400D03004572726F722D626F8E
:1053B0006172646D70752D25640D0A00A4707D3FC7
:1053C0000000E04090010020001001404C69506F47
:1053D0003A25660D0A0000000AD7A33BCDCC4C3D10
:1053E0006C000020680000205B23315D70697463ED
:1053F000683A20256620726F6C6C3A2025660D0A8B
:105400000000000000000840640000207801002037
:1054100000007A4425662C25660D0A00000080BF36
:105420000000A0BF6666E6BE0000A0C000004843C2
:1054300025662C25662C25662000000000003442DD
:105440007C010020000034C20000B4428001002032
:105450000000B4C26666663F00004842000048C2D1
:105460009999C93F00409C45FFE700210F98FDF73F
:105470006FFD1290002139480068FDF7AFFC1390D2
:105480001298FBF711F9CDE908011398FBF70CF915
:10549000CDE906011498FBF707F9CDE90401DDE930
:1054A0000801CDE90201DDE90601CDE900012CA0EA
:1054B000DDE90423FEF7CCFB1498FBF7F5F821F0A7
:1054C0000041CDE90601FBF7D6F880B20021099032
:1054D0001498FBF753F901D2012000E00020089056
:1054E0000999FCF785FE1398FBF7DEF821F00041DF
:1054F000CDE90601FBF7BFF880B2002109901398AF
:10550000FBF732F901D2012000E000200890099950
:10551000FCF702FF1298FBF7C7F821F00041CDE934
:105520000601FBF7A8F880B2002109901298FBF75A
:1055300025F901D2012000E0002008900999FCF72C
:1055400081FF05E0FCF7D4FEFCF768FFFCF7FCFFE9
:1055500041F28830FBF7DAFE56E500006C000020CF
:1055600025662C25662C25660D0A000000B5254B06
:1055700021F0004287B09A4203DC002213460092D9
:105580002BE0214B9A4208D140B94FF00100FEF7C1
:10559000B5FEFEF794FE07B000BD03DBFEF78AFE02
:1055A00007B000BD02AAFEF777FB10F003014FF031
:1055B00001000DD0012914D002291AD00DF1080CD8
:1055C0009CE80F00FEF72CFD07B081F0004100BD04
:1055D0000DF1080C00909CE80F00FEF7F5FD07B0F8
:1055E00000BD0DF1080C9CE80F00FEF719FD07B097
:1055F00000BD0DF1080C00909CE80F00FEF7E4FDE3
:10560000E2E70000FB21E93F0000F07FFF0100001E
:105610004FBB610567ACDD3F182D4454FB21E93FCA
:105620009BF681D20B73EF3F182D4454FB21F93FB9
:10563000E2652F227F2B7A3C075C143326A6813C3F
:10564000BDCBF07A8807703C075C143326A6913CEA
:10565000C4EB98999999C9BF711623FEC671BCBF56
:105660006D9A74AFF2B0B3BF9AFDDE522DDEADBFBE
:105670002F6C6A2C44B4A2BF0D5555555555D53FD6
:10568000FF8300922449C23F6E204CC5CD45B73FF1
:10569000513DD0A0660DB13FEB0D76244B7BA93F69
:1056A00011DA22E33AAD903F4C5555555555A53F7B
:1056B0007751C1166CC156BF9015CB19A001FA3EA7
:1056C000AD529C804F7E92BEC4B1B4BD9EEE213ED1
:1056D000D43888BEE9FAA8BD000000000000000030
:1056E00000004054FB21F93F3163621A61B4D03DA0
:1056F0000000601A61B4D03D7370032E8A19A33B79
:105700000000002E8A19A33BC14920259A837B39CA
:1057100000000000000000006E83F9A22915444E2D
:10572000D15727FCC0DD34F5999562DB4190433CAD
:10573000AB6351FE61C5BBDE3A6E24B7E0D24D4289
:10574000EA2E49061C92D1091CEB1DFE3EA729B189
:10575000F53582E88444BB2E26709CE9417E5FB417
:1057600039D69139F43953838B5F849C3B28F9BD3A
:10577000FF97F81F0F9805DE8B112FEF1F6D0A5A48
:10578000CF7E366DB709CB27663F464F2DEA5F9E29
:10579000C7BA27757BF1E5EBF739073DEA92528AE4
:1057A000B15FFB6B085D8D1FA6F810111111813FD1
:1057B000D561C119A0012ABF7DFEB157E31DC73EC7
:1057C000EB9C2B8AE6E55ABE7CD5CF5A3AD9E53D0B
:1057D000F057000800000020B80100006A0A000825
:1057E0001C580008B8010020200E0000EC42000800
:1057F0001184A24A04680901020304060708090C7F
:1058000069100576020406081F2042CDCCCC3D0865
:0C5810009A410C4A421051690801F10055
:0400000508000145A9
:00000001FF
