:020000040800F2
:10000000D0070020450100082124000887120008BD
:10001000891B0008091100082B31000800000000AE
:10002000000000000000000000000000D1270008D0
:10003000251100080000000061260008012A0008C0
:100040005F0100085F0100085F0100085F01000810
:100050005F0100085F0100085F0100085F01000800
:100060005F0100085F0100085F0100085F010008F0
:100070005F0100085F0100085F0100085F010008E0
:100080005F0100085F010008C10A00085F01000865
:100090005F0100085F0100085F0100085F010008C0
:1000A0005F0100085F0100085F0100085F010008B0
:1000B0005F0100085F0100085F0100085F010008A0
:1000C0005F0100085F0100085F0100085F01000890
:1000D0005F010008692E00085F0100085F01000849
:1000E0005F0100085F0100085F0100085F01000870
:1000F0005F0100085F0100085F0100085F01000860
:100100005F0100085F0100085F0100085F0100084F
:100110005F0100085F0100085F0100085F0100083F
:100120005F0100085F0100085F0100085F0100082F
:10013000DFF80CD000F016FC00480047DD45000851
:10014000D00700200648804706480047FEE7FEE744
:10015000FEE7FEE7FEE7FEE7FEE7FEE7FEE7FEE777
:10016000092A000831010008F0B480EA0102D40F26
:100170004200B2EB410F02D20246084611464A0045
:1001800042D0C30DDDB2C1F3C752AD1A202D35DA0E
:10019000C1F3160141F4000204B15242C5F1200638
:1001A00002FA06F12A411044B3EBD05F23D0C4B168
:1001B000012DA0EBC35009DCF0BC4FF0004202EA75
:1001C000C352DBB200F5000000F011BB400000F1AB
:1001D000807000EBC350A0F1807040EAD1704900FC
:1001E00009E0490841EAC071A0EBC35000F50000E6
:1001F000400800EBC350F0BC00F0F0BA61420122AD
:1002000002EB4101001BF6E7F0BC704781F00041B2
:10021000AAE780F00040A7E780EA010210B502F0EB
:100220000043400022D04A001FD0010E01EB1261B2
:10023000C0F35600C2F3560240F4000042F400023C
:10024000A0FB022000047F39140400D0401C50EAB7
:10025000124001D44000491EC2B20C0604EBD0107B
:10026000401C4008802A02D003E0002010BD20F08E
:100270000100002900DA0020184310BD2DE9FE4FCF
:10028000804681EA0300C00F0C46009021F0004137
:1002900023F00045B8EB0200A94105D240462146B3
:1002A00090461C460B46024623F00040104347D0C0
:1002B000270DC7F30A00C3F30A510290401A0190B8
:1002C00040286BDAC3F3130040F4801B0098924679
:1002D00020B10023D2EB030A63EB0B0B01985946C4
:1002E000C0F14002504600F048FA06460D4650461E
:1002F0005946019A00F060FA10EB080061410024B1
:1003000087EA115284EAE7731A4340D0009A62B335
:10031000019A012A4FEA075215DC001B61EB02012A
:100320004FF0004202EA0752CDE90042001C41F5BD
:10033000801132462B4600F097FA03B0BDE8F08FEB
:1003400040462146F9E7001B61EB0201001C41F524
:10035000801300185B412018A2F5001747EB03013A
:1003600040EAD570B6196D4111E06D084FEA3606C6
:1003700045EAC0754FEA0752001B61EB0201001C01
:1003800041F5801149084FEA3000001951413246C9
:100390002B4603B0BDE8F04F00F057BA0098012299
:1003A00040000023D0EB020263EBE073009821468B
:1003B0004FEAE074B8EB000061EB0401E9E783F079
:1003C00000435BE781F0004158E72DE9FE4F81EAE9
:1003D000030404F0004421F0004100944FF0000BAE
:1003E00023F0004350EA01045ED052EA03045BD0DC
:1003F000C3F30A54C1F30A552C44A4F2F334019414
:10040000A0FB0254C1F3130141F48011C3F31303A1
:1004100043F4801301FB024400FB034E840A970A55
:1004200044EA815447EA8357A4FB076802958D0A82
:1004300005FB07854FEA932C04FB0C542705029D0E
:100440004FEA065847EA1637B5EB08056EEB070C7E
:10045000870E920E47EA811742EA8312A7FB020138
:10046000B6EB0B0164EB00042B0D43EA0C335E1872
:1004700044EB1C50DA465146E7FB0201C5F3130476
:100480004FEA0B3343EA14534FEA0432019C43EA28
:100490000603A4F10C040294009CCDE900B400F022
:1004A000E3F903B0BDE8F08F00200146F9E72DE93C
:1004B000F04D81EA030404F0004B21F0004514469E
:1004C0004FF0000A23F0004150EA050220D054EA20
:1004D00001021DD0C5F30A570246C5F31303C1F349
:1004E0001300C1F30A5640F4801543F48013A7EBC0
:1004F0000608101BD64608F2FD3873EB050002D340
:1005000008F1010801E092185B41B8F1000F03DA2D
:1005100000200146BDE8F08D00204FF48011064612
:1005200084460EE0171B73EB050705D3121B63EB24
:10053000050306434CEA010C49084FEA30009218C3
:100540005B4150EA0107EDD152EA030012D082EA82
:10055000040083EA0501084305D0101BAB4106D215
:100560000122002306E000224FF0004302E06FF07A
:10057000010253101AEB06004CEB085110EB0A0075
:1005800041EB0B01BDE8F04D00F05FB9962300226E
:10059000114600F02CB90EB5C10F80EAE070084496
:1005A000CA07002140F233438DE80E000A460B468D
:1005B00000F05AF903B000BD0EB540F2334102918C
:1005C0000021CDE900110A460B4600F04DF903B0B9
:1005D00000BDC1F30A5210B5C1F3130140F2FF335D
:1005E00041F480119A4201DA002010BD40F23343F9
:1005F0009A42A2F2334203DC524200F0CDF810BD21
:10060000904010BD00F0004230F000400AD0C10D13
:1006100001F56071C0F3160042EA0151C2084007BB
:1006200011437047002001467047000030B5041E9A
:1006300071F1000404DB4FF00044404264EB01011F
:10064000141E73F1000405DB1C464FF000435242B8
:1006500063EB04038B4208BF824230BD30B5041EF9
:1006600071F1000404DB4FF00044404264EB0101EF
:10067000141E73F1000405DB1C464FF00043524288
:1006800063EB0403994208BF904230BD01F0004380
:1006900030B421F0004150EA010206D00A0DA2F563
:1006A0006072C1F31301002A02DC30BC00207047E5
:1006B000440F44EAC104C100E01830BC00EBC25052
:1006C00000F08CB8002801DBC0F10040002901DBFC
:1006D000C1F1004181427047002801DBC0F10040B8
:1006E000002901DBC1F100418842704730B50B465B
:1006F000014600202022012409E021FA02F59D4252
:1007000005D303FA02F5491B04FA02F52844151E25
:10071000A2F10102F1DC30BD2DE9F05F05460020B9
:1007200092469B4688460646814640241BE0284662
:1007300041464746224600F02FF853465A46C01A13
:10074000914110D311461846224600F016F82D1A92
:1007500067EB01084F4622460120002100F00DF80A
:1007600017EB00094E41201EA4F10104DFDC4846CE
:1007700031462A464346BDE8F09F202A04DB203A52
:1007800000FA02F1002070479140C2F1200320FAE4
:1007900003F3194390407047202A04DB203A21FAE2
:1007A00002F00021704721FA02F3D040C2F120028A
:1007B0009140084319467047202A06DBCB17203AA0
:1007C00041FA02F043EAE07306E041FA02F3D04056
:1007D000C2F1200291400843194670470029A8BF82
:1007E0007047401C490008BF20F00100704710B45A
:1007F000B0FA80FC00FA0CF050EA010404BF10BC0F
:10080000704749B1CCF1200421FA04F411FA0CF13B
:1008100018BF012121430843A3EB0C01CB1D4FEA74
:1008200000614FEA102042BF002010BC704700EB6F
:10083000C35010440029A4BF10BC7047401C49009D
:1008400008BF20F0010010BC704710B5141E73F1F2
:10085000000408DA401C41F1000192185B411A4380
:1008600001D120F0010010BD2DE9F04D92469B46CC
:1008700011B1B1FA81F202E0B0FA80F22032904672
:10088000FFF77BFF04460F4640EA0A0041EA0B01EE
:1008900053465A46084313D0114653EA010019D073
:1008A000C8F140025046FFF777FF05460E46504616
:1008B00059464246FFF761FF084305D0012004E096
:1008C00020463946BDE8F08D0020054346EAE07633
:1008D0002C4337430A986305E40AA0EB0800002282
:1008E000FD0A44EA47540A3002D500200146E9E7F0
:1008F000010510196941DDE9084500196941BDE8A4
:10090000F04DA2E770B521F0004303430CD0C1F3D2
:100910000A550024D5EB040564EB0403D617AD1A81
:10092000B34102DB0020014670BD201841EB0251AB
:1009300070BDC1F30A52C1F3130140F2FF3341F419
:1009400080119A4202DA00200146704740F2334398
:100950009A42A2F2334202DC5242FFF71DBFFFF778
:100960000CBF0000064C074D06E0E06840F00103B4
:1009700094E8070098471034AC42F6D3FFF7DCFB4D
:1009800020550008405500082DE9F04D00231A4677
:100990001B1A8A4103DB00200146BDE8F08DC1F33C
:1009A0000A52C1F3130141F480154FF0000BD10737
:1009B00002D100186D41521E0027044640F2FF117B
:1009C000384601EB620A3E468046024600204FF45C
:1009D0008011FFF7E1FEC2197141BB1846EB01001F
:1009E000B4EB030C75EB000C04D3E41A65EB0005C3
:1009F00017460E46241908F101006D41804634283F
:100A0000E3DDF91946EB0600091BA84103D24FF0BC
:100A1000FF32134601E0002213461BEB070046EBB2
:100A20000A51BDE8F04DFFF710BF70B5C1F30A528F
:100A300001F000450024C1F3130140F2FF3341F4FB
:100A400080119A4201DA002070BD40F233439A428D
:100A5000A2F2334203DC5242FFF79EFE00E09040D8
:100A60002C43F1D0404270BD70B58C1810F8015B7A
:100A700015F0070301D110F8013B2A1106D110F837
:100A8000012B03E010F8016B01F8016B5B1EF9D13B
:100A90002B0705D40023521E0DD401F8013BFAE7C1
:100AA00010F8013BCB1A921C03E013F8015B01F82C
:100AB000015B521EF9D5A142D8D3002070BD0000C1
:100AC00010B5034800F01DF80249088010BD000071
:100AD000002401403801002021B1826842F0010267
:100AE000826003E0826822F0010282607047014662
:100AF00000208A6802F004020AB1012000E0002010
:100B000070470146C86C80B27047014600208A6871
:100B100002F008020AB1012000E00020704710B581
:100B20000023CBB21AB144681C43446002E044681D
:100B30009C43446010BD000030B5024600200023F5
:100B400050680F4C20400D790C6844EA052420437E
:100B5000506090680B4C2040D1E902542C434D79F1
:100B600044EA450420439060D06A20F470000C7C75
:100B7000641EE4B2234340EA0350D06230BD00005B
:100B8000FFFEF0FFFDF7F1FFF0B504460D46002033
:100B90000021092D11DDE068A5F10A0606EB4607E4
:100BA000072606FA07F18843A5F10A0606EB460672
:100BB00003FA06F10843E0600CE0206905EB450705
:100BC000072606FA07F1884305EB450603FA06F106
:100BD00008432061072A0FDA606B561E06EB860772
:100BE0001F2606FA07F18843561E06EB860605FA0D
:100BF00006F10843606322E00D2A0FDA206BD61F4E
:100C000006EB86071F2606FA07F18843D61F06EB78
:100C1000860605FA06F10843206310E0E06AA2F1B7
:100C20000D0606EB86071F2606FA07F18843A2F198
:100C30000D0606EB860605FA06F10843E062F0BDF4
:100C4000816841F008018160704721B1826842F4F7
:100C5000A002826003E0826822F4A00282607047F2
:100C6000816841F004018160704700002DE9F34F75
:100C70008BB000F0AFF800F01BF94C480C990068FD
:100C8000FFF7CAFA83464A4801685846FFF76CFAEC
:100C900081464FF07E510B98FFF7BBFA82464946DA
:100CA000FFF7BAFA8046FFF7ADFC04460D4641480F
:100CB0000068FFF7A7FCCDE900013F480068FFF797
:100CC000A1FC8246DDE9002303F0B6FBCDE9040177
:100CD0000B98FFF797FCCDE90201DDE90423FFF74C
:100CE00074FB0022354BCDE90601FFF76EFB804611
:100CF000334A344BFFF7DBFB064622462B46FFF711
:100D0000BDFACDE90801FFF7C1FC294908602E486A
:100D10000C990068FFF780FA07462C4801683846AE
:100D2000FFF722FA05464FF07E510B98FFF771FA54
:100D300006462946FFF770FA0446FFF763FC824631
:100D40008B461C480068FFF75DFC04460D462048B2
:100D50000068FFF757FC064622462B4603F06CFB63
:100D6000CDE902010B98FFF74DFCCDE90001DDE96B
:100D70000223FFF72AFB0022104BCDE90401FFF705
:100D800024FB80460E4A0F4BFFF791FB52465B4611
:100D9000CDE90601FFF772FACDE90801FFF776FC0D
:100DA0000A4908600DB0BDE8F08F00001C0100206A
:100DB00028010020140100200C0100200080664062
:100DC000182D4454FB210940200100202C01002053
:100DD000100100202DE9FC4106236A463B216920D1
:100DE00000F06EFA10B10120BDE8FC819DF8010011
:100DF0009DF8001040EA012000B2214908809DF8CA
:100E000003009DF8021040EA012000B21C4948800E
:100E10009DF805009DF8041040EA012000B2184931
:100E20008880B1F90000FFF7B6FB06460022154B9B
:100E3000FFF73DFB0446FFF729FC13490860104902
:100E4000B1F90200FFF7A7FB064600220D4BFFF7A2
:100E50002EFB0446FFF71AFC0C4908600849B1F95B
:100E60000400FFF798FB06460022064BFFF71FFB26
:100E70000446FFF70BFC064908600020B4E70000B9
:100E8000FC0000200000D0400C01002010010020D8
:100E90001401002010B50123044A7521692000F0D7
:100EA0000FFA08B1012010BD0020FCE70A01002064
:100EB0002DE9FC4106236A464321692000F000FA2F
:100EC00010B10120BDE8FC819DF801009DF80010E3
:100ED00040EA012000B2214908809DF803009DF8F6
:100EE000021040EA012000B21C4948809DF805002C
:100EF0009DF8041040EA012000B218498880B1F939
:100F00000000FFF748FB0646154A164BFFF7CFFADD
:100F10000446FFF7BBFB144908601049B1F9020011
:100F2000FFF739FB06460E4A0E4BFFF7C0FA0446A0
:100F3000FFF7ACFB0D4908600849B1F90400FFF761
:100F40002AFB0646064A074BFFF7B1FA0446FFF7AD
:100F50009DFB074908600020B4E700000401002061
:100F6000FCA9F1D24D6230401C010020200100207C
:100F700024010020F8B504460D46002000F086F953
:100F800042F2107000F0D0F8FFF784FF30B12D4826
:100F900001782DA002F08CF90120F8BD29480078D5
:100FA000682801D00220F8E78020009001236A46DB
:100FB0006B21692000F0E6FA08B10320EDE742F268
:100FC000107000F0B1F80020009001236A466B21F8
:100FD000692000F0D7FA08B10420DEE70120009074
:100FE00001236A466B21692000F0CCFA08B10A207F
:100FF000D3E71820009001236A461B21692000F0E6
:10100000C1FA08B10B20C8E70020009001236A460E
:101010001C21692000F0B6FA08B10C20BDE7294672
:10102000204600F042F808B10D20B6E704EBD47179
:10103000C1F34F00294600F00BF808B10E20ACE7D1
:101040000020AAE70A010020307825780D0A000068
:1010500038B504460D46DDB1BC2C02DD0120009000
:1010600018E0622C02DD0220009013E02A2C02DD41
:10107000032000900EE0142C02DD0420009009E013
:101080000A2C02DD0520009004E00620009001E01B
:101090000020009001236A461A21692000F072FAAC
:1010A00008B1012038BD0020FCE7F8B504460E4623
:1010B0006EB14FF47A75B4F57A7F01DD284604E00D
:1010C000042C01DA042000E0204604460CE04FF432
:1010D000FA55B4F5FA5F01DD284604E0202C01DA68
:1010E000202000E02046044695FBF4F0401EC0B2EC
:1010F000009001236A461921692000F043FA08B1E3
:101100000120F8BD0020FCE700BFFEE704480068AE
:1011100020B103480068401E014908607047000084
:101120002800002070470000074908604FF0E021C8
:10113000096941F001014FF0E022116100BF02494D
:1011400009680029FBD17047280000202DE9F041F3
:10115000024600250026002000230024002791F8E5
:1011600003C00CF00F0591F803C00CF0100CBCF19B
:10117000000F03D091F802C04CEA050591F800C0B9
:10118000BCF1000F31D0146800202BE04FF0010CAF
:101190000CFA00F3B1F800C00CEA03069E4220D11D
:1011A00083004FF00F0C0CFA03F7BC4305FA03FC65
:1011B0004CEA040491F803C0BCF1280F06D14FF0AB
:1011C000010C0CFA00FCC2F814C00AE091F803C04C
:1011D000BCF1480F05D14FF0010C0CFA00FCC2F82D
:1011E00010C0401C0828D1D31460B1F800C0BCF175
:1011F000FF0F34DD546800202EE000F1080C4FF0A2
:10120000010808FA0CF3B1F800C00CEA03069E428C
:1012100021D183004FF00F0C0CFA03F7BC4305FA01
:1012200003FC4CEA040491F803C0BCF1280F05D17B
:1012300000F1080C08FA0CF8C2F8148091F803C009
:10124000BCF1480F07D100F1080C4FF0010808FA73
:101250000CF8C2F81080401C0828CED35460BDE8BA
:10126000F0810246002093680B400BB1012000E0A2
:101270000020704741617047016170470AB1016108
:1012800000E04161704700BFFEE7000010B5044672
:101290000121082001F012FAC0200749088014201B
:1012A000C870032088700548FFF750FFC02103482D
:1012B000FFF7E2FF10BD000030000020000C0140ED
:1012C0002DE9F04105460F4690461E4600F0DCF839
:1012D000002141EA4501C8B200F0A8F800F010F979
:1012E000012804D100F0EEF80120BDE8F081384675
:1012F00000F09CF800F004F9012803D100F0E2F8B6
:101300000120F2E700F0C0F8012101EB4501C8B26D
:1013100000F08CF800F0F4F8012803D100F0D2F8C6
:101320000120E2E700240FE000F014F808F80400C0
:10133000701EA04203D1012000F056F802E0002008
:1013400000F052F8601CC4B2B442EDDB00F0BAF811
:101350000020CAE770B5002480212148FFF78CFFE8
:101360000320FFF7E1FE80201E4908800420C8709A
:101370001B48FFF7EBFE0320FFF7D6FE002518E021
:101380006006040E40211648FFF774FF0320FFF7A4
:10139000CBFE40211248FFF76FFF0320FFF7C4FE8A
:1013A00080210F48FFF75DFF00F001000443681C37
:1013B000C5B2082DE4DB40210948FFF75BFF03209D
:1013C000FFF7B2FE8020074908801420C870044847
:1013D000FFF7BCFE0320FFF7A7FE204670BD00000C
:1013E000000C01403000002010B5044640210E489A
:1013F000FFF740FF0320FFF797FE224680210A48AF
:10140000FFF73CFF0320FFF78FFE40210648FFF760
:1014100033FF0320FFF788FE40210348FFF72AFF30
:101420000320FFF781FE10BD000C014070B505469A
:1014300000241CE040211348FFF71CFF0320FFF7A6
:1014400073FEC4F1070045FA00F000F001028021AC
:101450000C48FFF713FF0320FFF766FE4021094801
:10146000FFF70AFF0320FFF75FFE601CC4B2082CE1
:10147000E0DB40210348FFF7FDFE0320FFF754FEA9
:1014800070BD0000000C014010B580210C48FFF732
:10149000F3FE40210A48FFF7EFFE0320FFF744FE6A
:1014A00080210748FFF7E6FE0320FFF73DFE4021BD
:1014B0000348FFF7DFFE0320FFF736FE10BD0000F4
:1014C000000C014010B540210C48FFF7D3FE8021ED
:1014D0000A48FFF7CFFE0320FFF726FE402107480A
:1014E000FFF7CAFE0320FFF71FFE80210348FFF726
:1014F000C3FE0320FFF718FE10BD0000000C0140E2
:1015000010B540211D48FFF7B5FE0320FFF70CFE84
:1015100080211A48FFF7B0FE0320FFF705FE4021A7
:101520001648FFF7A9FE0320FFF7FEFD80201449AF
:1015300008800420C8701148FFF708FE0320FFF759
:10154000F3FD80210D48FFF78CFE00F0010403201D
:10155000FFF7EAFD80200A4908801420C870074878
:10156000FFF7F4FD0320FFF7DFFD40210348FFF7FD
:1015700081FE0320FFF7D8FD204610BD000C01407E
:10158000300000202DE9F04105460E4617469846EA
:10159000FFF77AFF002141EA4501C8B2FFF746FF95
:1015A000FFF7AEFF012804D1FFF78CFF0120BDE853
:1015B000F0813046FFF73AFFFFF7A2FF012803D181
:1015C000FFF780FF0120F2E700240CE0385DFFF711
:1015D0002DFFFFF795FF012803D1FFF773FF0120CF
:1015E000E5E7601CC4B24445F0DBFFF76BFF002069
:1015F000DDE7000010B504460121082001F05EF887
:101600004FF44060074908801420C8700320887098
:101610000548FFF79BFD4FF440610348FFF72CFEA0
:1016200010BD000034010020000C01402DE9F04104
:1016300005460F4690461E4600F0EAF8002141EAB2
:101640004501C8B200F0B2F800F026F9012804D133
:1016500000F000F90120BDE8F081384600F0A6F85E
:1016600000F01AF9012803D100F0F4F80120F2E7A4
:1016700000F0CEF8012101EB4501C8B200F096F868
:1016800000F00AF9012803D100F0E4F80120E2E7B4
:1016900000240FE000F014F808F80400701EA042C7
:1016A00003D1012000F05CF802E0002000F058F8BF
:1016B000601CC4B2B442EDDB00F0CCF80020CAE7F5
:1016C00070B500244FF400612348FFF7D5FD0320D7
:1016D000FFF72AFD4FF40060204908800420C870FD
:1016E0001D48FFF733FD0320FFF71EFD00251BE01B
:1016F0006006040E4FF480611748FFF7BBFD03201E
:10170000FFF712FD4FF480611348FFF7B5FD03208A
:10171000FFF70AFD4FF400610F48FFF7A2FD00F04C
:1017200001000443681CC5B2082DE1DB4FF4806161
:101730000948FFF79FFD0320FFF7F6FC4FF4006018
:10174000064908801420C8700348FFF7FFFC0320F7
:10175000FFF7EAFC204670BD000C01403401002078
:1017600010B504464FF480610F48FFF783FD032056
:10177000FFF7DAFC22464FF400610B48FFF77EFDCD
:101780000320FFF7D1FC4FF480610748FFF774FD99
:101790000320FFF7C9FC4FF480610348FFF76AFD9F
:1017A0000320FFF7C1FC10BD000C014070B50546D9
:1017B00000241FE04FF480611448FFF75BFD032015
:1017C000FFF7B2FCC4F1070045FA00F000F0010297
:1017D0004FF400610D48FFF751FD0320FFF7A4FC13
:1017E0004FF480610948FFF747FD0320FFF79CFC99
:1017F000601CC4B2082CDDDB4FF480610348FFF7A6
:1018000039FD0320FFF790FC70BD0000000C014083
:1018100010B54FF400610E48FFF72EFD4FF48061C4
:101820000B48FFF729FD0320FFF77EFC4FF4006112
:101830000748FFF71FFD0320FFF776FC4FF4806198
:101840000348FFF717FD0320FFF76EFC10BD0000F3
:10185000000C014010B54FF480610E48FFF70AFDFF
:101860004FF400610B48FFF705FD0320FFF75CFC18
:101870004FF480610748FFF7FFFC0320FFF754FC9B
:101880004FF400610348FFF7F7FC0320FFF74CFC1F
:1018900010BD0000000C014010B54FF480612148DC
:1018A000FFF7E8FC0320FFF73FFC4FF400611D4801
:1018B000FFF7E2FC0320FFF737FC4FF48061194883
:1018C000FFF7DAFC0320FFF72FFC4FF40060164906
:1018D00008800420C8701348FFF738FC0320FFF786
:1018E00023FC4FF400610F48FFF7BBFC00F001043C
:1018F0000320FFF719FC4FF400600B490880142007
:10190000C8700848FFF722FC0320FFF70DFC4FF4D6
:1019100080610448FFF7AEFC0320FFF705FC20467A
:1019200010BD0000000C0140340100202DE9F04101
:1019300005460E4617469846FFF76AFF002141EA22
:101940004501C8B2FFF732FFFFF7A6FF012804D117
:10195000FFF780FF0120BDE8F0813046FFF726FF4A
:10196000FFF79AFF012803D1FFF774FF0120F2E788
:1019700000240CE0385DFFF719FFFFF78DFF012809
:1019800003D1FFF767FF0120E5E7601CC4B24445BF
:10199000F0DBFFF75FFF0020DDE7000008B5012165
:1019A000082000F08BFE4FF44050ADF800001020EE
:1019B0008DF8030003208DF8020069460448FFF704
:1019C000C5FB4FF440510248FFF756FC08BD00002C
:1019D000000C014000B587B00121480200F06EFE06
:1019E000002002908DF80C0001208DF80D004FF4BE
:1019F000602004900020059001208DF8180002A9B5
:101A00001E48FFF799F84FF4404000F02BFE0523E5
:101A1000012219461948FFF7B7F801224FF408715F
:101A20001648FFF77CF801211448FFF755F81348D2
:101A3000FFF706F900BF1148FFF767F80028FAD151
:101A40000E48FFF70DF900BF0C48FFF750F80028CB
:101A5000FAD101210948FFF7F8F812208DF80400A7
:101A600000208DF8050004208DF8060001208DF877
:101A7000070001A800F0D6FC07B000BD002401401B
:101A800008B50121042000F019FE04208DF80300A0
:101A900003208DF802002020ADF8000069460248BE
:101AA000FFF754FB08BD0000000801402DE9F14F8D
:101AB00086B026480088FEF769FD4FF07E510290FF
:101AC0000698FEF7A6FB01900299FEF7A5FB03908E
:101AD000FEF798FD1E4A1F4BCDE90401FEF775FC89
:101AE00006460F461C4801680698FEF795FB0590D0
:101AF000FEF788FD804632463B46FEF7BFFB0446B4
:101B0000164A174BFEF75BFC8246FEF7BFFD1249F3
:101B1000086008460068FEF775FD0446114A124B3E
:101B2000FEF784FD02D200200B4908600A480068D5
:101B3000FEF768FD044622460B46044801880BA0C8
:101B400001F0B6FB07B0BDE8F08F000038010020BF
:101B50001361C3D32B65793F3C0100203FC6DCB540
:101B6000847C903F7B14AE47E17A843F6C69706F50
:101B70003A25642025660D0A0000000010B5FFF725
:101B80007FFFFFF727FF10BD00BFFEE770B50546DA
:101B90000C462A48008884420BD04FF4616090FBC9
:101BA000F4F02749098890FBF1F026490880234882
:101BB0000480002C40D024480088224909888842AB
:101BC00005DA21480088401C1F49088034E00020C5
:101BD0001D49088000F03EF81C4800881849098813
:101BE00008441B49495708441549098890FBF1F2FC
:101BF00001FB1200154908800846408810490988F1
:101C000008441349495708440D49098890FBF1F2EB
:101C100001FB12000D494880084680880849098860
:101C200008440B49495708440549098890FBF1F2DB
:101C300001FB12000549888070BD0000860000206D
:101C400070000020880000208A000020740000201E
:101C5000D052000810B50C4800880C4A32F8101019
:101C60000B4801F0ACF808484088084A32F81010D8
:101C7000074801F0A2F804488088044A32F810109E
:101C8000034801F098F810BD7400002048010020BE
:101C90000004004070B505460C462A48008884427E
:101CA0000BD04FF4616090FBF4F02749098890FB5A
:101CB000F1F02649088023480480002C40D02448B5
:101CC000008822490988884205DA21480088401C9A
:101CD0001F49088034E000201D49088000F03EF8CC
:101CE0001C4800881849098808441B49495708447A
:101CF0001549098890FBF1F201FB12001549088093
:101D0000084640881049098808441349495708443F
:101D10000D49098890FBF1F201FB12000D49488042
:101D2000084680880849098808440B4949570844EF
:101D30000549098890FBF1F201FB120005498880F2
:101D400070BD00008C000020700000208E0000207C
:101D5000900000207A000020D052000810B50D48F5
:101D600000880D4A32F810100C4801F022F809489A
:101D70004088094A32F810104FF0804001F01FF8F7
:101D800004488088044A32F810104FF0804001F077
:101D900014F810BD7A000020480100200004004023
:101DA00010B50D4800880D4A32F810100C4801F0AB
:101DB00006F809484088094A32F810104FF0804070
:101DC00000F0F9FF04488088044A32F810100448F3
:101DD00000F0F3FF10BD000080000020480100204B
:101DE0000008004000B589B001210C2000F066FC1D
:101DF0000121072000F042FC18208DF82300032069
:101E00008DF822008020ADF8200008A95548FFF782
:101E10009DF90320ADF8200008A95348FFF796F973
:101E20004C20ADF8200008A94E48FFF78FF902209A
:101E3000ADF8200008A94B48FFF788F94FF440702F
:101E4000ADF8200008A94848FFF780F94720ADF811
:101E500014003120ADF818000020ADF81600ADF8E0
:101E60001A008DF81C0005A9404800F0ABFF05A939
:101E70004FF0804000F0A6FF05A93D4800F0A2FF0A
:101E80006020ADF804000120ADF806000020ADF898
:101E90000C00ADF81000ADF80A0001A9334800F0BD
:101EA00083FE0821314800F0D1FE01A92F4800F03F
:101EB000DBFE08212D4800F027FF01A92B4800F088
:101EC0002DFF0821294800F067FF01A9274800F0ED
:101ED00015FE0821254800F05DFE01A94FF0804065
:101EE00000F0C2FE0821C80600F00EFF01A94FF065
:101EF000804000F013FF0821C80600F04DFF01A943
:101F00004FF0804000F050FE0821C80600F09EFE11
:101F100001A9174800F0A8FE0821154800F0F4FEBA
:101F200001A9134800F0FAFE0821114800F034FF1F
:101F300001210E4800F0CAFD0121880700F0C6FD0E
:101F400001210B4800F0C2FD0121084800F0CAFD44
:101F50000121880700F0C6FD0121054800F0C2FDFF
:101F600009B000BD00080140000C01400004004021
:101F70000008004010B5FFF76DFEFFF7EFFEFFF71A
:101F80000FFF10BD10B500F099FCFFF72BFFFFF716
:101F9000F1FF10BD2DE9F34F8BB000F0AFF800F06A
:101FA0001BF94C480C990068FEF736F983464A48FD
:101FB00001685846FEF7D8F881464FF07E510B98DD
:101FC000FEF727F982464946FEF726F98046FEF7D6
:101FD00019FB04460D4641480068FEF713FBCDE9A6
:101FE00000013F480068FEF70DFB8246DDE9002353
:101FF00002F022FACDE904010B98FEF703FBCDE9CC
:102000000201DDE90423FEF7E0F90022354BCDE9BA
:102010000601FEF7DAF98046334A344BFEF747FAF9
:10202000064622462B46FEF729F9CDE90801FEF7C0
:102030002DFB294908602E480C990068FEF7ECF842
:1020400007462C4801683846FEF78EF805464FF0E3
:102050007E510B98FEF7DDF806462946FEF7DCF8C0
:102060000446FEF7CFFA82468B461C480068FEF70E
:10207000C9FA04460D4620480068FEF7C3FA064632
:1020800022462B4602F0D8F9CDE902010B98FEF763
:10209000B9FACDE90001DDE90223FEF796F9002245
:1020A000104BCDE90401FEF790F980460E4A0F4B24
:1020B000FEF7FDF952465B46CDE90601FEF7DEF874
:1020C000CDE90801FEF7E2FA0A4908600DB0BDE863
:1020D000F08F00005C000020680000205400002009
:1020E0004C00002000806640182D4454FB2109401C
:1020F000600000206C000020500000202DE9FC4111
:1021000006236A463B216820FFF790FA10B10120B0
:10211000BDE8FC819DF801009DF8001040EA012017
:1021200000B2214908809DF803009DF8021040EAA2
:10213000012000B21C4948809DF805009DF804105C
:1021400040EA012000B218498880B1F90000FEF78A
:1021500022FA06460022154BFEF7A9F90446FEF7BF
:1021600095FA134908601049B1F90200FEF713FA15
:10217000064600220D4BFEF79AF90446FEF786FA52
:102180000C4908600849B1F90400FEF704FA064654
:102190000022064BFEF78BF90446FEF777FA064954
:1021A00008600020B4E700003C0000200000D040A0
:1021B0004C000020500000205400002010B50123E6
:1021C000044A75216820FFF731FA08B1012010BDDB
:1021D0000020FCE74A0000202DE9FC4106236A4666
:1021E00043216820FFF722FA10B10120BDE8FC81ED
:1021F0009DF801009DF8001040EA012000B221493D
:1022000008809DF803009DF8021040EA012000B20A
:102210001C4948809DF805009DF8041040EA012003
:1022200000B218498880B1F90000FEF7B4F90646FB
:10223000154A164BFEF73BF90446FEF727FA1449F8
:1022400008601049B1F90200FEF7A5F906460E4AEA
:102250000E4BFEF72CF90446FEF718FA0D490860FC
:102260000849B1F90400FEF796F90646064A074BFD
:10227000FEF71DF90446FEF709FA07490860002039
:10228000B4E7000044000020FCA9F1D24D623040C8
:102290005C0000206000002064000020F8B50446C7
:1022A0000D460020FFF7A6F942F21070FEF73CFF42
:1022B000FFF784FF08B10120F8BD2A48007868289C
:1022C00001D00220F8E78020009001236A466B21AC
:1022D0006820FFF72BFB08B10320EDE742F21070F6
:1022E000FEF722FF0020009001236A466B21682040
:1022F000FFF71CFB08B10420DEE70120009001235A
:102300006A466B216820FFF711FB08B10A20D3E76A
:102310001820009001236A461B216820FFF706FB66
:1023200008B10B20C8E70020009001236A461C2159
:102330006820FFF7FBFA08B10C20BDE729462046CC
:1023400000F03FF808B10D20B6E704EBD471C1F3FB
:102350004F00294600F008F808B10E20ACE7002035
:10236000AAE700004A00002038B504460D46DDB15A
:10237000BC2C02DD0120009018E0622C02DD02205E
:10238000009013E02A2C02DD032000900EE0142CB4
:1023900002DD0420009009E00A2C02DD05200090F7
:1023A00004E00620009001E00020009001236A462E
:1023B0001A216820FFF7BAFA08B1012038BD0020C1
:1023C000FCE7F8B504460E466EB14FF47A75B4F5E5
:1023D0007A7F01DD284604E0042C01DA042000E0C5
:1023E000204604460CE04FF4FA55B4F5FA5F01DDDF
:1023F000284604E0202C01DA202000E02046044694
:1024000095FBF4F0401EC0B2009001236A461921EA
:102410006820FFF78BFA08B10120F8BD0020FCE727
:102420007047000070B5002100230F22C47804B368
:10243000154C246804F4E064C4F5E064210AC1F199
:102440000403CA40447804FA03F184781440214319
:1024500009010E4C0678A155047804F01F050124EB
:10246000AC4005786D11AD0005F1E025C5F80041DF
:1024700009E0047804F01F050124AC40044D0678FF
:10248000761145F8264070BD0CED00E000E400E058
:1024900080E100E002490143024A116070470000F8
:1024A0000000FA050CED00E010B5002807DA0A0775
:1024B000140E054A00F00F031B1FD45403E00A0753
:1024C000130E024A135410BD18ED00E000E400E0C2
:1024D0002DE9F05F06460C460025002726480068D7
:1024E00026490860244840682549086022488068D9
:1024F00024490860214624480068FEF7E3F808D024
:1025000021480460002021490860214908602149D0
:10251000086021463046FDF779FE054629461C48ED
:102520000068FDF721FE1A4908601A48016828462C
:10253000FDF76CFE154908600846016811480068FF
:10254000FDF76AFE8146124801680D480068FDF7F4
:1025500063FE8246294609480068FDF75DFE834612
:102560005146FDF701FE80464946FDF7FDFD074651
:102570003846BDE8F09F0000AC0300209C0000201E
:10258000A0000020A4000020C0000020CC000020FB
:10259000C8000020C40000202DE9F05F06460C466C
:1025A000002500272648C06826490860244800699D
:1025B000254908602248406924490860214624488A
:1025C0000068FEF77FF808D0214804600020214908
:1025D0000860214908602149086021463046FDF71E
:1025E00015FE054629461C480068FDF7BDFD1A4941
:1025F00008601A4801682846FDF708FE154908607A
:102600000846016811480068FDF706FE8146124839
:1026100001680D480068FDF7FFFD8246294609481C
:102620000068FDF7F9FD83465146FDF79DFD8046A4
:102630004946FDF799FD07463846BDE8F09F000082
:10264000AC030020A8000020AC000020B000002057
:10265000D0000020DC000020D8000020D4000020A2
:102660007047000001460020034A506820F44040B3
:1026700008435060704700000010024029B1064A2C
:10268000D2690243044BDA6104E0034AD26982430F
:10269000014BDA61704700000010024029B1064A80
:1026A00012690243044B1A6104E0034A126982432F
:1026B000014B1A61704700000010024029B1064A20
:1026C00092690243044B9A6104E0034A926982438F
:1026D000014B9A61704700000010024029B1064A80
:1026E000D2680243044BDA6004E0034AD2688243B2
:1026F000014BDA60704700000010024030B5002145
:102700000022002400232D4D6D6805F00C0121B13D
:10271000042905D0082923D105E0294D056022E0D0
:10272000274D05601FE0254D6D6805F47012234D9F
:102730006D6805F48034022505EB92421CB9214DE9
:10274000554305600BE01D4D6D6805F400351DB166
:102750001C4D5543056002E0194D5543056002E0EC
:10276000174D056000BF00BF144D6D6805F0F00106
:102770000909154D6B5C0568DD4045600F4D6D68BE
:1027800005F4E061090A104D6B5C4568DD40856029
:102790000A4D6D6805F46051C90A0B4D6B5C4568C4
:1027A000DD40C560054D6D6805F44041890B074D5E
:1027B0006B5CC568B5FBF3F5056130BD00100240E8
:1027C00000127A0000093D001400002024000020BF
:1027D000704710B500F002F810BD00000CB50020E5
:1027E000019000903348006840F48030314908601F
:1027F00000BF3048006800F4003000900198401C91
:102800000190009818B90198B0F5A06FF1D129484E
:10281000006800F4003010B10120009001E00020B9
:1028200000900098012843D12348006840F0100030
:10283000214908600846006820F003000860084647
:10284000006840F0020008601A4840681949486072
:102850000846406848600846406840F48060486028
:102860000846406820F47C1048600846406840F400
:10287000E81048600846006840F08070086000BFBB
:102880000C48006800F000700028F9D00948406842
:1028900020F00300074948600846406840F0020005
:1028A000486000BF0348406800F00C000828F9D1D8
:1028B0000CBD000000100240002002402DE9F0474E
:1028C0008EB04FF0000A0A2043490880084600886D
:1028D000032190FBF1F04149088000204049088025
:1028E000084600883D49098808443D494880084613
:1028F00040883A4909880844394988800020394984
:1029000008800846008835490988084435494880C8
:1029100008464088314909880844324988800020A7
:1029200031490880084600882C49098808442E4906
:102930004880084640882949098808442A498880EF
:1029400000BF41E024480088FDF736FECDE90201D2
:102950000AF10100FDF71FFE06460022234BFDF79A
:1029600034FDCDE90001DDE90223FDF7A0FD0022E1
:102970004FF08043CDE90401FDF727FD04461C4AD2
:102980001C4BFDF722FD804602F02CFC0022174B69
:10299000CDE90601FDF772FC0022174BCDE90801D5
:1029A000FDF713FD00224FF08043CDE90A01FDF74A
:1029B0007EFDCDE90C01FDF70CFE104921F81A004F
:1029C0000AF101001FFA80FA034800888245B9DB4A
:1029D0000EB0BDE8F08700007000002072000020FB
:1029E000740000207A000020800000200000F03FEA
:1029F000182D4454FB210940008048404801002024
:102A000000B5FEF783FB00BD10B51348006840F029
:102A100001001149086008464068104908400E4905
:102A20004860084600680E4908400B49086008469F
:102A3000006820F4802008600846406820F4FE000A
:102A400048604FF41F008860FFF7C3FE4FF000603E
:102A50000449086010BD0000001002400000FFF8AB
:102A6000FFFFF6FE08ED00E010B5164800681649B5
:102A7000B0FBF1F4B4F1807F01D3012011E024F028
:102A80007F40401E4FF0E02148610F214FF0FF30A2
:102A9000FFF70AFD00204FF0E02188610720086160
:102AA000002008B100BFFEE74FF0E020006920F0F1
:102AB00001004FF0E02108610021481EFFF7F4FCFF
:102AC00010BD00000000002040420F0021B102882C
:102AD00042F08002028004E002884FF67F731A40C1
:102AE0000280704721B1028842F00102028004E0B6
:102AF00002884FF6FE731A400280704770B50024BA
:102B000000220023058C4FF6FE7635400584028CAA
:102B10008388048B4FF68F752C40B51E2C400D8892
:102B20002C43751E2A400D892A434D882A43144D93
:102B3000A8420BD0134DA84208D0134DA84205D08F
:102B4000124DA84202D0124DA84213D14FF6F7758C
:102B50002A404D892A434FF6FB752A408D882A4327
:102B60004FF6FF652B404FF6FF552B408D892B43C9
:102B7000CD892B4383800483CD888586028470BDF4
:102B8000002C01400034014000400140004401405D
:102B9000004801400A460021018B4FF6F7731940A7
:102BA000114301837047000070B500240022002308
:102BB000058C4FF6EF7635400584028C8388048BB4
:102BC00048F6FF752C404FF6FF452C400D884FF618
:102BD000FF7606EA05252C434FF6DF752A400D895E
:102BE00006EA05152A434D8806EA05152A43154DC0
:102BF000A84202D0144DA8421DD14FF67F752A403D
:102C00004D894FF6FF7606EA05152A434FF6BF7544
:102C10002A408D8806EA05152A434FF6FF352B40DA
:102C20004FF2FF752B408D8906EA85052B43CD8930
:102C300006EA85052B4383800483CD8805870284BB
:102C400070BD0000002C0140003401400A46002104
:102C5000018B4FF2FF7319404FF6FF7303EA022313
:102C6000194301837047000070B50024002200233F
:102C7000058C4FF6FF6635400584028C8388848B73
:102C80004FF68F752C404FF6FC752C400D882C4369
:102C90004FF6FF552A400D894FF6FF7606EA0525C7
:102CA0002A434D8806EA05252A43154DA84202D03D
:102CB000144DA8421DD14FF2FF752A404D894FF6A1
:102CC000FF7606EA05252A434FF6FF352A408D8810
:102CD00006EA05252A434EF6FF752B404DF6FF7593
:102CE0002B408D8906EA05152B43CD8906EA05158B
:102CF0002B4383808483CD888587028470BD000048
:102D0000002C0140003401400A460021818B4FF61F
:102D1000F7731940114381837047000070B500229A
:102D200000230024058C4EF6FF7635400584038C85
:102D30008488828B48F6FF752A404FF6FF452A406B
:102D40000D884FF6FF7606EA05252A434DF6FF75F6
:102D50002B400D8906EA05352B434D8806EA0535DB
:102D60002B430B4DA84202D00A4DA84208D14BF686
:102D7000FF752C408D894FF6FF7606EA85152C43AA
:102D800084808283CD88A0F84050038470BD000009
:102D9000002C0140003401400A460021818B4FF293
:102DA000FF7319404FF6FF7303EA0223194381832F
:102DB0007047818670470187704781877047A0F808
:102DC00040107047002202881D4B98420ED01D4BC8
:102DD00098420BD0B0F1804F08D01B4B984205D0E1
:102DE0001A4B984202D01A4B984204D14FF68F7377
:102DF0001A404B881A43174B984207D0164B9842FB
:102E000004D04FF6FF431A40CB881A4302808B88C8
:102E100083850B8803850A4B98420BD0094B984257
:102E200008D00E4B984205D00D4B984202D00D4B66
:102E3000984201D10B7A03860123838270470000F8
:102E4000002C014000340140000400400008004014
:102E5000000C004000100040001400400040014001
:102E6000004401400048014010B540F225510E4891
:102E700000F097F8012815D10B4800F04DF90B49E7
:102E80000B4A128888540A480088401C642190FB31
:102E9000F1F201FB12000649088040F22551024878
:102EA00000F008F810BD0000003801404803002081
:102EB0009800002010B50022002340F66A14A142B9
:102EC00000D100BF0A1201249440A3B2DC43048065
:102ED00010BD21B1828942F40052828104E08289CE
:102EE0004DF6FF731A4082817047000010B504460A
:102EF0002048844209D101218803FFF7EFFB00211C
:102F00004FF48040FFF7EAFB32E01B48844209D1CE
:102F100001214804FFF7C2FB00214FF40030FFF706
:102F2000BDFB25E01548844209D101218804FFF743
:102F3000B5FB00214FF48020FFF7B0FB18E01048EC
:102F4000844209D10121C804FFF7A8FB00214FF4F6
:102F50000020FFF7A3FB0BE00A48844208D10121BF
:102F60000805FFF79BFB00214FF48010FFF796FB4D
:102F700010BD0000003801400044004000480040FF
:102F8000004C00400050004002460020B1F5007F98
:102F900000D100BF13880B400BB1012000E00020DE
:102FA000704770B50246002400230025002040F63B
:102FB0006A16B14200D100BFC1F3421501F01F03F0
:102FC000012606FA03F3012D02D19689334006E06B
:102FD000022D02D1168A334001E0968A33400C124A
:102FE000012606FA04F41688344013B10CB101200E
:102FF00000E0002070BDF0B5034600240026002547
:10300000002040F66A17B94200D100BF1846C1F34C
:10301000421401F01F06012707FA06F5012C01D121
:103020000C3004E0022C01D1103000E014301AB151
:1030300007682F43076002E00768AF430760F0BDF1
:103040002DE9F04786B005460E460024A24600BF93
:10305000A1460027B08900B100BF2F462C8A4CF64C
:10306000FF700440F08804432C82AC894EF6F310C4
:103070000440B08831890843718908430443AC8116
:10308000AC8A4FF6FF400440B0890443AC8201A8EB
:10309000FFF734FB1F48874202D1DDF810A001E0A2
:1030A000DDF80CA0A88900F4004040B10AEBCA008A
:1030B00000EB0A1031684900B0FBF1F807E00AEBB9
:1030C000CA0000EB0A1031688900B0FBF1F86420F7
:1030D000B8FBF0F004012009642101FB1089A889E4
:1030E00000F4004040B1322000EBC900B0FBF1F029
:1030F00000F00700044308E0322000EB09106421CF
:10310000B0FBF1F000F00F0004432C8106B0BDE8E5
:10311000F08700000038014001468888C0F30800AD
:103120007047C1F308028280704700BFFEE70000CD
:103130002DE9F04F87B00024A34600250026A146C4
:10314000A24649E02948445D0D2C01D00A2C03D148
:1031500000202749088045E02E2C02D14FF0010BBA
:1031600038E0202C29D14846FDF726FA07463A4692
:103170000B4600201F4901F059FBCDE902015046E2
:10318000FDF71AFA074600221B4BFDF71EF9CDE9A1
:103190000001DDE90223FDF78AF9CDE90401FDF71D
:1031A00075FA164941F82600701C86B24FF0000BE4
:1031B0004FF000094FF0000A0CE0A4F130000AEBD8
:1031C0008A0100EB410ABBF1010F03D109F10100B3
:1031D0001FFA80F9681C85B205480088854201DA2B
:1031E000092EAFDB00BF07B0BDE8F08F4803002019
:1031F00098000020000024400000F03FAC030020B5
:1032000010B586B00446012144F20500FFF756FAD6
:103210004FF40070ADF8140018208DF8170003204B
:103220008DF8160005A92048FDF790FF4FF4806047
:10323000ADF8140004208DF8170005A91A48FDF711
:1032400085FF1A48FFF752FE01940020ADF80800F0
:10325000ADF80C00ADF80A00ADF810000C20ADF888
:103260000E0001A91148FFF7EBFE4FF4E060FFF7F5
:1032700011F925208DF8000000208DF801000220B2
:103280008DF8020001208DF803006846FFF7CAF8A8
:10329000012240F225510548FFF7ADFE0121034808
:1032A000FFF717FE06B010BD0008014000380140CE
:1032B0000FB4054B10B503A9044A029800F014FCA2
:1032C00010BC5DF814FB0000B94500084001002067
:1032D000490050EAC12018BF04204A0D18BF40F031
:1032E000010040F2FF72B2EB515F08BF40F00200F4
:1032F000012808BF052070472DE9F74F144694B008
:103300000021C4E902111599079121F00045C9492E
:103310008D4206DC1599C4E9000117B00020BDE814
:10332000F08FC549DFF814A3A9423CDD0799C44ECC
:103330000029C44FC44A1599534619DDFDF73FF8DB
:10334000554506D0C14AC24BFDF739F8C4E9000122
:103350000AE04FF0D352BE4BFDF731F832463B4600
:10336000FDF72DF8C4E9000117B00120BDE8F08F8A
:10337000FCF784FF554506D0B44AB54BFCF77EFFF9
:10338000C4E900010AE04FF0D352B14BFCF776FFDD
:1033900032463B46FCF772FFC4E9000117B04FF01C
:1033A000FF30BDE8F08FAB49A942159978DB21F0D9
:1033B000004183468846A84AA84BFDF706F800223C
:1033C000A74BFCF75BFFFDF730FB0990FDF7E3F837
:1033D00006460F469C4A5346FCF7F7FF43465A46BB
:1033E000FCF7F0FF80468A46984A994B30463946AA
:1033F000FCF7EBFF2A0D01250B9242465346FCF7E2
:10340000E1FF032DC4E9000139D00B98C1F30A5143
:10341000401A05EB45111139814230DA9148C34613
:10342000784400EB0510CDF80CA00C90D0E90023F7
:1034300030463946FCF7C9FF02460B460491069018
:1034400058460399FCF7BBFF80468A4602460B4666
:1034500058460399FCF7B3FF049B069AFCF7AFFFAD
:1034600083460C9803913946D0E902233046FCF795
:10347000ACFF5A46039BFCF7A2FF6D1CBDE7079803
:103480000028A2BF099817B0BDE8F08F616881F0ED
:1034900000416160099817B04042BDE8F08FFFE736
:1034A00084461598C1F31301C0F30A50A0F2F53019
:1034B0004FEA601800F01F06C6F1200013900020AC
:1034C0000690079041F4801E05206D4676B1664A4D
:1034D00008EB00017A4452F8213002EB8101B3403D
:1034E0004A68139922FA01F1194305E05F4908EB94
:1034F0000002794451F82210A1FB0E27A1FB0C1306
:103500001A449A4234BF0123002303EB070A05EB58
:103510008003D3E901B70F448F4234BF012100215A
:1035200093448B4411B1934502D903E0934501D2F2
:10353000012100E00021C3E901B7514445F8201002
:10354000011EA0F10100C1DC0298059F00F10050AE
:10355000800F12900298DDE903568000FDF71BF8FA
:10356000834628460D91FDF727F86FF01D02FDF701
:10357000C9F9CDE90E013046FDF71EF86FF03D02A6
:10358000FDF7C0F980468A463846FDF715F86FF01A
:103590005D02FDF7B7F90746424653461191FCF725
:1035A0006DFEDDE90E23FCF769FE5A460D9BFCF724
:1035B00065FE00250E465A4628460D9BFCF7FFFE89
:1035C000DDE90E23FCF7FBFE42465346FCF7F7FE0F
:1035D0003A46119BFCF7F6FEDFF898A0244A5346C2
:1035E000FCF7F3FE07468846234A244B314628461B
:1035F000FCF7EBFE3A464346FCF740FE074688469A
:103600004FF0A842534631462846FCF7DEFE3A46C4
:103610004346FCF733FE159A12F0004F04D0129A7D
:1036200081F0004152421292C4E90001129817B091
:10363000BDE8F08FFB21E93F7CD90240FB21F93F37
:103640007370032E8A19A33B000040543163621A41
:1036500061B4D03DFB21394183C8C96D305FE43F7F
:103660000000E03F0C200000881F00006A1F0000DF
:10367000182D4454FB21F93D3326A611460B113C6D
:103680002DE9FF4D21F0004807460C46B8F1795F5F
:1036900008DAFDF7CAF9002801BF0020324904B05A
:1036A000BDE8F08D3A46234610461946FCF78DFEDC
:1036B000054602462D480E460B460621784400F08A
:1036C0005DF82A463346FCF780FEDDE90223824698
:1036D0008B4638462146FCF778FE04460F46524694
:1036E0005B4628463146FCF770FE22463B46FCF717
:1036F00066FE07468A464FF0FF3228463146FDF700
:1037000001F91B4A90450ADA3A465346FCF757FE40
:1037100004B00022BDE8F04D134BFCF753BE154A30
:103720004245A8BFA8F500154FF00004B8BF124DE0
:1037300022462B46FCF743FE0646884622462B4689
:1037400000200949FCF73BFE04460D463A46534625
:1037500030464146FCF733FE04B022462B46BDE816
:10376000F04DFCF72FBE00000000F03F381D0000B8
:103770003333D33F0000E93F0000D23F2DE9F04151
:103780004F1E00EBC7010446D1E9000115461E4655
:1037900037F006020DD02A463346FCF716FE7F1E90
:1037A00004EBC703D3E90023FCF768FD37F00602FA
:1037B000F1D1022F25D0042F13D0062F18BFBDE85A
:1037C000F0812A463346FCF700FED4E90A23FCF7D1
:1037D00055FD2A463346FCF7F8FDD4E90823FCF7EB
:1037E0004DFD2A463346FCF7F0FDD4E90623FCF7ED
:1037F00045FD2A463346FCF7E8FDD4E90423FCF7EF
:103800003DFD2A463346FCF7E0FDD4E90223FCF7F0
:1038100035FD2A463346FCF7D8FDD4E90023BDE840
:10382000F041FCF72BBD00002DE9FF4D054621F0CE
:10383000004084B00C46B0F1795F0BDA2846FFF700
:1038400047FD042808BF00F07FF8284608B021464D
:10385000BDE8F08D2A460B461046FCF7B6FD06463D
:103860000F462A462346FCF7B0FD804626488A4686
:1038700032463B4605217844FFF780FF8346109887
:10388000029160B3214A224B40465146FCF79DFD10
:10389000CDE900015A4640465146029BFCF795FD92
:1038A00082468846DDE906014FF0FF32FDF72AF82F
:1038B00052464346FCF783FD32463B46FCF785FD06
:1038C000DDE90623FCF77BFDDDE90023FCF777FD4E
:1038D00008B02A462346BDE8F04DFCF773BD0B4601
:1038E0005A4630463946FCF770FD084A084BFCF74B
:1038F000C5FC42465346FCF768FD08B02A462346FD
:10390000BDE8F04DFCF7BABC7E1C0000495555558A
:103910005555C5BF0022134610460149FCF7C7BDE7
:103920000000F03F0122FCF7EDBFFCF7A7BC00222E
:10393000134610461146FCF7BABD40F20132002092
:103940004FF0E041FCF7DEBF024A00201107FCF710
:10395000D9BF000001FDFFFF02E008C8121F08C127
:10396000002AFAD170477047002001E001C1121F00
:10397000002AFBD170470000014908607047000031
:10398000440100202DE9FF5FDDE90220010DDDF893
:1039900038B0024318D044F61050A1F2FF31414331
:1039A0000D140F98012820D0A5EB0B00401C5FEAF6
:1039B000000A4FF00004474EDFF81C91A046504625
:1039C00016D5CAF1000728E00F98012443A2012868
:1039D00008D0002100980F9BC0E90021C0E90243F4
:1039E000BDE8FF9F6FEA0B01F4E7CBF10000DEE7D3
:1039F000074612E0F80707D02246334640464946BC
:103A0000FCF7E3FC804689462246334610461946B9
:103A1000FCF7DBFC04460E467F10002FEAD1DDE9FF
:103A20000201BAF1000F42464B4602DAFCF7CDFC28
:103A300001E0FCF73CFD04460E460022284BFCF753
:103A40000DFE03D84FF0FF30014607E00022254B62
:103A500020463146FCF712FCFCF76BFF102409E00E
:103A6000002C0ADB0A220023FCF756FE019B3032B1
:103A70001A55641E50EA0102F2D1641C019AC4F185
:103A8000110314440F9A012A03D0012208430DD1D7
:103A90000AE0084304D000204FF0110B0F9080E79C
:103AA000A3EB0B056D1E0DE05B4504DD4FF000023E
:103AB00005F1010504E003DA4FF00002A5F101056C
:103AC000002AECD000980F99C0E90231C0E9004506
:103AD00086E70000000024400000F03F30000000B6
:103AE0000000F0430000E03F2DE9FF4F95B09B46FA
:103AF0008946064600250FE2252877D1002427466F
:103B0000F84A0121059400E0044316F8013F203BE8
:103B100001FA03F01042F7D130782A2811D06FF063
:103B20002F033078A0F13002092A16D8059A44F004
:103B3000020402EB820203EB42021044761C059061
:103B4000EFE759F8042B0592002A03DA504244F4B7
:103B50000054059044F00204761C30782E2816D1CB
:103B600016F8010F44F004042A280DD06FF02F023C
:103B70003078A0F13003092B09D807EB870302EB5B
:103B80004303C718761CF3E759F8047B761C30789A
:103B90006C280FD006DC4C2817D068280DD06A2876
:103BA00014D104E0742810D07A280FD10DE044F429
:103BB00000140AE044F4801401E044F440147278E4
:103BC000824202D104F58014761C761C3078662877
:103BD0000BD013DC582877D009DC002875D0452895
:103BE000F6D04628F4D047281AD19DE118E0632882
:103BF00035D0642879D0652812D195E1702873D02A
:103C000008DC6728F1D069286FD06E280DD06F28A6
:103C100006D1B5E073282CD0752875D0782874D0DB
:103C20005A46179990476D1C75E1C4F3025002285B
:103C300009D003280DD0D9F8001004280DD00D604C
:103C400009F1040967E1D9F80010EA17C1E9005247
:103C5000F6E7D9F800100D80F2E70D70F0E719F8DB
:103C6000041B8DF8001000208DF80100EA460120A9
:103C700003E059F804AB4FF0FF3061074FF000014B
:103C800002D40DE008F101018846B9420FDA8045FF
:103C9000F8DB1AF808100029F4D108E008F1010156
:103CA00088468142FADB1AF808100029F6D10598F7
:103CB0005B46A0EB080721463846179A00F094FAB5
:103CC000284400EB080507E04DE029E10DE01AF873
:103CD000010B5A4617999047B8F10108F7D25B4695
:103CE00021463846179A13E142E00A220092C4F3B3
:103CF00002524FF0000A022A08D059F804CB032AD6
:103D00004FEAEC710AD00DE029E02AE009F1070141
:103D100021F00702F2E802C1914609E00FFA8CFC9B
:103D20004FEAEC71042A03D14FFA8CFC4FEAEC7194
:103D3000002907DA0A460021DCF1000C61EB0201E0
:103D40002D2202E0220504D52B228DF80420012229
:103D500003E0E20701D02022F7E7904659E00A216C
:103D600002E010220DE010214FF0000A00910BE05C
:103D700010224FF0000A44F004040827009203E0E8
:103D800008224FF0000A0092C4F30252022A05D022
:103D900059F804CB0021032A08D009E009F10701F2
:103DA00021F00702F2E802C1914605E01FFA8CFCFF
:103DB000042A01D10CF0FF0C4FF00008220728D58F
:103DC000702806D0009B83F0100353EA0A0305D045
:103DD0000EE040228DF80420012208E05CEA010296
:103DE00006D030228DF804208DF80500022290467E
:103DF000009B83F0080353EA0A030AD15CEA01023C
:103E000001D1620705D530228DF804204FF001085A
:103E10007F1E582804D034A003900EA802900DE015
:103E200036A0F9E753466046009AFCF775FC8446D5
:103E30000398825C0298401E029002705CEA0100C6
:103E4000F0D1029806A9081A00F1200A600702D5ED
:103E500024F4803400E00127574502DDA7EB0A0077
:103E600000E0002000EB0A01009005984144401A50
:103E70000590E00306D45B462146179A059800F0AA
:103E8000B3F90544002706E001A85A46C05D17991A
:103E900090476D1C7F1C4745F6DBE0030CD55B4665
:103EA0002146179A059800F09FF9054404E0302058
:103EB0005A46179990476D1C0099481E009000299A
:103EC000F5DC08E0029802995A460078491C0291F4
:103ED000179990476D1CBAF10001AAF1010AF1DCB3
:103EE00065E10000092801003031323334353637BE
:103EF0003839616263646566000000003031323336
:103F000034353637383941424344454600000000D5
:103F100000F058F90544761C307800287FF4ECADA9
:103F200019B02846BDE8F08F620700D4062709F1D2
:103F3000070222F0070CFCE80223E14603F00048E8
:103F40005FEA080C02D00FF2702C0DE05FEA045C0F
:103F500002D50FF2682C07E05FEAC47C02D00FF2B2
:103F6000602C01E0AFF2700C4FF0FF3823F00043FB
:103F7000CDF850C065280CD006DC452809D046286D
:103F80001DD047283DD13DE0662818D067287ED156
:103F900038E00021112F01DB112000E0781CCDE971
:103FA000000106A90EA8FFF7EDFCDDE90F010E9A4E
:103FB00003910021009207F1010A04914DE04FF0B6
:103FC00000400097CDE9011006A90EA8FFF7DAFC22
:103FD000DDE90F0203920E9B11990022DDF80CA07F
:103FE0000093049211B9791C00EB010AB7EB0A00A7
:103FF00004D4C0F1FF3007F1010A0490AAEB0700D6
:10400000019044E0012F00DA01270021112F01DD8A
:10401000112000E03846CDE9000106A90EA8FFF7FF
:10402000B1FCDDE90F010E9A039100210491009289
:10403000BA4621070CD40399514500DA8A46BAF1F1
:10404000010F05DD009AAAF10101515C302908D069
:10405000B84202DA10F1040F06DA0121CDE90110AD
:1040600015E0AAF10101E9E7002805DC0499014403
:104070000491AAEB000102E0411C514500DD8A4693
:104080000499401A401C01904FF000400290200714
:1040900004D40198504501DBCDF8048000208DF850
:1040A0004F0002980DF14F07B0F1004F25D02B20A3
:1040B0000E9002984FF0020800280CDA404202905D
:1040C0002D200E9007E00A210298FCF70FFB3031FB
:1040D000029007F8011DB8F10001A8F10108F2DC17
:1040E00002980028EFD1791E0E980870307800F001
:1040F000200040F0450007F8020D12A8C01B00F197
:1041000007081498007800B1012000EB0A0101981B
:1041100001EBE07105984144401A401E0590E00310
:1041200006D45B462146179A059800F05DF80544D1
:104130001498007818B15A46179990476D1CE003FF
:1041400024D55B462146179A059800F04DF80544A2
:104150001CE00498002807DBDDE90301884203DD49
:104160000098405C179901E0179930205A46904713
:10417000049805F10105401C04900198401E01902F
:1041800004D12E205A46179990476D1CBAF10001B0
:10419000AAF1010ADDDC05E017F8010B5A46179970
:1041A00090476D1CB8F10001A8F10108F4DC5B46F2
:1041B0002146179A0598ABE62D0000002B00000061
:1041C000200000002DE9F041044600251E46174658
:1041D000880404D405E039462020B0476D1C641ED5
:1041E000F9D52846BDE8F0812DE9F04104460025C7
:1041F0001E469046C80301D5302700E020278804DA
:1042000004D505E041463846B0476D1C641EF9D51B
:104210002846BDE8F08100002DE9F84F04460D4620
:1042200021F0004000917349814211DC72498842BB
:1042300001DC06D12CB120462946BDE8F84FFFF736
:1042400071BB6E48002DCCBF6D496E49BDE8F88F3B
:104250006D49814211DD6D498142D8BF4FF0FF3673
:104260006DDD20462946FFF733F8042808BFFFF725
:104270006BFB20462946BDE8F88F6549654F25F060
:104280000045814233DD6449814219DD0026324612
:104290004FF0804320462946FBF7F0FF80468A46D0
:1042A000012220462946FCF72DFB00223B46FCF765
:1042B00086F842465346FCF7FAF804460D463EE0BF
:1042C00001260022BA463B4620462946FBF7D6FF88
:1042D00080460F460022534620462946FCF76FF8D9
:1042E00042463B46FCF7E3F804460D4627E04B49BF
:1042F00081421BDDDFF828A102260022534620461A
:104300002946FCF762F800223B46FBF7B7FF8046E0
:104310000F460022534620462946FCF750F84246F5
:104320003B46FCF7C4F804460D4608E00326224647
:104330002B4600203B49FCF7BAF804460D462246BE
:104340002B4610461946FCF740F88B46824602463B
:104350000B46FCF73AF807460246334888460B46B8
:1043600006217844FFF70AFA52465B46FCF72DF81F
:1043700082462E488B463A46434605217844FFF74D
:10438000FDF93A464346FCF720F802460B46002E5C
:10439000504659460CDAFBF771FF22462B46FCF7D4
:1043A00014F801B022462B46BDE8F04FFCF70AB8DE
:1043B000FBF764FF22462B46FCF707F81C4A7A44B9
:1043C00002EBC603D3E90023FBF7F9FF22462B4695
:1043D000FBF7F5FF174A7A4402EBC603D3E9002343
:1043E000FBF7F0FF009A002AB8BF81F00041BDE85A
:1043F000F88F0000000010440000F07F182D445496
:10440000FB21F93FFB21F9BF0000DC3F0000203E0B
:104410000000F33F0000F03F0000E63F0080034053
:104420000000F83F0000F0BF621000002010000004
:10443000BE0F0000860F00002DE9F04D9446CCF130
:10444000000423F000464CEA0404524F46EAD474B8
:104450009A46884621F00042BC4206D8454240EACE
:10446000050442EAD474BC4204D9BDE8F04D62466A
:10447000FFF75BBAAAF14055A5F17F6555EA0C0438
:104480000BD0022404EAAA74434DDFF810E144EA99
:10449000D87452EA000B04D00CE0BDE8F04DFFF7F1
:1044A000BBBE002C14BF012CBDE8F08D022C30D017
:1044B000032C32D056EA0C0B0AD0BE4220D1BA42AD
:1044C00009D126F0804622F080423346114617E09B
:1044D00000291ADB25E0DFF8C8B0FB44002C04BF3C
:1044E000DBE90001BDE8F08D012C02BFDBE9000132
:1044F00081F00041BDE8F08D022C0AD0032C0CD0D5
:10450000BA4212D1B8F1000F0BDA23482549BDE8B1
:10451000F08D28462449BDE8F08D28467146BDE857
:10452000F08D1D482149BDE8F08D921B12153C2AE3
:10453000C4BF19481D490EDCBAF1000FBEBF12F10D
:104540003C0F0020014606DB6246FBF7B0FF21F07E
:104550000041FFF761FE002C08BFBDE8F08D012C83
:1045600004BF81F00041BDE8F08D114A114B022CCF
:1045700007D0FBF724FF2A46BDE8F04D0A4BFBF7B6
:104580001EBFFBF71CFF2A46BDE8F04D064BFBF7AC
:1045900019BF00000000F07F182D4454FB2109C012
:1045A0004A0F0000FB21F9BFFB210940FB21F93F25
:1045B000075C143326A6A13C70B504460D46E1B253
:1045C0000548FEF7AEFD00BF80210348FEF7DCFC86
:1045D0000028F9D0204670BD003801401CB50025E8
:1045E00000240026A146002001900090FDF7D6F996
:1045F000FEF73AFA4FF4E130FEF702FE4FF4805036
:104600007649086040000860FDF7B8FA01213220C1
:10461000FDF744FE05460BE0294671A0FEF748FE73
:104620007448FCF781FD01213220FDF737FE054675
:10463000002DF1D101213220FCF79CFC05460BE056
:1046400029466DA0FEF734FE6A48FCF76DFD012196
:104650003220FCF78FFC0546002DF1D1FDF792FCCE
:10466000BAE0204604EBD0714910A4EB4101C1F13E
:104670000201192292FBF1F2711CB1FBF2F302FB71
:10468000131609F101000A21B0FBF1F201FB120936
:104690003EB95248001F006880F480504F49091FFE
:1046A00008605A495A480068FCF716F804D24FF4DB
:1046B00000504A4908600AE0B9F1000F07D14748A5
:1046C000001F006880F400504449091F08605148E9
:1046D000FDF7ECF98CBB50495048FDF75BFC5048A6
:1046E0000068FBF78FFF21F00041074600224D4B89
:1046F000FBF7B4FF0DD2002149480068FBF7ECFF3F
:1047000001D2012000E0002007460A21FDF7C2FA8D
:104710005EE045480068FBF775FF21F00041074661
:104720000022404BFBF79AFF0ED200213E48006862
:10473000FBF7D2FF02D2012001E007E0002007468C
:104740000A21FDF723FA43E0012441E032493348CE
:10475000FDF720FC30493148FCF788FAFEF7E8FC09
:10476000002131480068FDF7B3FE01900198FBF786
:1047700049FF21F000410746FBF72BFF1FFA80FAA3
:1047800000210198FBF7A8FF01D2012000E00020E2
:1047900083465146FDF7FAF9002121480068FDF7EC
:1047A000FBFE00900098FBF72DFF21F0004107462B
:1047B000FBF70FFF1FFA80FA00210098FBF78CFF30
:1047C00001D2012000E0002083465146FDF762FA45
:1047D00042F21070FCF7A8FC43E70000100C014007
:1047E0004572726F722D6D7075363035302D2564BF
:1047F0000D0A0000400D03004572726F722D626F4A
:104800006172646D70752D25640D0A000000C04052
:104810003C010020CDCC4C3F0AD7233CCDCCCC3D35
:104820006C0000200000F03F680000202DE9F04DF2
:1048300016460F4694B01C4621F0004123F000427A
:10484000002814BF4FF0010C4FF0000C0CEB470C8C
:10485000FE4B0CEB03054FEA630C65452BD335008B
:1048600018BF012505EB44051D44F94B9D4222D399
:10487000F84B52EA060C02D09F4205D148B914B059
:1048800000201946BDE8F08D002808BF4FF0000C4D
:1048900001D04FF0010C0CEB470313F5001F0AD8B1
:1048A000002E14BF4FF0010C4FF0000C0CEB440332
:1048B00013F5001F07D914B0324623463946BDE828
:1048C000F04DFFF732B8DFF890834FF0000A002F69
:1048D000B8BF424523DAE14B9A42A8BF4FF0020A23
:1048E0001DDADC4B93421ADCDD4B03EB2253142B15
:1048F00008DDC3F1340C26FA0CF303FA0CFCB445C2
:104900000DD108E05EB9C3F1140C22FA0CF303FADE
:104910000CFC944503D103F00103C3F1020A51EAF0
:1049200000031BD1002C19DA002F18BFBAF1020FB7
:1049300002D0BAF1010F07D00220FFF71DF814B022
:10494000BDE8F04DFEF7E6BF0220FFF715F8FEF7D1
:10495000E1FF14B081F00041BDE8F08D330070D16B
:10496000424525D107F1804212F5801201BF00288F
:104970000020B84914B008BFBDE8F08DB5488842A2
:1049800007DC002CA1BF1846214614B0BDE8F08D0D
:1049900007E0002CBFBF184684F0004114B0BDE80A
:1049A000F08DB0497944D1E9000114B0BDE8F08D33
:1049B000DFF8A0C262452AD1002C24DA39B1414582
:1049C00017D1002804BF002002461CD106E040B1E8
:1049D0000220FEF7D1FFFEF7B0FF0A46394600F08D
:1049E000D7BA9D4A394614B0002062F31E01BDE8D3
:1049F000F08D08DA14B03B46BDE8F04D02460020C9
:104A00006146FBF754BD14B03946BDE8F08D414511
:104A100017DAB4F1804F0CD0A4F10053B3F1FF5377
:104A20000FD13B1E0DDB14B01946BDE8F04D00F070
:104A300029BC3B4614B00246BDE8F04D1946FBF7D1
:104A4000C4BC050027F000433AD1E1B1414537D15C
:104A5000002F06DD002CA1BF0020414614B0BDE8A8
:104A6000F08D002F01DD002C1FDB002F16DA002C4B
:104A700014DBBAF1010F4FF0000014BF76497A49F8
:104A800014B0BDE8F08DBAF1020F18BF002F0CD0A2
:104A9000BAF1010F09D1002F07DA0BE0002FB8BFE0
:104AA000002C0DDABAF1010F04D0002014B0014639
:104AB000BDE8F08D14B000204FF00041BDE8F08D4E
:104AC0004FF0010808EBE77CCDF814C05CEA0A0C53
:104AD0000DD0DFF898C162457EDDDFF894C1654BEB
:104AE000624512DD8B420ADB002C18DB23E001203B
:104AF000FEF742FF14B0BDE8F04DFEF718BF554A6F
:104B00008A4202DC002C0ADC15E0994202DA002C11
:104B100011DA04E04F4B994219DD002C0BDD022025
:104B2000FEF72AFFFEF709FF4B4A14B061F31E029D
:104B30001146BDE8F08D0220FEF71EFFFEF704FFD0
:104B4000444A14B061F31E021146BDE8F08D002204
:104B50003946FBF734FC07460D466FF00102FBF7C0
:104B6000D1FE4FF05532444BFBF72CFC3A462B4616
:104B7000FBF72BFC0022414BFBF724FC80468B46C5
:104B80003A462B4610461946FBF71FFC42465B4649
:104B9000FBF71BFC88460E904FF0C042384B38465E
:104BA0002946FBF712FC83460091364A344B4146B6
:104BB0000E98FBF70AFC80460191334A334B384686
:104BC0002946FBF702FC4246019BFBF7F8FB0D462A
:104BD00002460B460C9000E011E058460099FBF7A6
:104BE0004DFB002788465A463846009BFBF7E7FBFB
:104BF0002B460C9AFBF7E6FB024600F079B9002041
:104C0000B1F5801F07DA352228461946FBF77AFEF0
:104C100005466FF0340000EB2150A0F2FF30019008
:104C2000C1F3130040F07F6141F0405102911849F7
:104C30008842D8BF4FF0000B35DD16498142C8BF0E
:104C40004FF0010B2FDC4FF0000B25E0FFFF1F00A2
:104C5000FFFF0F000000F03F0000F07F0000404326
:104C600001FCFFFF800A00000000F0FF0000E041AF
:104C70000000F043FFFFEF3F5555D53F0000E03FF8
:104C80004715F73FFE822B6544DF5DF80BAE543EBF
:104C90008E9803007AB60B000198401C0190029890
:104CA000A0F580100290FF480299784400EBCB00F9
:104CB0000991D0E9002328460B931292FBF77FFB62
:104CC00000910A9028460B9B129A0999FBF7D6FA95
:104CD00002460B460020F449FBF7E9FBCDE90C0145
:104CE0000B46024600990A98FBF76FFB0690EF48C7
:104CF0008846002778440299006810904FF00050D1
:104D000040EA610000EB8B4000F5002102910B9B13
:104D1000129A1098FBF753FB2A46099BFBF752FBAC
:104D20003A464346FBF751FB0891129038464146FC
:104D3000029B109AFBF749FB009B0A9AFBF742FB88
:104D4000089B129AFBF73BFBDDE90C23FBF73DFBCD
:104D50000B91069A1290434610461946FBF735FB15
:104D600005460246D2480B460A9106217844FEF7D2
:104D700005FD0A9B2A460891029010461946FBF74A
:104D800024FB089B029AFBF720FB0546099143464A
:104D900038461946069AFBF771FA0B9B129AFBF7F5
:104DA00014FB2A46099BFBF769FACDE908013A464C
:104DB000434610461946FBF708FB0A910022BD4BFB
:104DC0000090FBF75BFADDE90823FBF757FA0D4685
:104DD0003A46B84B3846FBF7F2FA0A9B009AFBF7C3
:104DE000EEFADDE90823FBF7EDFACDE908013A46D2
:104DF0002B4610464146FBF7E8FA00910A90DDE9A0
:104E000008014346069AFBF7E0FA069088462B46CF
:104E10003A460B991298FBF7D8FA4346069AFBF7E5
:104E20002DFA80460B4602460D9100990A98FBF731
:104E300025FA00200F460546009B0A9AFBF7BFFAA9
:104E400042460D9BFBF7BEFA88460E904FF060423B
:104E5000994B28463946FBF7B8FA02910090974AD9
:104E6000954B41460E98FBF7B0FA80460391944A61
:104E7000944B28463946FBF7A8FA4246039BFBF7BA
:104E8000FDF9914A7A4402EBCB03D3E90023FBF707
:104E9000F5F9054607910198FBF77DFB0C9003910E
:104EA0002A46079B02990098FBF7E8F9874A7A445B
:104EB00002EBCB03D3E9002393460193FBF7DEF922
:104EC000039B0C9AFBF7DAF9002788463846039BC8
:104ED0000C9AFBF774FA5A46019BFBF770FA029B97
:104EE000009AFBF76CFA2A46079BFBF76BFA02461F
:104EF0000020069005986C4DAAF10103184301D1DA
:104F0000734D069000200B46049030462146FBF777
:104F10005CFA82468B46234630461946049AFBF7D4
:104F20004EFA3A464346FBF750FA52465B46FBF7C9
:104F3000A5F906468A463A46434621460498FBF7B9
:104F400044FA04460F4632465346FBF797F9614A46
:104F50008B46914221DBABEB020353EA000210D1F6
:104F600022463B46FBF72BFA804603915A4A5B4B9D
:104F700030465146FBF782F94246039BFBF76EFB36
:104F800027D20220FEF7F8FCFEF7D7FC0A46294696
:104F900014B062F31E01BDE8F08D514B2BF00042BE
:104FA0009A4216D34F4A0BEB020353EA000208D190
:104FB00022463B46FBF703FA32465346FBF74EFBCD
:104FC00007D80220FEF7D8FCFEF7BEFC0A462946A9
:104FD000DEE72BF000404449444A01EB20514FF0FA
:104FE0000008824223DA481C4FF4801121FA00F0B5
:104FF00058443F4AC0F30A517A443E4BA1F2FF3174
:10500000CB4020EA0303C0F3130040F4801CC1F13D
:10501000140012682CFA00F8BBF1000FB8BFC8F1F9
:10502000000820463946FBF7CAF904460F462246D7
:105030003B4630465146FBF721F94FF0000B5A46EC
:105040002D4B58460391FBF7C0F900910A902B4A6B
:105050002B4B58460399FBF7B8F90491029022466E
:105060003B4658460399FBF7AAF932465346FBF7ED
:10507000A9F9244A244BFBF7A8F9049B029AFBF7F1
:10508000FDF807468A46009B0A9AFBF7F7F80446A4
:105090000E46009B0A9AFBF792F93A465346FBF7F5
:1050A00091F933E02A0600000000F03F30070000CD
:1050B000980500000000084009C7EE3FFD033ADCF8
:1050C000F5015B14E02F3EBE7004000036040000C2
:1050D0000000F0BF00009040FE822B654715973C12
:1050E00000CC904000346F3F01FCFFFF0000E03F28
:1050F0002C040000FFFF0F00432EE63F396CA80C84
:10510000615C20BEEF39FAFE422EE63F074622469A
:1051100033460F9110461946FBF757F9834602466E
:105120002E488A460B4605217844FEF727FB5A464F
:105130005346FBF74AF922463346FBF743F98246CA
:105140008B463A46204631460F9BFBF73EF93A46DE
:105150000F9BFBF793F80F460A9000224FF0804315
:1051600050465946FBF72BF90391009052465B4697
:1051700020463146FBF729F9039B009AFBF797F984
:105180003B460A9AFBF71BF922463346FBF717F911
:105190000022134BFBF716F90E46044601EB0851AB
:1051A0000815002810DC424620463146FBF7AAFBD2
:1051B000FEF78EF8042808BFFEF7C6FB42462046DD
:1051C0003146FBF79FFB044606980B4614B0224677
:1051D0002946BDE8F04DFBF7F8B800000C020000CE
:1051E0000000F03F00B5254B21F0004287B09A4205
:1051F00003DC0022134600922BE0214B9A4208D197
:1052000040B94FF00100FEF7B7FBFEF790FB07B087
:1052100000BD03DBFEF786FB07B000BD02AAFEF768
:105220006BF810F003014FF001000DD0012914D0EC
:1052300002291AD00DF1080C9CE80F00FEF720FAA5
:1052400007B081F0004100BD0DF1080C00909CE812
:105250000F00FEF7E9FA07B000BD0DF1080C9CE85D
:105260000F00FEF70DFA07B000BD0DF1080C00901D
:105270009CE80F00FEF7D8FAE2E70000FB21E93FC7
:105280000000F07F2DE9F04106460F46FBF77CFB5E
:1052900004000D4618BF0120284320F00040C0F153
:1052A0007F6000F1E040C00F0ED0301C18BF01201D
:1052B000384320F00040C0F17F6000F1E040C00FB3
:1052C00004BF0120FEF758FB20462946BDE8F081C7
:1052D000FF01000000000000000000000000F03F9F
:1052E000000000000000F83F000000000000000087
:1052F0000000004003B8E23F000000000000000092
:1053000006D0CF43EBFD4C3E033333333333E33F1F
:10531000FFAB6FDBB66DDB3F4D268F515555D53F4B
:1053200001411DA96074D13F65DBC9934A86CD3F19
:10533000EF4E454A287ECA3F3E5555555555C53F07
:1053400093BDBE166CC166BF2CDE25AF6A56113FF9
:10535000F16BD2C541BDBBBED0A4BE726937663EFB
:105360004FBB610567ACDD3F182D4454FB21E93F7D
:105370009BF681D20B73EF3F182D4454FB21F93F6C
:10538000E2652F227F2B7A3C075C143326A6813CF2
:10539000BDCBF07A8807703C075C143326A6913C9D
:1053A000C4EB98999999C9BF711623FEC671BCBF09
:1053B0006D9A74AFF2B0B3BF9AFDDE522DDEADBF71
:1053C0002F6C6A2C44B4A2BF0D5555555555D53F89
:1053D000FF8300922449C23F6E204CC5CD45B73FA4
:1053E000513DD0A0660DB13FEB0D76244B7BA93F1C
:1053F00011DA22E33AAD903F4C5555555555A53F2E
:105400007751C1166CC156BF9015CB19A001FA3E59
:10541000AD529C804F7E92BEC4B1B4BD9EEE213E83
:10542000D43888BEE9FAA8BD0000000000000000E2
:1054300000004054FB21F93F3163621A61B4D03D52
:105440000000601A61B4D03D7370032E8A19A33B2B
:105450000000002E8A19A33BC14920259A837B397D
:1054600000000000000000006E83F9A22915444EE0
:10547000D15727FCC0DD34F5999562DB4190433C60
:10548000AB6351FE61C5BBDE3A6E24B7E0D24D423C
:10549000EA2E49061C92D1091CEB1DFE3EA729B13C
:1054A000F53582E88444BB2E26709CE9417E5FB4CA
:1054B00039D69139F43953838B5F849C3B28F9BDED
:1054C000FF97F81F0F9805DE8B112FEF1F6D0A5AFB
:1054D000CF7E366DB709CB27663F464F2DEA5F9EDC
:1054E000C7BA27757BF1E5EBF739073DEA92528A97
:1054F000B15FFB6B085D8D1FA6F810111111813F84
:10550000D561C119A0012ABF7DFEB157E31DC73E79
:10551000EB9C2B8AE6E55ABE7CD5CF5A3AD9E53DBD
:10552000405500080000002048010000680A0008FB
:105530005C55000848010020880600006839000812
:105540001184A24A04680901020304060708090C31
:0C555000691005FF02040608012100009C
:0400000508000145A9
:00000001FF
