:020000040800F2
:10000000580C002045010008012600089312000842
:10001000A11C0008E1100008A33500080000000042
:10002000000000000000000000000000712C00082B
:100030003111000800000000012B0008A12E00086B
:100040005F0100085F0100085F0100085F01000810
:100050005F0100085F0100085F0100085F01000800
:100060005F0100085F0100085F0100085F010008F0
:100070005F0100085F0100085F0100085F010008E0
:100080005F0100085F010008990A00085F0100088D
:100090005F0100085F0100085F0100085F010008C0
:1000A0005F0100085F0100085F0100085F010008B0
:1000B0005F0100085F0100085F0100085F010008A0
:1000C0005F0100085F0100085F0100085F01000890
:1000D0005F010008093300085F0100085F010008A4
:1000E0005F0100085F0100085F0100085F01000870
:1000F0005F0100085F0100085F0100085F01000860
:100100005F0100085F0100085F0100085F0100084F
:100110005F0100085F0100085F0100085F0100083F
:100120005F0100085F0100085F0100085F0100082F
:10013000DFF80CD000F054FC004800476949000883
:10014000580C00200648804706480047FEE7FEE7B7
:10015000FEE7FEE7FEE7FEE7FEE7FEE7FEE7FEE777
:10016000A92E000831010008F0B480EA0102D40F82
:100170004200B2EB410F02D20246084611464A0045
:1001800042D0C30DDDB2C1F3C752AD1A202D35DA0E
:10019000C1F3160141F4000204B15242C5F1200638
:1001A00002FA06F12A411044B3EBD05F23D0C4B168
:1001B000012DA0EBC35009DCF0BC4FF0004202EA75
:1001C000C352DBB200F5000000F04FBB400000F16D
:1001D000807000EBC350A0F1807040EAD1704900FC
:1001E00009E0490841EAC071A0EBC35000F50000E6
:1001F000400800EBC350F0BC00F02EBB614201226E
:1002000002EB4101001BF6E7F0BC704781F00041B2
:10021000AAE780F00040A7E780EA010210B502F0EB
:100220000043400022D04A001FD0010E01EB1261B2
:10023000C0F35600C2F3560240F4000042F400023C
:10024000A0FB022000047F39140400D0401C50EAB7
:10025000124001D44000491EC2B20C0604EBD0107B
:10026000401C4008802A02D003E0002010BD20F08E
:100270000100002900DA0020184310BD30B480EAE4
:10028000010202F0004530F0004221F0004013D09E
:1002900090B1C30DD40DC2F31601C0F31600E41AD9
:1002A00041F4000140F400027D34914201D3641C0A
:1002B00000E04900002C02DA30BC002070474FF407
:1002C00000000023914201D3891A034340084FEAFA
:1002D0004101F7D151B1914202D14FF0004105E007
:1002E00002D24FF0010101E06FF0010103EBC450B5
:1002F000284430BC00F0B0BA2DE9FE4F804681EAB8
:100300000300C00F0C46009021F0004123F000458F
:10031000B8EB0200A94105D24046214690461C4652
:100320000B46024623F00040104347D0270DC7F389
:100330000A00C3F30A510290401A019040286BDA78
:10034000C3F3130040F4801B0098924620B10023B1
:10035000D2EB030A63EB0B0B01985946C0F1400244
:10036000504600F048FA06460D4650465946019A56
:1003700000F060FA10EB08006141002487EA115296
:1003800084EAE7731A4340D0009A62B3019A012AC3
:100390004FEA075215DC001B61EB02014FF00042EF
:1003A00002EA0752CDE90042001C41F580113246B5
:1003B0002B4600F097FA03B0BDE8F08F4046214687
:1003C000F9E7001B61EB0201001C41F580130018E6
:1003D0005B412018A2F5001747EB030140EAD570F6
:1003E000B6196D4111E06D084FEA360645EAC07551
:1003F0004FEA0752001B61EB0201001C41F580111E
:1004000049084FEA30000019514132462B4603B0EB
:10041000BDE8F04F00F057BA0098012240000023D9
:10042000D0EB020263EBE073009821464FEAE074E0
:10043000B8EB000061EB0401E9E783F000435BE700
:1004400081F0004158E72DE9FE4F81EA030404F0F2
:10045000004421F0004100944FF0000B23F00043D2
:1004600050EA01045ED052EA03045BD0C3F30A549D
:10047000C1F30A552C44A4F2F3340194A0FB0254B6
:10048000C1F3130141F48011C3F3130343F4801348
:1004900001FB024400FB034E840A970A44EA81549C
:1004A00047EA8357A4FB076802958D0A05FB078579
:1004B0004FEA932C04FB0C542705029D4FEA065883
:1004C00047EA1637B5EB08056EEB070C870E920E60
:1004D00047EA811742EA8312A7FB0201B6EB0B0140
:1004E00064EB00042B0D43EA0C335E1844EB1C5004
:1004F000DA465146E7FB0201C5F313044FEA0B331A
:1005000043EA14534FEA0432019C43EA0603A4F180
:100510000C040294009CCDE900B400F0E3F903B0B0
:10052000BDE8F08F00200146F9E72DE9F04D81EAA2
:10053000030404F0004B21F0004514464FF0000A7C
:1005400023F0004150EA050220D054EA01021DD0F8
:10055000C5F30A570246C5F31303C1F31300C1F3F1
:100560000A5640F4801543F48013A7EB0608101BCD
:10057000D64608F2FD3873EB050002D308F10108F6
:1005800001E092185B41B8F1000F03DA0020014648
:10059000BDE8F08D00204FF48011064684460EE041
:1005A000171B73EB050705D3121B63EB050306430B
:1005B0004CEA010C49084FEA300092185B4150EABE
:1005C0000107EDD152EA030012D082EA040083EA67
:1005D0000501084305D0101BAB4106D201220023C0
:1005E00006E000224FF0004302E06FF001025310DA
:1005F0001AEB06004CEB085110EB0A0041EB0B0123
:10060000BDE8F04D00F05FB996230022114600F0DE
:100610002CB90EB5C10F80EAE0700844CA0700216A
:1006200040F233438DE80E000A460B4600F05AF9BB
:1006300003B000BD0EB540F2334102910021CDE977
:1006400000110A460B4600F04DF903B000BDC1F39E
:100650000A5210B5C1F3130140F2FF3341F4801187
:100660009A4201DA002010BD40F233439A42A2F2CE
:10067000334203DC524200F0CDF810BD904010BD73
:1006800000F0004230F000400AD0C10D01F5607169
:10069000C0F3160042EA0151C208400711437047F7
:1006A000002001467047000030B5041E71F10004BF
:1006B00004DB4FF00044404264EB0101141E73F16F
:1006C000000405DB1C464FF00043524263EB040379
:1006D0008B4208BF824230BD30B5041E71F1000468
:1006E00004DB4FF00044404264EB0101141E73F13F
:1006F000000405DB1C464FF00043524263EB040349
:10070000994208BF904230BD01F0004330B421F05F
:10071000004150EA010206D00A0DA2F56072C1F351
:100720001301002A02DC30BC00207047440F44EA69
:10073000C104C100E01830BC00EBC25000F08CB81E
:10074000002801DBC0F10040002901DBC1F10041BC
:1007500081427047002801DBC0F10040002901DB25
:10076000C1F100418842704730B50B460146002078
:100770002022012409E021FA02F59D4205D303FA63
:1007800002F5491B04FA02F52844151EA2F10102E4
:10079000F1DC30BD2DE9F05F0546002092469B4616
:1007A00088460646814640241BE028464146474687
:1007B000224600F02FF853465A46C01A914110D3F2
:1007C00011461846224600F016F82D1A67EB01086C
:1007D0004F4622460120002100F00DF817EB0009DA
:1007E0004E41201EA4F10104DFDC484631462A4672
:1007F0004346BDE8F09F202A04DB203A00FA02F1CC
:10080000002070479140C2F1200320FA03F31943FE
:1008100090407047202A04DB203A21FA02F00021A0
:10082000704721FA02F3D040C2F120029140084300
:1008300019467047202A06DBCB17203A41FA02F00E
:1008400043EAE07306E041FA02F3D040C2F120022D
:1008500091400843194670470029A8BF7047401CC3
:10086000490008BF20F00100704710B4B0FA80FCC6
:1008700000FA0CF050EA010404BF10BC704749B103
:10088000CCF1200421FA04F411FA0CF118BF012173
:1008900021430843A3EB0C01CB1D4FEA00614FEA53
:1008A000102042BF002010BC704700EBC350104422
:1008B0000029A4BF10BC7047401C490008BF20F0AD
:1008C000010010BC704710B5141E73F1000408DA63
:1008D000401C41F1000192185B411A4301D120F004
:1008E000010010BD2DE9F04D92469B4611B1B1FAC1
:1008F00081F202E0B0FA80F220329046FFF77BFFEF
:1009000004460F4640EA0A0041EA0B0153465A46A4
:10091000084313D0114653EA010019D0C8F1400230
:100920005046FFF777FF05460E4650465946424669
:10093000FFF761FF084305D0012004E02046394657
:10094000BDE8F08D0020054346EAE0762C433743AE
:100950000A986305E40AA0EB08000022FD0A44EAB5
:1009600047540A3002D500200146E9E70105101975
:100970006941DDE9084500196941BDE8F04DA2E78C
:1009800070B521F0004303430CD0C1F30A55002495
:10099000D5EB040564EB0403D617AD1AB34102DBB3
:1009A0000020014670BD201841EB025170BDC1F31B
:1009B0000A52C1F3130140F2FF3341F480119A420D
:1009C00002DA00200146704740F233439A42A2F215
:1009D000334202DC5242FFF71DBFFFF70CBF00009D
:1009E000064C074D06E0E06840F0010394E807007C
:1009F00098471034AC42F6D3FFF79EFBD84F00085F
:100A0000F84F000870B5C1F30A5201F00045002408
:100A1000C1F3130140F2FF3341F480119A4201DA2D
:100A2000002070BD40F233439A42A2F2334203DC0D
:100A30005242FFF7EFFE00E090402C43F1D04042DD
:100A400070BD70B58C1810F8015B15F0070301D16B
:100A500010F8013B2A1106D110F8012B03E010F821
:100A6000016B01F8016B5B1EF9D12B0705D4002344
:100A7000521E0DD401F8013BFAE710F8013BCB1AE6
:100A8000921C03E013F8015B01F8015B521EF9D5DB
:100A9000A142D8D3002070BD10B5034800F01DF866
:100AA0000249088010BD0000002401408C01002094
:100AB00021B1826842F00102826003E0826822F084
:100AC000010282607047014600208A6802F0040239
:100AD0000AB1012000E0002070470146C86C80B2D6
:100AE0007047014600208A6802F008020AB101201E
:100AF00000E00020704710B50023CBB21AB1446863
:100B00001C43446002E044689C43446010BD000004
:100B100030B502460020002350680F4C20400D796C
:100B20000C6844EA05242043506090680B4C204038
:100B3000D1E902542C434D7944EA450420439060A6
:100B4000D06A20F470000C7C641EE4B2234340EAB7
:100B50000350D06230BD0000FFFEF0FFFDF7F1FF53
:100B6000F0B504460D4600200021092D11DDE06896
:100B7000A5F10A0606EB4607072606FA07F18843A1
:100B8000A5F10A0606EB460603FA06F10843E06003
:100B90000CE0206905EB4507072606FA07F18843B4
:100BA00005EB450603FA06F108432061072A0FDA30
:100BB000606B561E06EB86071F2606FA07F1884370
:100BC000561E06EB860605FA06F10843606322E02E
:100BD0000D2A0FDA206BD61F06EB86071F2606FAB2
:100BE00007F18843D61F06EB860605FA06F108438F
:100BF000206310E0E06AA2F10D0606EB86071F26CF
:100C000006FA07F18843A2F10D0606EB860605FAFF
:100C100006F10843E062F0BD816841F0080181609F
:100C2000704721B1826842F4A002826003E08268CA
:100C300022F4A00282607047816841F00401816063
:100C4000704700002DE9F34F8BB000F0AFF800F0D3
:100C50001BF94C480C990068FFF7DEFA83464A48B6
:100C600001685846FFF780FA81464FF07E510B9895
:100C7000FFF7CFFA82464946FFF7CEFA8046FFF7E4
:100C8000FFFC04460D4641480068FFF7F9FCCDE93A
:100C900000013F480068FFF7F3FC8246DDE90023CE
:100CA00003F090FDCDE904010B98FFF7E9FCCDE9D5
:100CB0000201DDE90423FFF7C6FB0022354BCDE935
:100CC0000601FFF7C0FB8046334A344BFFF72DFC8B
:100CD000064622462B46FFF70FFBCDE90801FFF73A
:100CE00013FD294908602E480C990068FFF794FA13
:100CF00007462C4801683846FFF736FA05464FF09C
:100D00007E510B98FFF785FA06462946FFF784FACD
:100D10000446FFF7B5FC82468B461C480068FFF787
:100D2000AFFC04460D4620480068FFF7A9FC0646C4
:100D300022462B4603F046FDCDE902010B98FFF752
:100D40009FFCCDE90001DDE90223FFF77CFB0022D7
:100D5000104BCDE90401FFF776FB80460E4A0F4B9E
:100D6000FFF7E3FB52465B46CDE90601FFF7C4FA05
:100D7000CDE90801FFF7C8FC0A4908600DB0BDE8DD
:100D8000F08F0000700100207C010020680100202D
:100D90006001002000806640182D4454FB2109406A
:100DA0007401002080010020640100202DE9FC4135
:100DB00006236A463B21692000F088FA10B1012021
:100DC000BDE8FC819DF801009DF8001040EA01207B
:100DD00000B2214908809DF803009DF8021040EA06
:100DE000012000B21C4948809DF805009DF80410C0
:100DF00040EA012000B218498880B1F90000FFF7ED
:100E000008FC06460022154BFFF78FFB0446FFF750
:100E10007BFC134908601049B1F90200FFF7F9FBA8
:100E2000064600220D4BFFF780FB0446FFF76CFCE3
:100E30000C4908600849B1F90400FFF7EAFB0646CF
:100E40000022064BFFF771FB0446FFF75DFC0649E5
:100E500008600020B4E70000500100200000D040EE
:100E600060010020640100206801002010B501230A
:100E7000044A7521692000F029FA08B1012010BD4B
:100E80000020FCE75E0100202DE9FC4106236A46B4
:100E90004321692000F01AFA10B10120BDE8FC815D
:100EA0009DF801009DF8001040EA012000B22149A0
:100EB00008809DF803009DF8021040EA012000B26E
:100EC0001C4948809DF805009DF8041040EA012067
:100ED00000B218498880B1F90000FFF79AFB064676
:100EE000154A164BFFF721FB0446FFF70DFC14498A
:100EF00008601049B1F90200FFF78BFB06460E4A65
:100F00000E4BFFF712FB0446FFF7FEFB0D4908608E
:100F10000849B1F90400FFF77CFB0646064A074B77
:100F2000FFF703FB0446FFF7EFFB074908600020CB
:100F3000B4E7000058010020FCA9F1D24D62304016
:100F4000700100207401002078010020F8B50446EB
:100F50000D46002000F0A0F942F2107000F0EAF80F
:100F6000FFF784FF30B12D4801782DA002F074FB0B
:100F70000120F8BD29480078682801D00220F8E750
:100F80008020009001236A466B21692000F000FB5D
:100F900008B10320EDE742F2107000F0CBF800201A
:100FA000009001236A466B21692000F0F1FA08B134
:100FB0000420DEE70120009001236A466B216920AE
:100FC00000F0E6FA08B10A20D3E7182000900123C8
:100FD0006A461B21692000F0DBFA08B10B20C8E744
:100FE0000020009001236A461C21692000F0D0FAFD
:100FF00008B10C20BDE72946204600F042F808B1B0
:101000000D20B6E704EBD471C1F34F00294600F080
:101010000BF808B10E20ACE70020AAE75E01002023
:10102000307825780D0A000038B504460D46DDB14C
:10103000BC2C02DD0120009018E0622C02DD0220B1
:10104000009013E02A2C02DD032000900EE0142C07
:1010500002DD0420009009E00A2C02DD052000904A
:1010600004E00620009001E00020009001236A4681
:101070001A21692000F08CFA08B1012038BD002047
:10108000FCE7F8B504460E466EB14FF47A75B4F538
:101090007A7F01DD284604E0042C01DA042000E018
:1010A000204604460CE04FF4FA55B4F5FA5F01DD32
:1010B000284604E0202C01DA202000E020460446E7
:1010C00095FBF4F0401EC0B2009001236A4619213E
:1010D000692000F05DFA08B10120F8BD0020FCE7AE
:1010E00000BFFEE708B50121102001F037FD1020F8
:1010F0008DF8030003208DF802000820ADF80000F1
:101100006946044800F028F80821024800F0B8F8C1
:1011100008BD0000001001400448006820B10348E9
:101120000068401E01490860704700002800002048
:1011300070470000074908604FF0E021096941F05D
:1011400001014FF0E022116100BF02490968002946
:10115000FBD17047280000202DE9F0410246002510
:101160000026002000230024002791F803C00CF083
:101170000F0591F803C00CF0100CBCF1000F03D068
:1011800091F802C04CEA050591F800C0BCF1000FCF
:1011900031D0146800202BE04FF0010C0CFA00F362
:1011A000B1F800C00CEA03069E4220D183004FF044
:1011B0000F0C0CFA03F7BC4305FA03FC4CEA0404D9
:1011C00091F803C0BCF1280F06D14FF0010C0CFAC6
:1011D00000FCC2F814C00AE091F803C0BCF1480F4B
:1011E00005D14FF0010C0CFA00FCC2F810C0401CF5
:1011F0000828D1D31460B1F800C0BCF1FF0F34DD72
:10120000546800202EE000F1080C4FF0010808FAA5
:101210000CF3B1F800C00CEA03069E4221D1830012
:101220004FF00F0C0CFA03F7BC4305FA03FC4CEA31
:10123000040491F803C0BCF1280F05D100F1080C9B
:1012400008FA0CF8C2F8148091F803C0BCF1480FFA
:1012500007D100F1080C4FF0010808FA0CF8C2F8A9
:101260001080401C0828CED35460BDE8F0810246AF
:10127000002093680B400BB1012000E00020704774
:1012800041617047016170470AB1016100E041614D
:10129000704700BFFEE7000010B50446012108209A
:1012A00001F05CFCC020074908801420C8700320AE
:1012B00088700548FFF750FFC0210348FFF7E2FFA1
:1012C00010BD000030000020000C01402DE9F0416D
:1012D00005460F4690461E4600F0DCF8002141EA24
:1012E0004501C8B200F0A8F800F010F9012804D1B7
:1012F00000F0EEF80120BDE8F081384600F09CF8DF
:1013000000F004F9012803D100F0E2F80120F2E72F
:1013100000F0C0F8012101EB4501C8B200F08CF8E3
:1013200000F0F4F8012803D100F0D2F80120E2E740
:1013300000240FE000F014F808F80400701EA0422A
:1013400003D1012000F056F802E0002000F052F82E
:10135000601CC4B2B442EDDB00F0BAF80020CAE76A
:1013600070B5002480212148FFF78CFF0320FFF790
:10137000E1FE80201E4908800420C8701B48FFF74A
:10138000EBFE0320FFF7D6FE002518E06006040EF2
:1013900040211648FFF774FF0320FFF7CBFE4021E2
:1013A0001248FFF76FFF0320FFF7C4FE80210F48AC
:1013B000FFF75DFF00F001000443681CC5B2082D73
:1013C000E4DB40210948FFF75BFF0320FFF7B2FE93
:1013D0008020074908801420C8700448FFF7BCFE2D
:1013E0000320FFF7A7FE204670BD0000000C01405F
:1013F0003000002010B5044640210E48FFF740FFA2
:101400000320FFF797FE224680210A48FFF73CFFA2
:101410000320FFF78FFE40210648FFF733FF03202C
:10142000FFF788FE40210348FFF72AFF0320FFF75C
:1014300081FE10BD000C014070B5054600241CE083
:1014400040211348FFF71CFF0320FFF773FEC4F190
:10145000070045FA00F000F0010280210C48FFF778
:1014600013FF0320FFF766FE40210948FFF70AFF3C
:101470000320FFF75FFE601CC4B2082CE0DB4021B4
:101480000348FFF7FDFE0320FFF754FE70BD000088
:10149000000C014010B580210C48FFF7F3FE4021FD
:1014A0000A48FFF7EFFE0320FFF744FE80210748BC
:1014B000FFF7E6FE0320FFF73DFE40210348FFF75C
:1014C000DFFE0320FFF736FE10BD0000000C0140D8
:1014D00010B540210C48FFF7D3FE80210A48FFF7E2
:1014E000CFFE0320FFF726FE40210748FFF7CAFE84
:1014F0000320FFF71FFE80210348FFF7C3FE0320F0
:10150000FFF718FE10BD0000000C014010B540218F
:101510001D48FFF7B5FE0320FFF70CFE80211A4897
:10152000FFF7B0FE0320FFF705FE40211648FFF746
:10153000A9FE0320FFF7FEFD802014490880042047
:10154000C8701148FFF708FE0320FFF7F3FD802164
:101550000D48FFF78CFE00F001040320FFF7EAFDC1
:1015600080200A4908801420C8700748FFF7F4FD5E
:101570000320FFF7DFFD40210348FFF781FE032032
:10158000FFF7D8FD204610BD000C014030000020C0
:101590002DE9F04105460E4617469846FFF77AFFBB
:1015A000002141EA4501C8B2FFF746FFFFF7AEFF51
:1015B000012804D1FFF78CFF0120BDE8F0813046FF
:1015C000FFF73AFFFFF7A2FF012803D1FFF780FFE3
:1015D0000120F2E700240CE0385DFFF72DFFFFF754
:1015E00095FF012803D1FFF773FF0120E5E7601C99
:1015F000C4B24445F0DBFFF76BFF0020DDE70000DD
:1016000010B504460121082001F0A8FA4FF440600B
:10161000074908801420C870032088700548FFF728
:101620009BFD4FF440610348FFF72CFE10BD000006
:1016300088010020000C01402DE9F04105460F46CD
:1016400090461E4600F0EAF8002141EA4501C8B282
:1016500000F0B2F800F026F9012804D100F000F9FA
:101660000120BDE8F081384600F0A6F800F01AF934
:10167000012803D100F0F4F80120F2E700F0CEF8E1
:10168000012101EB4501C8B200F096F800F00AF91B
:10169000012803D100F0E4F80120E2E700240FE084
:1016A00000F014F808F80400701EA04203D10120D5
:1016B00000F05CF802E0002000F058F8601CC4B2B2
:1016C000B442EDDB00F0CCF80020CAE770B500248E
:1016D0004FF400612348FFF7D5FD0320FFF72AFDF3
:1016E0004FF40060204908800420C8701D48FFF7AF
:1016F00033FD0320FFF71EFD00251BE06006040EEE
:101700004FF480611748FFF7BBFD0320FFF712FD80
:101710004FF480611348FFF7B5FD0320FFF70AFD82
:101720004FF400610F48FFF7A2FD00F001000443F1
:10173000681CC5B2082DE1DB4FF480610948FFF752
:101740009FFD0320FFF7F6FC4FF400600649088078
:101750001420C8700348FFF7FFFC0320FFF7EAFCE2
:10176000204670BD000C01408801002010B50446E1
:101770004FF480610F48FFF783FD0320FFF7DAFC89
:1017800022464FF400610B48FFF77EFD0320FFF770
:10179000D1FC4FF480610748FFF774FD0320FFF789
:1017A000C9FC4FF480610348FFF76AFD0320FFF78F
:1017B000C1FC10BD000C014070B5054600241FE0BF
:1017C0004FF480611448FFF75BFD0320FFF7B2FC84
:1017D000C4F1070045FA00F000F001024FF4006187
:1017E0000D48FFF751FD0320FFF7A4FC4FF4806183
:1017F0000948FFF747FD0320FFF79CFC601CC4B2BB
:10180000082CDDDB4FF480610348FFF739FD03202E
:10181000FFF790FC70BD0000000C014010B54FF4C4
:1018200000610E48FFF72EFD4FF480610B48FFF773
:1018300029FD0320FFF77EFC4FF400610748FFF706
:101840001FFD0320FFF776FC4FF480610348FFF78C
:1018500017FD0320FFF76EFC10BD0000000C0140D7
:1018600010B54FF480610E48FFF70AFD4FF4006198
:101870000B48FFF705FD0320FFF75CFC4FF4806188
:101880000748FFF7FFFC0320FFF754FC4FF400610B
:101890000348FFF7F7FC0320FFF74CFC10BD0000E6
:1018A000000C014010B54FF480612148FFF7E8FCBF
:1018B0000320FFF73FFC4FF400611D48FFF7E2FCF7
:1018C0000320FFF737FC4FF480611948FFF7DAFC7B
:1018D0000320FFF72FFC4FF4006016490880042016
:1018E000C8701348FFF738FC0320FFF723FC4FF4C0
:1018F00000610F48FFF7BBFC00F001040320FFF775
:1019000019FC4FF400600B4908801420C870084887
:10191000FFF722FC0320FFF70DFC4FF48061044821
:10192000FFF7AEFC0320FFF705FC204610BD0000CA
:10193000000C0140880100202DE9F04105460E46CB
:1019400017469846FFF76AFF002141EA4501C8B2F1
:10195000FFF732FFFFF7A6FF012804D1FFF780FF52
:101960000120BDE8F0813046FFF726FFFFF79AFF20
:10197000012803D1FFF774FF0120F2E700240CE0F7
:10198000385DFFF719FFFFF78DFF012803D1FFF73F
:1019900067FF0120E5E7601CC4B24445F0DBFFF7B8
:1019A0005FFF0020DDE7000008B50121082001F0FD
:1019B000D5F84FF44050ADF8000010208DF803002A
:1019C00003208DF8020069460448FFF7C5FB4FF479
:1019D00040510248FFF756FC08BD0000000C0140D2
:1019E00000B587B00121480201F0B8F8002002904C
:1019F0008DF80C0001208DF80D004FF4602004904C
:101A00000020059001208DF8180002A91E48FFF75C
:101A10007FF84FF4404001F075F805230122194684
:101A20001948FFF79DF801224FF408711648FFF797
:101A300062F801211448FFF73BF81348FFF7ECF870
:101A400000BF1148FFF74DF80028FAD10E48FFF704
:101A5000F3F800BF0C48FFF736F80028FAD101214F
:101A60000948FFF7DEF812208DF8040000208DF8F9
:101A7000050004208DF8060001208DF8070001A85C
:101A800000F0C0FD07B000BD0024014008B50121F1
:101A9000042001F063F804208DF8030003208DF882
:101AA00002002020ADF8000069460248FFF754FB11
:101AB00008BD0000000801402DE9F14F86B0204824
:101AC0000088FEF7A1FD4FF07E5102900698FEF7C8
:101AD000A0FB01900299FEF79FFB0390FEF7D0FD5B
:101AE000184A194BCDE90401FEF7ADFC06460F4636
:101AF000164801680698FEF78FFB0590FEF7C0FDBB
:101B0000804632463B46FEF7F7FB0446104A114B2F
:101B1000FEF793FC8246FEF7F7FD0C490860084685
:101B20000068FEF7ADFD04460B4A0C4BFEF7BCFD0A
:101B300002D200200549086007B0BDE8F08F000020
:101B40008C0100201361C3D32B65793F90010020E5
:101B50003FC6DCB5847C903F7B14AE47E17A843F7E
:101B600010B5FFF793FFFFF73BFF10BD2DE9F041E4
:101B7000064600240025002743484449098840F8C8
:101B800021604348007870BB4048048817E0621E1B
:101B90003D4B53F822101A4652F82400FEF7D0FDB0
:101BA0000BD2394850F82470601E374951F8200094
:101BB00041F82400601E41F82070601E84B2002CA1
:101BC000E5DC3249088800EBD07149102E4A52F802
:101BD0002110304A11602D480088322846D101205A
:101BE0002B49087042E0FFE7002407E0264850F840
:101BF0002400294941F82400601C84B2332CF5DB11
:101C000000241BE0601C85B214E0234A52F8251022
:101C100052F82400FEF79EFD0AD21F4850F82470A7
:101C200050F825001C4941F82400084640F825706A
:101C3000681C85B2332DE8DB601C84B2322CE1DBFA
:101C40000C240AE0144850F8241012480068FEF7EB
:101C50008BFA10490860601C84B2242CF2DB0F4917
:101C60000C480068FEF70AFB0A490860074800882C
:101C7000401C332190FBF1F201FB12000349088064
:101C800004480068BDE8F081C00600203E01002045
:101C90003C010020400100208C0700200000C841CA
:101CA00000BFFEE770B505460C46002C50D0294811
:101CB000008884420BD04FF4B47090FBF4F02649B6
:101CC000098890FBF1F025490880224804802448C7
:101CD000008822490988884205DA21480088401C8A
:101CE0001F49088034E000201D49088000F03EF8BC
:101CF0001C4800881849098808441B49495708446A
:101D00001549098890FBF1F201FB12001549088082
:101D1000084640881049098808441349495708442F
:101D20000D49098890FBF1F201FB12000D49488032
:101D3000084680880849098808440B4949570844DF
:101D40000549098890FBF1F201FB120005498880E2
:101D500070BD000086000020700000208800002078
:101D60008A00002074000020144E000810B50C48B2
:101D700000880C4A32F810100B4801F070FA08483D
:101D80004088084A32F81010074801F066FA044803
:101D90008088044A32F81010034801F05CFA10BD44
:101DA000740000209C0100200004004070B505462E
:101DB0000C46002C50D02948008884420BD04FF4A8
:101DC000B47090FBF4F02649098890FBF1F02549A6
:101DD00008802248048024480088224909888842D3
:101DE00005DA21480088401C1F49088034E00020A3
:101DF0001D49088000F03EF81C48008818490988F1
:101E000008441B49495708441549098890FBF1F2D9
:101E100001FB1200154908800846408810490988CE
:101E200008441349495708440D49098890FBF1F2C9
:101E300001FB12000D49488008468088084909883E
:101E400008440B49495708440549098890FBF1F2B9
:101E500001FB12000549888070BD00008C00002045
:101E6000700000208E000020900000207A000020EA
:101E7000144E000810B50D4800880D4A32F81010B5
:101E80000C4801F0E6F909484088094A32F8101078
:101E90004FF0804001F0E3F904488088044A32F8AA
:101EA00010104FF0804001F0D8F910BD7A000020EA
:101EB0009C0100200004004070B505460C46002C33
:101EC00050D02948008884420BD04FF4B47090FB66
:101ED000F4F02649098890FBF1F025490880224852
:101EE00004802448008822490988884205DA21486C
:101EF0000088401C1F49088034E000201D490880EC
:101F000000F03EF81C4800881849098808441B491D
:101F1000495708441549098890FBF1F201FB12006A
:101F20001549088008464088104909880844134923
:101F3000495708440D49098890FBF1F201FB120052
:101F40000D494880084680880849098808440B499B
:101F5000495708440549098890FBF1F201FB12003A
:101F60000549888070BD00009200002070000020AC
:101F7000940000209600002080000020144E0008ED
:101F800010B50D4800880D4A32F810100C4801F0C9
:101F900066F909484088094A32F810104FF080402D
:101FA00001F059F904488088044A32F810100448B6
:101FB00001F053F910BD0000800000209C010020BA
:101FC0000008004000B589B001210C2000F0C6FDDA
:101FD0000121072000F0A2FD18208DF82300032026
:101FE0008DF822008020ADF8200008A95548FFF7A1
:101FF000B3F80320ADF8200008A95348FFF7ACF868
:102000004C20ADF8200008A94E48FFF7A5F80220A3
:10201000ADF8200008A94B48FFF79EF84FF4407038
:10202000ADF8200008A94848FFF796F84720ADF81A
:1020300014003120ADF818000020ADF81600ADF8FE
:102040001A008DF81C0005A9404801F00BF905A9FC
:102050004FF0804001F006F905A93D4801F002F972
:102060006020ADF804000120ADF806000020ADF8B6
:102070000C00ADF81000ADF80A0001A9334800F0DB
:10208000E3FF0821314801F031F801A92F4801F0A0
:102090003BF808212D4801F087F801A92B4801F0F1
:1020A0008DF80821294801F0C7F801A9274800F058
:1020B00075FF0821254800F0BDFF01A94FF08040C1
:1020C00001F022F80821C80601F06EF801A94FF0CE
:1020D000804001F073F80821C80601F0ADF801A9AD
:1020E0004FF0804000F0B0FF0821C80600F0FEFF6E
:1020F00001A9174801F008F80821154801F054F823
:1021000001A9134801F05AF80821114801F094F888
:1021100001210E4800F02AFF0121880700F026FF68
:1021200001210B4800F022FF0121084800F02AFF9E
:102130000121880700F026FF0121054800F022FF59
:1021400009B000BD00080140000C0140000400403F
:102150000008004010B5FFF709FEFFF78BFEFFF700
:102160000FFF10BD10B500F0F9FDFFF72BFFFFF7D3
:10217000F1FF10BD2DE9F34F8BB000F0AFF800F088
:102180001BF94C480C990068FEF746F883464A480C
:1021900001685846FDF7E8FF81464FF07E510B98E5
:1021A000FEF737F882464946FEF736F88046FEF7D6
:1021B00067FA04460D4641480068FEF761FACDE92A
:1021C00000013F480068FEF75BFA8246DDE9002324
:1021D00002F0F8FACDE904010B98FEF751FACDE9C7
:1021E0000201DDE90423FEF72EF90022354BCDE98B
:1021F0000601FEF728F98046334A344BFEF795F97D
:10220000064622462B46FEF777F8CDE90801FEF791
:102210007BFA294908602E480C990068FDF7FCFFFD
:1022200007462C4801683846FDF79EFF05464FF0EB
:102230007E510B98FDF7EDFF06462946FDF7ECFFB2
:102240000446FEF71DFA82468B461C480068FEF7DE
:1022500017FA04460D4620480068FEF711FA0646B4
:1022600022462B4602F0AEFACDE902010B98FEF7AA
:1022700007FACDE90001DDE90223FEF7E4F80022C8
:10228000104BCDE90401FEF7DEF880460E4A0F4BF5
:10229000FEF74BF952465B46CDE90601FEF72CF8F6
:1022A000CDE90801FEF730FA0A4908600DB0BDE833
:1022B000F08F00005C000020680000205400002027
:1022C0004C00002000806640182D4454FB2109403A
:1022D000600000206C000020500000202DE9FC412F
:1022E00006236A463B216820FFF7A6F910B10120BA
:1022F000BDE8FC819DF801009DF8001040EA012036
:1023000000B2214908809DF803009DF8021040EAC0
:10231000012000B21C4948809DF805009DF804107A
:1023200040EA012000B218498880B1F90000FEF7A8
:1023300070F906460022154BFEF7F7F80446FEF743
:10234000E3F9134908601049B1F90200FEF761F999
:10235000064600220D4BFEF7E8F80446FEF7D4F9D6
:102360000C4908600849B1F90400FEF752F9064625
:102370000022064BFEF7D9F80446FEF7C5F90649D8
:1023800008600020B4E700003C0000200000D040BE
:102390004C000020500000205400002010B5012304
:1023A000044A75216820FFF747F908B1012010BDE4
:1023B0000020FCE74A0000202DE9FC4106236A4684
:1023C00043216820FFF738F910B10120BDE8FC81F6
:1023D0009DF801009DF8001040EA012000B221495B
:1023E00008809DF803009DF8021040EA012000B229
:1023F0001C4948809DF805009DF8041040EA012022
:1024000000B218498880B1F90000FEF702F90646CB
:10241000154A164BFEF789F80446FEF775F914497C
:1024200008601049B1F90200FEF7F3F806460E4ABB
:102430000E4BFEF77AF80446FEF766F90D49086080
:102440000849B1F90400FEF7E4F80646064A074BCE
:10245000FEF76BF80446FEF757F9074908600020BD
:10246000B4E7000044000020FCA9F1D24D623040E6
:102470005C0000206000002064000020F8B50446E5
:102480000D460020FFF7BCF842F21070FEF752FE36
:10249000FFF784FF08B10120F8BD2A4800786828BA
:1024A00001D00220F8E78020009001236A466B21CA
:1024B0006820FFF741FA08B10320EDE742F21070FF
:1024C000FEF738FE0020009001236A466B21682049
:1024D000FFF732FA08B10420DEE701200090012363
:1024E0006A466B216820FFF727FA08B10A20D3E774
:1024F0001820009001236A461B216820FFF71CFA70
:1025000008B10B20C8E70020009001236A461C2177
:102510006820FFF711FA08B10C20BDE729462046D4
:1025200000F03FF808B10D20B6E704EBD471C1F319
:102530004F00294600F008F808B10E20ACE7002053
:10254000AAE700004A00002038B504460D46DDB178
:10255000BC2C02DD0120009018E0622C02DD02207C
:10256000009013E02A2C02DD032000900EE0142CD2
:1025700002DD0420009009E00A2C02DD0520009015
:1025800004E00620009001E00020009001236A464C
:102590001A216820FFF7D0F908B1012038BD0020CA
:1025A000FCE7F8B504460E466EB14FF47A75B4F503
:1025B0007A7F01DD284604E0042C01DA042000E0E3
:1025C000204604460CE04FF4FA55B4F5FA5F01DDFD
:1025D000284604E0202C01DA202000E020460446B2
:1025E00095FBF4F0401EC0B2009001236A46192109
:1025F0006820FFF7A1F908B10120F8BD0020FCE731
:102600007047000070B5002100230F22C47804B386
:10261000154C246804F4E064C4F5E064210AC1F1B7
:102620000403CA40447804FA03F184781440214337
:1026300009010E4C0678A155047804F01F05012409
:10264000AC4005786D11AD0005F1E025C5F80041FD
:1026500009E0047804F01F050124AC40044D06781D
:10266000761145F8264070BD0CED00E000E400E076
:1026700080E100E002490143024A11607047000016
:102680000000FA050CED00E010B5002807DA0A0793
:10269000140E054A00F00F031B1FD45403E00A0771
:1026A000130E024A135410BD18ED00E000E400E0E0
:1026B0002DE9FC5F83468A4651464A480068FEF78A
:1026C0003FF809D04748C0F800A0002046490860FC
:1026D000464908604649086051465846FDF796FD50
:1026E000444908600846016843480068FDF794FDC6
:1026F000424908603F480068FDF7C2FF21F00041F1
:10270000044600223E4BFDF7E7FF03D800203D4979
:1027100008602BE037480068FDF7B2FF21F0004168
:1027200004460022384BFDF7BFFF04D84FF07E501F
:10273000344908601AE02F480068FDF7A1FF21F036
:10274000004180460022304BFDF7D6FD00222C4B85
:10275000CDE90001FDF7E9FE064600222B4BFDF70F
:102760006FFE0446FDF7D0FF264908602148016846
:102770001E480068FDF7F8FC1C4908602448016801
:1027800020480068FDF748FD0446184801682046C7
:10279000FDF742FD1F4908601548016815480068AB
:1027A000FDF734FD104908601248006810490860C0
:1027B0000D48016818480068FDF72EFD17490860AC
:1027C000144801680D480068FDF7CEFC0446134824
:1027D00001682046FDF7C8FC1149086008460068FA
:1027E000BDE8FC9FC4000020D4000020D0000020E1
:1027F000CC000020C80000209C000020DC0000204D
:1028000000004E40E800002000003E400000F03F85
:10281000A0000020E0000020A4000020E400002030
:10282000D80000202DE9FC5F83468A4651464A487D
:102830000068FDF785FF09D04748C0F800A00020D8
:10284000464908604649086046490860514658466E
:10285000FDF7DCFC4449086008460168434800680D
:10286000FDF7DAFC424908603F480068FDF708FFC1
:1028700021F00041044600223E4BFDF72DFF03D816
:1028800000203D4908602BE037480068FDF7F8FE5E
:1028900021F0004104460022384BFDF705FF04D823
:1028A0004FF07E50344908601AE02F480068FDF769
:1028B000E7FE21F0004180460022304BFDF71CFD71
:1028C00000222C4BCDE90001FDF72FFE0646002229
:1028D0002B4BFDF7B5FD0446FDF716FF26490860B2
:1028E000214801681E480068FDF73EFC1C4908604D
:1028F0002448016820480068FDF78EFC044618480B
:1029000001682046FDF788FC1F49086015480168EA
:1029100015480068FDF77AFC104908601248006805
:10292000104908600D48016818480068FDF774FCFC
:1029300017490860144801680D480068FDF714FC49
:102940000446134801682046FDF70EFC1149086053
:1029500008460068BDE8FC9FEC000020FC00002059
:10296000F8000020F4000020F0000020A800002063
:102970000401002000004E401001002000003E40F5
:102980000000F03FAC00002008010020B000002053
:102990000C010020000100202DE9FC5F83468A46DF
:1029A000514647480068FDF7CBFE09D04448C0F8BF
:1029B00000A000204349086043490860434908607B
:1029C00051465846FDF722FC414908600846016817
:1029D00040480068FDF720FC3F4908603C4800681B
:1029E000FDF74EFE21F00041044600223B4BFDF76F
:1029F00073FE03D800203A4908602BE03448006891
:102A0000FDF73EFE21F0004104460022354BFDF764
:102A10004BFE04D84FF07E50314908601AE02C4834
:102A20000068FDF72DFE21F00041804600222D4B6D
:102A3000FDF762FC0022294BCDE90001FDF775FD91
:102A400006460022284BFDF7FBFC0446FDF75CFE22
:102A5000234908601E4801681B480068FDF784FB95
:102A6000194908600846016820480068FDF7D4FB52
:102A70001F4908601548016815480068FDF7C6FB46
:102A80001049086012480068104908600D48016844
:102A900018480068FDF7C0FB174908601448016832
:102AA0000D480068FDF760FB0446134801682046A6
:102AB000FDF75AFB1149086008460068BDE8FC9F15
:102AC0001401002024010020200100201C0100200E
:102AD00018010020B40000202C01002000004E400E
:102AE0003801002000003E400000F03FB800002008
:102AF00030010020BC00002034010020280100200B
:102B00007047000001460020034A506820F440400E
:102B100008435060704700000010024029B1064A87
:102B2000D2690243044BDA6104E0034AD26982436A
:102B3000014BDA61704700000010024029B1064ADB
:102B400012690243044B1A6104E0034A126982438A
:102B5000014B1A61704700000010024029B1064A7B
:102B600092690243044B9A6104E0034A92698243EA
:102B7000014B9A61704700000010024029B1064ADB
:102B8000D2680243044BDA6004E0034AD26882430D
:102B9000014BDA60704700000010024030B50021A0
:102BA0000022002400232D4D6D6805F00C0121B199
:102BB000042905D0082923D105E0294D056022E02C
:102BC000274D05601FE0254D6D6805F47012234DFB
:102BD0006D6805F48034022505EB92421CB9214D45
:102BE000554305600BE01D4D6D6805F400351DB1C2
:102BF0001C4D5543056002E0194D5543056002E048
:102C0000174D056000BF00BF144D6D6805F0F00161
:102C10000909154D6B5C0568DD4045600F4D6D6819
:102C200005F4E061090A104D6B5C4568DD40856084
:102C30000A4D6D6805F46051C90A0B4D6B5C45681F
:102C4000DD40C560054D6D6805F44041890B074DB9
:102C50006B5CC568B5FBF3F5056130BD0010024043
:102C600000127A0000093D0014000020240000201A
:102C7000704710B500F002F810BD00000CB5002040
:102C8000019000903348006840F48030314908607A
:102C900000BF3048006800F4003000900198401CEC
:102CA0000190009818B90198B0F5A06FF1D12948AA
:102CB000006800F4003010B10120009001E0002015
:102CC00000900098012843D12348006840F010008C
:102CD000214908600846006820F0030008600846A3
:102CE000006840F0020008601A48406819494860CE
:102CF0000846406848600846406840F48060486084
:102D00000846406820F47C1048600846406840F45B
:102D1000E81048600846006840F08070086000BF16
:102D20000C48006800F000700028F9D0094840689D
:102D300020F00300074948600846406840F0020060
:102D4000486000BF0348406800F00C000828F9D133
:102D50000CBD000000100240002002402DE9F047A9
:102D60008EB04FF0000AC82043490880084600880A
:102D7000032190FBF1F04149088000204049088080
:102D8000084600883D49098808443D49488008466E
:102D900040883A49098808443949888000203949DF
:102DA0000880084600883549098808443549488024
:102DB0000846408831490988084432498880002003
:102DC00031490880084600882C49098808442E4962
:102DD0004880084640882949098808442A4988804B
:102DE00000BF41E024480088FDF724FCCDE9020142
:102DF0000AF10100FDF70DFC06460022234BFDF70A
:102E000022FBCDE90001DDE90223FDF78EFB002264
:102E10004FF08043CDE90401FDF715FB04461C4A41
:102E20001C4BFDF710FB804601F0A4FF0022174B5E
:102E3000CDE90601FDF760FA0022174BCDE9080144
:102E4000FDF701FB00224FF08043CDE90A01FDF7B9
:102E50006CFBCDE90C01FDF7FAFB104921F81A00D3
:102E60000AF101001FFA80FA034800888245B9DBA5
:102E70000EB0BDE8F0870000700000207200002056
:102E8000740000207A000020800000200000F03F45
:102E9000182D4454FB210940008048409C0100202B
:102EA00000B5FEF739F900BD10B51348006840F0D1
:102EB00001001149086008464068104908400E4961
:102EC0004860084600680E4908400B4908600846FB
:102ED000006820F4802008600846406820F4FE0066
:102EE00048604FF41F008860FFF7C3FE4FF000609A
:102EF0000449086010BD0000001002400000FFF807
:102F0000FFFFF6FE08ED00E010B516480068164910
:102F1000B0FBF1F4B4F1807F01D3012011E024F083
:102F20007F40401E4FF0E02148610F214FF0FF30FD
:102F3000FFF7AAFB00204FF0E0218861072008611D
:102F4000002008B100BFFEE74FF0E020006920F04C
:102F500001004FF0E02108610021481EFFF794FBBB
:102F600010BD00000000002040420F0021B1028887
:102F700042F08002028004E002884FF67F731A401C
:102F80000280704721B1028842F00102028004E011
:102F900002884FF6FE731A400280704770B5002415
:102FA00000220023058C4FF6FE7635400584028C06
:102FB0008388048B4FF68F752C40B51E2C400D88EE
:102FC0002C43751E2A400D892A434D882A43144DEF
:102FD000A8420BD0134DA84208D0134DA84205D0EB
:102FE000124DA84202D0124DA84213D14FF6F775E8
:102FF0002A404D892A434FF6FB752A408D882A4383
:103000004FF6FF652B404FF6FF552B408D892B4324
:10301000CD892B4383800483CD888586028470BD4F
:10302000002C0140003401400040014000440140B8
:10303000004801400A460021018B4FF6F773194002
:10304000114301837047000070B500240022002363
:10305000058C4FF6EF7635400584028C8388048B0F
:1030600048F6FF752C404FF6FF452C400D884FF673
:10307000FF7606EA05252C434FF6DF752A400D89B9
:1030800006EA05152A434D8806EA05152A43154D1B
:10309000A84202D0144DA8421DD14FF67F752A4098
:1030A0004D894FF6FF7606EA05152A434FF6BF75A0
:1030B0002A408D8806EA05152A434FF6FF352B4036
:1030C0004FF2FF752B408D8906EA85052B43CD898C
:1030D00006EA85052B4383800483CD880587028417
:1030E00070BD0000002C0140003401400A46002160
:1030F000018B4FF2FF7319404FF6FF7303EA02236F
:10310000194301837047000070B50024002200239A
:10311000058C4FF6FF6635400584028C8388848BCE
:103120004FF68F752C404FF6FC752C400D882C43C4
:103130004FF6FF552A400D894FF6FF7606EA052522
:103140002A434D8806EA05252A43154DA84202D098
:10315000144DA8421DD14FF2FF752A404D894FF6FC
:10316000FF7606EA05252A434FF6FF352A408D886B
:1031700006EA05252A434EF6FF752B404DF6FF75EE
:103180002B408D8906EA05152B43CD8906EA0515E6
:103190002B4383808483CD888587028470BD0000A3
:1031A000002C0140003401400A460021818B4FF67B
:1031B000F7731940114381837047000070B50022F6
:1031C00000230024058C4EF6FF7635400584038CE1
:1031D0008488828B48F6FF752A404FF6FF452A40C7
:1031E0000D884FF6FF7606EA05252A434DF6FF7552
:1031F0002B400D8906EA05352B434D8806EA053537
:103200002B430B4DA84202D00A4DA84208D14BF6E1
:10321000FF752C408D894FF6FF7606EA85152C4305
:1032200084808283CD88A0F84050038470BD000064
:10323000002C0140003401400A460021818B4FF2EE
:10324000FF7319404FF6FF7303EA0223194381838A
:103250007047818670470187704781877047A0F863
:1032600040107047002202881D4B98420ED01D4B23
:1032700098420BD0B0F1804F08D01B4B984205D03C
:103280001A4B984202D01A4B984204D14FF68F73D2
:103290001A404B881A43174B984207D0164B984256
:1032A00004D04FF6FF431A40CB881A4302808B8824
:1032B00083850B8803850A4B98420BD0094B9842B3
:1032C00008D00E4B984205D00D4B984202D00D4BC2
:1032D000984201D10B7A0386012383827047000054
:1032E000002C014000340140000400400008004070
:1032F000000C00400010004000140040004001405D
:10330000004401400048014010B540F225510C48EE
:1033100000F083F8012811D1094800F039F9094972
:10332000094A1288885408490988481CC11700EBCB
:1033300011610912A0EB0121034A118010BD0000A8
:10334000003801409C0500209800002021B18289AE
:1033500042F40052828104E082894DF6FF731A40E4
:103360008281704710B504462048844209D101216A
:103370008803FFF703FC00214FF48040FFF7FEFBBA
:1033800032E01B48844209D101214804FFF7D6FBF3
:1033900000214FF40030FFF7D1FB25E015488442AF
:1033A00009D101218804FFF7C9FB00214FF48020D7
:1033B000FFF7C4FB18E01048844209D10121C8047A
:1033C000FFF7BCFB00214FF40020FFF7B7FB0BE039
:1033D0000A48844208D101210805FFF7AFFB00210C
:1033E0004FF48010FFF7AAFB10BD00000038014029
:1033F0000044004000480040004C004000500040A5
:1034000002460020B1F5007F00D100BF13880B40B9
:103410000BB1012000E00020704770B50246002487
:1034200000230025002040F66A16B14200D100BFFB
:10343000C1F3421501F01F03012606FA03F3012D23
:1034400002D19689334006E0022D02D1168A33401C
:1034500001E0968A33400C12012606FA04F416881D
:10346000344013B10CB1012000E0002070BDF0B574
:103470000346002400260025002040F66A17B942C2
:1034800000D100BF1846C1F3421401F01F06012706
:1034900007FA06F5012C01D10C3004E0022C01D111
:1034A000103000E014301AB107682F43076002E0C3
:1034B0000768AF430760F0BD2DE9F04786B00546C9
:1034C0000E460024A24600BFA1460027B08900B1E5
:1034D00000BF2F462C8A4CF6FF700440F08804434E
:1034E0002C82AC894EF6F3100440B0883189084331
:1034F000718908430443AC81AC8A4FF6FF40044015
:10350000B0890443AC8201A8FFF748FB1F488742FB
:1035100002D1DDF810A001E0DDF80CA0A88900F4CC
:10352000004040B10AEBCA0000EB0A1031684900C4
:10353000B0FBF1F807E00AEBCA0000EB0A103168B3
:103540008900B0FBF1F86420B8FBF0F00401200919
:10355000642101FB1089A88900F4004040B13220A9
:1035600000EBC900B0FBF1F000F00700044308E0F5
:10357000322000EB09106421B0FBF1F000F00F00E5
:1035800004432C8106B0BDE8F087000000380140FC
:1035900001468888C0F308007047C1F308028280A2
:1035A000704700BFFEE7000010B586B00446012159
:1035B00044F20500FFF7D2FA4FF40070ADF81400A2
:1035C00018208DF8170003208DF8160005A9204853
:1035D000FDF7C2FD4FF48060ADF8140004208DF8B3
:1035E000170005A91A48FDF7B7FD1A48FFF7BAFEFC
:1035F00001940020ADF80800ADF80C00ADF80A0009
:10360000ADF810000C20ADF80E0001A91148FFF72D
:1036100053FF4FF4E060FFF72DF825208DF80000F0
:1036200000208DF8010002208DF8020001208DF8A5
:1036300003006846FEF7E6FF012240F225510548E7
:10364000FFF715FF01210348FFF780FE06B010BD0C
:1036500000080140003801400FB4054B10B503A924
:10366000044A029800F006FC10BC5DF814FB000050
:103670004549000894010020490050EAC12018BFC4
:1036800004204A0D18BF40F0010040F2FF72B2EB77
:10369000515F08BF40F00200012808BF05207047B5
:1036A0002DE9F74F144694B00021C4E90211159991
:1036B000079121F00045C9498D4206DC1599C4E9FE
:1036C000000117B00020BDE8F08FC549DFF814A352
:1036D000A9423CDD0799C44E0029C44FC44A15993C
:1036E000534619DDFCF7A9FE554506D0C14AC24B29
:1036F000FCF7A3FEC4E900010AE04FF0D352BE4B31
:10370000FCF79BFE32463B46FCF797FEC4E90001FE
:1037100017B00120BDE8F08FFCF7EEFD554506D04F
:10372000B44AB54BFCF7E8FDC4E900010AE04FF0EC
:10373000D352B14BFCF7E0FD32463B46FCF7DCFDD3
:10374000C4E9000117B04FF0FF30BDE8F08FAB497E
:10375000A942159978DB21F0004183468846A84AA2
:10376000A84BFCF770FE0022A74BFCF7C5FDFDF748
:1037700049F90990FCF74DFF06460F469C4A53460F
:10378000FCF761FE43465A46FCF75AFE80468A46DD
:10379000984A994B30463946FCF755FE2A0D0125CB
:1037A0000B9242465346FCF74BFE032DC4E9000141
:1037B00039D00B98C1F30A51401A05EB4511113964
:1037C000814230DA9148C346784400EB0510CDF8C9
:1037D0000CA00C90D0E9002330463946FCF733FEAC
:1037E00002460B460491069058460399FCF725FEC5
:1037F00080468A4602460B4658460399FCF71DFE52
:10380000049B069AFCF719FE83460C9803913946EF
:10381000D0E902233046FCF716FE5A46039BFCF71C
:103820000CFE6D1CBDE707980028A2BF099817B0D1
:10383000BDE8F08F616881F000416160099817B0C0
:103840004042BDE8F08FFFE784461598C1F31301AD
:10385000C0F30A50A0F2F5304FEA601800F01F06DE
:10386000C6F12000139000200690079041F4801EBE
:1038700005206D4676B1664A08EB00017A4452F89D
:10388000213002EB8101B3404A68139922FA01F119
:10389000194305E05F4908EB0002794451F8221012
:1038A000A1FB0E27A1FB0C131A449A4234BF01233B
:1038B000002303EB070A05EB8003D3E901B70F44AC
:1038C0008F4234BF0121002193448B4411B19345B1
:1038D00002D903E0934501D2012100E00021C3E9B0
:1038E00001B7514445F82010011EA0F10100C1DCD0
:1038F0000298059F00F10050800F12900298DDE9B8
:1039000003568000FCF785FE834628460D91FCF7A0
:1039100091FE6FF01D02FDF733F8CDE90E01304640
:10392000FCF788FE6FF03D02FDF72AF880468A46D4
:103930003846FCF77FFE6FF05D02FDF721F8074681
:10394000424653461191FCF7D7FCDDE90E23FCF704
:10395000D3FC5A460D9BFCF7CFFC00250E465A4679
:1039600028460D9BFCF769FDDDE90E23FCF765FD9C
:1039700042465346FCF761FD3A46119BFCF760FD59
:10398000DFF898A0244A5346FCF75DFD07468846B9
:10399000234A244B31462846FCF755FD3A46434618
:1039A000FCF7AAFC074688464FF0A842534631462A
:1039B0002846FCF748FD3A464346FCF79DFC159A1D
:1039C00012F0004F04D0129A81F00041524212923C
:1039D000C4E90001129817B0BDE8F08FFB21E93F60
:1039E0007CD90240FB21F93F7370032E8A19A33B57
:1039F000000040543163621A61B4D03DFB2139416B
:103A000083C8C96D305FE43F0000E03F1C17000031
:103A1000981600007A160000182D4454FB21F93D39
:103A20003326A611460B113C2DE9FF4D21F000482D
:103A300007460C46B8F1795F08DAFCF7E3FF002887
:103A400001BF0020324904B0BDE8F08D3A4623465C
:103A500010461946FCF7F7FC054602462D480E466F
:103A60000B460621784400F05DF82A463346FCF701
:103A7000EAFCDDE9022382468B4638462146FCF704
:103A8000E2FC04460F4652465B4628463146FCF7A8
:103A9000DAFC22463B46FCF7D0FC07468A464FF04C
:103AA000FF3228463146FCF76BFF1B4A90450ADA85
:103AB0003A465346FCF7C1FC04B00022BDE8F04D85
:103AC000134BFCF7BDBC154A4245A8BFA8F500152D
:103AD0004FF00004B8BF124D22462B46FCF7ADFC58
:103AE0000646884622462B4600200949FCF7A5FCDD
:103AF00004460D463A46534630464146FCF79DFC87
:103B000004B022462B46BDE8F04DFCF799BC0000FE
:103B10000000F03F481400003333D33F0000E93F7A
:103B20000000D23F2DE9F0414F1E00EBC7010446D3
:103B3000D1E9000115461E4637F006020DD02A468F
:103B40003346FCF780FC7F1E04EBC703D3E9002358
:103B5000FCF7D2FB37F00602F1D1022F25D0042F5B
:103B600013D0062F18BFBDE8F0812A463346FCF774
:103B70006AFCD4E90A23FCF7BFFB2A463346FCF76C
:103B800062FCD4E90823FCF7B7FB2A463346FCF76E
:103B90005AFCD4E90623FCF7AFFB2A463346FCF770
:103BA00052FCD4E90423FCF7A7FB2A463346FCF772
:103BB0004AFCD4E90223FCF79FFB2A463346FCF774
:103BC00042FCD4E90023BDE8F041FCF795BB0000BE
:103BD0002DE9FF4D054621F0004084B00C46B0F1C0
:103BE000795F0BDA2846FFF747FD042808BF00F08D
:103BF00071F8284608B02146BDE8F08D2A460B46EC
:103C00001046FCF720FC06460F462A462346FCF7E2
:103C10001AFC804626488A4632463B4605217844AF
:103C2000FFF780FF83461098029160B3214A224B30
:103C300040465146FCF707FCCDE900015A46404694
:103C40005146029BFCF7FFFB82468846DDE90601F0
:103C50004FF0FF32FCF794FE52464346FCF7EDFB73
:103C600032463B46FCF7EFFBDDE90623FCF7E5FBBC
:103C7000DDE90023FCF7E1FB08B02A462346BDE856
:103C8000F04DFCF7DDBB0B465A4630463946FCF793
:103C9000DAFB084A084BFCF72FFB42465346FCF779
:103CA000D2FB08B02A462346BDE8F04DFCF724BB02
:103CB0008E130000495555555555C5BF0122FCF7D7
:103CC0005FBEFCF719BB0022134610461146FCF7F5
:103CD0002CBC0000024A00201107FCF751BE000076
:103CE00001FDFFFF02E008C8121F08C1002AFAD137
:103CF00070477047002001E001C1121F002AFBD16C
:103D000070470000014908607047000098010020DA
:103D10002DE9FF5FDDE90220010DDDF838B0024337
:103D200018D044F61050A1F2FF3141430D140F9802
:103D3000012820D0A5EB0B00401C5FEA000A4FF0E1
:103D40000004474EDFF81C91A046504616D5CAF134
:103D5000000728E00F98012443A2012808D0002181
:103D600000980F9BC0E90021C0E90243BDE8FF9F16
:103D70006FEA0B01F4E7CBF10000DEE7074612E043
:103D8000F80707D02246334640464946FCF75BFB1E
:103D9000804689462246334610461946FCF753FBB7
:103DA00004460E467F10002FEAD1DDE90201BAF188
:103DB000000F42464B4602DAFCF745FB01E0FCF7F8
:103DC000B4FB04460E460022284BFCF785FC03D8C2
:103DD0004FF0FF30014607E00022254B20463146D8
:103DE000FCF78AFAFCF7E3FD102409E0002C0ADB5B
:103DF0000A220023FCF7CEFC019B30321A55641EC8
:103E000050EA0102F2D1641C019AC4F11103144476
:103E10000F9A012A03D0012208430DD10AE008437A
:103E200004D000204FF0110B0F9080E7A3EB0B059F
:103E30006D1E0DE05B4504DD4FF0000205F101054C
:103E400004E003DA4FF00002A5F10105002AECD0EE
:103E500000980F99C0E90231C0E9004586E70000EB
:103E6000000024400000F03F300000000000F0435C
:103E70000000E03F2DE9FF4F95B09B46894606467E
:103E800000250FE2252877D100242746F84A012192
:103E9000059400E0044316F8013F203B01FA03F0CB
:103EA0001042F7D130782A2811D06FF02F033078E4
:103EB000A0F13002092A16D8059A44F0020402EB58
:103EC000820203EB42021044761C0590EFE759F89A
:103ED000042B0592002A03DA504244F40054059062
:103EE00044F00204761C30782E2816D116F8010F03
:103EF00044F004042A280DD06FF02F023078A0F18E
:103F00003003092B09D807EB870302EB4303C718DB
:103F1000761CF3E759F8047B761C30786C280FD0B8
:103F200006DC4C2817D068280DD06A2814D104E08C
:103F3000742810D07A280FD10DE044F400140AE060
:103F400044F4801401E044F440147278824202D1B7
:103F500004F58014761C761C307866280BD013DCB0
:103F6000582877D009DC002875D04528F6D0462897
:103F7000F4D047281AD19DE118E0632835D0642891
:103F800079D0652812D195E1702873D008DC6728B4
:103F9000F1D069286FD06E280DD06F2806D1B5E01A
:103FA00073282CD0752875D0782874D05A46179964
:103FB00090476D1C75E1C4F30250022809D0032814
:103FC0000DD0D9F8001004280DD00D6009F10409B6
:103FD00067E1D9F80010EA17C1E90052F6E7D9F80D
:103FE00000100D80F2E70D70F0E719F8041B8DF852
:103FF000001000208DF80100EA46012003E059F886
:1040000004AB4FF0FF3061074FF0000102D40DE028
:1040100008F101018846B9420FDA8045F8DB1AF849
:1040200008100029F4D108E008F101018846814216
:10403000FADB1AF808100029F6D105985B46A0EBC8
:10404000080721463846179A00F094FA284400EBF6
:10405000080507E04DE029E10DE01AF8010B5A468A
:1040600017999047B8F10108F7D25B4621463846C8
:10407000179A13E142E00A220092C4F302524FF071
:10408000000A022A08D059F804CB032A4FEAEC713F
:104090000AD00DE029E02AE009F1070121F007022A
:1040A000F2E802C1914609E00FFA8CFC4FEAEC718C
:1040B000042A03D14FFA8CFC4FEAEC71002907DA8D
:1040C0000A460021DCF1000C61EB02012D2202E026
:1040D000220504D52B228DF80420012203E0E207FB
:1040E00001D02022F7E7904659E00A2102E0102291
:1040F0000DE010214FF0000A00910BE010224FF06C
:10410000000A44F004040827009203E008224FF05C
:10411000000A0092C4F30252022A05D059F804CBD7
:104120000021032A08D009E009F1070121F0070264
:10413000F2E802C1914605E01FFA8CFC042A01D185
:104140000CF0FF0C4FF00008220728D5702806D08D
:10415000009B83F0100353EA0A0305D00EE04022CF
:104160008DF80420012208E05CEA010206D030222A
:104170008DF804208DF8050002229046009B83F004
:10418000080353EA0A030AD15CEA010201D162077B
:1041900005D530228DF804204FF001087F1E5828E5
:1041A00004D034A003900EA802900DE036A0F9E7E9
:1041B00053466046009AFCF7EDFA84460398825C09
:1041C0000298401E029002705CEA0100F0D1029851
:1041D00006A9081A00F1200A600702D524F48034E9
:1041E00000E00127574502DDA7EB0A0000E00020B0
:1041F00000EB0A01009005984144401A0590E00345
:1042000006D45B462146179A059800F0B3F9054499
:10421000002706E001A85A46C05D179990476D1C1B
:104220007F1C4745F6DBE0030CD55B462146179A19
:10423000059800F09FF9054404E030205A4617998C
:1042400090476D1C0099481E00900029F5DC08E09D
:10425000029802995A460078491C02911799904792
:104260006D1CBAF10001AAF1010AF1DC65E1000060
:10427000092801003031323334353637383961623C
:104280006364656600000000303132333435363700
:1042900038394142434445460000000000F058F9D7
:1042A0000544761C307800287FF4ECAD19B0284620
:1042B000BDE8F08F620700D4062709F1070222F05B
:1042C000070CFCE80223E14603F000485FEA080C13
:1042D00002D00FF2702C0DE05FEA045C02D50FF201
:1042E000682C07E05FEAC47C02D00FF2602C01E08A
:1042F000AFF2700C4FF0FF3823F00043CDF850C000
:1043000065280CD006DC452809D046281DD0472852
:104310003DD13DE0662818D067287ED138E00021E5
:10432000112F01DB112000E0781CCDE9000106A966
:104330000EA8FFF7EDFCDDE90F010E9A03910021B5
:10434000009207F1010A04914DE04FF00040009700
:10435000CDE9011006A90EA8FFF7DAFCDDE90F028E
:1043600003920E9B11990022DDF80CA00093049299
:1043700011B9791C00EB010AB7EB0A0004D4C0F1B3
:10438000FF3007F1010A0490AAEB0700019044E016
:10439000012F00DA01270021112F01DD112000E09B
:1043A0003846CDE9000106A90EA8FFF7B1FCDDE90A
:1043B0000F010E9A0391002104910092BA46210741
:1043C0000CD40399514500DA8A46BAF1010F05DD94
:1043D000009AAAF10101515C302908D0B84202DAF2
:1043E00010F1040F06DA0121CDE9011015E0AAF160
:1043F0000101E9E7002805DC049901440491AAEBD6
:10440000000102E0411C514500DD8A460499401A32
:10441000401C01904FF000400290200704D4019806
:10442000504501DBCDF8048000208DF84F00029844
:104430000DF14F07B0F1004F25D02B200E900298C0
:104440004FF0020800280CDA404202902D200E9016
:1044500007E00A210298FCF787F93031029007F84B
:10446000011DB8F10001A8F10108F2DC0298002852
:10447000EFD1791E0E980870307800F0200040F0DF
:10448000450007F8020D12A8C01B00F10708149898
:10449000007800B1012000EB0A01019801EBE07106
:1044A00005984144401A401E0590E00306D45B463F
:1044B0002146179A059800F05DF805441498007895
:1044C00018B15A46179990476D1CE00324D55B46F6
:1044D0002146179A059800F04DF805441CE0049811
:1044E000002807DBDDE90301884203DD0098405C1A
:1044F000179901E0179930205A469047049805F122
:104500000105401C04900198401E019004D12E200A
:104510005A46179990476D1CBAF10001AAF1010A99
:10452000DDDC05E017F8010B5A46179990476D1C22
:10453000B8F10001A8F10108F4DC5B462146179AA6
:104540000598ABE62D0000002B00000020000000C5
:104550002DE9F041044600251E461746880404D480
:1045600005E039462020B0476D1C641EF9D5284669
:10457000BDE8F0812DE9F041044600251E46904635
:10458000C80301D5302700E02027880404D505E0C2
:1045900041463846B0476D1C641EF9D52846BDE833
:1045A000F08100002DE9F84F04460D4621F000404F
:1045B00000917349814211DC7249884201DC06D1C5
:1045C0002CB120462946BDE8F84FFFF777BB6E486F
:1045D000002DCCBF6D496E49BDE8F88F6D49814211
:1045E00011DD6D498142D8BF4FF0FF366DDD2046A9
:1045F0002946FFF741F8042808BFFFF76BFB204668
:104600002946BDE8F88F6549654F25F00045814290
:1046100033DD6449814219DD002632464FF0804384
:1046200020462946FBF768FE80468A46012220463E
:104630002946FCF7A5F900223B46FBF7FEFE424661
:104640005346FBF772FF04460D463EE0012600226A
:10465000BA463B4620462946FBF74EFE80460F46AB
:104660000022534620462946FBF7E7FE42463B46DA
:10467000FBF75BFF04460D4627E04B4981421BDDFB
:10468000DFF828A102260022534620462946FBF7E0
:10469000DAFE00223B46FBF72FFE80460F46002243
:1046A000534620462946FBF7C8FE42463B46FBF7E9
:1046B0003CFF04460D4608E0032622462B46002018
:1046C0003B49FBF732FF04460D4622462B46104677
:1046D0001946FBF7B8FE8B46824602460B46FBF7AF
:1046E000B2FE07460246334888460B460621784408
:1046F000FFF718FA52465B46FBF7A5FE82462E48A6
:104700008B463A46434605217844FFF70BFA3A4672
:104710004346FBF798FE02460B46002E504659468C
:104720000CDAFBF7E9FD22462B46FBF78CFE01B0C5
:1047300022462B46BDE8F04FFBF782BEFBF7DCFDBF
:1047400022462B46FBF77FFE1C4A7A4402EBC60347
:10475000D3E90023FBF771FE22462B46FBF76DFEE3
:10476000174A7A4402EBC603D3E90023FBF768FE3D
:10477000009A002AB8BF81F00041BDE8F88F000020
:10478000000010440000F07F182D4454FB21F93F35
:10479000FB21F9BF0000DC3F0000203E0000F33F9A
:1047A0000000F03F0000E63F008003400000F83FBB
:1047B0000000F0BF8E0700004C070000EA06000072
:1047C000B20600002DE9F04D9446CCF1000423F030
:1047D00000464CEA0404524F46EAD4749A4688468E
:1047E00021F00042BC4206D8454240EA050442EAB4
:1047F000D474BC4204D9BDE8F04D6246FFF761BAFB
:10480000AAF14055A5F17F6555EA0C040BD00224AE
:1048100004EAAA74434DDFF810E144EAD87452EA7E
:10482000000B04D00CE0BDE8F04DFFF7BBBE002C40
:1048300014BF012CBDE8F08D022C30D0032C32D0F7
:1048400056EA0C0B0AD0BE4220D1BA4209D126F05A
:10485000804622F080423346114617E000291ADBD9
:1048600025E0DFF8C8B0FB44002C04BFDBE9000101
:10487000BDE8F08D012C02BFDBE9000181F00041B1
:10488000BDE8F08D022C0AD0032C0CD0BA4212D114
:10489000B8F1000F0BDA23482549BDE8F08D284612
:1048A0002449BDE8F08D28467146BDE8F08D1D48CD
:1048B0002149BDE8F08D921B12153C2AC4BF19484E
:1048C0001D490EDCBAF1000FBEBF12F13C0F0020F3
:1048D000014606DB6246FBF728FE21F00041FFF7A8
:1048E00061FE002C08BFBDE8F08D012C04BF81F0F3
:1048F0000041BDE8F08D114A114B022C07D0FBF7A7
:104900009CFD2A46BDE8F04D0A4BFBF796BDFBF730
:1049100094FD2A46BDE8F04D064BFBF791BD000023
:104920000000F07F182D4454FB2109C076060000DA
:10493000FB21F9BFFB210940FB21F93F075C143340
:1049400026A6A13C70B504460D46E1B20548FEF727
:1049500024FE00BF80210348FEF752FD0028F9D055
:10496000204670BD0038014098B000240025002783
:10497000A04600260020169015901490814682468D
:104980008346139012900224FDF70EF8FEF7BCFA4E
:104990004FF4E130FEF708FEE002D1490860400024
:1049A0000860FDF7DDF8FCF79DFB01213220FDF7E3
:1049B00065FD05460BE02946CAA0FEF74DFECE4830
:1049C000FCF7B8FB01213220FDF758FD0546002D0C
:1049D000F1D101213220FCF7B9FA05460BE0294656
:1049E000C6A0FEF739FEC448FCF7A4FB0121322023
:1049F000FCF7ACFA0546002DF1D1FDF7B3FB6EE1F3
:104A0000C4F103003C2191FBF0F1781CB0FBF1F202
:104A100001FB12073FB9B248001F006880F48050C4
:104A2000AF49091F0860BA49BA480068FBF792FE0F
:104A300008D24FF40050AA4908600821B648FCF794
:104A40001FFC11E008F101002821B0FBF1F201FB8D
:104A50001208B8F1000F07D1A148001F006880F4C8
:104A600000509F49091F0860AC48FDF725F8002C4D
:104A700058D1AB49AB48FDF77DFBAB480068FBF76D
:104A8000FFFDCDE91001A9480068FBF7F9FDCDE96C
:104A90000E01DDE91001CDE90001A5A0DDE90E233D
:104AA000FEF7DAFDA0480068FBF7EAFD21F00041BF
:104AB0000022A64BCDE91001FBF70EFE0DD200211E
:104AC00099480068FBF746FE01D2012000E0002073
:104AD00003211190FDF76AF9FDE094480068FBF7A7
:104AE000CFFD21F000410022984BCDE91001FBF7EA
:104AF000F3FD0DD200218D480068FBF72BFE01D29B
:104B0000012000E0002003211190FDF7CBF8E2E046
:104B100000210846FDF7C6F800210846FDF746F9D2
:104B20000124D8E0012C22D1761CC82ED4D9B6F5A8
:104B30007A7F10D2FDF740FCFCF7A6F984480168A3
:104B40001398FBF711FB1390824801685846FBF756
:104B50000BFB8346BFE080491398FBF78FFB139054
:104B60007D495846FBF78AFB83460224B3E06C4933
:104B70006C48FDF7FFFA6A496A48FCF763F80021C0
:104B80006A480068FDF794FD16901698FBF778FDCB
:104B900021F00041CDE90E01FBF759FD80B2002163
:104BA00011901698FBF7D6FD01D2012000E00020FD
:104BB00010901199FDF776F800215B480068FDF729
:104BC00031FE15901598FBF75BFD21F00041CDE912
:104BD0000E01FBF73CFD80B2002111901598FBF708
:104BE000B9FD01D2012000E0002010901199FDF7DD
:104BF000DDF858480068FCF7B9FF12905448139943
:104C00000068FBF703FB55490F90FBF705FB524982
:104C10001090FBF733FB51461190FBF7A5FA824643
:104C200059461298FBF7F2FA4C490F90FBF7F4FA49
:104C300049491090FBF722FB49461190FBF794FA83
:104C4000814600211298FDF7A7FE14901498FBF7F7
:104C500017FD21F00041CDE90E01FBF7F8FC80B211
:104C6000002111901498FBF775FD01D2012000E09E
:104C7000002010901199FDF71FF91498FBF700FD23
:104C8000CDE910014846FBF7FBFCCDE90E0150468B
:104C9000FBF7F6FCCDE90C015846FBF7F1FCCDE93A
:104CA0000A011398FBF7ECFCCDE90801DDE91001DE
:104CB000CDE90601DDE90E01CDE90401DDE90C01D4
:104CC000CDE90201DDE90A01CDE9000124A0DDE919
:104CD0000823FEF7C1FC41F28830FCF72BFA8FE67F
:104CE000100C01404572726F722D6D707536303543
:104CF000302D25640D0A0000400D03004572726FCF
:104D0000722D626F6172646D70752D25640D0A00DD
:104D10000000E0409001002000100140CDCC4C3F4D
:104D20000AD7A33BCDCC4C3D6C000020680000208E
:104D30005B23315D70697463683A20256620726F69
:104D40006C6C3A2025660D0A000000000000084047
:104D5000640000207801002000007A440000A04098
:104D600025662C25662C25662C25662C25660D0AC5
:104D70000000000000B5254B21F0004287B09A42A8
:104D800003DC0022134600922BE0214B9A4208D10B
:104D900040B94FF00100FEF7B5FFFEF794FF07B0F2
:104DA00000BD03DBFEF78AFF07B000BD02AAFEF7D5
:104DB00077FC10F003014FF001000DD0012914D051
:104DC00002291AD00DF1080C9CE80F00FEF72CFE0A
:104DD00007B081F0004100BD0DF1080C00909CE887
:104DE0000F00FEF7F5FE07B000BD0DF1080C9CE8C2
:104DF0000F00FEF719FE07B000BD0DF1080C009082
:104E00009CE80F00FEF7E4FEE2E70000FB21E93F2B
:104E10000000F07FFF0100004FBB610567ACDD3F84
:104E2000182D4454FB21E93F9BF681D20B73EF3FD1
:104E3000182D4454FB21F93FE2652F227F2B7A3C49
:104E4000075C143326A6813CBDCBF07A8807703C02
:104E5000075C143326A6913CC4EB98999999C9BF75
:104E6000711623FEC671BCBF6D9A74AFF2B0B3BFAA
:104E70009AFDDE522DDEADBF2F6C6A2C44B4A2BF6A
:104E80000D5555555555D53FFF8300922449C23FD6
:104E90006E204CC5CD45B73F513DD0A0660DB13F0A
:104EA000EB0D76244B7BA93F11DA22E33AAD903F1C
:104EB0004C5555555555A53F7751C1166CC156BF38
:104EC0009015CB19A001FA3EAD529C804F7E92BE48
:104ED000C4B1B4BD9EEE213ED43888BEE9FAA8BD67
:104EE000000000000000000000004054FB21F93FDA
:104EF0003163621A61B4D03D0000601A61B4D03DE4
:104F00007370032E8A19A33B0000002E8A19A33B5D
:104F1000C14920259A837B39000000000000000071
:104F20006E83F9A22915444ED15727FCC0DD34F514
:104F3000999562DB4190433CAB6351FE61C5BBDE9A
:104F40003A6E24B7E0D24D42EA2E49061C92D109AE
:104F50001CEB1DFE3EA729B1F53582E88444BB2E2B
:104F600026709CE9417E5FB439D69139F439538378
:104F70008B5F849C3B28F9BDFF97F81F0F9805DED7
:104F80008B112FEF1F6D0A5ACF7E366DB709CB27D5
:104F9000663F464F2DEA5F9EC7BA27757BF1E5EB6A
:104FA000F739073DEA92528AB15FFB6B085D8D1FAE
:104FB000A6F810111111813FD561C119A0012ABFB6
:104FC0007DFEB157E31DC73EEB9C2B8AE6E55ABE3A
:104FD0007CD5CF5A3AD9E53DF84F000800000020B3
:104FE0009C010000420A00081C5000089C0100209F
:104FF000BC0A0000F43C00081184A24A04680901BC
:10500000020304060708090C691005760204060865
:0C50100073803F0A18410C01DA00000018
:0400000508000145A9
:00000001FF
